{"abi":[{"type":"function","name":"addClaimTopic","inputs":[{"name":"_claimTopic","type":"uint256","internalType":"uint256"}],"outputs":[],"stateMutability":"nonpayable"},{"type":"function","name":"getClaimTopics","inputs":[],"outputs":[{"name":"","type":"uint256[]","internalType":"uint256[]"}],"stateMutability":"view"},{"type":"function","name":"init","inputs":[],"outputs":[],"stateMutability":"nonpayable"},{"type":"function","name":"owner","inputs":[],"outputs":[{"name":"","type":"address","internalType":"address"}],"stateMutability":"view"},{"type":"function","name":"removeClaimTopic","inputs":[{"name":"_claimTopic","type":"uint256","internalType":"uint256"}],"outputs":[],"stateMutability":"nonpayable"},{"type":"function","name":"renounceOwnership","inputs":[],"outputs":[],"stateMutability":"nonpayable"},{"type":"function","name":"transferOwnership","inputs":[{"name":"newOwner","type":"address","internalType":"address"}],"outputs":[],"stateMutability":"nonpayable"},{"type":"event","name":"ClaimTopicAdded","inputs":[{"name":"claimTopic","type":"uint256","indexed":true,"internalType":"uint256"}],"anonymous":false},{"type":"event","name":"ClaimTopicRemoved","inputs":[{"name":"claimTopic","type":"uint256","indexed":true,"internalType":"uint256"}],"anonymous":false},{"type":"event","name":"Initialized","inputs":[{"name":"version","type":"uint8","indexed":false,"internalType":"uint8"}],"anonymous":false},{"type":"event","name":"OwnershipTransferred","inputs":[{"name":"previousOwner","type":"address","indexed":true,"internalType":"address"},{"name":"newOwner","type":"address","indexed":true,"internalType":"address"}],"anonymous":false}],"bytecode":{"object":"0x608060405234801561001057600080fd5b50610eaf806100206000396000f3fe608060405234801561001057600080fd5b506004361061007d5760003560e01c8063c7b225511161005b578063c7b22551146100c6578063df09d604146100e2578063e1c7392a14610100578063f2fde38b1461010a5761007d565b80630829784614610082578063715018a61461009e5780638da5cb5b146100a8575b600080fd5b61009c60048036038101906100979190610810565b610126565b005b6100a6610227565b005b6100b061023b565b6040516100bd919061087e565b60405180910390f35b6100e060048036038101906100db9190610810565b610265565b005b6100ea610393565b6040516100f79190610957565b60405180910390f35b6101086103eb565b005b610124600480360381019061011f91906109a5565b610529565b005b61012e6105ac565b6000606580549050905060005b81811015610222578260658281548110610158576101576109d2565b5b90600052602060002001540361020f5760656001836101779190610a30565b81548110610188576101876109d2565b5b9060005260206000200154606582815481106101a7576101a66109d2565b5b906000526020600020018190555060658054806101c7576101c6610a64565b5b60019003818190600052602060002001600090559055827f0b1381093c776453c1bbe54fd68be1b235c65db61d099cb50d194b2991e0eec560405160405180910390a2610222565b808061021a90610a93565b91505061013b565b505050565b61022f6105ac565b610239600061062a565b565b6000603360009054906101000a900473ffffffffffffffffffffffffffffffffffffffff16905090565b61026d6105ac565b60006065805490509050600f81106102ba576040517f08c379a00000000000000000000000000000000000000000000000000000000081526004016102b190610b5e565b60405180910390fd5b60005b818110156103385782606582815481106102da576102d96109d2565b5b906000526020600020015403610325576040517f08c379a000000000000000000000000000000000000000000000000000000000815260040161031c90610bca565b60405180910390fd5b808061033090610a93565b9150506102bd565b506065829080600181540180825580915050600190039060005260206000200160009091909190915055817f01c928b7f7ade2949e92366aa9454dbef3a416b731cf6ec786ba9595bbd814d660405160405180910390a25050565b606060658054806020026020016040519081016040528092919081815260200182805480156103e157602002820191906000526020600020905b8154815260200190600101908083116103cd575b5050505050905090565b60008060019054906101000a900460ff1615905080801561041c5750600160008054906101000a900460ff1660ff16105b80610449575061042b306106f0565b1580156104485750600160008054906101000a900460ff1660ff16145b5b610488576040517f08c379a000000000000000000000000000000000000000000000000000000000815260040161047f90610c5c565b60405180910390fd5b60016000806101000a81548160ff021916908360ff16021790555080156104c5576001600060016101000a81548160ff0219169083151502179055505b6104cd610713565b80156105265760008060016101000a81548160ff0219169083151502179055507f7f26b83ff96e1f2b6a682f133852f6798a09c465da95921460cefb3847402498600160405161051d9190610cce565b60405180910390a15b50565b6105316105ac565b600073ffffffffffffffffffffffffffffffffffffffff168173ffffffffffffffffffffffffffffffffffffffff16036105a0576040517f08c379a000000000000000000000000000000000000000000000000000000000815260040161059790610d5b565b60405180910390fd5b6105a98161062a565b50565b6105b461076c565b73ffffffffffffffffffffffffffffffffffffffff166105d261023b565b73ffffffffffffffffffffffffffffffffffffffff1614610628576040517f08c379a000000000000000000000000000000000000000000000000000000000815260040161061f90610dc7565b60405180910390fd5b565b6000603360009054906101000a900473ffffffffffffffffffffffffffffffffffffffff16905081603360006101000a81548173ffffffffffffffffffffffffffffffffffffffff021916908373ffffffffffffffffffffffffffffffffffffffff1602179055508173ffffffffffffffffffffffffffffffffffffffff168173ffffffffffffffffffffffffffffffffffffffff167f8be0079c531659141344cd1fd0a4f28419497f9722a3daafe3b4186f6b6457e060405160405180910390a35050565b6000808273ffffffffffffffffffffffffffffffffffffffff163b119050919050565b600060019054906101000a900460ff16610762576040517f08c379a000000000000000000000000000000000000000000000000000000000815260040161075990610e59565b60405180910390fd5b61076a610774565b565b600033905090565b600060019054906101000a900460ff166107c3576040517f08c379a00000000000000000000000000000000000000000000000000000000081526004016107ba90610e59565b60405180910390fd5b6107d36107ce61076c565b61062a565b565b600080fd5b6000819050919050565b6107ed816107da565b81146107f857600080fd5b50565b60008135905061080a816107e4565b92915050565b600060208284031215610826576108256107d5565b5b6000610834848285016107fb565b91505092915050565b600073ffffffffffffffffffffffffffffffffffffffff82169050919050565b60006108688261083d565b9050919050565b6108788161085d565b82525050565b6000602082019050610893600083018461086f565b92915050565b600081519050919050565b600082825260208201905092915050565b6000819050602082019050919050565b6108ce816107da565b82525050565b60006108e083836108c5565b60208301905092915050565b6000602082019050919050565b600061090482610899565b61090e81856108a4565b9350610919836108b5565b8060005b8381101561094a57815161093188826108d4565b975061093c836108ec565b92505060018101905061091d565b5085935050505092915050565b6000602082019050818103600083015261097181846108f9565b905092915050565b6109828161085d565b811461098d57600080fd5b50565b60008135905061099f81610979565b92915050565b6000602082840312156109bb576109ba6107d5565b5b60006109c984828501610990565b91505092915050565b7f4e487b7100000000000000000000000000000000000000000000000000000000600052603260045260246000fd5b7f4e487b7100000000000000000000000000000000000000000000000000000000600052601160045260246000fd5b6000610a3b826107da565b9150610a46836107da565b9250828203905081811115610a5e57610a5d610a01565b5b92915050565b7f4e487b7100000000000000000000000000000000000000000000000000000000600052603160045260246000fd5b6000610a9e826107da565b91507fffffffffffffffffffffffffffffffffffffffffffffffffffffffffffffffff8203610ad057610acf610a01565b5b600182019050919050565b600082825260208201905092915050565b7f63616e6e6f742072657175697265206d6f7265207468616e20313520746f706960008201527f6373000000000000000000000000000000000000000000000000000000000000602082015250565b6000610b48602283610adb565b9150610b5382610aec565b604082019050919050565b60006020820190508181036000830152610b7781610b3b565b9050919050565b7f636c61696d546f70696320616c72656164792065786973747300000000000000600082015250565b6000610bb4601983610adb565b9150610bbf82610b7e565b602082019050919050565b60006020820190508181036000830152610be381610ba7565b9050919050565b7f496e697469616c697a61626c653a20636f6e747261637420697320616c72656160008201527f647920696e697469616c697a6564000000000000000000000000000000000000602082015250565b6000610c46602e83610adb565b9150610c5182610bea565b604082019050919050565b60006020820190508181036000830152610c7581610c39565b9050919050565b6000819050919050565b600060ff82169050919050565b6000819050919050565b6000610cb8610cb3610cae84610c7c565b610c93565b610c86565b9050919050565b610cc881610c9d565b82525050565b6000602082019050610ce36000830184610cbf565b92915050565b7f4f776e61626c653a206e6577206f776e657220697320746865207a65726f206160008201527f6464726573730000000000000000000000000000000000000000000000000000602082015250565b6000610d45602683610adb565b9150610d5082610ce9565b604082019050919050565b60006020820190508181036000830152610d7481610d38565b9050919050565b7f4f776e61626c653a2063616c6c6572206973206e6f7420746865206f776e6572600082015250565b6000610db1602083610adb565b9150610dbc82610d7b565b602082019050919050565b60006020820190508181036000830152610de081610da4565b9050919050565b7f496e697469616c697a61626c653a20636f6e7472616374206973206e6f74206960008201527f6e697469616c697a696e67000000000000000000000000000000000000000000602082015250565b6000610e43602b83610adb565b9150610e4e82610de7565b604082019050919050565b60006020820190508181036000830152610e7281610e36565b905091905056fea2646970667358221220612491a33019a717b8314179277f8f8702582c767d5a96150ec827072669f29264736f6c63430008110033","linkReferences":{}},"methodIdentifiers":{"addClaimTopic(uint256)":"c7b22551","getClaimTopics()":"df09d604","init()":"e1c7392a","owner()":"8da5cb5b","removeClaimTopic(uint256)":"08297846","renounceOwnership()":"715018a6","transferOwnership(address)":"f2fde38b"},"id":48}