{"abi":[{"type":"function","name":"bindCompliance","inputs":[{"name":"_compliance","type":"address","internalType":"address"}],"outputs":[],"stateMutability":"nonpayable"},{"type":"function","name":"blockModule","inputs":[{"name":"_blocked","type":"bool","internalType":"bool"}],"outputs":[],"stateMutability":"nonpayable"},{"type":"function","name":"canComplianceBind","inputs":[{"name":"_compliance","type":"address","internalType":"address"}],"outputs":[{"name":"","type":"bool","internalType":"bool"}],"stateMutability":"view"},{"type":"function","name":"doSomething","inputs":[{"name":"_value","type":"uint256","internalType":"uint256"}],"outputs":[],"stateMutability":"nonpayable"},{"type":"function","name":"initialize","inputs":[],"outputs":[],"stateMutability":"nonpayable"},{"type":"function","name":"isComplianceBound","inputs":[{"name":"_compliance","type":"address","internalType":"address"}],"outputs":[{"name":"","type":"bool","internalType":"bool"}],"stateMutability":"view"},{"type":"function","name":"isPlugAndPlay","inputs":[],"outputs":[{"name":"","type":"bool","internalType":"bool"}],"stateMutability":"pure"},{"type":"function","name":"moduleBurnAction","inputs":[{"name":"_from","type":"address","internalType":"address"},{"name":"_value","type":"uint256","internalType":"uint256"}],"outputs":[],"stateMutability":"nonpayable"},{"type":"function","name":"moduleCheck","inputs":[{"name":"","type":"address","internalType":"address"},{"name":"_to","type":"address","internalType":"address"},{"name":"_value","type":"uint256","internalType":"uint256"},{"name":"_compliance","type":"address","internalType":"address"}],"outputs":[{"name":"","type":"bool","internalType":"bool"}],"stateMutability":"view"},{"type":"function","name":"moduleMintAction","inputs":[{"name":"_to","type":"address","internalType":"address"},{"name":"_value","type":"uint256","internalType":"uint256"}],"outputs":[],"stateMutability":"nonpayable"},{"type":"function","name":"moduleTransferAction","inputs":[{"name":"_from","type":"address","internalType":"address"},{"name":"_to","type":"address","internalType":"address"},{"name":"_value","type":"uint256","internalType":"uint256"}],"outputs":[],"stateMutability":"nonpayable"},{"type":"function","name":"name","inputs":[],"outputs":[{"name":"_name","type":"string","internalType":"string"}],"stateMutability":"pure"},{"type":"function","name":"owner","inputs":[],"outputs":[{"name":"","type":"address","internalType":"address"}],"stateMutability":"view"},{"type":"function","name":"proxiableUUID","inputs":[],"outputs":[{"name":"","type":"bytes32","internalType":"bytes32"}],"stateMutability":"view"},{"type":"function","name":"renounceOwnership","inputs":[],"outputs":[],"stateMutability":"nonpayable"},{"type":"function","name":"transferOwnership","inputs":[{"name":"newOwner","type":"address","internalType":"address"}],"outputs":[],"stateMutability":"nonpayable"},{"type":"function","name":"unbindCompliance","inputs":[{"name":"_compliance","type":"address","internalType":"address"}],"outputs":[],"stateMutability":"nonpayable"},{"type":"function","name":"upgradeTo","inputs":[{"name":"newImplementation","type":"address","internalType":"address"}],"outputs":[],"stateMutability":"nonpayable"},{"type":"function","name":"upgradeToAndCall","inputs":[{"name":"newImplementation","type":"address","internalType":"address"},{"name":"data","type":"bytes","internalType":"bytes"}],"outputs":[],"stateMutability":"payable"},{"type":"event","name":"AdminChanged","inputs":[{"name":"previousAdmin","type":"address","indexed":false,"internalType":"address"},{"name":"newAdmin","type":"address","indexed":false,"internalType":"address"}],"anonymous":false},{"type":"event","name":"BeaconUpgraded","inputs":[{"name":"beacon","type":"address","indexed":true,"internalType":"address"}],"anonymous":false},{"type":"event","name":"ComplianceBound","inputs":[{"name":"_compliance","type":"address","indexed":true,"internalType":"address"}],"anonymous":false},{"type":"event","name":"ComplianceUnbound","inputs":[{"name":"_compliance","type":"address","indexed":true,"internalType":"address"}],"anonymous":false},{"type":"event","name":"Initialized","inputs":[{"name":"version","type":"uint8","indexed":false,"internalType":"uint8"}],"anonymous":false},{"type":"event","name":"OwnershipTransferred","inputs":[{"name":"previousOwner","type":"address","indexed":true,"internalType":"address"},{"name":"newOwner","type":"address","indexed":true,"internalType":"address"}],"anonymous":false},{"type":"event","name":"Upgraded","inputs":[{"name":"implementation","type":"address","indexed":true,"internalType":"address"}],"anonymous":false}],"bytecode":{"object":"0x60a06040523073ffffffffffffffffffffffffffffffffffffffff1660809073ffffffffffffffffffffffffffffffffffffffff1681525034801561004357600080fd5b506080516128d561007b6000396000818161089a0152818161092801528181610d3e01528181610dcc0152610e7c01526128d56000f3fe6080604052600436106101145760003560e01c80634f1ef286116100a0578063a6b206bf11610064578063a6b206bf14610354578063bcc210531461037d578063e6f5e807146103ba578063f104a8c9146103e5578063f2fde38b1461040e57610114565b80634f1ef286146102b457806352d1902d146102d0578063715018a6146102fb5780638129fc1c146103125780638da5cb5b1461032957610114565b80632cb7e1ec116100e75780632cb7e1ec146101d35780633659cfe6146101fc578063372491a2146102255780634a9325441461024e5780634cf4d2951461027757610114565b8063013b7ce4146101195780630694a5fb1461015657806306fdde031461017f57806316a10ba2146101aa575b600080fd5b34801561012557600080fd5b50610140600480360381019061013b9190611b00565b610437565b60405161014d9190611b82565b60405180910390f35b34801561016257600080fd5b5061017d60048036038101906101789190611b9d565b6104a1565b005b34801561018b57600080fd5b506101946106c6565b6040516101a19190611c5a565b60405180910390f35b3480156101b657600080fd5b506101d160048036038101906101cc9190611ca8565b610703565b005b3480156101df57600080fd5b506101fa60048036038101906101f59190611cd5565b6107f8565b005b34801561020857600080fd5b50610223600480360381019061021e9190611b9d565b610898565b005b34801561023157600080fd5b5061024c60048036038101906102479190611d28565b610a20565b005b34801561025a57600080fd5b5061027560048036038101906102709190611b9d565b610abf565b005b34801561028357600080fd5b5061029e60048036038101906102999190611b9d565b610cd8565b6040516102ab9190611b82565b60405180910390f35b6102ce60048036038101906102c99190611e9d565b610d3c565b005b3480156102dc57600080fd5b506102e5610e78565b6040516102f29190611f12565b60405180910390f35b34801561030757600080fd5b50610310610f31565b005b34801561031e57600080fd5b50610327610f45565b005b34801561033557600080fd5b5061033e611083565b60405161034b9190611f3c565b60405180910390f35b34801561036057600080fd5b5061037b60048036038101906103769190611f57565b6110ad565b005b34801561038957600080fd5b506103a4600480360381019061039f9190611b9d565b61118f565b6040516103b19190611b82565b60405180910390f35b3480156103c657600080fd5b506103cf61119a565b6040516103dc9190611b82565b60405180910390f35b3480156103f157600080fd5b5061040c60048036038101906104079190611d28565b6111a3565b005b34801561041a57600080fd5b5061043560048036038101906104309190611b9d565b611242565b005b600060ca60008373ffffffffffffffffffffffffffffffffffffffff1673ffffffffffffffffffffffffffffffffffffffff16815260200190815260200160002060009054906101000a900460ff16156104945760009050610499565b600190505b949350505050565b60006104ab6112c5565b90508060000160003373ffffffffffffffffffffffffffffffffffffffff1673ffffffffffffffffffffffffffffffffffffffff16815260200190815260200160002060009054906101000a900460ff1661053b576040517f08c379a000000000000000000000000000000000000000000000000000000000815260040161053290611fd0565b60405180910390fd5b60006105456112c5565b9050600073ffffffffffffffffffffffffffffffffffffffff168373ffffffffffffffffffffffffffffffffffffffff16036105b6576040517f08c379a00000000000000000000000000000000000000000000000000000000081526004016105ad9061203c565b60405180910390fd5b8273ffffffffffffffffffffffffffffffffffffffff163373ffffffffffffffffffffffffffffffffffffffff1614610624576040517f08c379a000000000000000000000000000000000000000000000000000000000815260040161061b906120ce565b60405180910390fd5b60008160000160008573ffffffffffffffffffffffffffffffffffffffff1673ffffffffffffffffffffffffffffffffffffffff16815260200190815260200160002060006101000a81548160ff0219169083151502179055508273ffffffffffffffffffffffffffffffffffffffff167f408b49d9be1c914c52a0227e18a077e5a892dddf32a26cfa94a5d9708fad771860405160405180910390a2505050565b60606040518060400160405280600a81526020017f546573744d6f64756c6500000000000000000000000000000000000000000000815250905090565b600061070d6112c5565b90508060000160003373ffffffffffffffffffffffffffffffffffffffff1673ffffffffffffffffffffffffffffffffffffffff16815260200190815260200160002060009054906101000a900460ff1661079d576040517f08c379a000000000000000000000000000000000000000000000000000000000815260040161079490611fd0565b60405180910390fd5b8160ca60003373ffffffffffffffffffffffffffffffffffffffff1673ffffffffffffffffffffffffffffffffffffffff16815260200190815260200160002060006101000a81548160ff0219169083151502179055505050565b60006108026112c5565b90508060000160003373ffffffffffffffffffffffffffffffffffffffff1673ffffffffffffffffffffffffffffffffffffffff16815260200190815260200160002060009054906101000a900460ff16610892576040517f08c379a000000000000000000000000000000000000000000000000000000000815260040161088990611fd0565b60405180910390fd5b50505050565b7f000000000000000000000000000000000000000000000000000000000000000073ffffffffffffffffffffffffffffffffffffffff163073ffffffffffffffffffffffffffffffffffffffff1603610926576040517f08c379a000000000000000000000000000000000000000000000000000000000815260040161091d90612160565b60405180910390fd5b7f000000000000000000000000000000000000000000000000000000000000000073ffffffffffffffffffffffffffffffffffffffff166109656112ed565b73ffffffffffffffffffffffffffffffffffffffff16146109bb576040517f08c379a00000000000000000000000000000000000000000000000000000000081526004016109b2906121f2565b60405180910390fd5b6109c481611344565b610a1d81600067ffffffffffffffff8111156109e3576109e2611d72565b5b6040519080825280601f01601f191660200182016040528015610a155781602001600182028036833780820191505090505b50600061134f565b50565b6000610a2a6112c5565b90508060000160003373ffffffffffffffffffffffffffffffffffffffff1673ffffffffffffffffffffffffffffffffffffffff16815260200190815260200160002060009054906101000a900460ff16610aba576040517f08c379a0000000000000000000000000000000000000000000000000000000008152600401610ab190611fd0565b60405180910390fd5b505050565b6000610ac96112c5565b9050600073ffffffffffffffffffffffffffffffffffffffff168273ffffffffffffffffffffffffffffffffffffffff1603610b3a576040517f08c379a0000000000000000000000000000000000000000000000000000000008152600401610b319061203c565b60405180910390fd5b8060000160008373ffffffffffffffffffffffffffffffffffffffff1673ffffffffffffffffffffffffffffffffffffffff16815260200190815260200160002060009054906101000a900460ff1615610bc9576040517f08c379a0000000000000000000000000000000000000000000000000000000008152600401610bc09061225e565b60405180910390fd5b8173ffffffffffffffffffffffffffffffffffffffff163373ffffffffffffffffffffffffffffffffffffffff1614610c37576040517f08c379a0000000000000000000000000000000000000000000000000000000008152600401610c2e906120ce565b60405180910390fd5b60018160000160008473ffffffffffffffffffffffffffffffffffffffff1673ffffffffffffffffffffffffffffffffffffffff16815260200190815260200160002060006101000a81548160ff0219169083151502179055508173ffffffffffffffffffffffffffffffffffffffff167f1f7b76c58fb697eb53c6c7c1becb96911516a136e24d7ced386b2355358b75a360405160405180910390a25050565b600080610ce36112c5565b90508060000160008473ffffffffffffffffffffffffffffffffffffffff1673ffffffffffffffffffffffffffffffffffffffff16815260200190815260200160002060009054906101000a900460ff16915050919050565b7f000000000000000000000000000000000000000000000000000000000000000073ffffffffffffffffffffffffffffffffffffffff163073ffffffffffffffffffffffffffffffffffffffff1603610dca576040517f08c379a0000000000000000000000000000000000000000000000000000000008152600401610dc190612160565b60405180910390fd5b7f000000000000000000000000000000000000000000000000000000000000000073ffffffffffffffffffffffffffffffffffffffff16610e096112ed565b73ffffffffffffffffffffffffffffffffffffffff1614610e5f576040517f08c379a0000000000000000000000000000000000000000000000000000000008152600401610e56906121f2565b60405180910390fd5b610e6882611344565b610e748282600161134f565b5050565b60007f000000000000000000000000000000000000000000000000000000000000000073ffffffffffffffffffffffffffffffffffffffff163073ffffffffffffffffffffffffffffffffffffffff1614610f08576040517f08c379a0000000000000000000000000000000000000000000000000000000008152600401610eff906122f0565b60405180910390fd5b7f360894a13ba1a3210667c828492db98dca3e2076cc3735a920a3ca505d382bbc60001b905090565b610f396114bd565b610f43600061153b565b565b60008060019054906101000a900460ff16159050808015610f765750600160008054906101000a900460ff1660ff16105b80610fa35750610f8530611601565b158015610fa25750600160008054906101000a900460ff1660ff16145b5b610fe2576040517f08c379a0000000000000000000000000000000000000000000000000000000008152600401610fd990612382565b60405180910390fd5b60016000806101000a81548160ff021916908360ff160217905550801561101f576001600060016101000a81548160ff0219169083151502179055505b611027611624565b80156110805760008060016101000a81548160ff0219169083151502179055507f7f26b83ff96e1f2b6a682f133852f6798a09c465da95921460cefb3847402498600160405161107791906123f4565b60405180910390a15b50565b6000603360009054906101000a900473ffffffffffffffffffffffffffffffffffffffff16905090565b60006110b76112c5565b90508060000160003373ffffffffffffffffffffffffffffffffffffffff1673ffffffffffffffffffffffffffffffffffffffff16815260200190815260200160002060009054906101000a900460ff16611147576040517f08c379a000000000000000000000000000000000000000000000000000000000815260040161113e90611fd0565b60405180910390fd5b8160c960003373ffffffffffffffffffffffffffffffffffffffff1673ffffffffffffffffffffffffffffffffffffffff168152602001908152602001600020819055505050565b600060019050919050565b60006001905090565b60006111ad6112c5565b90508060000160003373ffffffffffffffffffffffffffffffffffffffff1673ffffffffffffffffffffffffffffffffffffffff16815260200190815260200160002060009054906101000a900460ff1661123d576040517f08c379a000000000000000000000000000000000000000000000000000000000815260040161123490611fd0565b60405180910390fd5b505050565b61124a6114bd565b600073ffffffffffffffffffffffffffffffffffffffff168173ffffffffffffffffffffffffffffffffffffffff16036112b9576040517f08c379a00000000000000000000000000000000000000000000000000000000081526004016112b090612481565b60405180910390fd5b6112c28161153b565b50565b60007ff6cc97de1266c180cd39f3b311632644143ce7873d2927755382ad4b39e8ae00905090565b600061131b7f360894a13ba1a3210667c828492db98dca3e2076cc3735a920a3ca505d382bbc60001b611685565b60000160009054906101000a900473ffffffffffffffffffffffffffffffffffffffff16905090565b61134c6114bd565b50565b61137b7f4910fdfa16fed3260ed0e7147f7cc6da11a60208b5b9406d12a635614ffd914360001b61168f565b60000160009054906101000a900460ff161561139f5761139a83611699565b6114b8565b8273ffffffffffffffffffffffffffffffffffffffff166352d1902d6040518163ffffffff1660e01b8152600401602060405180830381865afa92505050801561140757506040513d601f19601f8201168201806040525081019061140491906124cd565b60015b611446576040517f08c379a000000000000000000000000000000000000000000000000000000000815260040161143d9061256c565b60405180910390fd5b7f360894a13ba1a3210667c828492db98dca3e2076cc3735a920a3ca505d382bbc60001b81146114ab576040517f08c379a00000000000000000000000000000000000000000000000000000000081526004016114a2906125fe565b60405180910390fd5b506114b7838383611752565b5b505050565b6114c561177e565b73ffffffffffffffffffffffffffffffffffffffff166114e3611083565b73ffffffffffffffffffffffffffffffffffffffff1614611539576040517f08c379a00000000000000000000000000000000000000000000000000000000081526004016115309061266a565b60405180910390fd5b565b6000603360009054906101000a900473ffffffffffffffffffffffffffffffffffffffff16905081603360006101000a81548173ffffffffffffffffffffffffffffffffffffffff021916908373ffffffffffffffffffffffffffffffffffffffff1602179055508173ffffffffffffffffffffffffffffffffffffffff168173ffffffffffffffffffffffffffffffffffffffff167f8be0079c531659141344cd1fd0a4f28419497f9722a3daafe3b4186f6b6457e060405160405180910390a35050565b6000808273ffffffffffffffffffffffffffffffffffffffff163b119050919050565b600060019054906101000a900460ff16611673576040517f08c379a000000000000000000000000000000000000000000000000000000000815260040161166a906126fc565b60405180910390fd5b61167b611786565b6116836117df565b565b6000819050919050565b6000819050919050565b6116a281611601565b6116e1576040517f08c379a00000000000000000000000000000000000000000000000000000000081526004016116d89061278e565b60405180910390fd5b8061170e7f360894a13ba1a3210667c828492db98dca3e2076cc3735a920a3ca505d382bbc60001b611685565b60000160006101000a81548173ffffffffffffffffffffffffffffffffffffffff021916908373ffffffffffffffffffffffffffffffffffffffff16021790555050565b61175b83611830565b6000825111806117685750805b1561177957611777838361187f565b505b505050565b600033905090565b600060019054906101000a900460ff166117d5576040517f08c379a00000000000000000000000000000000000000000000000000000000081526004016117cc906126fc565b60405180910390fd5b6117dd6118ac565b565b600060019054906101000a900460ff1661182e576040517f08c379a0000000000000000000000000000000000000000000000000000000008152600401611825906126fc565b60405180910390fd5b565b61183981611699565b8073ffffffffffffffffffffffffffffffffffffffff167fbc7cd75a20ee27fd9adebab32041f755214dbc6bffa90cc0225b39da2e5c2d3b60405160405180910390a250565b60606118a483836040518060600160405280602781526020016128796027913961190d565b905092915050565b600060019054906101000a900460ff166118fb576040517f08c379a00000000000000000000000000000000000000000000000000000000081526004016118f2906126fc565b60405180910390fd5b61190b61190661177e565b61153b565b565b60606000808573ffffffffffffffffffffffffffffffffffffffff168560405161193791906127f5565b600060405180830381855af49150503d8060008114611972576040519150601f19603f3d011682016040523d82523d6000602084013e611977565b606091505b509150915061198886838387611993565b925050509392505050565b606083156119f55760008351036119ed576119ad85611601565b6119ec576040517f08c379a00000000000000000000000000000000000000000000000000000000081526004016119e390612858565b60405180910390fd5b5b829050611a00565b6119ff8383611a08565b5b949350505050565b600082511115611a1b5781518083602001fd5b806040517f08c379a0000000000000000000000000000000000000000000000000000000008152600401611a4f9190611c5a565b60405180910390fd5b6000604051905090565b600080fd5b600080fd5b600073ffffffffffffffffffffffffffffffffffffffff82169050919050565b6000611a9782611a6c565b9050919050565b611aa781611a8c565b8114611ab257600080fd5b50565b600081359050611ac481611a9e565b92915050565b6000819050919050565b611add81611aca565b8114611ae857600080fd5b50565b600081359050611afa81611ad4565b92915050565b60008060008060808587031215611b1a57611b19611a62565b5b6000611b2887828801611ab5565b9450506020611b3987828801611ab5565b9350506040611b4a87828801611aeb565b9250506060611b5b87828801611ab5565b91505092959194509250565b60008115159050919050565b611b7c81611b67565b82525050565b6000602082019050611b976000830184611b73565b92915050565b600060208284031215611bb357611bb2611a62565b5b6000611bc184828501611ab5565b91505092915050565b600081519050919050565b600082825260208201905092915050565b60005b83811015611c04578082015181840152602081019050611be9565b60008484015250505050565b6000601f19601f8301169050919050565b6000611c2c82611bca565b611c368185611bd5565b9350611c46818560208601611be6565b611c4f81611c10565b840191505092915050565b60006020820190508181036000830152611c748184611c21565b905092915050565b611c8581611b67565b8114611c9057600080fd5b50565b600081359050611ca281611c7c565b92915050565b600060208284031215611cbe57611cbd611a62565b5b6000611ccc84828501611c93565b91505092915050565b600080600060608486031215611cee57611ced611a62565b5b6000611cfc86828701611ab5565b9350506020611d0d86828701611ab5565b9250506040611d1e86828701611aeb565b9150509250925092565b60008060408385031215611d3f57611d3e611a62565b5b6000611d4d85828601611ab5565b9250506020611d5e85828601611aeb565b9150509250929050565b600080fd5b600080fd5b7f4e487b7100000000000000000000000000000000000000000000000000000000600052604160045260246000fd5b611daa82611c10565b810181811067ffffffffffffffff82111715611dc957611dc8611d72565b5b80604052505050565b6000611ddc611a58565b9050611de88282611da1565b919050565b600067ffffffffffffffff821115611e0857611e07611d72565b5b611e1182611c10565b9050602081019050919050565b82818337600083830152505050565b6000611e40611e3b84611ded565b611dd2565b905082815260208101848484011115611e5c57611e5b611d6d565b5b611e67848285611e1e565b509392505050565b600082601f830112611e8457611e83611d68565b5b8135611e94848260208601611e2d565b91505092915050565b60008060408385031215611eb457611eb3611a62565b5b6000611ec285828601611ab5565b925050602083013567ffffffffffffffff811115611ee357611ee2611a67565b5b611eef85828601611e6f565b9150509250929050565b6000819050919050565b611f0c81611ef9565b82525050565b6000602082019050611f276000830184611f03565b92915050565b611f3681611a8c565b82525050565b6000602082019050611f516000830184611f2d565b92915050565b600060208284031215611f6d57611f6c611a62565b5b6000611f7b84828501611aeb565b91505092915050565b7f6f6e6c7920626f756e6420636f6d706c69616e63652063616e2063616c6c0000600082015250565b6000611fba601e83611bd5565b9150611fc582611f84565b602082019050919050565b60006020820190508181036000830152611fe981611fad565b9050919050565b7f696e76616c696420617267756d656e74202d207a65726f206164647265737300600082015250565b6000612026601f83611bd5565b915061203182611ff0565b602082019050919050565b6000602082019050818103600083015261205581612019565b9050919050565b7f6f6e6c7920636f6d706c69616e636520636f6e74726163742063616e2063616c60008201527f6c00000000000000000000000000000000000000000000000000000000000000602082015250565b60006120b8602183611bd5565b91506120c38261205c565b604082019050919050565b600060208201905081810360008301526120e7816120ab565b9050919050565b7f46756e6374696f6e206d7573742062652063616c6c6564207468726f7567682060008201527f64656c656761746563616c6c0000000000000000000000000000000000000000602082015250565b600061214a602c83611bd5565b9150612155826120ee565b604082019050919050565b600060208201905081810360008301526121798161213d565b9050919050565b7f46756e6374696f6e206d7573742062652063616c6c6564207468726f7567682060008201527f6163746976652070726f78790000000000000000000000000000000000000000602082015250565b60006121dc602c83611bd5565b91506121e782612180565b604082019050919050565b6000602082019050818103600083015261220b816121cf565b9050919050565b7f636f6d706c69616e636520616c726561647920626f756e640000000000000000600082015250565b6000612248601883611bd5565b915061225382612212565b602082019050919050565b600060208201905081810360008301526122778161223b565b9050919050565b7f555550535570677261646561626c653a206d757374206e6f742062652063616c60008201527f6c6564207468726f7567682064656c656761746563616c6c0000000000000000602082015250565b60006122da603883611bd5565b91506122e58261227e565b604082019050919050565b60006020820190508181036000830152612309816122cd565b9050919050565b7f496e697469616c697a61626c653a20636f6e747261637420697320616c72656160008201527f647920696e697469616c697a6564000000000000000000000000000000000000602082015250565b600061236c602e83611bd5565b915061237782612310565b604082019050919050565b6000602082019050818103600083015261239b8161235f565b9050919050565b6000819050919050565b600060ff82169050919050565b6000819050919050565b60006123de6123d96123d4846123a2565b6123b9565b6123ac565b9050919050565b6123ee816123c3565b82525050565b600060208201905061240960008301846123e5565b92915050565b7f4f776e61626c653a206e6577206f776e657220697320746865207a65726f206160008201527f6464726573730000000000000000000000000000000000000000000000000000602082015250565b600061246b602683611bd5565b91506124768261240f565b604082019050919050565b6000602082019050818103600083015261249a8161245e565b9050919050565b6124aa81611ef9565b81146124b557600080fd5b50565b6000815190506124c7816124a1565b92915050565b6000602082840312156124e3576124e2611a62565b5b60006124f1848285016124b8565b91505092915050565b7f45524331393637557067726164653a206e657720696d706c656d656e7461746960008201527f6f6e206973206e6f742055555053000000000000000000000000000000000000602082015250565b6000612556602e83611bd5565b9150612561826124fa565b604082019050919050565b6000602082019050818103600083015261258581612549565b9050919050565b7f45524331393637557067726164653a20756e737570706f727465642070726f7860008201527f6961626c65555549440000000000000000000000000000000000000000000000602082015250565b60006125e8602983611bd5565b91506125f38261258c565b604082019050919050565b60006020820190508181036000830152612617816125db565b9050919050565b7f4f776e61626c653a2063616c6c6572206973206e6f7420746865206f776e6572600082015250565b6000612654602083611bd5565b915061265f8261261e565b602082019050919050565b6000602082019050818103600083015261268381612647565b9050919050565b7f496e697469616c697a61626c653a20636f6e7472616374206973206e6f74206960008201527f6e697469616c697a696e67000000000000000000000000000000000000000000602082015250565b60006126e6602b83611bd5565b91506126f18261268a565b604082019050919050565b60006020820190508181036000830152612715816126d9565b9050919050565b7f455243313936373a206e657720696d706c656d656e746174696f6e206973206e60008201527f6f74206120636f6e747261637400000000000000000000000000000000000000602082015250565b6000612778602d83611bd5565b91506127838261271c565b604082019050919050565b600060208201905081810360008301526127a78161276b565b9050919050565b600081519050919050565b600081905092915050565b60006127cf826127ae565b6127d981856127b9565b93506127e9818560208601611be6565b80840191505092915050565b600061280182846127c4565b915081905092915050565b7f416464726573733a2063616c6c20746f206e6f6e2d636f6e7472616374000000600082015250565b6000612842601d83611bd5565b915061284d8261280c565b602082019050919050565b6000602082019050818103600083015261287181612835565b905091905056fe416464726573733a206c6f772d6c6576656c2064656c65676174652063616c6c206661696c6564a26469706673582212200202efa774565891302e526193ea1af2737820b639ea0d07bc2234e2d29bc3b764736f6c63430008110033","linkReferences":{}},"methodIdentifiers":{"bindCompliance(address)":"4a932544","blockModule(bool)":"16a10ba2","canComplianceBind(address)":"bcc21053","doSomething(uint256)":"a6b206bf","initialize()":"8129fc1c","isComplianceBound(address)":"4cf4d295","isPlugAndPlay()":"e6f5e807","moduleBurnAction(address,uint256)":"372491a2","moduleCheck(address,address,uint256,address)":"013b7ce4","moduleMintAction(address,uint256)":"f104a8c9","moduleTransferAction(address,address,uint256)":"2cb7e1ec","name()":"06fdde03","owner()":"8da5cb5b","proxiableUUID()":"52d1902d","renounceOwnership()":"715018a6","transferOwnership(address)":"f2fde38b","unbindCompliance(address)":"0694a5fb","upgradeTo(address)":"3659cfe6","upgradeToAndCall(address,bytes)":"4f1ef286"},"id":31}