{"abi":[{"type":"function","name":"addAgent","inputs":[{"name":"_agent","type":"address","internalType":"address"}],"outputs":[],"stateMutability":"nonpayable"},{"type":"function","name":"addTokenAgent","inputs":[{"name":"_agentAddress","type":"address","internalType":"address"}],"outputs":[],"stateMutability":"nonpayable"},{"type":"function","name":"batchUnWhitelistCountries","inputs":[{"name":"_countries","type":"uint16[]","internalType":"uint16[]"}],"outputs":[],"stateMutability":"nonpayable"},{"type":"function","name":"batchWhitelistCountries","inputs":[{"name":"_countries","type":"uint16[]","internalType":"uint16[]"}],"outputs":[],"stateMutability":"nonpayable"},{"type":"function","name":"bindToken","inputs":[{"name":"_token","type":"address","internalType":"address"}],"outputs":[],"stateMutability":"nonpayable"},{"type":"function","name":"canTransfer","inputs":[{"name":"_from","type":"address","internalType":"address"},{"name":"_to","type":"address","internalType":"address"},{"name":"_value","type":"uint256","internalType":"uint256"}],"outputs":[{"name":"","type":"bool","internalType":"bool"}],"stateMutability":"view"},{"type":"function","name":"complianceCheckOnCountryWhitelisting","inputs":[{"name":"","type":"address","internalType":"address"},{"name":"_to","type":"address","internalType":"address"},{"name":"","type":"uint256","internalType":"uint256"}],"outputs":[{"name":"","type":"bool","internalType":"bool"}],"stateMutability":"view"},{"type":"function","name":"created","inputs":[{"name":"_to","type":"address","internalType":"address"},{"name":"_value","type":"uint256","internalType":"uint256"}],"outputs":[],"stateMutability":"nonpayable"},{"type":"function","name":"destroyed","inputs":[{"name":"_from","type":"address","internalType":"address"},{"name":"_value","type":"uint256","internalType":"uint256"}],"outputs":[],"stateMutability":"nonpayable"},{"type":"function","name":"isAgent","inputs":[{"name":"_agent","type":"address","internalType":"address"}],"outputs":[{"name":"","type":"bool","internalType":"bool"}],"stateMutability":"view"},{"type":"function","name":"isCountryWhitelisted","inputs":[{"name":"_country","type":"uint16","internalType":"uint16"}],"outputs":[{"name":"","type":"bool","internalType":"bool"}],"stateMutability":"view"},{"type":"function","name":"isTokenAgent","inputs":[{"name":"_agentAddress","type":"address","internalType":"address"}],"outputs":[{"name":"","type":"bool","internalType":"bool"}],"stateMutability":"view"},{"type":"function","name":"isTokenBound","inputs":[{"name":"_token","type":"address","internalType":"address"}],"outputs":[{"name":"","type":"bool","internalType":"bool"}],"stateMutability":"view"},{"type":"function","name":"owner","inputs":[],"outputs":[{"name":"","type":"address","internalType":"address"}],"stateMutability":"view"},{"type":"function","name":"removeAgent","inputs":[{"name":"_agent","type":"address","internalType":"address"}],"outputs":[],"stateMutability":"nonpayable"},{"type":"function","name":"removeTokenAgent","inputs":[{"name":"_agentAddress","type":"address","internalType":"address"}],"outputs":[],"stateMutability":"nonpayable"},{"type":"function","name":"renounceOwnership","inputs":[],"outputs":[],"stateMutability":"nonpayable"},{"type":"function","name":"tokenBound","inputs":[],"outputs":[{"name":"","type":"address","internalType":"contract IToken"}],"stateMutability":"view"},{"type":"function","name":"transferOwnership","inputs":[{"name":"newOwner","type":"address","internalType":"address"}],"outputs":[],"stateMutability":"nonpayable"},{"type":"function","name":"transferred","inputs":[{"name":"_from","type":"address","internalType":"address"},{"name":"_to","type":"address","internalType":"address"},{"name":"_value","type":"uint256","internalType":"uint256"}],"outputs":[],"stateMutability":"nonpayable"},{"type":"function","name":"unWhitelistCountry","inputs":[{"name":"_country","type":"uint16","internalType":"uint16"}],"outputs":[],"stateMutability":"nonpayable"},{"type":"function","name":"unbindToken","inputs":[{"name":"_token","type":"address","internalType":"address"}],"outputs":[],"stateMutability":"nonpayable"},{"type":"function","name":"whitelistCountry","inputs":[{"name":"_country","type":"uint16","internalType":"uint16"}],"outputs":[],"stateMutability":"nonpayable"},{"type":"event","name":"AgentAdded","inputs":[{"name":"_agent","type":"address","indexed":true,"internalType":"address"}],"anonymous":false},{"type":"event","name":"AgentRemoved","inputs":[{"name":"_agent","type":"address","indexed":true,"internalType":"address"}],"anonymous":false},{"type":"event","name":"OwnershipTransferred","inputs":[{"name":"previousOwner","type":"address","indexed":true,"internalType":"address"},{"name":"newOwner","type":"address","indexed":true,"internalType":"address"}],"anonymous":false},{"type":"event","name":"TokenAgentAdded","inputs":[{"name":"_agentAddress","type":"address","indexed":false,"internalType":"address"}],"anonymous":false},{"type":"event","name":"TokenAgentRemoved","inputs":[{"name":"_agentAddress","type":"address","indexed":false,"internalType":"address"}],"anonymous":false},{"type":"event","name":"TokenBound","inputs":[{"name":"_token","type":"address","indexed":false,"internalType":"address"}],"anonymous":false},{"type":"event","name":"TokenUnbound","inputs":[{"name":"_token","type":"address","indexed":false,"internalType":"address"}],"anonymous":false},{"type":"event","name":"UnWhitelistedCountry","inputs":[{"name":"_country","type":"uint16","indexed":false,"internalType":"uint16"}],"anonymous":false},{"type":"event","name":"WhitelistedCountry","inputs":[{"name":"_country","type":"uint16","indexed":false,"internalType":"uint16"}],"anonymous":false}],"bytecode":{"object":"0x608060405234801561001057600080fd5b5061002d61002261003260201b60201c565b61003a60201b60201c565b6100fe565b600033905090565b60008060009054906101000a900473ffffffffffffffffffffffffffffffffffffffff169050816000806101000a81548173ffffffffffffffffffffffffffffffffffffffff021916908373ffffffffffffffffffffffffffffffffffffffff1602179055508173ffffffffffffffffffffffffffffffffffffffff168173ffffffffffffffffffffffffffffffffffffffff167f8be0079c531659141344cd1fd0a4f28419497f9722a3daafe3b4186f6b6457e060405160405180910390a35050565b6122ca806200010e6000396000f3fe608060405234801561001057600080fd5b506004361061014d5760003560e01c80638da5cb5b116100c3578063aee250af1161007c578063aee250af14610384578063cdde2932146103a0578063e46638e6146103bc578063f2fde38b146103ec578063f393cbc214610408578063ff3e6954146104245761014d565b80638da5cb5b146102b057806393e62f07146102ce57806397a6278e146102ec57806397eab82b14610308578063993e8b9514610338578063a1b01b4f146103685761014d565b806340db3b501161011557806340db3b501461021a5780635f8dead314610236578063715018a61461025257806384e798421461025c5780638baf29b4146102785780638d2ea772146102945761014d565b806307e8e344146101525780631ffbb0641461016e578063346531fa1461019e5780633b0b83c0146101ce5780633ff5aa02146101fe575b600080fd5b61016c600480360381019061016791906117cf565b610440565b005b61018860048036038101906101839190611876565b610486565b60405161019591906118be565b60405180910390f35b6101b860048036038101906101b39190611876565b6104a3565b6040516101c591906118be565b60405180910390f35b6101e860048036038101906101e3919061190f565b6105b0565b6040516101f591906118be565b60405180910390f35b61021860048036038101906102139190611876565b6105e3565b005b610234600480360381019061022f9190611876565b610763565b005b610250600480360381019061024b9190611962565b6108fd565b005b61025a610952565b005b61027660048036038101906102719190611876565b610966565b005b610292600480360381019061028d919061190f565b610a37565b005b6102ae60048036038101906102a99190611962565b610a8e565b005b6102b8610ae3565b6040516102c591906119b1565b60405180910390f35b6102d6610b0c565b6040516102e39190611a2b565b60405180910390f35b61030660048036038101906103019190611876565b610b32565b005b610322600480360381019061031d9190611a46565b610c03565b60405161032f91906118be565b60405180910390f35b610352600480360381019061034d9190611876565b610c35565b60405161035f91906118be565b60405180910390f35b610382600480360381019061037d9190611a46565b610c9f565b005b61039e600480360381019061039991906117cf565b610d7d565b005b6103ba60048036038101906103b59190611876565b610dc3565b005b6103d660048036038101906103d1919061190f565b610ee9565b6040516103e391906118be565b60405180910390f35b61040660048036038101906104019190611876565b610f0f565b005b610422600480360381019061041d9190611a46565b610f92565b005b61043e60048036038101906104399190611876565b611071565b005b60005b81518110156104825761046f82828151811061046257610461611a73565b5b6020026020010151610c9f565b808061047a90611ad1565b915050610443565b5050565b600061049c82600161119890919063ffffffff16565b9050919050565b6000600260008373ffffffffffffffffffffffffffffffffffffffff1673ffffffffffffffffffffffffffffffffffffffff16815260200190815260200160002060009054906101000a900460ff161580156105985750600360009054906101000a900473ffffffffffffffffffffffffffffffffffffffff1673ffffffffffffffffffffffffffffffffffffffff16631ffbb064836040518263ffffffff1660e01b815260040161055591906119b1565b602060405180830381865afa158015610572573d6000803e3d6000fd5b505050506040513d601f19601f820116820180604052508101906105969190611b45565b155b156105a657600090506105ab565b600190505b919050565b6000806105bc8461125f565b90506105c781610c03565b156105d65760019150506105dc565b60009150505b9392505050565b3373ffffffffffffffffffffffffffffffffffffffff16610602610ae3565b73ffffffffffffffffffffffffffffffffffffffff1614806106a95750600073ffffffffffffffffffffffffffffffffffffffff16600360009054906101000a900473ffffffffffffffffffffffffffffffffffffffff1673ffffffffffffffffffffffffffffffffffffffff161480156106a857508073ffffffffffffffffffffffffffffffffffffffff163373ffffffffffffffffffffffffffffffffffffffff16145b5b6106e8576040517f08c379a00000000000000000000000000000000000000000000000000000000081526004016106df90611bcf565b60405180910390fd5b80600360006101000a81548173ffffffffffffffffffffffffffffffffffffffff021916908373ffffffffffffffffffffffffffffffffffffffff1602179055507f2de35142b19ed5a07796cf30791959c592018f70b1d2d7c460eef8ffe713692b8160405161075891906119b1565b60405180910390a150565b3373ffffffffffffffffffffffffffffffffffffffff16610782610ae3565b73ffffffffffffffffffffffffffffffffffffffff1614806107cf57508073ffffffffffffffffffffffffffffffffffffffff163373ffffffffffffffffffffffffffffffffffffffff16145b61080e576040517f08c379a000000000000000000000000000000000000000000000000000000000815260040161080590611bcf565b60405180910390fd5b600360009054906101000a900473ffffffffffffffffffffffffffffffffffffffff1673ffffffffffffffffffffffffffffffffffffffff168173ffffffffffffffffffffffffffffffffffffffff161461089e576040517f08c379a000000000000000000000000000000000000000000000000000000000815260040161089590611c3b565b60405180910390fd5b600360006101000a81549073ffffffffffffffffffffffffffffffffffffffff02191690557f28a4ca7134a3b3f9aff286e79ad3daadb4a06d1b43d037a3a98bdc074edd9b7a816040516108f291906119b1565b60405180910390a150565b610905611372565b610944576040517f08c379a000000000000000000000000000000000000000000000000000000000815260040161093b90611cf3565b60405180910390fd5b61094e8282611382565b5050565b61095a611386565b6109646000611404565b565b61096e611386565b600073ffffffffffffffffffffffffffffffffffffffff168173ffffffffffffffffffffffffffffffffffffffff16036109dd576040517f08c379a00000000000000000000000000000000000000000000000000000000081526004016109d490611d5f565b60405180910390fd5b6109f18160016114c890919063ffffffff16565b8073ffffffffffffffffffffffffffffffffffffffff167ff68e73cec97f2d70aa641fb26e87a4383686e2efacb648f2165aeb02ac562ec560405160405180910390a250565b610a3f611372565b610a7e576040517f08c379a0000000000000000000000000000000000000000000000000000000008152600401610a7590611cf3565b60405180910390fd5b610a89838383611570565b505050565b610a96611372565b610ad5576040517f08c379a0000000000000000000000000000000000000000000000000000000008152600401610acc90611cf3565b60405180910390fd5b610adf8282611575565b5050565b60008060009054906101000a900473ffffffffffffffffffffffffffffffffffffffff16905090565b600360009054906101000a900473ffffffffffffffffffffffffffffffffffffffff1681565b610b3a611386565b600073ffffffffffffffffffffffffffffffffffffffff168173ffffffffffffffffffffffffffffffffffffffff1603610ba9576040517f08c379a0000000000000000000000000000000000000000000000000000000008152600401610ba090611d5f565b60405180910390fd5b610bbd81600161157990919063ffffffff16565b8073ffffffffffffffffffffffffffffffffffffffff167fed9c8ad8d5a0a66898ea49d2956929c93ae2e8bd50281b2ed897c5d1a6737e0b60405160405180910390a250565b6000600460008361ffff1661ffff16815260200190815260200160002060009054906101000a900460ff169050919050565b6000600360009054906101000a900473ffffffffffffffffffffffffffffffffffffffff1673ffffffffffffffffffffffffffffffffffffffff168273ffffffffffffffffffffffffffffffffffffffff1614610c955760009050610c9a565b600190505b919050565b610ca7611386565b600460008261ffff1661ffff16815260200190815260200160002060009054906101000a900460ff16610d0f576040517f08c379a0000000000000000000000000000000000000000000000000000000008152600401610d0690611dcb565b60405180910390fd5b6000600460008361ffff1661ffff16815260200190815260200160002060006101000a81548160ff0219169083151502179055507f77bf94f96c0e8d724e02e1c5c7a219b0b078de66c992608a55e755a6384d1ee381604051610d729190611dfa565b60405180910390a150565b60005b8151811015610dbf57610dac828281518110610d9f57610d9e611a73565b5b6020026020010151610f92565b8080610db790611ad1565b915050610d80565b5050565b610dcb611386565b600260008273ffffffffffffffffffffffffffffffffffffffff1673ffffffffffffffffffffffffffffffffffffffff16815260200190815260200160002060009054906101000a900460ff16610e57576040517f08c379a0000000000000000000000000000000000000000000000000000000008152600401610e4e90611e61565b60405180910390fd5b6000600260008373ffffffffffffffffffffffffffffffffffffffff1673ffffffffffffffffffffffffffffffffffffffff16815260200190815260200160002060006101000a81548160ff0219169083151502179055507f6a659bb87bb23efbdc295f8eed8ae8c4379bfb77660ced2ef0f3d7d26b05c6a681604051610ede91906119b1565b60405180910390a150565b6000610ef68484846105b0565b610f035760009050610f08565b600190505b9392505050565b610f17611386565b600073ffffffffffffffffffffffffffffffffffffffff168173ffffffffffffffffffffffffffffffffffffffff1603610f86576040517f08c379a0000000000000000000000000000000000000000000000000000000008152600401610f7d90611ef3565b60405180910390fd5b610f8f81611404565b50565b610f9a611386565b600460008261ffff1661ffff16815260200190815260200160002060009054906101000a900460ff1615611003576040517f08c379a0000000000000000000000000000000000000000000000000000000008152600401610ffa90611f5f565b60405180910390fd5b6001600460008361ffff1661ffff16815260200190815260200160002060006101000a81548160ff0219169083151502179055507fd20535bfd780673cc88887ad4af967343e4e8e088062aa936fea2de79d10de28816040516110669190611dfa565b60405180910390a150565b611079611386565b600260008273ffffffffffffffffffffffffffffffffffffffff1673ffffffffffffffffffffffffffffffffffffffff16815260200190815260200160002060009054906101000a900460ff1615611106576040517f08c379a00000000000000000000000000000000000000000000000000000000081526004016110fd90611fcb565b60405180910390fd5b6001600260008373ffffffffffffffffffffffffffffffffffffffff1673ffffffffffffffffffffffffffffffffffffffff16815260200190815260200160002060006101000a81548160ff0219169083151502179055507fd62c45e13ac30396aceb3ad37c89bd1ba9048032fe61679000e92eb93dbfd67d8160405161118d91906119b1565b60405180910390a150565b60008073ffffffffffffffffffffffffffffffffffffffff168273ffffffffffffffffffffffffffffffffffffffff1603611208576040517f08c379a00000000000000000000000000000000000000000000000000000000081526004016111ff9061205d565b60405180910390fd5b8260000160008373ffffffffffffffffffffffffffffffffffffffff1673ffffffffffffffffffffffffffffffffffffffff16815260200190815260200160002060009054906101000a900460ff16905092915050565b6000600360009054906101000a900473ffffffffffffffffffffffffffffffffffffffff1673ffffffffffffffffffffffffffffffffffffffff1663134e18f46040518163ffffffff1660e01b8152600401602060405180830381865afa1580156112ce573d6000803e3d6000fd5b505050506040513d601f19601f820116820180604052508101906112f291906120bb565b73ffffffffffffffffffffffffffffffffffffffff16637e42683b836040518263ffffffff1660e01b815260040161132a91906119b1565b602060405180830381865afa158015611347573d6000803e3d6000fd5b505050506040513d601f19601f8201168201806040525081019061136b91906120fd565b9050919050565b600061137d33610c35565b905090565b5050565b61138e611620565b73ffffffffffffffffffffffffffffffffffffffff166113ac610ae3565b73ffffffffffffffffffffffffffffffffffffffff1614611402576040517f08c379a00000000000000000000000000000000000000000000000000000000081526004016113f990612176565b60405180910390fd5b565b60008060009054906101000a900473ffffffffffffffffffffffffffffffffffffffff169050816000806101000a81548173ffffffffffffffffffffffffffffffffffffffff021916908373ffffffffffffffffffffffffffffffffffffffff1602179055508173ffffffffffffffffffffffffffffffffffffffff168173ffffffffffffffffffffffffffffffffffffffff167f8be0079c531659141344cd1fd0a4f28419497f9722a3daafe3b4186f6b6457e060405160405180910390a35050565b6114d28282611198565b15611512576040517f08c379a0000000000000000000000000000000000000000000000000000000008152600401611509906121e2565b60405180910390fd5b60018260000160008373ffffffffffffffffffffffffffffffffffffffff1673ffffffffffffffffffffffffffffffffffffffff16815260200190815260200160002060006101000a81548160ff0219169083151502179055505050565b505050565b5050565b6115838282611198565b6115c2576040517f08c379a00000000000000000000000000000000000000000000000000000000081526004016115b990612274565b60405180910390fd5b60008260000160008373ffffffffffffffffffffffffffffffffffffffff1673ffffffffffffffffffffffffffffffffffffffff16815260200190815260200160002060006101000a81548160ff0219169083151502179055505050565b600033905090565b6000604051905090565b600080fd5b600080fd5b600080fd5b6000601f19601f8301169050919050565b7f4e487b7100000000000000000000000000000000000000000000000000000000600052604160045260246000fd5b61168a82611641565b810181811067ffffffffffffffff821117156116a9576116a8611652565b5b80604052505050565b60006116bc611628565b90506116c88282611681565b919050565b600067ffffffffffffffff8211156116e8576116e7611652565b5b602082029050602081019050919050565b600080fd5b600061ffff82169050919050565b611715816116fe565b811461172057600080fd5b50565b6000813590506117328161170c565b92915050565b600061174b611746846116cd565b6116b2565b9050808382526020820190506020840283018581111561176e5761176d6116f9565b5b835b8181101561179757806117838882611723565b845260208401935050602081019050611770565b5050509392505050565b600082601f8301126117b6576117b561163c565b5b81356117c6848260208601611738565b91505092915050565b6000602082840312156117e5576117e4611632565b5b600082013567ffffffffffffffff81111561180357611802611637565b5b61180f848285016117a1565b91505092915050565b600073ffffffffffffffffffffffffffffffffffffffff82169050919050565b600061184382611818565b9050919050565b61185381611838565b811461185e57600080fd5b50565b6000813590506118708161184a565b92915050565b60006020828403121561188c5761188b611632565b5b600061189a84828501611861565b91505092915050565b60008115159050919050565b6118b8816118a3565b82525050565b60006020820190506118d360008301846118af565b92915050565b6000819050919050565b6118ec816118d9565b81146118f757600080fd5b50565b600081359050611909816118e3565b92915050565b60008060006060848603121561192857611927611632565b5b600061193686828701611861565b935050602061194786828701611861565b9250506040611958868287016118fa565b9150509250925092565b6000806040838503121561197957611978611632565b5b600061198785828601611861565b9250506020611998858286016118fa565b9150509250929050565b6119ab81611838565b82525050565b60006020820190506119c660008301846119a2565b92915050565b6000819050919050565b60006119f16119ec6119e784611818565b6119cc565b611818565b9050919050565b6000611a03826119d6565b9050919050565b6000611a15826119f8565b9050919050565b611a2581611a0a565b82525050565b6000602082019050611a406000830184611a1c565b92915050565b600060208284031215611a5c57611a5b611632565b5b6000611a6a84828501611723565b91505092915050565b7f4e487b7100000000000000000000000000000000000000000000000000000000600052603260045260246000fd5b7f4e487b7100000000000000000000000000000000000000000000000000000000600052601160045260246000fd5b6000611adc826118d9565b91507fffffffffffffffffffffffffffffffffffffffffffffffffffffffffffffffff8203611b0e57611b0d611aa2565b5b600182019050919050565b611b22816118a3565b8114611b2d57600080fd5b50565b600081519050611b3f81611b19565b92915050565b600060208284031215611b5b57611b5a611632565b5b6000611b6984828501611b30565b91505092915050565b600082825260208201905092915050565b7f6f6e6c79206f776e6572206f7220746f6b656e2063616e2063616c6c00000000600082015250565b6000611bb9601c83611b72565b9150611bc482611b83565b602082019050919050565b60006020820190508181036000830152611be881611bac565b9050919050565b7f5468697320746f6b656e206973206e6f7420626f756e64000000000000000000600082015250565b6000611c25601783611b72565b9150611c3082611bef565b602082019050919050565b60006020820190508181036000830152611c5481611c18565b9050919050565b7f6572726f72203a20746869732061646472657373206973206e6f74206120746f60008201527f6b656e20626f756e6420746f2074686520636f6d706c69616e636520636f6e7460208201527f7261637400000000000000000000000000000000000000000000000000000000604082015250565b6000611cdd604483611b72565b9150611ce882611c5b565b606082019050919050565b60006020820190508181036000830152611d0c81611cd0565b9050919050565b7f696e76616c696420617267756d656e74202d207a65726f206164647265737300600082015250565b6000611d49601f83611b72565b9150611d5482611d13565b602082019050919050565b60006020820190508181036000830152611d7881611d3c565b9050919050565b7f636f756e747279206e6f742077686974656c6973746564000000000000000000600082015250565b6000611db5601783611b72565b9150611dc082611d7f565b602082019050919050565b60006020820190508181036000830152611de481611da8565b9050919050565b611df4816116fe565b82525050565b6000602082019050611e0f6000830184611deb565b92915050565b7f54686973204167656e74206973206e6f74207265676973746572656420796574600082015250565b6000611e4b602083611b72565b9150611e5682611e15565b602082019050919050565b60006020820190508181036000830152611e7a81611e3e565b9050919050565b7f4f776e61626c653a206e6577206f776e657220697320746865207a65726f206160008201527f6464726573730000000000000000000000000000000000000000000000000000602082015250565b6000611edd602683611b72565b9150611ee882611e81565b604082019050919050565b60006020820190508181036000830152611f0c81611ed0565b9050919050565b7f636f756e74727920616c72656164792077686974656c69737465640000000000600082015250565b6000611f49601b83611b72565b9150611f5482611f13565b602082019050919050565b60006020820190508181036000830152611f7881611f3c565b9050919050565b7f54686973204167656e7420697320616c72656164792072656769737465726564600082015250565b6000611fb5602083611b72565b9150611fc082611f7f565b602082019050919050565b60006020820190508181036000830152611fe481611fa8565b9050919050565b7f526f6c65733a206163636f756e7420697320746865207a65726f20616464726560008201527f7373000000000000000000000000000000000000000000000000000000000000602082015250565b6000612047602283611b72565b915061205282611feb565b604082019050919050565b600060208201905081810360008301526120768161203a565b9050919050565b600061208882611838565b9050919050565b6120988161207d565b81146120a357600080fd5b50565b6000815190506120b58161208f565b92915050565b6000602082840312156120d1576120d0611632565b5b60006120df848285016120a6565b91505092915050565b6000815190506120f78161170c565b92915050565b60006020828403121561211357612112611632565b5b6000612121848285016120e8565b91505092915050565b7f4f776e61626c653a2063616c6c6572206973206e6f7420746865206f776e6572600082015250565b6000612160602083611b72565b915061216b8261212a565b602082019050919050565b6000602082019050818103600083015261218f81612153565b9050919050565b7f526f6c65733a206163636f756e7420616c72656164792068617320726f6c6500600082015250565b60006121cc601f83611b72565b91506121d782612196565b602082019050919050565b600060208201905081810360008301526121fb816121bf565b9050919050565b7f526f6c65733a206163636f756e7420646f6573206e6f74206861766520726f6c60008201527f6500000000000000000000000000000000000000000000000000000000000000602082015250565b600061225e602183611b72565b915061226982612202565b604082019050919050565b6000602082019050818103600083015261228d81612251565b905091905056fea2646970667358221220eb8048bf9afa93661794d02ade3803e6e4b9b8b29e4d28aa4a32d7b70ab821f964736f6c63430008110033","linkReferences":{}},"methodIdentifiers":{"addAgent(address)":"84e79842","addTokenAgent(address)":"ff3e6954","batchUnWhitelistCountries(uint16[])":"07e8e344","batchWhitelistCountries(uint16[])":"aee250af","bindToken(address)":"3ff5aa02","canTransfer(address,address,uint256)":"e46638e6","complianceCheckOnCountryWhitelisting(address,address,uint256)":"3b0b83c0","created(address,uint256)":"5f8dead3","destroyed(address,uint256)":"8d2ea772","isAgent(address)":"1ffbb064","isCountryWhitelisted(uint16)":"97eab82b","isTokenAgent(address)":"346531fa","isTokenBound(address)":"993e8b95","owner()":"8da5cb5b","removeAgent(address)":"97a6278e","removeTokenAgent(address)":"cdde2932","renounceOwnership()":"715018a6","tokenBound()":"93e62f07","transferOwnership(address)":"f2fde38b","transferred(address,address,uint256)":"8baf29b4","unWhitelistCountry(uint16)":"a1b01b4f","unbindToken(address)":"40db3b50","whitelistCountry(uint16)":"f393cbc2"},"id":19}