{"abi":[{"type":"constructor","inputs":[{"name":"implementationAuthority","type":"address","internalType":"address"}],"stateMutability":"nonpayable"},{"type":"fallback","stateMutability":"payable"},{"type":"function","name":"getImplementationAuthority","inputs":[],"outputs":[{"name":"","type":"address","internalType":"address"}],"stateMutability":"view"},{"type":"function","name":"setImplementationAuthority","inputs":[{"name":"_newImplementationAuthority","type":"address","internalType":"address"}],"outputs":[],"stateMutability":"nonpayable"},{"type":"event","name":"ImplementationAuthoritySet","inputs":[{"name":"_implementationAuthority","type":"address","indexed":true,"internalType":"address"}],"anonymous":false},{"type":"event","name":"Initialized","inputs":[{"name":"version","type":"uint8","indexed":false,"internalType":"uint8"}],"anonymous":false}],"bytecode":{"object":"0x60806040523480156200001157600080fd5b5060405162000ec238038062000ec283398181016040528101906200003791906200037d565b600073ffffffffffffffffffffffffffffffffffffffff168173ffffffffffffffffffffffffffffffffffffffff1603620000a9576040517f08c379a0000000000000000000000000000000000000000000000000000000008152600401620000a09062000410565b60405180910390fd5b620000ba81620002bf60201b60201c565b8073ffffffffffffffffffffffffffffffffffffffff167f3b1074392ed8e8424715d0dda2197eede67080b377fc8370e26f3e882207f6b860405160405180910390a260006200010f620002e560201b60201c565b73ffffffffffffffffffffffffffffffffffffffff1663fedcc0526040518163ffffffff1660e01b8152600401602060405180830381865afa1580156200015a573d6000803e3d6000fd5b505050506040513d601f19601f820116820180604052508101906200018091906200037d565b905060008173ffffffffffffffffffffffffffffffffffffffff166040516024016040516020818303038152906040527fe1c7392a000000000000000000000000000000000000000000000000000000007bffffffffffffffffffffffffffffffffffffffffffffffffffffffff19166020820180517bffffffffffffffffffffffffffffffffffffffffffffffffffffffff83818316178352505050506040516200022d9190620004ab565b600060405180830381855af49150503d80600081146200026a576040519150601f19603f3d011682016040523d82523d6000602084013e6200026f565b606091505b5050905080620002b6576040517f08c379a0000000000000000000000000000000000000000000000000000000008152600401620002ad9062000514565b60405180910390fd5b50505062000536565b807f821f3e4d3d679f19eacc940c87acf846ea6eae24a63058ea750304437a62aafc5550565b6000807f821f3e4d3d679f19eacc940c87acf846ea6eae24a63058ea750304437a62aafc5490508091505090565b600080fd5b600073ffffffffffffffffffffffffffffffffffffffff82169050919050565b6000620003458262000318565b9050919050565b620003578162000338565b81146200036357600080fd5b50565b60008151905062000377816200034c565b92915050565b60006020828403121562000396576200039562000313565b5b6000620003a68482850162000366565b91505092915050565b600082825260208201905092915050565b7f696e76616c696420617267756d656e74202d207a65726f206164647265737300600082015250565b6000620003f8601f83620003af565b91506200040582620003c0565b602082019050919050565b600060208201905081810360008301526200042b81620003e9565b9050919050565b600081519050919050565b600081905092915050565b60005b83811015620004685780820151818401526020810190506200044b565b60008484015250505050565b6000620004818262000432565b6200048d81856200043d565b93506200049f81856020860162000448565b80840191505092915050565b6000620004b9828462000474565b915081905092915050565b7f496e697469616c697a6174696f6e206661696c65642e00000000000000000000600082015250565b6000620004fc601683620003af565b91506200050982620004c4565b602082019050919050565b600060208201905081810360008301526200052f81620004ed565b9050919050565b61097c80620005466000396000f3fe60806040526004361061002d5760003560e01c80632d5f1187146100d357806392dd9d65146100fe5761002e565b5b6000610038610127565b73ffffffffffffffffffffffffffffffffffffffff1663fedcc0526040518163ffffffff1660e01b8152600401602060405180830381865afa158015610082573d6000803e3d6000fd5b505050506040513d601f19601f820116820180604052508101906100a69190610732565b90503660008037600080366000846127105a03f43d806000803e81600081146100ce57816000f35b816000fd5b3480156100df57600080fd5b506100e8610127565b6040516100f5919061076e565b60405180910390f35b34801561010a57600080fd5b506101256004803603810190610120919061079e565b610155565b005b6000807f821f3e4d3d679f19eacc940c87acf846ea6eae24a63058ea750304437a62aafc5490508091505090565b61015d610127565b73ffffffffffffffffffffffffffffffffffffffff163373ffffffffffffffffffffffffffffffffffffffff16146101ca576040517f08c379a00000000000000000000000000000000000000000000000000000000081526004016101c19061084e565b60405180910390fd5b600073ffffffffffffffffffffffffffffffffffffffff168173ffffffffffffffffffffffffffffffffffffffff1603610239576040517f08c379a0000000000000000000000000000000000000000000000000000000008152600401610230906108ba565b60405180910390fd5b600073ffffffffffffffffffffffffffffffffffffffff168173ffffffffffffffffffffffffffffffffffffffff1663709bc7f36040518163ffffffff1660e01b8152600401602060405180830381865afa15801561029c573d6000803e3d6000fd5b505050506040513d601f19601f820116820180604052508101906102c09190610732565b73ffffffffffffffffffffffffffffffffffffffff161415801561037f5750600073ffffffffffffffffffffffffffffffffffffffff168173ffffffffffffffffffffffffffffffffffffffff16636ff6e83f6040518163ffffffff1660e01b8152600401602060405180830381865afa158015610342573d6000803e3d6000fd5b505050506040513d601f19601f820116820180604052508101906103669190610732565b73ffffffffffffffffffffffffffffffffffffffff1614155b80156104265750600073ffffffffffffffffffffffffffffffffffffffff168173ffffffffffffffffffffffffffffffffffffffff16631ee9ce8b6040518163ffffffff1660e01b8152600401602060405180830381865afa1580156103e9573d6000803e3d6000fd5b505050506040513d601f19601f8201168201806040525081019061040d9190610732565b73ffffffffffffffffffffffffffffffffffffffff1614155b80156104cd5750600073ffffffffffffffffffffffffffffffffffffffff168173ffffffffffffffffffffffffffffffffffffffff16639e3e7bb96040518163ffffffff1660e01b8152600401602060405180830381865afa158015610490573d6000803e3d6000fd5b505050506040513d601f19601f820116820180604052508101906104b49190610732565b73ffffffffffffffffffffffffffffffffffffffff1614155b80156105745750600073ffffffffffffffffffffffffffffffffffffffff168173ffffffffffffffffffffffffffffffffffffffff166361f898256040518163ffffffff1660e01b8152600401602060405180830381865afa158015610537573d6000803e3d6000fd5b505050506040513d601f19601f8201168201806040525081019061055b9190610732565b73ffffffffffffffffffffffffffffffffffffffff1614155b801561061b5750600073ffffffffffffffffffffffffffffffffffffffff168173ffffffffffffffffffffffffffffffffffffffff1663fedcc0526040518163ffffffff1660e01b8152600401602060405180830381865afa1580156105de573d6000803e3d6000fd5b505050506040513d601f19601f820116820180604052508101906106029190610732565b73ffffffffffffffffffffffffffffffffffffffff1614155b61065a576040517f08c379a000000000000000000000000000000000000000000000000000000000815260040161065190610926565b60405180910390fd5b610663816106a9565b8073ffffffffffffffffffffffffffffffffffffffff167f3b1074392ed8e8424715d0dda2197eede67080b377fc8370e26f3e882207f6b860405160405180910390a250565b807f821f3e4d3d679f19eacc940c87acf846ea6eae24a63058ea750304437a62aafc5550565b600080fd5b600073ffffffffffffffffffffffffffffffffffffffff82169050919050565b60006106ff826106d4565b9050919050565b61070f816106f4565b811461071a57600080fd5b50565b60008151905061072c81610706565b92915050565b600060208284031215610748576107476106cf565b5b60006107568482850161071d565b91505092915050565b610768816106f4565b82525050565b6000602082019050610783600083018461075f565b92915050565b60008135905061079881610706565b92915050565b6000602082840312156107b4576107b36106cf565b5b60006107c284828501610789565b91505092915050565b600082825260208201905092915050565b7f6f6e6c792063757272656e7420696d706c656d656e746174696f6e417574686f60008201527f726974792063616e2063616c6c00000000000000000000000000000000000000602082015250565b6000610838602d836107cb565b9150610843826107dc565b604082019050919050565b600060208201905081810360008301526108678161082b565b9050919050565b7f696e76616c696420617267756d656e74202d207a65726f206164647265737300600082015250565b60006108a4601f836107cb565b91506108af8261086e565b602082019050919050565b600060208201905081810360008301526108d381610897565b9050919050565b7f696e76616c696420496d706c656d656e746174696f6e20417574686f72697479600082015250565b60006109106020836107cb565b915061091b826108da565b602082019050919050565b6000602082019050818103600083015261093f81610903565b905091905056fea26469706673582212200f1afc7ec1eb92a1a09df8f8bf1b47b7c3693d32ddc52e42849293272b5c247364736f6c63430008110033","linkReferences":{}},"methodIdentifiers":{"getImplementationAuthority()":"2d5f1187","setImplementationAuthority(address)":"92dd9d65"},"id":42}