{"abi":[{"type":"function","name":"addTrustedIssuer","inputs":[{"name":"_trustedIssuer","type":"address","internalType":"contract IClaimIssuer"},{"name":"_claimTopics","type":"uint256[]","internalType":"uint256[]"}],"outputs":[],"stateMutability":"nonpayable"},{"type":"function","name":"getTrustedIssuerClaimTopics","inputs":[{"name":"_trustedIssuer","type":"address","internalType":"contract IClaimIssuer"}],"outputs":[{"name":"","type":"uint256[]","internalType":"uint256[]"}],"stateMutability":"view"},{"type":"function","name":"getTrustedIssuers","inputs":[],"outputs":[{"name":"","type":"address[]","internalType":"contract IClaimIssuer[]"}],"stateMutability":"view"},{"type":"function","name":"getTrustedIssuersForClaimTopic","inputs":[{"name":"claimTopic","type":"uint256","internalType":"uint256"}],"outputs":[{"name":"","type":"address[]","internalType":"contract IClaimIssuer[]"}],"stateMutability":"view"},{"type":"function","name":"hasClaimTopic","inputs":[{"name":"_issuer","type":"address","internalType":"address"},{"name":"_claimTopic","type":"uint256","internalType":"uint256"}],"outputs":[{"name":"","type":"bool","internalType":"bool"}],"stateMutability":"view"},{"type":"function","name":"init","inputs":[],"outputs":[],"stateMutability":"nonpayable"},{"type":"function","name":"isTrustedIssuer","inputs":[{"name":"_issuer","type":"address","internalType":"address"}],"outputs":[{"name":"","type":"bool","internalType":"bool"}],"stateMutability":"view"},{"type":"function","name":"owner","inputs":[],"outputs":[{"name":"","type":"address","internalType":"address"}],"stateMutability":"view"},{"type":"function","name":"removeTrustedIssuer","inputs":[{"name":"_trustedIssuer","type":"address","internalType":"contract IClaimIssuer"}],"outputs":[],"stateMutability":"nonpayable"},{"type":"function","name":"renounceOwnership","inputs":[],"outputs":[],"stateMutability":"nonpayable"},{"type":"function","name":"transferOwnership","inputs":[{"name":"newOwner","type":"address","internalType":"address"}],"outputs":[],"stateMutability":"nonpayable"},{"type":"function","name":"updateIssuerClaimTopics","inputs":[{"name":"_trustedIssuer","type":"address","internalType":"contract IClaimIssuer"},{"name":"_claimTopics","type":"uint256[]","internalType":"uint256[]"}],"outputs":[],"stateMutability":"nonpayable"},{"type":"event","name":"ClaimTopicsUpdated","inputs":[{"name":"trustedIssuer","type":"address","indexed":true,"internalType":"contract IClaimIssuer"},{"name":"claimTopics","type":"uint256[]","indexed":false,"internalType":"uint256[]"}],"anonymous":false},{"type":"event","name":"Initialized","inputs":[{"name":"version","type":"uint8","indexed":false,"internalType":"uint8"}],"anonymous":false},{"type":"event","name":"OwnershipTransferred","inputs":[{"name":"previousOwner","type":"address","indexed":true,"internalType":"address"},{"name":"newOwner","type":"address","indexed":true,"internalType":"address"}],"anonymous":false},{"type":"event","name":"TrustedIssuerAdded","inputs":[{"name":"trustedIssuer","type":"address","indexed":true,"internalType":"contract IClaimIssuer"},{"name":"claimTopics","type":"uint256[]","indexed":false,"internalType":"uint256[]"}],"anonymous":false},{"type":"event","name":"TrustedIssuerRemoved","inputs":[{"name":"trustedIssuer","type":"address","indexed":true,"internalType":"contract IClaimIssuer"}],"anonymous":false}],"bytecode":{"object":"0x608060405234801561001057600080fd5b5061269e806100206000396000f3fe608060405234801561001057600080fd5b50600436106100b45760003560e01c8063b93d28eb11610071578063b93d28eb14610179578063c28fb27814610195578063d9dd24c5146101c5578063e1c7392a146101e3578063ef2ed1a4146101ed578063f2fde38b1461021d576100b4565b806304bc7e84146100b957806334a89987146100d557806352c111d114610105578063715018a6146101355780638da5cb5b1461013f5780639f63ea981461015d575b600080fd5b6100d360048036038101906100ce9190611a70565b610239565b005b6100ef60048036038101906100ea9190611b32565b6107ba565b6040516100fc9190611b8d565b60405180910390f35b61011f600480360381019061011a9190611ba8565b6108ed565b60405161012c9190611ce3565b60405180910390f35b61013d61098e565b005b6101476109a2565b6040516101549190611d14565b60405180910390f35b61017760048036038101906101729190611a70565b6109cc565b005b610193600480360381019061018e9190611d2f565b610d53565b005b6101af60048036038101906101aa9190611d2f565b611313565b6040516101bc9190611e1a565b60405180910390f35b6101cd61142f565b6040516101da9190611ce3565b60405180910390f35b6101eb6114bd565b005b61020760048036038101906102029190611e3c565b6115fb565b6040516102149190611b8d565b60405180910390f35b61023760048036038101906102329190611e3c565b61165a565b005b6102416116dd565b600073ffffffffffffffffffffffffffffffffffffffff168373ffffffffffffffffffffffffffffffffffffffff16036102b0576040517f08c379a00000000000000000000000000000000000000000000000000000000081526004016102a790611ec6565b60405180910390fd5b6000606660008573ffffffffffffffffffffffffffffffffffffffff1673ffffffffffffffffffffffffffffffffffffffff1681526020019081526020016000208054905003610335576040517f08c379a000000000000000000000000000000000000000000000000000000000815260040161032c90611f32565b60405180910390fd5b600f82829050111561037c576040517f08c379a000000000000000000000000000000000000000000000000000000000815260040161037390611fc4565b60405180910390fd5b600082829050116103c2576040517f08c379a00000000000000000000000000000000000000000000000000000000081526004016103b990612030565b60405180910390fd5b60005b606660008573ffffffffffffffffffffffffffffffffffffffff1673ffffffffffffffffffffffffffffffffffffffff16815260200190815260200160002080549050811015610666576000606660008673ffffffffffffffffffffffffffffffffffffffff1673ffffffffffffffffffffffffffffffffffffffff168152602001908152602001600020828154811061046257610461612050565b5b9060005260206000200154905060006067600083815260200190815260200160002080549050905060005b81811015610650578673ffffffffffffffffffffffffffffffffffffffff166067600085815260200190815260200160002082815481106104d1576104d0612050565b5b9060005260206000200160009054906101000a900473ffffffffffffffffffffffffffffffffffffffff1673ffffffffffffffffffffffffffffffffffffffff160361063d576067600084815260200190815260200160002060018361053791906120ae565b8154811061054857610547612050565b5b9060005260206000200160009054906101000a900473ffffffffffffffffffffffffffffffffffffffff1660676000858152602001908152602001600020828154811061059857610597612050565b5b9060005260206000200160006101000a81548173ffffffffffffffffffffffffffffffffffffffff021916908373ffffffffffffffffffffffffffffffffffffffff16021790555060676000848152602001908152602001600020805480610603576106026120e2565b5b6001900381819060005260206000200160006101000a81549073ffffffffffffffffffffffffffffffffffffffff02191690559055610650565b808061064890612111565b91505061048d565b505050808061065e90612111565b9150506103c5565b508181606660008673ffffffffffffffffffffffffffffffffffffffff1673ffffffffffffffffffffffffffffffffffffffff16815260200190815260200160002091906106b5929190611906565b5060005b8282905081101561076457606760008484848181106106db576106da612050565b5b905060200201358152602001908152602001600020849080600181540180825580915050600190039060005260206000200160009091909190916101000a81548173ffffffffffffffffffffffffffffffffffffffff021916908373ffffffffffffffffffffffffffffffffffffffff160217905550808061075c90612111565b9150506106b9565b508273ffffffffffffffffffffffffffffffffffffffff167fec753cfc52044f61676f18a11e500093a9f2b1cd5e4942bc476f2b0438159bcf83836040516107ad9291906121c3565b60405180910390a2505050565b600080606660008573ffffffffffffffffffffffffffffffffffffffff1673ffffffffffffffffffffffffffffffffffffffff1681526020019081526020016000208054905090506000606660008673ffffffffffffffffffffffffffffffffffffffff1673ffffffffffffffffffffffffffffffffffffffff16815260200190815260200160002080548060200260200160405190810160405280929190818152602001828054801561088d57602002820191906000526020600020905b815481526020019060010190808311610879575b5050505050905060005b828110156108df57848282815181106108b3576108b2612050565b5b6020026020010151036108cc57600193505050506108e7565b80806108d790612111565b915050610897565b506000925050505b92915050565b60606067600083815260200190815260200160002080548060200260200160405190810160405280929190818152602001828054801561098257602002820191906000526020600020905b8160009054906101000a900473ffffffffffffffffffffffffffffffffffffffff1673ffffffffffffffffffffffffffffffffffffffff1681526020019060010190808311610938575b50505050509050919050565b6109966116dd565b6109a0600061175b565b565b6000603360009054906101000a900473ffffffffffffffffffffffffffffffffffffffff16905090565b6109d46116dd565b600073ffffffffffffffffffffffffffffffffffffffff168373ffffffffffffffffffffffffffffffffffffffff1603610a43576040517f08c379a0000000000000000000000000000000000000000000000000000000008152600401610a3a90611ec6565b60405180910390fd5b6000606660008573ffffffffffffffffffffffffffffffffffffffff1673ffffffffffffffffffffffffffffffffffffffff1681526020019081526020016000208054905014610ac8576040517f08c379a0000000000000000000000000000000000000000000000000000000008152600401610abf90612233565b60405180910390fd5b60008282905011610b0e576040517f08c379a0000000000000000000000000000000000000000000000000000000008152600401610b05906122c5565b60405180910390fd5b600f828290501115610b55576040517f08c379a0000000000000000000000000000000000000000000000000000000008152600401610b4c90611fc4565b60405180910390fd5b603260658054905010610b9d576040517f08c379a0000000000000000000000000000000000000000000000000000000008152600401610b9490612357565b60405180910390fd5b6065839080600181540180825580915050600190039060005260206000200160009091909190916101000a81548173ffffffffffffffffffffffffffffffffffffffff021916908373ffffffffffffffffffffffffffffffffffffffff1602179055508181606660008673ffffffffffffffffffffffffffffffffffffffff1673ffffffffffffffffffffffffffffffffffffffff1681526020019081526020016000209190610c4e929190611906565b5060005b82829050811015610cfd5760676000848484818110610c7457610c73612050565b5b905060200201358152602001908152602001600020849080600181540180825580915050600190039060005260206000200160009091909190916101000a81548173ffffffffffffffffffffffffffffffffffffffff021916908373ffffffffffffffffffffffffffffffffffffffff1602179055508080610cf590612111565b915050610c52565b508273ffffffffffffffffffffffffffffffffffffffff167ffedc33fd34859594822c0ff6f3f4f9fc279cc6d5cae53068f706a088e45008728383604051610d469291906121c3565b60405180910390a2505050565b610d5b6116dd565b600073ffffffffffffffffffffffffffffffffffffffff168173ffffffffffffffffffffffffffffffffffffffff1603610dca576040517f08c379a0000000000000000000000000000000000000000000000000000000008152600401610dc190611ec6565b60405180910390fd5b6000606660008373ffffffffffffffffffffffffffffffffffffffff1673ffffffffffffffffffffffffffffffffffffffff1681526020019081526020016000208054905003610e4f576040517f08c379a0000000000000000000000000000000000000000000000000000000008152600401610e4690611f32565b60405180910390fd5b6000606580549050905060005b81811015610fdb578273ffffffffffffffffffffffffffffffffffffffff1660658281548110610e8f57610e8e612050565b5b9060005260206000200160009054906101000a900473ffffffffffffffffffffffffffffffffffffffff1673ffffffffffffffffffffffffffffffffffffffff1603610fc8576065600183610ee491906120ae565b81548110610ef557610ef4612050565b5b9060005260206000200160009054906101000a900473ffffffffffffffffffffffffffffffffffffffff1660658281548110610f3457610f33612050565b5b9060005260206000200160006101000a81548173ffffffffffffffffffffffffffffffffffffffff021916908373ffffffffffffffffffffffffffffffffffffffff1602179055506065805480610f8e57610f8d6120e2565b5b6001900381819060005260206000200160006101000a81549073ffffffffffffffffffffffffffffffffffffffff02191690559055610fdb565b8080610fd390612111565b915050610e5c565b5060005b606660008473ffffffffffffffffffffffffffffffffffffffff1673ffffffffffffffffffffffffffffffffffffffff16815260200190815260200160002080549050811015611280576000606660008573ffffffffffffffffffffffffffffffffffffffff1673ffffffffffffffffffffffffffffffffffffffff168152602001908152602001600020828154811061107c5761107b612050565b5b9060005260206000200154905060006067600083815260200190815260200160002080549050905060005b8181101561126a578573ffffffffffffffffffffffffffffffffffffffff166067600085815260200190815260200160002082815481106110eb576110ea612050565b5b9060005260206000200160009054906101000a900473ffffffffffffffffffffffffffffffffffffffff1673ffffffffffffffffffffffffffffffffffffffff1603611257576067600084815260200190815260200160002060018361115191906120ae565b8154811061116257611161612050565b5b9060005260206000200160009054906101000a900473ffffffffffffffffffffffffffffffffffffffff166067600085815260200190815260200160002082815481106111b2576111b1612050565b5b9060005260206000200160006101000a81548173ffffffffffffffffffffffffffffffffffffffff021916908373ffffffffffffffffffffffffffffffffffffffff1602179055506067600084815260200190815260200160002080548061121d5761121c6120e2565b5b6001900381819060005260206000200160006101000a81549073ffffffffffffffffffffffffffffffffffffffff0219169055905561126a565b808061126290612111565b9150506110a7565b505050808061127890612111565b915050610fdf565b50606660008373ffffffffffffffffffffffffffffffffffffffff1673ffffffffffffffffffffffffffffffffffffffff16815260200190815260200160002060006112cc9190611953565b8173ffffffffffffffffffffffffffffffffffffffff167f2214ded40113cc3fb63fc206cafee88270b0a903dac7245d54efdde30ebb032160405160405180910390a25050565b60606000606660008473ffffffffffffffffffffffffffffffffffffffff1673ffffffffffffffffffffffffffffffffffffffff168152602001908152602001600020805490500361139a576040517f08c379a0000000000000000000000000000000000000000000000000000000008152600401611391906123c3565b60405180910390fd5b606660008373ffffffffffffffffffffffffffffffffffffffff1673ffffffffffffffffffffffffffffffffffffffff16815260200190815260200160002080548060200260200160405190810160405280929190818152602001828054801561142357602002820191906000526020600020905b81548152602001906001019080831161140f575b50505050509050919050565b606060658054806020026020016040519081016040528092919081815260200182805480156114b357602002820191906000526020600020905b8160009054906101000a900473ffffffffffffffffffffffffffffffffffffffff1673ffffffffffffffffffffffffffffffffffffffff1681526020019060010190808311611469575b5050505050905090565b60008060019054906101000a900460ff161590508080156114ee5750600160008054906101000a900460ff1660ff16105b8061151b57506114fd30611821565b15801561151a5750600160008054906101000a900460ff1660ff16145b5b61155a576040517f08c379a000000000000000000000000000000000000000000000000000000000815260040161155190612455565b60405180910390fd5b60016000806101000a81548160ff021916908360ff1602179055508015611597576001600060016101000a81548160ff0219169083151502179055505b61159f611844565b80156115f85760008060016101000a81548160ff0219169083151502179055507f7f26b83ff96e1f2b6a682f133852f6798a09c465da95921460cefb384740249860016040516115ef91906124bd565b60405180910390a15b50565b600080606660008473ffffffffffffffffffffffffffffffffffffffff1673ffffffffffffffffffffffffffffffffffffffff1681526020019081526020016000208054905011156116505760019050611655565b600090505b919050565b6116626116dd565b600073ffffffffffffffffffffffffffffffffffffffff168173ffffffffffffffffffffffffffffffffffffffff16036116d1576040517f08c379a00000000000000000000000000000000000000000000000000000000081526004016116c89061254a565b60405180910390fd5b6116da8161175b565b50565b6116e561189d565b73ffffffffffffffffffffffffffffffffffffffff166117036109a2565b73ffffffffffffffffffffffffffffffffffffffff1614611759576040517f08c379a0000000000000000000000000000000000000000000000000000000008152600401611750906125b6565b60405180910390fd5b565b6000603360009054906101000a900473ffffffffffffffffffffffffffffffffffffffff16905081603360006101000a81548173ffffffffffffffffffffffffffffffffffffffff021916908373ffffffffffffffffffffffffffffffffffffffff1602179055508173ffffffffffffffffffffffffffffffffffffffff168173ffffffffffffffffffffffffffffffffffffffff167f8be0079c531659141344cd1fd0a4f28419497f9722a3daafe3b4186f6b6457e060405160405180910390a35050565b6000808273ffffffffffffffffffffffffffffffffffffffff163b119050919050565b600060019054906101000a900460ff16611893576040517f08c379a000000000000000000000000000000000000000000000000000000000815260040161188a90612648565b60405180910390fd5b61189b6118a5565b565b600033905090565b600060019054906101000a900460ff166118f4576040517f08c379a00000000000000000000000000000000000000000000000000000000081526004016118eb90612648565b60405180910390fd5b6119046118ff61189d565b61175b565b565b828054828255906000526020600020908101928215611942579160200282015b82811115611941578235825591602001919060010190611926565b5b50905061194f9190611974565b5090565b50805460008255906000526020600020908101906119719190611974565b50565b5b8082111561198d576000816000905550600101611975565b5090565b600080fd5b600080fd5b600073ffffffffffffffffffffffffffffffffffffffff82169050919050565b60006119c68261199b565b9050919050565b60006119d8826119bb565b9050919050565b6119e8816119cd565b81146119f357600080fd5b50565b600081359050611a05816119df565b92915050565b600080fd5b600080fd5b600080fd5b60008083601f840112611a3057611a2f611a0b565b5b8235905067ffffffffffffffff811115611a4d57611a4c611a10565b5b602083019150836020820283011115611a6957611a68611a15565b5b9250929050565b600080600060408486031215611a8957611a88611991565b5b6000611a97868287016119f6565b935050602084013567ffffffffffffffff811115611ab857611ab7611996565b5b611ac486828701611a1a565b92509250509250925092565b611ad9816119bb565b8114611ae457600080fd5b50565b600081359050611af681611ad0565b92915050565b6000819050919050565b611b0f81611afc565b8114611b1a57600080fd5b50565b600081359050611b2c81611b06565b92915050565b60008060408385031215611b4957611b48611991565b5b6000611b5785828601611ae7565b9250506020611b6885828601611b1d565b9150509250929050565b60008115159050919050565b611b8781611b72565b82525050565b6000602082019050611ba26000830184611b7e565b92915050565b600060208284031215611bbe57611bbd611991565b5b6000611bcc84828501611b1d565b91505092915050565b600081519050919050565b600082825260208201905092915050565b6000819050602082019050919050565b6000819050919050565b6000611c26611c21611c1c8461199b565b611c01565b61199b565b9050919050565b6000611c3882611c0b565b9050919050565b6000611c4a82611c2d565b9050919050565b611c5a81611c3f565b82525050565b6000611c6c8383611c51565b60208301905092915050565b6000602082019050919050565b6000611c9082611bd5565b611c9a8185611be0565b9350611ca583611bf1565b8060005b83811015611cd6578151611cbd8882611c60565b9750611cc883611c78565b925050600181019050611ca9565b5085935050505092915050565b60006020820190508181036000830152611cfd8184611c85565b905092915050565b611d0e816119bb565b82525050565b6000602082019050611d296000830184611d05565b92915050565b600060208284031215611d4557611d44611991565b5b6000611d53848285016119f6565b91505092915050565b600081519050919050565b600082825260208201905092915050565b6000819050602082019050919050565b611d9181611afc565b82525050565b6000611da38383611d88565b60208301905092915050565b6000602082019050919050565b6000611dc782611d5c565b611dd18185611d67565b9350611ddc83611d78565b8060005b83811015611e0d578151611df48882611d97565b9750611dff83611daf565b925050600181019050611de0565b5085935050505092915050565b60006020820190508181036000830152611e348184611dbc565b905092915050565b600060208284031215611e5257611e51611991565b5b6000611e6084828501611ae7565b91505092915050565b600082825260208201905092915050565b7f696e76616c696420617267756d656e74202d207a65726f206164647265737300600082015250565b6000611eb0601f83611e69565b9150611ebb82611e7a565b602082019050919050565b60006020820190508181036000830152611edf81611ea3565b9050919050565b7f4e4f542061207472757374656420697373756572000000000000000000000000600082015250565b6000611f1c601483611e69565b9150611f2782611ee6565b602082019050919050565b60006020820190508181036000830152611f4b81611f0f565b9050919050565b7f63616e6e6f742068617665206d6f7265207468616e20313520636c61696d207460008201527f6f70696373000000000000000000000000000000000000000000000000000000602082015250565b6000611fae602583611e69565b9150611fb982611f52565b604082019050919050565b60006020820190508181036000830152611fdd81611fa1565b9050919050565b7f636c61696d20746f706963732063616e6e6f7420626520656d70747900000000600082015250565b600061201a601c83611e69565b915061202582611fe4565b602082019050919050565b600060208201905081810360008301526120498161200d565b9050919050565b7f4e487b7100000000000000000000000000000000000000000000000000000000600052603260045260246000fd5b7f4e487b7100000000000000000000000000000000000000000000000000000000600052601160045260246000fd5b60006120b982611afc565b91506120c483611afc565b92508282039050818111156120dc576120db61207f565b5b92915050565b7f4e487b7100000000000000000000000000000000000000000000000000000000600052603160045260246000fd5b600061211c82611afc565b91507fffffffffffffffffffffffffffffffffffffffffffffffffffffffffffffffff820361214e5761214d61207f565b5b600182019050919050565b600080fd5b82818337505050565b60006121738385611d67565b93507f07ffffffffffffffffffffffffffffffffffffffffffffffffffffffffffffff8311156121a6576121a5612159565b5b6020830292506121b783858461215e565b82840190509392505050565b600060208201905081810360008301526121de818486612167565b90509392505050565b7f747275737465642049737375657220616c726561647920657869737473000000600082015250565b600061221d601d83611e69565b9150612228826121e7565b602082019050919050565b6000602082019050818103600083015261224c81612210565b9050919050565b7f7472757374656420636c61696d20746f706963732063616e6e6f74206265206560008201527f6d70747900000000000000000000000000000000000000000000000000000000602082015250565b60006122af602483611e69565b91506122ba82612253565b604082019050919050565b600060208201905081810360008301526122de816122a2565b9050919050565b7f63616e6e6f742068617665206d6f7265207468616e203530207472757374656460008201527f2069737375657273000000000000000000000000000000000000000000000000602082015250565b6000612341602883611e69565b915061234c826122e5565b604082019050919050565b6000602082019050818103600083015261237081612334565b9050919050565b7f747275737465642049737375657220646f65736e277420657869737400000000600082015250565b60006123ad601c83611e69565b91506123b882612377565b602082019050919050565b600060208201905081810360008301526123dc816123a0565b9050919050565b7f496e697469616c697a61626c653a20636f6e747261637420697320616c72656160008201527f647920696e697469616c697a6564000000000000000000000000000000000000602082015250565b600061243f602e83611e69565b915061244a826123e3565b604082019050919050565b6000602082019050818103600083015261246e81612432565b9050919050565b6000819050919050565b600060ff82169050919050565b60006124a76124a261249d84612475565b611c01565b61247f565b9050919050565b6124b78161248c565b82525050565b60006020820190506124d260008301846124ae565b92915050565b7f4f776e61626c653a206e6577206f776e657220697320746865207a65726f206160008201527f6464726573730000000000000000000000000000000000000000000000000000602082015250565b6000612534602683611e69565b915061253f826124d8565b604082019050919050565b6000602082019050818103600083015261256381612527565b9050919050565b7f4f776e61626c653a2063616c6c6572206973206e6f7420746865206f776e6572600082015250565b60006125a0602083611e69565b91506125ab8261256a565b602082019050919050565b600060208201905081810360008301526125cf81612593565b9050919050565b7f496e697469616c697a61626c653a20636f6e7472616374206973206e6f74206960008201527f6e697469616c697a696e67000000000000000000000000000000000000000000602082015250565b6000612632602b83611e69565b915061263d826125d6565b604082019050919050565b6000602082019050818103600083015261266181612625565b905091905056fea2646970667358221220322b7a2ea4f43301524f13029f9548bfe78a7232fc9f35b6af4beedf427cc88a64736f6c63430008110033","linkReferences":{}},"methodIdentifiers":{"addTrustedIssuer(address,uint256[])":"9f63ea98","getTrustedIssuerClaimTopics(address)":"c28fb278","getTrustedIssuers()":"d9dd24c5","getTrustedIssuersForClaimTopic(uint256)":"52c111d1","hasClaimTopic(address,uint256)":"34a89987","init()":"e1c7392a","isTrustedIssuer(address)":"ef2ed1a4","owner()":"8da5cb5b","removeTrustedIssuer(address)":"b93d28eb","renounceOwnership()":"715018a6","transferOwnership(address)":"f2fde38b","updateIssuerClaimTopics(address,uint256[])":"04bc7e84"},"id":51}