{"abi":[{"type":"function","name":"addAgent","inputs":[{"name":"_agent","type":"address","internalType":"address"}],"outputs":[],"stateMutability":"nonpayable"},{"type":"function","name":"addIdentityToStorage","inputs":[{"name":"_userAddress","type":"address","internalType":"address"},{"name":"_identity","type":"address","internalType":"contract IIdentity"},{"name":"_country","type":"uint16","internalType":"uint16"}],"outputs":[],"stateMutability":"nonpayable"},{"type":"function","name":"bindIdentityRegistry","inputs":[{"name":"_identityRegistry","type":"address","internalType":"address"}],"outputs":[],"stateMutability":"nonpayable"},{"type":"function","name":"init","inputs":[],"outputs":[],"stateMutability":"nonpayable"},{"type":"function","name":"isAgent","inputs":[{"name":"_agent","type":"address","internalType":"address"}],"outputs":[{"name":"","type":"bool","internalType":"bool"}],"stateMutability":"view"},{"type":"function","name":"linkedIdentityRegistries","inputs":[],"outputs":[{"name":"","type":"address[]","internalType":"address[]"}],"stateMutability":"view"},{"type":"function","name":"modifyStoredIdentity","inputs":[{"name":"_userAddress","type":"address","internalType":"address"},{"name":"_identity","type":"address","internalType":"contract IIdentity"}],"outputs":[],"stateMutability":"nonpayable"},{"type":"function","name":"modifyStoredInvestorCountry","inputs":[{"name":"_userAddress","type":"address","internalType":"address"},{"name":"_country","type":"uint16","internalType":"uint16"}],"outputs":[],"stateMutability":"nonpayable"},{"type":"function","name":"owner","inputs":[],"outputs":[{"name":"","type":"address","internalType":"address"}],"stateMutability":"view"},{"type":"function","name":"removeAgent","inputs":[{"name":"_agent","type":"address","internalType":"address"}],"outputs":[],"stateMutability":"nonpayable"},{"type":"function","name":"removeIdentityFromStorage","inputs":[{"name":"_userAddress","type":"address","internalType":"address"}],"outputs":[],"stateMutability":"nonpayable"},{"type":"function","name":"renounceOwnership","inputs":[],"outputs":[],"stateMutability":"nonpayable"},{"type":"function","name":"storedIdentity","inputs":[{"name":"_userAddress","type":"address","internalType":"address"}],"outputs":[{"name":"","type":"address","internalType":"contract IIdentity"}],"stateMutability":"view"},{"type":"function","name":"storedInvestorCountry","inputs":[{"name":"_userAddress","type":"address","internalType":"address"}],"outputs":[{"name":"","type":"uint16","internalType":"uint16"}],"stateMutability":"view"},{"type":"function","name":"transferOwnership","inputs":[{"name":"newOwner","type":"address","internalType":"address"}],"outputs":[],"stateMutability":"nonpayable"},{"type":"function","name":"unbindIdentityRegistry","inputs":[{"name":"_identityRegistry","type":"address","internalType":"address"}],"outputs":[],"stateMutability":"nonpayable"},{"type":"event","name":"AgentAdded","inputs":[{"name":"_agent","type":"address","indexed":true,"internalType":"address"}],"anonymous":false},{"type":"event","name":"AgentRemoved","inputs":[{"name":"_agent","type":"address","indexed":true,"internalType":"address"}],"anonymous":false},{"type":"event","name":"CountryModified","inputs":[{"name":"investorAddress","type":"address","indexed":true,"internalType":"address"},{"name":"country","type":"uint16","indexed":true,"internalType":"uint16"}],"anonymous":false},{"type":"event","name":"IdentityModified","inputs":[{"name":"oldIdentity","type":"address","indexed":true,"internalType":"contract IIdentity"},{"name":"newIdentity","type":"address","indexed":true,"internalType":"contract IIdentity"}],"anonymous":false},{"type":"event","name":"IdentityRegistryBound","inputs":[{"name":"identityRegistry","type":"address","indexed":true,"internalType":"address"}],"anonymous":false},{"type":"event","name":"IdentityRegistryUnbound","inputs":[{"name":"identityRegistry","type":"address","indexed":true,"internalType":"address"}],"anonymous":false},{"type":"event","name":"IdentityStored","inputs":[{"name":"investorAddress","type":"address","indexed":true,"internalType":"address"},{"name":"identity","type":"address","indexed":true,"internalType":"contract IIdentity"}],"anonymous":false},{"type":"event","name":"IdentityUnstored","inputs":[{"name":"investorAddress","type":"address","indexed":true,"internalType":"address"},{"name":"identity","type":"address","indexed":true,"internalType":"contract IIdentity"}],"anonymous":false},{"type":"event","name":"Initialized","inputs":[{"name":"version","type":"uint8","indexed":false,"internalType":"uint8"}],"anonymous":false},{"type":"event","name":"OwnershipTransferred","inputs":[{"name":"previousOwner","type":"address","indexed":true,"internalType":"address"},{"name":"newOwner","type":"address","indexed":true,"internalType":"address"}],"anonymous":false}],"bytecode":{"object":"0x608060405234801561001057600080fd5b50612735806100206000396000f3fe608060405234801561001057600080fd5b50600436106101005760003560e01c806397a6278e11610097578063cf191bcd11610066578063cf191bcd14610283578063e1c7392a1461029f578063e805cf86146102a9578063f2fde38b146102c557610100565b806397a6278e146102115780639f3418d51461022d578063a53410dd14610249578063bf9eb9591461026557610100565b80637988d3a5116100d35780637988d3a51461018b57806384e79842146101bb5780638da5cb5b146101d757806397a012f7146101f557610100565b80631ffbb06414610105578063690a49f914610135578063715018a614610151578063727e13bc1461015b575b600080fd5b61011f600480360381019061011a9190611b96565b6102e1565b60405161012c9190611bde565b60405180910390f35b61014f600480360381019061014a9190611b96565b6102fe565b005b610159610468565b005b61017560048036038101906101709190611b96565b61047c565b6040516101829190611c16565b60405180910390f35b6101a560048036038101906101a09190611b96565b6104d6565b6040516101b29190611c90565b60405180910390f35b6101d560048036038101906101d09190611b96565b610542565b005b6101df610613565b6040516101ec9190611cba565b60405180910390f35b61020f600480360381019061020a9190611b96565b61063d565b005b61022b60048036038101906102269190611b96565b6108d1565b005b61024760048036038101906102429190611d01565b6109a2565b005b610263600480360381019061025e9190611d7f565b610bd3565b005b61026d610ed1565b60405161027a9190611e90565b60405180910390f35b61029d60048036038101906102989190611b96565b610f5f565b005b6102a761122a565b005b6102c360048036038101906102be9190611eb2565b611368565b005b6102df60048036038101906102da9190611b96565b611671565b005b60006102f78260656116f490919063ffffffff16565b9050919050565b600073ffffffffffffffffffffffffffffffffffffffff168173ffffffffffffffffffffffffffffffffffffffff160361036d576040517f08c379a000000000000000000000000000000000000000000000000000000000815260040161036490611f4f565b60405180910390fd5b61012c606780549050106103b6576040517f08c379a00000000000000000000000000000000000000000000000000000000081526004016103ad90611fe1565b60405180910390fd5b6103bf81610542565b6067819080600181540180825580915050600190039060005260206000200160009091909190916101000a81548173ffffffffffffffffffffffffffffffffffffffff021916908373ffffffffffffffffffffffffffffffffffffffff1602179055508073ffffffffffffffffffffffffffffffffffffffff167f500c250171aa20e861b680f93502547b9d436eda7d4c537fc360db6e0c6eedfb60405160405180910390a250565b6104706117bb565b61047a6000611839565b565b6000606660008373ffffffffffffffffffffffffffffffffffffffff1673ffffffffffffffffffffffffffffffffffffffff16815260200190815260200160002060000160149054906101000a900461ffff169050919050565b6000606660008373ffffffffffffffffffffffffffffffffffffffff1673ffffffffffffffffffffffffffffffffffffffff16815260200190815260200160002060000160009054906101000a900473ffffffffffffffffffffffffffffffffffffffff169050919050565b61054a6117bb565b600073ffffffffffffffffffffffffffffffffffffffff168173ffffffffffffffffffffffffffffffffffffffff16036105b9576040517f08c379a00000000000000000000000000000000000000000000000000000000081526004016105b090611f4f565b60405180910390fd5b6105cd8160656118ff90919063ffffffff16565b8073ffffffffffffffffffffffffffffffffffffffff167ff68e73cec97f2d70aa641fb26e87a4383686e2efacb648f2165aeb02ac562ec560405160405180910390a250565b6000603360009054906101000a900473ffffffffffffffffffffffffffffffffffffffff16905090565b600073ffffffffffffffffffffffffffffffffffffffff168173ffffffffffffffffffffffffffffffffffffffff16036106ac576040517f08c379a00000000000000000000000000000000000000000000000000000000081526004016106a390611f4f565b60405180910390fd5b6000606780549050116106f4576040517f08c379a00000000000000000000000000000000000000000000000000000000081526004016106eb9061204d565b60405180910390fd5b6000606780549050905060005b81811015610880578273ffffffffffffffffffffffffffffffffffffffff16606782815481106107345761073361206d565b5b9060005260206000200160009054906101000a900473ffffffffffffffffffffffffffffffffffffffff1673ffffffffffffffffffffffffffffffffffffffff160361086d57606760018361078991906120d5565b8154811061079a5761079961206d565b5b9060005260206000200160009054906101000a900473ffffffffffffffffffffffffffffffffffffffff16606782815481106107d9576107d861206d565b5b9060005260206000200160006101000a81548173ffffffffffffffffffffffffffffffffffffffff021916908373ffffffffffffffffffffffffffffffffffffffff160217905550606780548061083357610832612109565b5b6001900381819060005260206000200160006101000a81549073ffffffffffffffffffffffffffffffffffffffff02191690559055610880565b808061087890612138565b915050610701565b5061088a826108d1565b8173ffffffffffffffffffffffffffffffffffffffff167f51f353eb5801583fdf2706e43c045b62fdf6b1566820b349390616363ecf72c960405160405180910390a25050565b6108d96117bb565b600073ffffffffffffffffffffffffffffffffffffffff168173ffffffffffffffffffffffffffffffffffffffff1603610948576040517f08c379a000000000000000000000000000000000000000000000000000000000815260040161093f90611f4f565b60405180910390fd5b61095c8160656119a790919063ffffffff16565b8073ffffffffffffffffffffffffffffffffffffffff167fed9c8ad8d5a0a66898ea49d2956929c93ae2e8bd50281b2ed897c5d1a6737e0b60405160405180910390a250565b6109ab336102e1565b6109ea576040517f08c379a00000000000000000000000000000000000000000000000000000000081526004016109e1906121f2565b60405180910390fd5b600073ffffffffffffffffffffffffffffffffffffffff168273ffffffffffffffffffffffffffffffffffffffff1603610a59576040517f08c379a0000000000000000000000000000000000000000000000000000000008152600401610a5090611f4f565b60405180910390fd5b600073ffffffffffffffffffffffffffffffffffffffff16606660008473ffffffffffffffffffffffffffffffffffffffff1673ffffffffffffffffffffffffffffffffffffffff16815260200190815260200160002060000160009054906101000a900473ffffffffffffffffffffffffffffffffffffffff1673ffffffffffffffffffffffffffffffffffffffff1603610b2a576040517f08c379a0000000000000000000000000000000000000000000000000000000008152600401610b219061225e565b60405180910390fd5b80606660008473ffffffffffffffffffffffffffffffffffffffff1673ffffffffffffffffffffffffffffffffffffffff16815260200190815260200160002060000160146101000a81548161ffff021916908361ffff1602179055508061ffff168273ffffffffffffffffffffffffffffffffffffffff167f20965fcdc6eed7ae398065b40ece4e732ba667992ca819fc54e80e9f2047c4cf60405160405180910390a35050565b610bdc336102e1565b610c1b576040517f08c379a0000000000000000000000000000000000000000000000000000000008152600401610c12906121f2565b60405180910390fd5b600073ffffffffffffffffffffffffffffffffffffffff168373ffffffffffffffffffffffffffffffffffffffff1614158015610c855750600073ffffffffffffffffffffffffffffffffffffffff168273ffffffffffffffffffffffffffffffffffffffff1614155b610cc4576040517f08c379a0000000000000000000000000000000000000000000000000000000008152600401610cbb90611f4f565b60405180910390fd5b600073ffffffffffffffffffffffffffffffffffffffff16606660008573ffffffffffffffffffffffffffffffffffffffff1673ffffffffffffffffffffffffffffffffffffffff16815260200190815260200160002060000160009054906101000a900473ffffffffffffffffffffffffffffffffffffffff1673ffffffffffffffffffffffffffffffffffffffff1614610d95576040517f08c379a0000000000000000000000000000000000000000000000000000000008152600401610d8c906122ca565b60405180910390fd5b81606660008573ffffffffffffffffffffffffffffffffffffffff1673ffffffffffffffffffffffffffffffffffffffff16815260200190815260200160002060000160006101000a81548173ffffffffffffffffffffffffffffffffffffffff021916908373ffffffffffffffffffffffffffffffffffffffff16021790555080606660008573ffffffffffffffffffffffffffffffffffffffff1673ffffffffffffffffffffffffffffffffffffffff16815260200190815260200160002060000160146101000a81548161ffff021916908361ffff1602179055508173ffffffffffffffffffffffffffffffffffffffff168373ffffffffffffffffffffffffffffffffffffffff167e30dea7e9c9afaa2e3c9810f2fc9b5181f1bad74ca5a8db85f746a33585e74760405160405180910390a3505050565b60606067805480602002602001604051908101604052809291908181526020018280548015610f5557602002820191906000526020600020905b8160009054906101000a900473ffffffffffffffffffffffffffffffffffffffff1673ffffffffffffffffffffffffffffffffffffffff1681526020019060010190808311610f0b575b5050505050905090565b610f68336102e1565b610fa7576040517f08c379a0000000000000000000000000000000000000000000000000000000008152600401610f9e906121f2565b60405180910390fd5b600073ffffffffffffffffffffffffffffffffffffffff168173ffffffffffffffffffffffffffffffffffffffff1603611016576040517f08c379a000000000000000000000000000000000000000000000000000000000815260040161100d90611f4f565b60405180910390fd5b600073ffffffffffffffffffffffffffffffffffffffff16606660008373ffffffffffffffffffffffffffffffffffffffff1673ffffffffffffffffffffffffffffffffffffffff16815260200190815260200160002060000160009054906101000a900473ffffffffffffffffffffffffffffffffffffffff1673ffffffffffffffffffffffffffffffffffffffff16036110e7576040517f08c379a00000000000000000000000000000000000000000000000000000000081526004016110de9061225e565b60405180910390fd5b6000606660008373ffffffffffffffffffffffffffffffffffffffff1673ffffffffffffffffffffffffffffffffffffffff16815260200190815260200160002060000160009054906101000a900473ffffffffffffffffffffffffffffffffffffffff169050606660008373ffffffffffffffffffffffffffffffffffffffff1673ffffffffffffffffffffffffffffffffffffffff168152602001908152602001600020600080820160006101000a81549073ffffffffffffffffffffffffffffffffffffffff02191690556000820160146101000a81549061ffff021916905550508073ffffffffffffffffffffffffffffffffffffffff168273ffffffffffffffffffffffffffffffffffffffff167fca6a4c3370b859312246e7f086284076e557997e10d856b716c23ab67067790b60405160405180910390a35050565b60008060019054906101000a900460ff1615905080801561125b5750600160008054906101000a900460ff1660ff16105b80611288575061126a30611a4e565b1580156112875750600160008054906101000a900460ff1660ff16145b5b6112c7576040517f08c379a00000000000000000000000000000000000000000000000000000000081526004016112be9061235c565b60405180910390fd5b60016000806101000a81548160ff021916908360ff1602179055508015611304576001600060016101000a81548160ff0219169083151502179055505b61130c611a71565b80156113655760008060016101000a81548160ff0219169083151502179055507f7f26b83ff96e1f2b6a682f133852f6798a09c465da95921460cefb3847402498600160405161135c91906123c4565b60405180910390a15b50565b611371336102e1565b6113b0576040517f08c379a00000000000000000000000000000000000000000000000000000000081526004016113a7906121f2565b60405180910390fd5b600073ffffffffffffffffffffffffffffffffffffffff168273ffffffffffffffffffffffffffffffffffffffff161415801561141a5750600073ffffffffffffffffffffffffffffffffffffffff168173ffffffffffffffffffffffffffffffffffffffff1614155b611459576040517f08c379a000000000000000000000000000000000000000000000000000000000815260040161145090611f4f565b60405180910390fd5b600073ffffffffffffffffffffffffffffffffffffffff16606660008473ffffffffffffffffffffffffffffffffffffffff1673ffffffffffffffffffffffffffffffffffffffff16815260200190815260200160002060000160009054906101000a900473ffffffffffffffffffffffffffffffffffffffff1673ffffffffffffffffffffffffffffffffffffffff160361152a576040517f08c379a00000000000000000000000000000000000000000000000000000000081526004016115219061225e565b60405180910390fd5b6000606660008473ffffffffffffffffffffffffffffffffffffffff1673ffffffffffffffffffffffffffffffffffffffff16815260200190815260200160002060000160009054906101000a900473ffffffffffffffffffffffffffffffffffffffff16905081606660008573ffffffffffffffffffffffffffffffffffffffff1673ffffffffffffffffffffffffffffffffffffffff16815260200190815260200160002060000160006101000a81548173ffffffffffffffffffffffffffffffffffffffff021916908373ffffffffffffffffffffffffffffffffffffffff1602179055508173ffffffffffffffffffffffffffffffffffffffff168173ffffffffffffffffffffffffffffffffffffffff167f556ce885dfcea52155c773f1ed2e58781c51945c13030ab8f793c61f51d1b80860405160405180910390a3505050565b6116796117bb565b600073ffffffffffffffffffffffffffffffffffffffff168173ffffffffffffffffffffffffffffffffffffffff16036116e8576040517f08c379a00000000000000000000000000000000000000000000000000000000081526004016116df90612451565b60405180910390fd5b6116f181611839565b50565b60008073ffffffffffffffffffffffffffffffffffffffff168273ffffffffffffffffffffffffffffffffffffffff1603611764576040517f08c379a000000000000000000000000000000000000000000000000000000000815260040161175b906124e3565b60405180910390fd5b8260000160008373ffffffffffffffffffffffffffffffffffffffff1673ffffffffffffffffffffffffffffffffffffffff16815260200190815260200160002060009054906101000a900460ff16905092915050565b6117c3611aca565b73ffffffffffffffffffffffffffffffffffffffff166117e1610613565b73ffffffffffffffffffffffffffffffffffffffff1614611837576040517f08c379a000000000000000000000000000000000000000000000000000000000815260040161182e9061254f565b60405180910390fd5b565b6000603360009054906101000a900473ffffffffffffffffffffffffffffffffffffffff16905081603360006101000a81548173ffffffffffffffffffffffffffffffffffffffff021916908373ffffffffffffffffffffffffffffffffffffffff1602179055508173ffffffffffffffffffffffffffffffffffffffff168173ffffffffffffffffffffffffffffffffffffffff167f8be0079c531659141344cd1fd0a4f28419497f9722a3daafe3b4186f6b6457e060405160405180910390a35050565b61190982826116f4565b15611949576040517f08c379a0000000000000000000000000000000000000000000000000000000008152600401611940906125bb565b60405180910390fd5b60018260000160008373ffffffffffffffffffffffffffffffffffffffff1673ffffffffffffffffffffffffffffffffffffffff16815260200190815260200160002060006101000a81548160ff0219169083151502179055505050565b6119b182826116f4565b6119f0576040517f08c379a00000000000000000000000000000000000000000000000000000000081526004016119e79061264d565b60405180910390fd5b60008260000160008373ffffffffffffffffffffffffffffffffffffffff1673ffffffffffffffffffffffffffffffffffffffff16815260200190815260200160002060006101000a81548160ff0219169083151502179055505050565b6000808273ffffffffffffffffffffffffffffffffffffffff163b119050919050565b600060019054906101000a900460ff16611ac0576040517f08c379a0000000000000000000000000000000000000000000000000000000008152600401611ab7906126df565b60405180910390fd5b611ac8611ad2565b565b600033905090565b600060019054906101000a900460ff16611b21576040517f08c379a0000000000000000000000000000000000000000000000000000000008152600401611b18906126df565b60405180910390fd5b611b31611b2c611aca565b611839565b565b600080fd5b600073ffffffffffffffffffffffffffffffffffffffff82169050919050565b6000611b6382611b38565b9050919050565b611b7381611b58565b8114611b7e57600080fd5b50565b600081359050611b9081611b6a565b92915050565b600060208284031215611bac57611bab611b33565b5b6000611bba84828501611b81565b91505092915050565b60008115159050919050565b611bd881611bc3565b82525050565b6000602082019050611bf36000830184611bcf565b92915050565b600061ffff82169050919050565b611c1081611bf9565b82525050565b6000602082019050611c2b6000830184611c07565b92915050565b6000819050919050565b6000611c56611c51611c4c84611b38565b611c31565b611b38565b9050919050565b6000611c6882611c3b565b9050919050565b6000611c7a82611c5d565b9050919050565b611c8a81611c6f565b82525050565b6000602082019050611ca56000830184611c81565b92915050565b611cb481611b58565b82525050565b6000602082019050611ccf6000830184611cab565b92915050565b611cde81611bf9565b8114611ce957600080fd5b50565b600081359050611cfb81611cd5565b92915050565b60008060408385031215611d1857611d17611b33565b5b6000611d2685828601611b81565b9250506020611d3785828601611cec565b9150509250929050565b6000611d4c82611b58565b9050919050565b611d5c81611d41565b8114611d6757600080fd5b50565b600081359050611d7981611d53565b92915050565b600080600060608486031215611d9857611d97611b33565b5b6000611da686828701611b81565b9350506020611db786828701611d6a565b9250506040611dc886828701611cec565b9150509250925092565b600081519050919050565b600082825260208201905092915050565b6000819050602082019050919050565b611e0781611b58565b82525050565b6000611e198383611dfe565b60208301905092915050565b6000602082019050919050565b6000611e3d82611dd2565b611e478185611ddd565b9350611e5283611dee565b8060005b83811015611e83578151611e6a8882611e0d565b9750611e7583611e25565b925050600181019050611e56565b5085935050505092915050565b60006020820190508181036000830152611eaa8184611e32565b905092915050565b60008060408385031215611ec957611ec8611b33565b5b6000611ed785828601611b81565b9250506020611ee885828601611d6a565b9150509250929050565b600082825260208201905092915050565b7f696e76616c696420617267756d656e74202d207a65726f206164647265737300600082015250565b6000611f39601f83611ef2565b9150611f4482611f03565b602082019050919050565b60006020820190508181036000830152611f6881611f2c565b9050919050565b7f63616e6e6f742062696e64206d6f7265207468616e2033303020495220746f2060008201527f3120495253000000000000000000000000000000000000000000000000000000602082015250565b6000611fcb602583611ef2565b9150611fd682611f6f565b604082019050919050565b60006020820190508181036000830152611ffa81611fbe565b9050919050565b7f6964656e74697479207265676973747279206973206e6f742073746f72656400600082015250565b6000612037601f83611ef2565b915061204282612001565b602082019050919050565b600060208201905081810360008301526120668161202a565b9050919050565b7f4e487b7100000000000000000000000000000000000000000000000000000000600052603260045260246000fd5b6000819050919050565b7f4e487b7100000000000000000000000000000000000000000000000000000000600052601160045260246000fd5b60006120e08261209c565b91506120eb8361209c565b9250828203905081811115612103576121026120a6565b5b92915050565b7f4e487b7100000000000000000000000000000000000000000000000000000000600052603160045260246000fd5b60006121438261209c565b91507fffffffffffffffffffffffffffffffffffffffffffffffffffffffffffffffff8203612175576121746120a6565b5b600182019050919050565b7f4167656e74526f6c653a2063616c6c657220646f6573206e6f7420686176652060008201527f746865204167656e7420726f6c65000000000000000000000000000000000000602082015250565b60006121dc602e83611ef2565b91506121e782612180565b604082019050919050565b6000602082019050818103600083015261220b816121cf565b9050919050565b7f61646472657373206e6f742073746f7265642079657400000000000000000000600082015250565b6000612248601683611ef2565b915061225382612212565b602082019050919050565b600060208201905081810360008301526122778161223b565b9050919050565b7f616464726573732073746f72656420616c726561647900000000000000000000600082015250565b60006122b4601683611ef2565b91506122bf8261227e565b602082019050919050565b600060208201905081810360008301526122e3816122a7565b9050919050565b7f496e697469616c697a61626c653a20636f6e747261637420697320616c72656160008201527f647920696e697469616c697a6564000000000000000000000000000000000000602082015250565b6000612346602e83611ef2565b9150612351826122ea565b604082019050919050565b6000602082019050818103600083015261237581612339565b9050919050565b6000819050919050565b600060ff82169050919050565b60006123ae6123a96123a48461237c565b611c31565b612386565b9050919050565b6123be81612393565b82525050565b60006020820190506123d960008301846123b5565b92915050565b7f4f776e61626c653a206e6577206f776e657220697320746865207a65726f206160008201527f6464726573730000000000000000000000000000000000000000000000000000602082015250565b600061243b602683611ef2565b9150612446826123df565b604082019050919050565b6000602082019050818103600083015261246a8161242e565b9050919050565b7f526f6c65733a206163636f756e7420697320746865207a65726f20616464726560008201527f7373000000000000000000000000000000000000000000000000000000000000602082015250565b60006124cd602283611ef2565b91506124d882612471565b604082019050919050565b600060208201905081810360008301526124fc816124c0565b9050919050565b7f4f776e61626c653a2063616c6c6572206973206e6f7420746865206f776e6572600082015250565b6000612539602083611ef2565b915061254482612503565b602082019050919050565b600060208201905081810360008301526125688161252c565b9050919050565b7f526f6c65733a206163636f756e7420616c72656164792068617320726f6c6500600082015250565b60006125a5601f83611ef2565b91506125b08261256f565b602082019050919050565b600060208201905081810360008301526125d481612598565b9050919050565b7f526f6c65733a206163636f756e7420646f6573206e6f74206861766520726f6c60008201527f6500000000000000000000000000000000000000000000000000000000000000602082015250565b6000612637602183611ef2565b9150612642826125db565b604082019050919050565b600060208201905081810360008301526126668161262a565b9050919050565b7f496e697469616c697a61626c653a20636f6e7472616374206973206e6f74206960008201527f6e697469616c697a696e67000000000000000000000000000000000000000000602082015250565b60006126c9602b83611ef2565b91506126d48261266d565b604082019050919050565b600060208201905081810360008301526126f8816126bc565b905091905056fea26469706673582212204de57139e894ad633781efff33ae42e414bfdb53ba1aaffeec5e4572f454efe164736f6c63430008110033","linkReferences":{}},"methodIdentifiers":{"addAgent(address)":"84e79842","addIdentityToStorage(address,address,uint16)":"a53410dd","bindIdentityRegistry(address)":"690a49f9","init()":"e1c7392a","isAgent(address)":"1ffbb064","linkedIdentityRegistries()":"bf9eb959","modifyStoredIdentity(address,address)":"e805cf86","modifyStoredInvestorCountry(address,uint16)":"9f3418d5","owner()":"8da5cb5b","removeAgent(address)":"97a6278e","removeIdentityFromStorage(address)":"cf191bcd","renounceOwnership()":"715018a6","storedIdentity(address)":"7988d3a5","storedInvestorCountry(address)":"727e13bc","transferOwnership(address)":"f2fde38b","unbindIdentityRegistry(address)":"97a012f7"},"id":50}