{"abi":[{"type":"constructor","inputs":[{"name":"initialManagementKey","type":"address","internalType":"address"},{"name":"_isLibrary","type":"bool","internalType":"bool"}],"stateMutability":"nonpayable"},{"type":"function","name":"addClaim","inputs":[{"name":"_topic","type":"uint256","internalType":"uint256"},{"name":"_scheme","type":"uint256","internalType":"uint256"},{"name":"_issuer","type":"address","internalType":"address"},{"name":"_signature","type":"bytes","internalType":"bytes"},{"name":"_data","type":"bytes","internalType":"bytes"},{"name":"_uri","type":"string","internalType":"string"}],"outputs":[{"name":"claimRequestId","type":"bytes32","internalType":"bytes32"}],"stateMutability":"nonpayable"},{"type":"function","name":"addKey","inputs":[{"name":"_key","type":"bytes32","internalType":"bytes32"},{"name":"_purpose","type":"uint256","internalType":"uint256"},{"name":"_type","type":"uint256","internalType":"uint256"}],"outputs":[{"name":"success","type":"bool","internalType":"bool"}],"stateMutability":"nonpayable"},{"type":"function","name":"approve","inputs":[{"name":"_id","type":"uint256","internalType":"uint256"},{"name":"_approve","type":"bool","internalType":"bool"}],"outputs":[{"name":"success","type":"bool","internalType":"bool"}],"stateMutability":"nonpayable"},{"type":"function","name":"execute","inputs":[{"name":"_to","type":"address","internalType":"address"},{"name":"_value","type":"uint256","internalType":"uint256"},{"name":"_data","type":"bytes","internalType":"bytes"}],"outputs":[{"name":"executionId","type":"uint256","internalType":"uint256"}],"stateMutability":"payable"},{"type":"function","name":"getClaim","inputs":[{"name":"_claimId","type":"bytes32","internalType":"bytes32"}],"outputs":[{"name":"topic","type":"uint256","internalType":"uint256"},{"name":"scheme","type":"uint256","internalType":"uint256"},{"name":"issuer","type":"address","internalType":"address"},{"name":"signature","type":"bytes","internalType":"bytes"},{"name":"data","type":"bytes","internalType":"bytes"},{"name":"uri","type":"string","internalType":"string"}],"stateMutability":"view"},{"type":"function","name":"getClaimIdsByTopic","inputs":[{"name":"_topic","type":"uint256","internalType":"uint256"}],"outputs":[{"name":"claimIds","type":"bytes32[]","internalType":"bytes32[]"}],"stateMutability":"view"},{"type":"function","name":"getKey","inputs":[{"name":"_key","type":"bytes32","internalType":"bytes32"}],"outputs":[{"name":"purposes","type":"uint256[]","internalType":"uint256[]"},{"name":"keyType","type":"uint256","internalType":"uint256"},{"name":"key","type":"bytes32","internalType":"bytes32"}],"stateMutability":"view"},{"type":"function","name":"getKeyPurposes","inputs":[{"name":"_key","type":"bytes32","internalType":"bytes32"}],"outputs":[{"name":"_purposes","type":"uint256[]","internalType":"uint256[]"}],"stateMutability":"view"},{"type":"function","name":"getKeysByPurpose","inputs":[{"name":"_purpose","type":"uint256","internalType":"uint256"}],"outputs":[{"name":"keys","type":"bytes32[]","internalType":"bytes32[]"}],"stateMutability":"view"},{"type":"function","name":"initialize","inputs":[{"name":"initialManagementKey","type":"address","internalType":"address"}],"outputs":[],"stateMutability":"nonpayable"},{"type":"function","name":"keyHasPurpose","inputs":[{"name":"_key","type":"bytes32","internalType":"bytes32"},{"name":"_purpose","type":"uint256","internalType":"uint256"}],"outputs":[{"name":"result","type":"bool","internalType":"bool"}],"stateMutability":"view"},{"type":"function","name":"removeClaim","inputs":[{"name":"_claimId","type":"bytes32","internalType":"bytes32"}],"outputs":[{"name":"success","type":"bool","internalType":"bool"}],"stateMutability":"nonpayable"},{"type":"function","name":"removeKey","inputs":[{"name":"_key","type":"bytes32","internalType":"bytes32"},{"name":"_purpose","type":"uint256","internalType":"uint256"}],"outputs":[{"name":"success","type":"bool","internalType":"bool"}],"stateMutability":"nonpayable"},{"type":"function","name":"version","inputs":[],"outputs":[{"name":"","type":"string","internalType":"string"}],"stateMutability":"pure"},{"type":"event","name":"Approved","inputs":[{"name":"executionId","type":"uint256","indexed":true,"internalType":"uint256"},{"name":"approved","type":"bool","indexed":false,"internalType":"bool"}],"anonymous":false},{"type":"event","name":"ClaimAdded","inputs":[{"name":"claimId","type":"bytes32","indexed":true,"internalType":"bytes32"},{"name":"topic","type":"uint256","indexed":true,"internalType":"uint256"},{"name":"scheme","type":"uint256","indexed":false,"internalType":"uint256"},{"name":"issuer","type":"address","indexed":true,"internalType":"address"},{"name":"signature","type":"bytes","indexed":false,"internalType":"bytes"},{"name":"data","type":"bytes","indexed":false,"internalType":"bytes"},{"name":"uri","type":"string","indexed":false,"internalType":"string"}],"anonymous":false},{"type":"event","name":"ClaimChanged","inputs":[{"name":"claimId","type":"bytes32","indexed":true,"internalType":"bytes32"},{"name":"topic","type":"uint256","indexed":true,"internalType":"uint256"},{"name":"scheme","type":"uint256","indexed":false,"internalType":"uint256"},{"name":"issuer","type":"address","indexed":true,"internalType":"address"},{"name":"signature","type":"bytes","indexed":false,"internalType":"bytes"},{"name":"data","type":"bytes","indexed":false,"internalType":"bytes"},{"name":"uri","type":"string","indexed":false,"internalType":"string"}],"anonymous":false},{"type":"event","name":"ClaimRemoved","inputs":[{"name":"claimId","type":"bytes32","indexed":true,"internalType":"bytes32"},{"name":"topic","type":"uint256","indexed":true,"internalType":"uint256"},{"name":"scheme","type":"uint256","indexed":false,"internalType":"uint256"},{"name":"issuer","type":"address","indexed":true,"internalType":"address"},{"name":"signature","type":"bytes","indexed":false,"internalType":"bytes"},{"name":"data","type":"bytes","indexed":false,"internalType":"bytes"},{"name":"uri","type":"string","indexed":false,"internalType":"string"}],"anonymous":false},{"type":"event","name":"Executed","inputs":[{"name":"executionId","type":"uint256","indexed":true,"internalType":"uint256"},{"name":"to","type":"address","indexed":true,"internalType":"address"},{"name":"value","type":"uint256","indexed":true,"internalType":"uint256"},{"name":"data","type":"bytes","indexed":false,"internalType":"bytes"}],"anonymous":false},{"type":"event","name":"ExecutionFailed","inputs":[{"name":"executionId","type":"uint256","indexed":true,"internalType":"uint256"},{"name":"to","type":"address","indexed":true,"internalType":"address"},{"name":"value","type":"uint256","indexed":true,"internalType":"uint256"},{"name":"data","type":"bytes","indexed":false,"internalType":"bytes"}],"anonymous":false},{"type":"event","name":"ExecutionRequested","inputs":[{"name":"executionId","type":"uint256","indexed":true,"internalType":"uint256"},{"name":"to","type":"address","indexed":true,"internalType":"address"},{"name":"value","type":"uint256","indexed":true,"internalType":"uint256"},{"name":"data","type":"bytes","indexed":false,"internalType":"bytes"}],"anonymous":false},{"type":"event","name":"KeyAdded","inputs":[{"name":"key","type":"bytes32","indexed":true,"internalType":"bytes32"},{"name":"purpose","type":"uint256","indexed":true,"internalType":"uint256"},{"name":"keyType","type":"uint256","indexed":true,"internalType":"uint256"}],"anonymous":false},{"type":"event","name":"KeyRemoved","inputs":[{"name":"key","type":"bytes32","indexed":true,"internalType":"bytes32"},{"name":"purpose","type":"uint256","indexed":true,"internalType":"uint256"},{"name":"keyType","type":"uint256","indexed":true,"internalType":"uint256"}],"anonymous":false}],"bytecode":{"object":"0x60806040526000600660006101000a81548160ff0219169083151502179055506000600660016101000a81548160ff0219169083151502179055503480156200004757600080fd5b50604051620044b5380380620044b583398181016040528101906200006d919062000401565b600073ffffffffffffffffffffffffffffffffffffffff168273ffffffffffffffffffffffffffffffffffffffff1603620000df576040517f08c379a0000000000000000000000000000000000000000000000000000000008152600401620000d690620004a9565b60405180910390fd5b80620000fc57620000f6826200012060201b60201c565b62000118565b6001600660006101000a81548160ff0219169083151502179055505b50506200056b565b600660009054906101000a900460ff16158062000149575062000148620002cd60201b60201c565b5b6200018b576040517f08c379a000000000000000000000000000000000000000000000000000000000815260040162000182906200051b565b60405180910390fd5b6001600660006101000a81548160ff0219169083151502179055506001600660016101000a81548160ff021916908315150217905550600081604051602001620001d691906200054e565b6040516020818303038152906040528051906020012090508060016000838152602001908152602001600020600201819055506040518060200160405280600160ff168152506001600083815260200190815260200160002060000190600162000242929190620002e4565b506001806000838152602001908152602001600020600101819055506002600060018152602001908152602001600020819080600181540180825580915050600190039060005260206000200160009091909190915055600180827f480000bb1edad8ca1470381cc334b1917fbd51c6531f3a623ea8e0ec7e38a6e960405160405180910390a45050565b6000803090506000813b9050600081149250505090565b82805482825590600052602060002090810192821562000328579160200282015b8281111562000327578251829060ff1690559160200191906001019062000305565b5b5090506200033791906200033b565b5090565b5b80821115620003565760008160009055506001016200033c565b5090565b600080fd5b600073ffffffffffffffffffffffffffffffffffffffff82169050919050565b60006200038c826200035f565b9050919050565b6200039e816200037f565b8114620003aa57600080fd5b50565b600081519050620003be8162000393565b92915050565b60008115159050919050565b620003db81620003c4565b8114620003e757600080fd5b50565b600081519050620003fb81620003d0565b92915050565b600080604083850312156200041b576200041a6200035a565b5b60006200042b85828601620003ad565b92505060206200043e85828601620003ea565b9150509250929050565b600082825260208201905092915050565b7f696e76616c696420617267756d656e74202d207a65726f206164647265737300600082015250565b600062000491601f8362000448565b91506200049e8262000459565b602082019050919050565b60006020820190508181036000830152620004c48162000482565b9050919050565b7f496e697469616c206b65792077617320616c72656164792073657475702e0000600082015250565b600062000503601e8362000448565b91506200051082620004cb565b602082019050919050565b600060208201905081810360008301526200053681620004f4565b9050919050565b62000548816200037f565b82525050565b60006020820190506200056560008301846200053d565b92915050565b613f3a806200057b6000396000f3fe6080604052600436106100dd5760003560e01c80639010f7261161007f578063c4d66de811610059578063c4d66de814610327578063c9100bcb14610350578063d202158d14610392578063fb307b34146103cf576100dd565b80639010f7261461027d578063b1a34e0d146102ba578063b61d27f6146102f7576100dd565b806353d413c5116100bb57806353d413c51461019b57806354fd4d50146101d8578063747442d31461020357806380e9e9e114610240576100dd565b806312aaac70146100e25780631d381240146101215780634eee424a1461015e575b600080fd5b3480156100ee57600080fd5b506101096004803603810190610104919061258b565b61040c565b6040516101189392919061269e565b60405180910390f35b34801561012d57600080fd5b5061014860048036038101906101439190612708565b6104b4565b6040516101559190612776565b60405180910390f35b34801561016a57600080fd5b506101856004803603810190610180919061258b565b6107dc565b6040516101929190612776565b60405180910390f35b3480156101a757600080fd5b506101c260048036038101906101bd9190612791565b610bb3565b6040516101cf9190612776565b60405180910390f35b3480156101e457600080fd5b506101ed611050565b6040516101fa9190612861565b60405180910390f35b34801561020f57600080fd5b5061022a600480360381019061022591906128af565b61108d565b6040516102379190612776565b60405180910390f35b34801561024c57600080fd5b50610267600480360381019061026291906128ef565b611601565b60405161027491906129da565b60405180910390f35b34801561028957600080fd5b506102a4600480360381019061029f91906128ef565b61166c565b6040516102b191906129da565b60405180910390f35b3480156102c657600080fd5b506102e160048036038101906102dc9190612c30565b6116d7565b6040516102ee9190612d11565b60405180910390f35b610311600480360381019061030c9190612d2c565b611b4f565b60405161031e9190612d9b565b60405180910390f35b34801561033357600080fd5b5061034e60048036038101906103499190612db6565b611d76565b005b34801561035c57600080fd5b506103776004803603810190610372919061258b565b611df1565b60405161038996959493929190612e47565b60405180910390f35b34801561039e57600080fd5b506103b960048036038101906103b49190612791565b61205b565b6040516103c69190612776565b60405180910390f35b3480156103db57600080fd5b506103f660048036038101906103f1919061258b565b612175565b6040516104039190612ebd565b60405180910390f35b60606000806001600085815260200190815260200160002060000160016000868152602001908152602001600020600101546001600087815260200190815260200160002060020154828054806020026020016040519081016040528092919081815260200182805480156104a057602002820191906000526020600020905b81548152602001906001019080831161048c575b505050505092509250925092509193909250565b600060011515600660019054906101000a900460ff1615151461050c576040517f08c379a000000000000000000000000000000000000000000000000000000000815260040161050390612f51565b60405180910390fd5b3073ffffffffffffffffffffffffffffffffffffffff163373ffffffffffffffffffffffffffffffffffffffff1614806105735750610572336040516020016105559190612f71565b60405160208183030381529060405280519060200120600161205b565b5b6105b2576040517f08c379a00000000000000000000000000000000000000000000000000000000081526004016105a990612ffe565b60405180910390fd5b836001600086815260200190815260200160002060020154036106fd5760006001600086815260200190815260200160002060000180548060200260200160405190810160405280929190818152602001828054801561063157602002820191906000526020600020905b81548152602001906001019080831161061d575b5050505050905060005b81518110156106b95760008282815181106106595761065861301e565b5b602002602001015190508581036106a5576040517f08c379a000000000000000000000000000000000000000000000000000000000815260040161069c906130bf565b60405180910390fd5b5080806106b19061310e565b91505061063b565b506001600086815260200190815260200160002060000184908060018154018082558091505060019003906000526020600020016000909190919091505550610768565b8360016000868152602001908152602001600020600201819055506040518060200160405280848152506001600086815260200190815260200160002060000190600161074b929190612397565b508160016000868152602001908152602001600020600101819055505b600260008481526020019081526020016000208490806001815401808255809150506001900390600052602060002001600090919091909150558183857f480000bb1edad8ca1470381cc334b1917fbd51c6531f3a623ea8e0ec7e38a6e960405160405180910390a4600190509392505050565b600060011515600660019054906101000a900460ff16151514610834576040517f08c379a000000000000000000000000000000000000000000000000000000000815260040161082b90612f51565b60405180910390fd5b3073ffffffffffffffffffffffffffffffffffffffff163373ffffffffffffffffffffffffffffffffffffffff16148061089b575061089a3360405160200161087d9190612f71565b60405160208183030381529060405280519060200120600361205b565b5b6108da576040517f08c379a00000000000000000000000000000000000000000000000000000000081526004016108d1906131c8565b60405180910390fd5b60006004600084815260200190815260200160002060000154905060008103610938576040517f08c379a000000000000000000000000000000000000000000000000000000000815260040161092f9061325a565b60405180910390fd5b600080600560008481526020019081526020016000208054905090505b8460056000858152602001908152602001600020838154811061097b5761097a61301e565b5b9060005260206000200154146109a15781806109969061310e565b925050808210610955575b600560008481526020019081526020016000206001826109c1919061327a565b815481106109d2576109d161301e565b5b9060005260206000200154600560008581526020019081526020016000208381548110610a0257610a0161301e565b5b906000526020600020018190555060056000848152602001908152602001600020805480610a3357610a326132ae565b5b600190038181906000526020600020016000905590556004600086815260200190815260200160002060020160009054906101000a900473ffffffffffffffffffffffffffffffffffffffff1673ffffffffffffffffffffffffffffffffffffffff1683867f3cf57863a89432c61c4a27073c6ee39e8a764bff5a05aebfbcdcdc80b2e6130a600460008a815260200190815260200160002060010154600460008b8152602001908152602001600020600301600460008c8152602001908152602001600020600401600460008d8152602001908152602001600020600501604051610b22949392919061346f565b60405180910390a46004600086815260200190815260200160002060008082016000905560018201600090556002820160006101000a81549073ffffffffffffffffffffffffffffffffffffffff0219169055600382016000610b8591906123e4565b600482016000610b9591906123e4565b600582016000610ba59190612424565b505060019350505050919050565b600060011515600660019054906101000a900460ff16151514610c0b576040517f08c379a0000000000000000000000000000000000000000000000000000000008152600401610c0290612f51565b60405180910390fd5b3073ffffffffffffffffffffffffffffffffffffffff163373ffffffffffffffffffffffffffffffffffffffff161480610c725750610c7133604051602001610c549190612f71565b60405160208183030381529060405280519060200120600161205b565b5b610cb1576040517f08c379a0000000000000000000000000000000000000000000000000000000008152600401610ca890612ffe565b60405180910390fd5b82600160008581526020019081526020016000206002015414610d09576040517f08c379a0000000000000000000000000000000000000000000000000000000008152600401610d009061353b565b60405180910390fd5b600060016000858152602001908152602001600020600001805480602002602001604051908101604052809291908181526020018280548015610d6b57602002820191906000526020600020905b815481526020019060010190808311610d57575b5050505050905060005b83828281518110610d8957610d8861301e565b5b602002602001015114610dec578080610da19061310e565b91505081518103610de7576040517f08c379a0000000000000000000000000000000000000000000000000000000008152600401610dde906135cd565b60405180910390fd5b610d75565b8160018351610dfb919061327a565b81518110610e0c57610e0b61301e565b5b6020026020010151828281518110610e2757610e2661301e565b5b60200260200101818152505081600160008781526020019081526020016000206000019080519060200190610e5d929190612464565b5060016000868152602001908152602001600020600001805480610e8457610e836132ae565b5b60019003818190600052602060002001600090559055600080600260008781526020019081526020016000208054905090505b86600260008881526020019081526020016000208381548110610edd57610edc61301e565b5b906000526020600020015414610f03578180610ef89061310e565b925050808210610eb7575b60026000878152602001908152602001600020600182610f23919061327a565b81548110610f3457610f3361301e565b5b9060005260206000200154600260008881526020019081526020016000208381548110610f6457610f6361301e565b5b906000526020600020018190555060026000878152602001908152602001600020805480610f9557610f946132ae565b5b60019003818190600052602060002001600090559055600060016000898152602001908152602001600020600101549050600060018651610fd6919061327a565b03611012576001600089815260200190815260200160002060008082016000610fff91906124b1565b6001820160009055600282016000905550505b8087897f585a4aef50f8267a92b32412b331b20f7f8b96f2245b253b9cc50dcc621d339760405160405180910390a460019550505050505092915050565b60606040518060400160405280600581526020017f322e302e31000000000000000000000000000000000000000000000000000000815250905090565b600060011515600660019054906101000a900460ff161515146110e5576040517f08c379a00000000000000000000000000000000000000000000000000000000081526004016110dc90612f51565b60405180910390fd5b6000548310611129576040517f08c379a00000000000000000000000000000000000000000000000000000000081526004016111209061365f565b60405180910390fd5b6003600084815260200190815260200160002060030160019054906101000a900460ff161561118d576040517f08c379a0000000000000000000000000000000000000000000000000000000008152600401611184906136cb565b60405180910390fd5b3073ffffffffffffffffffffffffffffffffffffffff166003600085815260200190815260200160002060000160009054906101000a900473ffffffffffffffffffffffffffffffffffffffff1673ffffffffffffffffffffffffffffffffffffffff160361126b576112273360405160200161120a9190612f71565b60405160208183030381529060405280519060200120600161205b565b611266576040517f08c379a000000000000000000000000000000000000000000000000000000000815260040161125d9061375d565b60405180910390fd5b6112dc565b61129c3360405160200161127f9190612f71565b60405160208183030381529060405280519060200120600261205b565b6112db576040517f08c379a00000000000000000000000000000000000000000000000000000000081526004016112d2906137c9565b60405180910390fd5b5b827fb3932da477fe5d6c8ff2eafef050c0f3a1af18fc07121001482600f36f3715d88360405161130c9190612776565b60405180910390a260011515821515036115c75760016003600085815260200190815260200160002060030160006101000a81548160ff0219169083151502179055506003600084815260200190815260200160002060000160009054906101000a900473ffffffffffffffffffffffffffffffffffffffff1673ffffffffffffffffffffffffffffffffffffffff166003600085815260200190815260200160002060010154600360008681526020019081526020016000206002016040516113d69190613877565b60006040518083038185875af1925050503d8060008114611413576040519150601f19603f3d011682016040523d82523d6000602084013e611418565b606091505b505080915050801561150d5760016003600085815260200190815260200160002060030160016101000a81548160ff02191690831515021790555060036000848152602001908152602001600020600101546003600085815260200190815260200160002060000160009054906101000a900473ffffffffffffffffffffffffffffffffffffffff1673ffffffffffffffffffffffffffffffffffffffff16847f1f920dbda597d7bf95035464170fa58d0a4b57f13a1c315ace6793b9f63688b8600360008881526020019081526020016000206002016040516114fc919061388e565b60405180910390a4600190506115fb565b60036000848152602001908152602001600020600101546003600085815260200190815260200160002060000160009054906101000a900473ffffffffffffffffffffffffffffffffffffffff1673ffffffffffffffffffffffffffffffffffffffff16847fe10c49d9f7c71da23262367013434763cfdb2332267641728d25cd712c5c6a68600360008881526020019081526020016000206002016040516115b6919061388e565b60405180910390a4600090506115fb565b60006003600085815260200190815260200160002060030160006101000a81548160ff021916908315150217905550600090505b92915050565b60606005600083815260200190815260200160002080548060200260200160405190810160405280929190818152602001828054801561166057602002820191906000526020600020905b81548152602001906001019080831161164c575b50505050509050919050565b6060600260008381526020019081526020016000208054806020026020016040519081016040528092919081815260200182805480156116cb57602002820191906000526020600020905b8154815260200190600101908083116116b7575b50505050509050919050565b600060011515600660019054906101000a900460ff1615151461172f576040517f08c379a000000000000000000000000000000000000000000000000000000000815260040161172690612f51565b60405180910390fd5b3073ffffffffffffffffffffffffffffffffffffffff163373ffffffffffffffffffffffffffffffffffffffff1614806117965750611795336040516020016117789190612f71565b60405160208183030381529060405280519060200120600361205b565b5b6117d5576040517f08c379a00000000000000000000000000000000000000000000000000000000081526004016117cc906131c8565b60405180910390fd5b3073ffffffffffffffffffffffffffffffffffffffff168573ffffffffffffffffffffffffffffffffffffffff16146118c8578473ffffffffffffffffffffffffffffffffffffffff1663c0969a6e308987876040518563ffffffff1660e01b8152600401611847949392919061390f565b602060405180830381865afa158015611864573d6000803e3d6000fd5b505050506040513d601f19601f820116820180604052508101906118889190613977565b6118c7576040517f08c379a00000000000000000000000000000000000000000000000000000000081526004016118be906139f0565b60405180910390fd5b5b600085886040516020016118dd929190613a10565b6040516020818303038152906040528051906020012090508760046000838152602001908152602001600020600001819055508660046000838152602001908152602001600020600101819055508460046000838152602001908152602001600020600301908161194e9190613bc6565b50836004600083815260200190815260200160002060040190816119729190613bc6565b50826004600083815260200190815260200160002060050190816119969190613cde565b508573ffffffffffffffffffffffffffffffffffffffff166004600083815260200190815260200160002060020160009054906101000a900473ffffffffffffffffffffffffffffffffffffffff1673ffffffffffffffffffffffffffffffffffffffff1614611aea5760056000898152602001908152602001600020819080600181540180825580915050600190039060005260206000200160009091909190915055856004600083815260200190815260200160002060020160006101000a81548173ffffffffffffffffffffffffffffffffffffffff021916908373ffffffffffffffffffffffffffffffffffffffff1602179055508573ffffffffffffffffffffffffffffffffffffffff1688827f46149b18aa084502c3f12bc75e19eda8bda8d102b82cce8474677a6d0d5f43c58a898989604051611add9493929190613db0565b60405180910390a4611b41565b8573ffffffffffffffffffffffffffffffffffffffff1688827f3bab293fc00db832d7619a9299914251b8747c036867ec056cbd506f60135b138a898989604051611b389493929190613db0565b60405180910390a45b809150509695505050505050565b600060011515600660019054906101000a900460ff16151514611ba7576040517f08c379a0000000000000000000000000000000000000000000000000000000008152600401611b9e90612f51565b60405180910390fd5b600080549050846003600083815260200190815260200160002060000160006101000a81548173ffffffffffffffffffffffffffffffffffffffff021916908373ffffffffffffffffffffffffffffffffffffffff16021790555083600360008381526020019081526020016000206001018190555082600360008381526020019081526020016000206002019081611c409190613bc6565b50600080815480929190611c539061310e565b9190505550838573ffffffffffffffffffffffffffffffffffffffff16827f8afcfabcb00e47a53a8fc3e9f23ff47ee1926194bb1350dd007c50b412a6cee886604051611ca09190613e0a565b60405180910390a4611cd933604051602001611cbc9190612f71565b60405160208183030381529060405280519060200120600161205b565b15611cef57611ce981600161108d565b50611d6b565b3073ffffffffffffffffffffffffffffffffffffffff168573ffffffffffffffffffffffffffffffffffffffff1614158015611d585750611d5733604051602001611d3a9190612f71565b60405160208183030381529060405280519060200120600261205b565b5b15611d6a57611d6881600161108d565b505b5b809150509392505050565b600073ffffffffffffffffffffffffffffffffffffffff168173ffffffffffffffffffffffffffffffffffffffff1603611de5576040517f08c379a0000000000000000000000000000000000000000000000000000000008152600401611ddc90613e78565b60405180910390fd5b611dee816121e3565b50565b6000806000606080606060046000888152602001908152602001600020600001546004600089815260200190815260200160002060010154600460008a815260200190815260200160002060020160009054906101000a900473ffffffffffffffffffffffffffffffffffffffff16600460008b8152602001908152602001600020600301600460008c8152602001908152602001600020600401600460008d8152602001908152602001600020600501828054611eae9061330c565b80601f0160208091040260200160405190810160405280929190818152602001828054611eda9061330c565b8015611f275780601f10611efc57610100808354040283529160200191611f27565b820191906000526020600020905b815481529060010190602001808311611f0a57829003601f168201915b50505050509250818054611f3a9061330c565b80601f0160208091040260200160405190810160405280929190818152602001828054611f669061330c565b8015611fb35780601f10611f8857610100808354040283529160200191611fb3565b820191906000526020600020905b815481529060010190602001808311611f9657829003601f168201915b50505050509150808054611fc69061330c565b80601f0160208091040260200160405190810160405280929190818152602001828054611ff29061330c565b801561203f5780601f106120145761010080835404028352916020019161203f565b820191906000526020600020905b81548152906001019060200180831161202257829003601f168201915b5050505050905095509550955095509550955091939550919395565b60008060016000858152602001908152602001600020604051806060016040529081600082018054806020026020016040519081016040528092919081815260200182805480156120cb57602002820191906000526020600020905b8154815260200190600101908083116120b7575b505050505081526020016001820154815260200160028201548152505090506000801b81604001510361210257600091505061216f565b60005b8160000151518110156121685760008260000151828151811061212b5761212a61301e565b5b60200260200101519050600181148061214357508481145b15612154576001935050505061216f565b5080806121609061310e565b915050612105565b5060009150505b92915050565b6060600160008381526020019081526020016000206000018054806020026020016040519081016040528092919081815260200182805480156121d757602002820191906000526020600020905b8154815260200190600101908083116121c3575b50505050509050919050565b600660009054906101000a900460ff1615806122035750612202612380565b5b612242576040517f08c379a000000000000000000000000000000000000000000000000000000000815260040161223990613ee4565b60405180910390fd5b6001600660006101000a81548160ff0219169083151502179055506001600660016101000a81548160ff02191690831515021790555060008160405160200161228b9190612f71565b6040516020818303038152906040528051906020012090508060016000838152602001908152602001600020600201819055506040518060200160405280600160ff16815250600160008381526020019081526020016000206000019060016122f59291906124d2565b506001806000838152602001908152602001600020600101819055506002600060018152602001908152602001600020819080600181540180825580915050600190039060005260206000200160009091909190915055600180827f480000bb1edad8ca1470381cc334b1917fbd51c6531f3a623ea8e0ec7e38a6e960405160405180910390a45050565b6000803090506000813b9050600081149250505090565b8280548282559060005260206000209081019282156123d3579160200282015b828111156123d25782518255916020019190600101906123b7565b5b5090506123e09190612524565b5090565b5080546123f09061330c565b6000825580601f106124025750612421565b601f0160209004906000526020600020908101906124209190612524565b5b50565b5080546124309061330c565b6000825580601f106124425750612461565b601f0160209004906000526020600020908101906124609190612524565b5b50565b8280548282559060005260206000209081019282156124a0579160200282015b8281111561249f578251825591602001919060010190612484565b5b5090506124ad9190612524565b5090565b50805460008255906000526020600020908101906124cf9190612524565b50565b828054828255906000526020600020908101928215612513579160200282015b82811115612512578251829060ff169055916020019190600101906124f2565b5b5090506125209190612524565b5090565b5b8082111561253d576000816000905550600101612525565b5090565b6000604051905090565b600080fd5b600080fd5b6000819050919050565b61256881612555565b811461257357600080fd5b50565b6000813590506125858161255f565b92915050565b6000602082840312156125a1576125a061254b565b5b60006125af84828501612576565b91505092915050565b600081519050919050565b600082825260208201905092915050565b6000819050602082019050919050565b6000819050919050565b6125f7816125e4565b82525050565b600061260983836125ee565b60208301905092915050565b6000602082019050919050565b600061262d826125b8565b61263781856125c3565b9350612642836125d4565b8060005b8381101561267357815161265a88826125fd565b975061266583612615565b925050600181019050612646565b5085935050505092915050565b612689816125e4565b82525050565b61269881612555565b82525050565b600060608201905081810360008301526126b88186612622565b90506126c76020830185612680565b6126d4604083018461268f565b949350505050565b6126e5816125e4565b81146126f057600080fd5b50565b600081359050612702816126dc565b92915050565b6000806000606084860312156127215761272061254b565b5b600061272f86828701612576565b9350506020612740868287016126f3565b9250506040612751868287016126f3565b9150509250925092565b60008115159050919050565b6127708161275b565b82525050565b600060208201905061278b6000830184612767565b92915050565b600080604083850312156127a8576127a761254b565b5b60006127b685828601612576565b92505060206127c7858286016126f3565b9150509250929050565b600081519050919050565b600082825260208201905092915050565b60005b8381101561280b5780820151818401526020810190506127f0565b60008484015250505050565b6000601f19601f8301169050919050565b6000612833826127d1565b61283d81856127dc565b935061284d8185602086016127ed565b61285681612817565b840191505092915050565b6000602082019050818103600083015261287b8184612828565b905092915050565b61288c8161275b565b811461289757600080fd5b50565b6000813590506128a981612883565b92915050565b600080604083850312156128c6576128c561254b565b5b60006128d4858286016126f3565b92505060206128e58582860161289a565b9150509250929050565b6000602082840312156129055761290461254b565b5b6000612913848285016126f3565b91505092915050565b600081519050919050565b600082825260208201905092915050565b6000819050602082019050919050565b61295181612555565b82525050565b60006129638383612948565b60208301905092915050565b6000602082019050919050565b60006129878261291c565b6129918185612927565b935061299c83612938565b8060005b838110156129cd5781516129b48882612957565b97506129bf8361296f565b9250506001810190506129a0565b5085935050505092915050565b600060208201905081810360008301526129f4818461297c565b905092915050565b600073ffffffffffffffffffffffffffffffffffffffff82169050919050565b6000612a27826129fc565b9050919050565b612a3781612a1c565b8114612a4257600080fd5b50565b600081359050612a5481612a2e565b92915050565b600080fd5b600080fd5b7f4e487b7100000000000000000000000000000000000000000000000000000000600052604160045260246000fd5b612a9c82612817565b810181811067ffffffffffffffff82111715612abb57612aba612a64565b5b80604052505050565b6000612ace612541565b9050612ada8282612a93565b919050565b600067ffffffffffffffff821115612afa57612af9612a64565b5b612b0382612817565b9050602081019050919050565b82818337600083830152505050565b6000612b32612b2d84612adf565b612ac4565b905082815260208101848484011115612b4e57612b4d612a5f565b5b612b59848285612b10565b509392505050565b600082601f830112612b7657612b75612a5a565b5b8135612b86848260208601612b1f565b91505092915050565b600067ffffffffffffffff821115612baa57612ba9612a64565b5b612bb382612817565b9050602081019050919050565b6000612bd3612bce84612b8f565b612ac4565b905082815260208101848484011115612bef57612bee612a5f565b5b612bfa848285612b10565b509392505050565b600082601f830112612c1757612c16612a5a565b5b8135612c27848260208601612bc0565b91505092915050565b60008060008060008060c08789031215612c4d57612c4c61254b565b5b6000612c5b89828a016126f3565b9650506020612c6c89828a016126f3565b9550506040612c7d89828a01612a45565b945050606087013567ffffffffffffffff811115612c9e57612c9d612550565b5b612caa89828a01612b61565b935050608087013567ffffffffffffffff811115612ccb57612cca612550565b5b612cd789828a01612b61565b92505060a087013567ffffffffffffffff811115612cf857612cf7612550565b5b612d0489828a01612c02565b9150509295509295509295565b6000602082019050612d26600083018461268f565b92915050565b600080600060608486031215612d4557612d4461254b565b5b6000612d5386828701612a45565b9350506020612d64868287016126f3565b925050604084013567ffffffffffffffff811115612d8557612d84612550565b5b612d9186828701612b61565b9150509250925092565b6000602082019050612db06000830184612680565b92915050565b600060208284031215612dcc57612dcb61254b565b5b6000612dda84828501612a45565b91505092915050565b612dec81612a1c565b82525050565b600081519050919050565b600082825260208201905092915050565b6000612e1982612df2565b612e238185612dfd565b9350612e338185602086016127ed565b612e3c81612817565b840191505092915050565b600060c082019050612e5c6000830189612680565b612e696020830188612680565b612e766040830187612de3565b8181036060830152612e888186612e0e565b90508181036080830152612e9c8185612e0e565b905081810360a0830152612eb08184612828565b9050979650505050505050565b60006020820190508181036000830152612ed78184612622565b905092915050565b7f496e746572616374696e67207769746820746865206c69627261727920636f6e60008201527f747261637420697320666f7262696464656e2e00000000000000000000000000602082015250565b6000612f3b6033836127dc565b9150612f4682612edf565b604082019050919050565b60006020820190508181036000830152612f6a81612f2e565b9050919050565b6000602082019050612f866000830184612de3565b92915050565b7f5065726d697373696f6e733a2053656e64657220646f6573206e6f742068617660008201527f65206d616e6167656d656e74206b657900000000000000000000000000000000602082015250565b6000612fe86030836127dc565b9150612ff382612f8c565b604082019050919050565b6000602082019050818103600083015261301781612fdb565b9050919050565b7f4e487b7100000000000000000000000000000000000000000000000000000000600052603260045260246000fd5b7f436f6e666c6963743a204b657920616c72656164792068617320707572706f7360008201527f6500000000000000000000000000000000000000000000000000000000000000602082015250565b60006130a96021836127dc565b91506130b48261304d565b604082019050919050565b600060208201905081810360008301526130d88161309c565b9050919050565b7f4e487b7100000000000000000000000000000000000000000000000000000000600052601160045260246000fd5b6000613119826125e4565b91507fffffffffffffffffffffffffffffffffffffffffffffffffffffffffffffffff820361314b5761314a6130df565b5b600182019050919050565b7f5065726d697373696f6e733a2053656e64657220646f6573206e6f742068617660008201527f6520636c61696d207369676e6572206b65790000000000000000000000000000602082015250565b60006131b26032836127dc565b91506131bd82613156565b604082019050919050565b600060208201905081810360008301526131e1816131a5565b9050919050565b7f4e6f6e4578697374696e673a205468657265206973206e6f20636c61696d207760008201527f6974682074686973204944000000000000000000000000000000000000000000602082015250565b6000613244602b836127dc565b915061324f826131e8565b604082019050919050565b6000602082019050818103600083015261327381613237565b9050919050565b6000613285826125e4565b9150613290836125e4565b92508282039050818111156132a8576132a76130df565b5b92915050565b7f4e487b7100000000000000000000000000000000000000000000000000000000600052603160045260246000fd5b7f4e487b7100000000000000000000000000000000000000000000000000000000600052602260045260246000fd5b6000600282049050600182168061332457607f821691505b602082108103613337576133366132dd565b5b50919050565b60008190508160005260206000209050919050565b6000815461335f8161330c565b6133698186612dfd565b94506001821660008114613384576001811461339a576133cd565b60ff1983168652811515602002860193506133cd565b6133a38561333d565b60005b838110156133c5578154818901526001820191506020810190506133a6565b808801955050505b50505092915050565b60008190508160005260206000209050919050565b600081546133f88161330c565b61340281866127dc565b9450600182166000811461341d576001811461343357613466565b60ff198316865281151560200286019350613466565b61343c856133d6565b60005b8381101561345e5781548189015260018201915060208101905061343f565b808801955050505b50505092915050565b60006080820190506134846000830187612680565b81810360208301526134968186613352565b905081810360408301526134aa8185613352565b905081810360608301526134be81846133eb565b905095945050505050565b7f4e6f6e4578697374696e673a204b65792069736e27742072656769737465726560008201527f6400000000000000000000000000000000000000000000000000000000000000602082015250565b60006135256021836127dc565b9150613530826134c9565b604082019050919050565b6000602082019050818103600083015261355481613518565b9050919050565b7f4e6f6e4578697374696e673a204b657920646f65736e2774206861766520737560008201527f636820707572706f736500000000000000000000000000000000000000000000602082015250565b60006135b7602a836127dc565b91506135c28261355b565b604082019050919050565b600060208201905081810360008301526135e6816135aa565b9050919050565b7f43616e6e6f7420617070726f76652061206e6f6e2d6578697374696e6720657860008201527f65637574696f6e00000000000000000000000000000000000000000000000000602082015250565b60006136496027836127dc565b9150613654826135ed565b604082019050919050565b600060208201905081810360008301526136788161363c565b9050919050565b7f5265717565737420616c72656164792065786563757465640000000000000000600082015250565b60006136b56018836127dc565b91506136c08261367f565b602082019050919050565b600060208201905081810360008301526136e4816136a8565b9050919050565b7f53656e64657220646f6573206e6f742068617665206d616e6167656d656e742060008201527f6b65790000000000000000000000000000000000000000000000000000000000602082015250565b60006137476023836127dc565b9150613752826136eb565b604082019050919050565b600060208201905081810360008301526137768161373a565b9050919050565b7f53656e64657220646f6573206e6f74206861766520616374696f6e206b657900600082015250565b60006137b3601f836127dc565b91506137be8261377d565b602082019050919050565b600060208201905081810360008301526137e2816137a6565b9050919050565b600081905092915050565b600081546138018161330c565b61380b81866137e9565b94506001821660008114613826576001811461383b5761386e565b60ff198316865281151582028601935061386e565b6138448561333d565b60005b8381101561386657815481890152600182019150602081019050613847565b838801955050505b50505092915050565b600061388382846137f4565b915081905092915050565b600060208201905081810360008301526138a88184613352565b905092915050565b6000819050919050565b60006138d56138d06138cb846129fc565b6138b0565b6129fc565b9050919050565b60006138e7826138ba565b9050919050565b60006138f9826138dc565b9050919050565b613909816138ee565b82525050565b60006080820190506139246000830187613900565b6139316020830186612680565b81810360408301526139438185612e0e565b905081810360608301526139578184612e0e565b905095945050505050565b60008151905061397181612883565b92915050565b60006020828403121561398d5761398c61254b565b5b600061399b84828501613962565b91505092915050565b7f696e76616c696420636c61696d00000000000000000000000000000000000000600082015250565b60006139da600d836127dc565b91506139e5826139a4565b602082019050919050565b60006020820190508181036000830152613a09816139cd565b9050919050565b6000604082019050613a256000830185612de3565b613a326020830184612680565b9392505050565b60006020601f8301049050919050565b600082821b905092915050565b600060088302613a867fffffffffffffffffffffffffffffffffffffffffffffffffffffffffffffffff82613a49565b613a908683613a49565b95508019841693508086168417925050509392505050565b6000613ac3613abe613ab9846125e4565b6138b0565b6125e4565b9050919050565b6000819050919050565b613add83613aa8565b613af1613ae982613aca565b848454613a56565b825550505050565b600090565b613b06613af9565b613b11818484613ad4565b505050565b5b81811015613b3557613b2a600082613afe565b600181019050613b17565b5050565b601f821115613b7a57613b4b8161333d565b613b5484613a39565b81016020851015613b63578190505b613b77613b6f85613a39565b830182613b16565b50505b505050565b600082821c905092915050565b6000613b9d60001984600802613b7f565b1980831691505092915050565b6000613bb68383613b8c565b9150826002028217905092915050565b613bcf82612df2565b67ffffffffffffffff811115613be857613be7612a64565b5b613bf2825461330c565b613bfd828285613b39565b600060209050601f831160018114613c305760008415613c1e578287015190505b613c288582613baa565b865550613c90565b601f198416613c3e8661333d565b60005b82811015613c6657848901518255600182019150602085019450602081019050613c41565b86831015613c835784890151613c7f601f891682613b8c565b8355505b6001600288020188555050505b505050505050565b601f821115613cd957613caa816133d6565b613cb384613a39565b81016020851015613cc2578190505b613cd6613cce85613a39565b830182613b16565b50505b505050565b613ce7826127d1565b67ffffffffffffffff811115613d0057613cff612a64565b5b613d0a825461330c565b613d15828285613c98565b600060209050601f831160018114613d485760008415613d36578287015190505b613d408582613baa565b865550613da8565b601f198416613d56866133d6565b60005b82811015613d7e57848901518255600182019150602085019450602081019050613d59565b86831015613d9b5784890151613d97601f891682613b8c565b8355505b6001600288020188555050505b505050505050565b6000608082019050613dc56000830187612680565b8181036020830152613dd78186612e0e565b90508181036040830152613deb8185612e0e565b90508181036060830152613dff8184612828565b905095945050505050565b60006020820190508181036000830152613e248184612e0e565b905092915050565b7f696e76616c696420617267756d656e74202d207a65726f206164647265737300600082015250565b6000613e62601f836127dc565b9150613e6d82613e2c565b602082019050919050565b60006020820190508181036000830152613e9181613e55565b9050919050565b7f496e697469616c206b65792077617320616c72656164792073657475702e0000600082015250565b6000613ece601e836127dc565b9150613ed982613e98565b602082019050919050565b60006020820190508181036000830152613efd81613ec1565b905091905056fea26469706673582212207728aca5221ff0054f6d83ec479882befd3b191b486f4afac51c5c74ac8995f164736f6c63430008110033","linkReferences":{}},"methodIdentifiers":{"addClaim(uint256,uint256,address,bytes,bytes,string)":"b1a34e0d","addKey(bytes32,uint256,uint256)":"1d381240","approve(uint256,bool)":"747442d3","execute(address,uint256,bytes)":"b61d27f6","getClaim(bytes32)":"c9100bcb","getClaimIdsByTopic(uint256)":"80e9e9e1","getKey(bytes32)":"12aaac70","getKeyPurposes(bytes32)":"fb307b34","getKeysByPurpose(uint256)":"9010f726","initialize(address)":"c4d66de8","keyHasPurpose(bytes32,uint256)":"d202158d","removeClaim(bytes32)":"4eee424a","removeKey(bytes32,uint256)":"53d413c5","version()":"54fd4d50"},"id":81}