{"abi":[{"type":"function","name":"addClaimTopic","inputs":[{"name":"_claimTopic","type":"uint256","internalType":"uint256"}],"outputs":[],"stateMutability":"nonpayable"},{"type":"function","name":"addTrustedIssuer","inputs":[{"name":"_issuer","type":"address","internalType":"address"}],"outputs":[],"stateMutability":"nonpayable"},{"type":"function","name":"bindCompliance","inputs":[{"name":"_compliance","type":"address","internalType":"address"}],"outputs":[],"stateMutability":"nonpayable"},{"type":"function","name":"canComplianceBind","inputs":[{"name":"_compliance","type":"address","internalType":"address"}],"outputs":[{"name":"","type":"bool","internalType":"bool"}],"stateMutability":"view"},{"type":"function","name":"initialize","inputs":[],"outputs":[],"stateMutability":"nonpayable"},{"type":"function","name":"isClaimTopicRequired","inputs":[{"name":"_claimTopic","type":"uint256","internalType":"uint256"}],"outputs":[{"name":"","type":"bool","internalType":"bool"}],"stateMutability":"view"},{"type":"function","name":"isComplianceBound","inputs":[{"name":"_compliance","type":"address","internalType":"address"}],"outputs":[{"name":"","type":"bool","internalType":"bool"}],"stateMutability":"view"},{"type":"function","name":"isIssuerTrusted","inputs":[{"name":"_issuer","type":"address","internalType":"address"}],"outputs":[{"name":"","type":"bool","internalType":"bool"}],"stateMutability":"view"},{"type":"function","name":"isPlugAndPlay","inputs":[],"outputs":[{"name":"","type":"bool","internalType":"bool"}],"stateMutability":"pure"},{"type":"function","name":"moduleBurnAction","inputs":[{"name":"_from","type":"address","internalType":"address"},{"name":"_value","type":"uint256","internalType":"uint256"}],"outputs":[],"stateMutability":"nonpayable"},{"type":"function","name":"moduleCheck","inputs":[{"name":"_from","type":"address","internalType":"address"},{"name":"_to","type":"address","internalType":"address"},{"name":"_value","type":"uint256","internalType":"uint256"},{"name":"_compliance","type":"address","internalType":"address"}],"outputs":[{"name":"","type":"bool","internalType":"bool"}],"stateMutability":"view"},{"type":"function","name":"moduleMintAction","inputs":[{"name":"_to","type":"address","internalType":"address"},{"name":"_value","type":"uint256","internalType":"uint256"}],"outputs":[],"stateMutability":"nonpayable"},{"type":"function","name":"moduleTransferAction","inputs":[{"name":"_from","type":"address","internalType":"address"},{"name":"_to","type":"address","internalType":"address"},{"name":"_value","type":"uint256","internalType":"uint256"}],"outputs":[],"stateMutability":"nonpayable"},{"type":"function","name":"name","inputs":[],"outputs":[{"name":"_name","type":"string","internalType":"string"}],"stateMutability":"pure"},{"type":"function","name":"owner","inputs":[],"outputs":[{"name":"","type":"address","internalType":"address"}],"stateMutability":"view"},{"type":"function","name":"proxiableUUID","inputs":[],"outputs":[{"name":"","type":"bytes32","internalType":"bytes32"}],"stateMutability":"view"},{"type":"function","name":"removeClaimTopic","inputs":[{"name":"_claimTopic","type":"uint256","internalType":"uint256"}],"outputs":[],"stateMutability":"nonpayable"},{"type":"function","name":"removeTrustedIssuer","inputs":[{"name":"_issuer","type":"address","internalType":"address"}],"outputs":[],"stateMutability":"nonpayable"},{"type":"function","name":"renounceOwnership","inputs":[],"outputs":[],"stateMutability":"nonpayable"},{"type":"function","name":"transferOwnership","inputs":[{"name":"newOwner","type":"address","internalType":"address"}],"outputs":[],"stateMutability":"nonpayable"},{"type":"function","name":"unbindCompliance","inputs":[{"name":"_compliance","type":"address","internalType":"address"}],"outputs":[],"stateMutability":"nonpayable"},{"type":"function","name":"upgradeTo","inputs":[{"name":"newImplementation","type":"address","internalType":"address"}],"outputs":[],"stateMutability":"nonpayable"},{"type":"function","name":"upgradeToAndCall","inputs":[{"name":"newImplementation","type":"address","internalType":"address"},{"name":"data","type":"bytes","internalType":"bytes"}],"outputs":[],"stateMutability":"payable"},{"type":"event","name":"AdminChanged","inputs":[{"name":"previousAdmin","type":"address","indexed":false,"internalType":"address"},{"name":"newAdmin","type":"address","indexed":false,"internalType":"address"}],"anonymous":false},{"type":"event","name":"BeaconUpgraded","inputs":[{"name":"beacon","type":"address","indexed":true,"internalType":"address"}],"anonymous":false},{"type":"event","name":"ClaimIssuerAdded","inputs":[{"name":"issuer","type":"address","indexed":true,"internalType":"address"}],"anonymous":false},{"type":"event","name":"ClaimIssuerRemoved","inputs":[{"name":"issuer","type":"address","indexed":true,"internalType":"address"}],"anonymous":false},{"type":"event","name":"ClaimTopicAdded","inputs":[{"name":"claimTopic","type":"uint256","indexed":true,"internalType":"uint256"}],"anonymous":false},{"type":"event","name":"ClaimTopicRemoved","inputs":[{"name":"claimTopic","type":"uint256","indexed":true,"internalType":"uint256"}],"anonymous":false},{"type":"event","name":"ComplianceBound","inputs":[{"name":"_compliance","type":"address","indexed":true,"internalType":"address"}],"anonymous":false},{"type":"event","name":"ComplianceUnbound","inputs":[{"name":"_compliance","type":"address","indexed":true,"internalType":"address"}],"anonymous":false},{"type":"event","name":"Initialized","inputs":[{"name":"version","type":"uint8","indexed":false,"internalType":"uint8"}],"anonymous":false},{"type":"event","name":"OwnershipTransferred","inputs":[{"name":"previousOwner","type":"address","indexed":true,"internalType":"address"},{"name":"newOwner","type":"address","indexed":true,"internalType":"address"}],"anonymous":false},{"type":"event","name":"Upgraded","inputs":[{"name":"implementation","type":"address","indexed":true,"internalType":"address"}],"anonymous":false}],"bytecode":{"object":"0x60a06040523073ffffffffffffffffffffffffffffffffffffffff1660809073ffffffffffffffffffffffffffffffffffffffff1681525034801561004357600080fd5b5060805161388461007b60003960008181610a4001528181610ace01528181610ee401528181610f72015261102201526138846000f3fe6080604052600436106101405760003560e01c806352d1902d116100b6578063be36359f1161006f578063be36359f14610423578063c4566bdd14610460578063c7b2255114610489578063e6f5e807146104b2578063f104a8c9146104dd578063f2fde38b1461050657610140565b806352d1902d14610339578063715018a6146103645780638129fc1c1461037b5780638da5cb5b14610392578063b93d28eb146103bd578063bcc21053146103e657610140565b80632eff216f116101085780632eff216f146102285780633659cfe614610265578063372491a21461028e5780634a932544146102b75780634cf4d295146102e05780634f1ef2861461031d57610140565b8063013b7ce4146101455780630694a5fb1461018257806306fdde03146101ab57806308297846146101d65780632cb7e1ec146101ff575b600080fd5b34801561015157600080fd5b5061016c600480360381019061016791906123ec565b61052f565b604051610179919061246e565b60405180910390f35b34801561018e57600080fd5b506101a960048036038101906101a49190612489565b610603565b005b3480156101b757600080fd5b506101c0610828565b6040516101cd9190612546565b60405180910390f35b3480156101e257600080fd5b506101fd60048036038101906101f89190612568565b610865565b005b34801561020b57600080fd5b5061022660048036038101906102219190612595565b61093a565b005b34801561023457600080fd5b5061024f600480360381019061024a9190612489565b6109da565b60405161025c919061246e565b60405180910390f35b34801561027157600080fd5b5061028c60048036038101906102879190612489565b610a3e565b005b34801561029a57600080fd5b506102b560048036038101906102b091906125e8565b610bc6565b005b3480156102c357600080fd5b506102de60048036038101906102d99190612489565b610c65565b005b3480156102ec57600080fd5b5061030760048036038101906103029190612489565b610e7e565b604051610314919061246e565b60405180910390f35b6103376004803603810190610332919061275d565b610ee2565b005b34801561034557600080fd5b5061034e61101e565b60405161035b91906127d2565b60405180910390f35b34801561037057600080fd5b506103796110d7565b005b34801561038757600080fd5b506103906110eb565b005b34801561039e57600080fd5b506103a7611229565b6040516103b491906127fc565b60405180910390f35b3480156103c957600080fd5b506103e460048036038101906103df9190612489565b611253565b005b3480156103f257600080fd5b5061040d60048036038101906104089190612489565b611396565b60405161041a919061246e565b60405180910390f35b34801561042f57600080fd5b5061044a60048036038101906104459190612568565b6113a1565b604051610457919061246e565b60405180910390f35b34801561046c57600080fd5b5061048760048036038101906104829190612489565b6113d9565b005b34801561049557600080fd5b506104b060048036038101906104ab9190612568565b61158c565b005b3480156104be57600080fd5b506104c7611662565b6040516104d4919061246e565b60405180910390f35b3480156104e957600080fd5b5061050460048036038101906104ff91906125e8565b61166b565b005b34801561051257600080fd5b5061052d60048036038101906105289190612489565b61170a565b005b60008073ffffffffffffffffffffffffffffffffffffffff168573ffffffffffffffffffffffffffffffffffffffff1603610583576000610570858461178d565b905061057b816118f2565b9150506105fb565b600073ffffffffffffffffffffffffffffffffffffffff168473ffffffffffffffffffffffffffffffffffffffff16036105c057600190506105fb565b60006105cc868461178d565b905060006105da868561178d565b90506105e5826118f2565b80156105f657506105f5816118f2565b5b925050505b949350505050565b600061060d6119ad565b90508060000160003373ffffffffffffffffffffffffffffffffffffffff1673ffffffffffffffffffffffffffffffffffffffff16815260200190815260200160002060009054906101000a900460ff1661069d576040517f08c379a000000000000000000000000000000000000000000000000000000000815260040161069490612863565b60405180910390fd5b60006106a76119ad565b9050600073ffffffffffffffffffffffffffffffffffffffff168373ffffffffffffffffffffffffffffffffffffffff1603610718576040517f08c379a000000000000000000000000000000000000000000000000000000000815260040161070f906128cf565b60405180910390fd5b8273ffffffffffffffffffffffffffffffffffffffff163373ffffffffffffffffffffffffffffffffffffffff1614610786576040517f08c379a000000000000000000000000000000000000000000000000000000000815260040161077d90612961565b60405180910390fd5b60008160000160008573ffffffffffffffffffffffffffffffffffffffff1673ffffffffffffffffffffffffffffffffffffffff16815260200190815260200160002060006101000a81548160ff0219169083151502179055508273ffffffffffffffffffffffffffffffffffffffff167f408b49d9be1c914c52a0227e18a077e5a892dddf32a26cfa94a5d9708fad771860405160405180910390a2505050565b60606040518060400160405280601f81526020017f41636372656469746174696f6e566572696669636174696f6e4d6f64756c6500815250905090565b61086d6119d5565b6000610877611a53565b905080600001600083815260200190815260200160002060009054906101000a900460ff166108db576040517f08c379a00000000000000000000000000000000000000000000000000000000081526004016108d2906129cd565b60405180910390fd5b600081600001600084815260200190815260200160002060006101000a81548160ff021916908315150217905550817f0b1381093c776453c1bbe54fd68be1b235c65db61d099cb50d194b2991e0eec560405160405180910390a25050565b60006109446119ad565b90508060000160003373ffffffffffffffffffffffffffffffffffffffff1673ffffffffffffffffffffffffffffffffffffffff16815260200190815260200160002060009054906101000a900460ff166109d4576040517f08c379a00000000000000000000000000000000000000000000000000000000081526004016109cb90612863565b60405180910390fd5b50505050565b6000806109e5611a53565b90508060010160008473ffffffffffffffffffffffffffffffffffffffff1673ffffffffffffffffffffffffffffffffffffffff16815260200190815260200160002060009054906101000a900460ff16915050919050565b7f000000000000000000000000000000000000000000000000000000000000000073ffffffffffffffffffffffffffffffffffffffff163073ffffffffffffffffffffffffffffffffffffffff1603610acc576040517f08c379a0000000000000000000000000000000000000000000000000000000008152600401610ac390612a5f565b60405180910390fd5b7f000000000000000000000000000000000000000000000000000000000000000073ffffffffffffffffffffffffffffffffffffffff16610b0b611a80565b73ffffffffffffffffffffffffffffffffffffffff1614610b61576040517f08c379a0000000000000000000000000000000000000000000000000000000008152600401610b5890612af1565b60405180910390fd5b610b6a81611ad7565b610bc381600067ffffffffffffffff811115610b8957610b88612632565b5b6040519080825280601f01601f191660200182016040528015610bbb5781602001600182028036833780820191505090505b506000611ae2565b50565b6000610bd06119ad565b90508060000160003373ffffffffffffffffffffffffffffffffffffffff1673ffffffffffffffffffffffffffffffffffffffff16815260200190815260200160002060009054906101000a900460ff16610c60576040517f08c379a0000000000000000000000000000000000000000000000000000000008152600401610c5790612863565b60405180910390fd5b505050565b6000610c6f6119ad565b9050600073ffffffffffffffffffffffffffffffffffffffff168273ffffffffffffffffffffffffffffffffffffffff1603610ce0576040517f08c379a0000000000000000000000000000000000000000000000000000000008152600401610cd7906128cf565b60405180910390fd5b8060000160008373ffffffffffffffffffffffffffffffffffffffff1673ffffffffffffffffffffffffffffffffffffffff16815260200190815260200160002060009054906101000a900460ff1615610d6f576040517f08c379a0000000000000000000000000000000000000000000000000000000008152600401610d6690612b5d565b60405180910390fd5b8173ffffffffffffffffffffffffffffffffffffffff163373ffffffffffffffffffffffffffffffffffffffff1614610ddd576040517f08c379a0000000000000000000000000000000000000000000000000000000008152600401610dd490612961565b60405180910390fd5b60018160000160008473ffffffffffffffffffffffffffffffffffffffff1673ffffffffffffffffffffffffffffffffffffffff16815260200190815260200160002060006101000a81548160ff0219169083151502179055508173ffffffffffffffffffffffffffffffffffffffff167f1f7b76c58fb697eb53c6c7c1becb96911516a136e24d7ced386b2355358b75a360405160405180910390a25050565b600080610e896119ad565b90508060000160008473ffffffffffffffffffffffffffffffffffffffff1673ffffffffffffffffffffffffffffffffffffffff16815260200190815260200160002060009054906101000a900460ff16915050919050565b7f000000000000000000000000000000000000000000000000000000000000000073ffffffffffffffffffffffffffffffffffffffff163073ffffffffffffffffffffffffffffffffffffffff1603610f70576040517f08c379a0000000000000000000000000000000000000000000000000000000008152600401610f6790612a5f565b60405180910390fd5b7f000000000000000000000000000000000000000000000000000000000000000073ffffffffffffffffffffffffffffffffffffffff16610faf611a80565b73ffffffffffffffffffffffffffffffffffffffff1614611005576040517f08c379a0000000000000000000000000000000000000000000000000000000008152600401610ffc90612af1565b60405180910390fd5b61100e82611ad7565b61101a82826001611ae2565b5050565b60007f000000000000000000000000000000000000000000000000000000000000000073ffffffffffffffffffffffffffffffffffffffff163073ffffffffffffffffffffffffffffffffffffffff16146110ae576040517f08c379a00000000000000000000000000000000000000000000000000000000081526004016110a590612bef565b60405180910390fd5b7f360894a13ba1a3210667c828492db98dca3e2076cc3735a920a3ca505d382bbc60001b905090565b6110df6119d5565b6110e96000611c50565b565b60008060019054906101000a900460ff1615905080801561111c5750600160008054906101000a900460ff1660ff16105b80611149575061112b30611d16565b1580156111485750600160008054906101000a900460ff1660ff16145b5b611188576040517f08c379a000000000000000000000000000000000000000000000000000000000815260040161117f90612c81565b60405180910390fd5b60016000806101000a81548160ff021916908360ff16021790555080156111c5576001600060016101000a81548160ff0219169083151502179055505b6111cd611d39565b80156112265760008060016101000a81548160ff0219169083151502179055507f7f26b83ff96e1f2b6a682f133852f6798a09c465da95921460cefb3847402498600160405161121d9190612cf3565b60405180910390a15b50565b6000603360009054906101000a900473ffffffffffffffffffffffffffffffffffffffff16905090565b61125b6119d5565b6000611265611a53565b90508060010160008373ffffffffffffffffffffffffffffffffffffffff1673ffffffffffffffffffffffffffffffffffffffff16815260200190815260200160002060009054906101000a900460ff166112f5576040517f08c379a00000000000000000000000000000000000000000000000000000000081526004016112ec90612d5a565b60405180910390fd5b60008160010160008473ffffffffffffffffffffffffffffffffffffffff1673ffffffffffffffffffffffffffffffffffffffff16815260200190815260200160002060006101000a81548160ff0219169083151502179055508173ffffffffffffffffffffffffffffffffffffffff167f8432c8693d2550c2eb52d3f0a803b38eb8c3c0e62234fa1b6b8b35cc3866785460405160405180910390a25050565b600060019050919050565b6000806113ac611a53565b905080600001600084815260200190815260200160002060009054906101000a900460ff16915050919050565b6113e16119d5565b60006113eb611a53565b9050600073ffffffffffffffffffffffffffffffffffffffff168273ffffffffffffffffffffffffffffffffffffffff160361145c576040517f08c379a000000000000000000000000000000000000000000000000000000000815260040161145390612dc6565b60405180910390fd5b8060010160008373ffffffffffffffffffffffffffffffffffffffff1673ffffffffffffffffffffffffffffffffffffffff16815260200190815260200160002060009054906101000a900460ff16156114eb576040517f08c379a00000000000000000000000000000000000000000000000000000000081526004016114e290612e32565b60405180910390fd5b60018160010160008473ffffffffffffffffffffffffffffffffffffffff1673ffffffffffffffffffffffffffffffffffffffff16815260200190815260200160002060006101000a81548160ff0219169083151502179055508173ffffffffffffffffffffffffffffffffffffffff167f2fd6f4164f0a8d654cd4f09f7859f454868623c4673df78b554049efca0d5a6f60405160405180910390a25050565b6115946119d5565b600061159e611a53565b905080600001600083815260200190815260200160002060009054906101000a900460ff1615611603576040517f08c379a00000000000000000000000000000000000000000000000000000000081526004016115fa90612e9e565b60405180910390fd5b600181600001600084815260200190815260200160002060006101000a81548160ff021916908315150217905550817f01c928b7f7ade2949e92366aa9454dbef3a416b731cf6ec786ba9595bbd814d660405160405180910390a25050565b60006001905090565b60006116756119ad565b90508060000160003373ffffffffffffffffffffffffffffffffffffffff1673ffffffffffffffffffffffffffffffffffffffff16815260200190815260200160002060009054906101000a900460ff16611705576040517f08c379a00000000000000000000000000000000000000000000000000000000081526004016116fc90612863565b60405180910390fd5b505050565b6117126119d5565b600073ffffffffffffffffffffffffffffffffffffffff168173ffffffffffffffffffffffffffffffffffffffff1603611781576040517f08c379a000000000000000000000000000000000000000000000000000000000815260040161177890612f30565b60405180910390fd5b61178a81611c50565b50565b6000808273ffffffffffffffffffffffffffffffffffffffff16636a3edf286040518163ffffffff1660e01b8152600401602060405180830381865afa1580156117db573d6000803e3d6000fd5b505050506040513d601f19601f820116820180604052508101906117ff9190612f65565b90508073ffffffffffffffffffffffffffffffffffffffff1663134e18f46040518163ffffffff1660e01b8152600401602060405180830381865afa15801561184c573d6000803e3d6000fd5b505050506040513d601f19601f820116820180604052508101906118709190612fd0565b73ffffffffffffffffffffffffffffffffffffffff1663f0eb5e54856040518263ffffffff1660e01b81526004016118a891906127fc565b602060405180830381865afa1580156118c5573d6000803e3d6000fd5b505050506040513d601f19601f820116820180604052508101906118e9919061303b565b91505092915050565b60008073ffffffffffffffffffffffffffffffffffffffff168273ffffffffffffffffffffffffffffffffffffffff160361193057600090506119a8565b600061193a611a53565b90506000600190505b600281116119a15781600001600082815260200190815260200160002060009054906101000a900460ff161561198e5761197d8482611d9a565b1561198d576001925050506119a8565b5b808061199990613097565b915050611943565b5060009150505b919050565b60007ff6cc97de1266c180cd39f3b311632644143ce7873d2927755382ad4b39e8ae00905090565b6119dd611f71565b73ffffffffffffffffffffffffffffffffffffffff166119fb611229565b73ffffffffffffffffffffffffffffffffffffffff1614611a51576040517f08c379a0000000000000000000000000000000000000000000000000000000008152600401611a489061312b565b60405180910390fd5b565b6000807fe310543247150b284175c287dd4fdcf73f68d0ed109b6b344ea579c42d65e29090508091505090565b6000611aae7f360894a13ba1a3210667c828492db98dca3e2076cc3735a920a3ca505d382bbc60001b611f79565b60000160009054906101000a900473ffffffffffffffffffffffffffffffffffffffff16905090565b611adf6119d5565b50565b611b0e7f4910fdfa16fed3260ed0e7147f7cc6da11a60208b5b9406d12a635614ffd914360001b611f83565b60000160009054906101000a900460ff1615611b3257611b2d83611f8d565b611c4b565b8273ffffffffffffffffffffffffffffffffffffffff166352d1902d6040518163ffffffff1660e01b8152600401602060405180830381865afa925050508015611b9a57506040513d601f19601f82011682018060405250810190611b979190613177565b60015b611bd9576040517f08c379a0000000000000000000000000000000000000000000000000000000008152600401611bd090613216565b60405180910390fd5b7f360894a13ba1a3210667c828492db98dca3e2076cc3735a920a3ca505d382bbc60001b8114611c3e576040517f08c379a0000000000000000000000000000000000000000000000000000000008152600401611c35906132a8565b60405180910390fd5b50611c4a838383612046565b5b505050565b6000603360009054906101000a900473ffffffffffffffffffffffffffffffffffffffff16905081603360006101000a81548173ffffffffffffffffffffffffffffffffffffffff021916908373ffffffffffffffffffffffffffffffffffffffff1602179055508173ffffffffffffffffffffffffffffffffffffffff168173ffffffffffffffffffffffffffffffffffffffff167f8be0079c531659141344cd1fd0a4f28419497f9722a3daafe3b4186f6b6457e060405160405180910390a35050565b6000808273ffffffffffffffffffffffffffffffffffffffff163b119050919050565b600060019054906101000a900460ff16611d88576040517f08c379a0000000000000000000000000000000000000000000000000000000008152600401611d7f9061333a565b60405180910390fd5b611d90612072565b611d986120cb565b565b600080611da5611a53565b905060008473ffffffffffffffffffffffffffffffffffffffff166380e9e9e1856040518263ffffffff1660e01b8152600401611de29190613369565b600060405180830381865afa158015611dff573d6000803e3d6000fd5b505050506040513d6000823e3d601f19601f82011682018060405250810190611e28919061344c565b905060005b8151811015611f63576000806000806000808b73ffffffffffffffffffffffffffffffffffffffff1663c9100bcb898981518110611e6e57611e6d613495565b5b60200260200101516040518263ffffffff1660e01b8152600401611e9291906127d2565b600060405180830381865afa158015611eaf573d6000803e3d6000fd5b505050506040513d6000823e3d601f19601f82011682018060405250810190611ed891906135ea565b9550955095509550955095508860010160008573ffffffffffffffffffffffffffffffffffffffff1673ffffffffffffffffffffffffffffffffffffffff16815260200190815260200160002060009054906101000a900460ff1615611f4a5760019950505050505050505050611f6b565b5050505050508080611f5b90613097565b915050611e2d565b506000925050505b92915050565b600033905090565b6000819050919050565b6000819050919050565b611f9681611d16565b611fd5576040517f08c379a0000000000000000000000000000000000000000000000000000000008152600401611fcc9061373d565b60405180910390fd5b806120027f360894a13ba1a3210667c828492db98dca3e2076cc3735a920a3ca505d382bbc60001b611f79565b60000160006101000a81548173ffffffffffffffffffffffffffffffffffffffff021916908373ffffffffffffffffffffffffffffffffffffffff16021790555050565b61204f8361211c565b60008251118061205c5750805b1561206d5761206b838361216b565b505b505050565b600060019054906101000a900460ff166120c1576040517f08c379a00000000000000000000000000000000000000000000000000000000081526004016120b89061333a565b60405180910390fd5b6120c9612198565b565b600060019054906101000a900460ff1661211a576040517f08c379a00000000000000000000000000000000000000000000000000000000081526004016121119061333a565b60405180910390fd5b565b61212581611f8d565b8073ffffffffffffffffffffffffffffffffffffffff167fbc7cd75a20ee27fd9adebab32041f755214dbc6bffa90cc0225b39da2e5c2d3b60405160405180910390a250565b60606121908383604051806060016040528060278152602001613828602791396121f9565b905092915050565b600060019054906101000a900460ff166121e7576040517f08c379a00000000000000000000000000000000000000000000000000000000081526004016121de9061333a565b60405180910390fd5b6121f76121f2611f71565b611c50565b565b60606000808573ffffffffffffffffffffffffffffffffffffffff168560405161222391906137a4565b600060405180830381855af49150503d806000811461225e576040519150601f19603f3d011682016040523d82523d6000602084013e612263565b606091505b50915091506122748683838761227f565b925050509392505050565b606083156122e15760008351036122d95761229985611d16565b6122d8576040517f08c379a00000000000000000000000000000000000000000000000000000000081526004016122cf90613807565b60405180910390fd5b5b8290506122ec565b6122eb83836122f4565b5b949350505050565b6000825111156123075781518083602001fd5b806040517f08c379a000000000000000000000000000000000000000000000000000000000815260040161233b9190612546565b60405180910390fd5b6000604051905090565b600080fd5b600080fd5b600073ffffffffffffffffffffffffffffffffffffffff82169050919050565b600061238382612358565b9050919050565b61239381612378565b811461239e57600080fd5b50565b6000813590506123b08161238a565b92915050565b6000819050919050565b6123c9816123b6565b81146123d457600080fd5b50565b6000813590506123e6816123c0565b92915050565b600080600080608085870312156124065761240561234e565b5b6000612414878288016123a1565b9450506020612425878288016123a1565b9350506040612436878288016123d7565b9250506060612447878288016123a1565b91505092959194509250565b60008115159050919050565b61246881612453565b82525050565b6000602082019050612483600083018461245f565b92915050565b60006020828403121561249f5761249e61234e565b5b60006124ad848285016123a1565b91505092915050565b600081519050919050565b600082825260208201905092915050565b60005b838110156124f05780820151818401526020810190506124d5565b60008484015250505050565b6000601f19601f8301169050919050565b6000612518826124b6565b61252281856124c1565b93506125328185602086016124d2565b61253b816124fc565b840191505092915050565b60006020820190508181036000830152612560818461250d565b905092915050565b60006020828403121561257e5761257d61234e565b5b600061258c848285016123d7565b91505092915050565b6000806000606084860312156125ae576125ad61234e565b5b60006125bc868287016123a1565b93505060206125cd868287016123a1565b92505060406125de868287016123d7565b9150509250925092565b600080604083850312156125ff576125fe61234e565b5b600061260d858286016123a1565b925050602061261e858286016123d7565b9150509250929050565b600080fd5b600080fd5b7f4e487b7100000000000000000000000000000000000000000000000000000000600052604160045260246000fd5b61266a826124fc565b810181811067ffffffffffffffff8211171561268957612688612632565b5b80604052505050565b600061269c612344565b90506126a88282612661565b919050565b600067ffffffffffffffff8211156126c8576126c7612632565b5b6126d1826124fc565b9050602081019050919050565b82818337600083830152505050565b60006127006126fb846126ad565b612692565b90508281526020810184848401111561271c5761271b61262d565b5b6127278482856126de565b509392505050565b600082601f83011261274457612743612628565b5b81356127548482602086016126ed565b91505092915050565b600080604083850312156127745761277361234e565b5b6000612782858286016123a1565b925050602083013567ffffffffffffffff8111156127a3576127a2612353565b5b6127af8582860161272f565b9150509250929050565b6000819050919050565b6127cc816127b9565b82525050565b60006020820190506127e760008301846127c3565b92915050565b6127f681612378565b82525050565b600060208201905061281160008301846127ed565b92915050565b7f6f6e6c7920626f756e6420636f6d706c69616e63652063616e2063616c6c0000600082015250565b600061284d601e836124c1565b915061285882612817565b602082019050919050565b6000602082019050818103600083015261287c81612840565b9050919050565b7f696e76616c696420617267756d656e74202d207a65726f206164647265737300600082015250565b60006128b9601f836124c1565b91506128c482612883565b602082019050919050565b600060208201905081810360008301526128e8816128ac565b9050919050565b7f6f6e6c7920636f6d706c69616e636520636f6e74726163742063616e2063616c60008201527f6c00000000000000000000000000000000000000000000000000000000000000602082015250565b600061294b6021836124c1565b9150612956826128ef565b604082019050919050565b6000602082019050818103600083015261297a8161293e565b9050919050565b7f436c61696d20746f70696320646f65736e277420657869737400000000000000600082015250565b60006129b76019836124c1565b91506129c282612981565b602082019050919050565b600060208201905081810360008301526129e6816129aa565b9050919050565b7f46756e6374696f6e206d7573742062652063616c6c6564207468726f7567682060008201527f64656c656761746563616c6c0000000000000000000000000000000000000000602082015250565b6000612a49602c836124c1565b9150612a54826129ed565b604082019050919050565b60006020820190508181036000830152612a7881612a3c565b9050919050565b7f46756e6374696f6e206d7573742062652063616c6c6564207468726f7567682060008201527f6163746976652070726f78790000000000000000000000000000000000000000602082015250565b6000612adb602c836124c1565b9150612ae682612a7f565b604082019050919050565b60006020820190508181036000830152612b0a81612ace565b9050919050565b7f636f6d706c69616e636520616c726561647920626f756e640000000000000000600082015250565b6000612b476018836124c1565b9150612b5282612b11565b602082019050919050565b60006020820190508181036000830152612b7681612b3a565b9050919050565b7f555550535570677261646561626c653a206d757374206e6f742062652063616c60008201527f6c6564207468726f7567682064656c656761746563616c6c0000000000000000602082015250565b6000612bd96038836124c1565b9150612be482612b7d565b604082019050919050565b60006020820190508181036000830152612c0881612bcc565b9050919050565b7f496e697469616c697a61626c653a20636f6e747261637420697320616c72656160008201527f647920696e697469616c697a6564000000000000000000000000000000000000602082015250565b6000612c6b602e836124c1565b9150612c7682612c0f565b604082019050919050565b60006020820190508181036000830152612c9a81612c5e565b9050919050565b6000819050919050565b600060ff82169050919050565b6000819050919050565b6000612cdd612cd8612cd384612ca1565b612cb8565b612cab565b9050919050565b612ced81612cc2565b82525050565b6000602082019050612d086000830184612ce4565b92915050565b7f497373756572206e6f7420747275737465640000000000000000000000000000600082015250565b6000612d446012836124c1565b9150612d4f82612d0e565b602082019050919050565b60006020820190508181036000830152612d7381612d37565b9050919050565b7f496e76616c696420697373756572206164647265737300000000000000000000600082015250565b6000612db06016836124c1565b9150612dbb82612d7a565b602082019050919050565b60006020820190508181036000830152612ddf81612da3565b9050919050565b7f49737375657220616c7265616479207472757374656400000000000000000000600082015250565b6000612e1c6016836124c1565b9150612e2782612de6565b602082019050919050565b60006020820190508181036000830152612e4b81612e0f565b9050919050565b7f436c61696d20746f70696320616c726561647920657869737473000000000000600082015250565b6000612e88601a836124c1565b9150612e9382612e52565b602082019050919050565b60006020820190508181036000830152612eb781612e7b565b9050919050565b7f4f776e61626c653a206e6577206f776e657220697320746865207a65726f206160008201527f6464726573730000000000000000000000000000000000000000000000000000602082015250565b6000612f1a6026836124c1565b9150612f2582612ebe565b604082019050919050565b60006020820190508181036000830152612f4981612f0d565b9050919050565b600081519050612f5f8161238a565b92915050565b600060208284031215612f7b57612f7a61234e565b5b6000612f8984828501612f50565b91505092915050565b6000612f9d82612378565b9050919050565b612fad81612f92565b8114612fb857600080fd5b50565b600081519050612fca81612fa4565b92915050565b600060208284031215612fe657612fe561234e565b5b6000612ff484828501612fbb565b91505092915050565b600061300882612378565b9050919050565b61301881612ffd565b811461302357600080fd5b50565b6000815190506130358161300f565b92915050565b6000602082840312156130515761305061234e565b5b600061305f84828501613026565b91505092915050565b7f4e487b7100000000000000000000000000000000000000000000000000000000600052601160045260246000fd5b60006130a2826123b6565b91507fffffffffffffffffffffffffffffffffffffffffffffffffffffffffffffffff82036130d4576130d3613068565b5b600182019050919050565b7f4f776e61626c653a2063616c6c6572206973206e6f7420746865206f776e6572600082015250565b60006131156020836124c1565b9150613120826130df565b602082019050919050565b6000602082019050818103600083015261314481613108565b9050919050565b613154816127b9565b811461315f57600080fd5b50565b6000815190506131718161314b565b92915050565b60006020828403121561318d5761318c61234e565b5b600061319b84828501613162565b91505092915050565b7f45524331393637557067726164653a206e657720696d706c656d656e7461746960008201527f6f6e206973206e6f742055555053000000000000000000000000000000000000602082015250565b6000613200602e836124c1565b915061320b826131a4565b604082019050919050565b6000602082019050818103600083015261322f816131f3565b9050919050565b7f45524331393637557067726164653a20756e737570706f727465642070726f7860008201527f6961626c65555549440000000000000000000000000000000000000000000000602082015250565b60006132926029836124c1565b915061329d82613236565b604082019050919050565b600060208201905081810360008301526132c181613285565b9050919050565b7f496e697469616c697a61626c653a20636f6e7472616374206973206e6f74206960008201527f6e697469616c697a696e67000000000000000000000000000000000000000000602082015250565b6000613324602b836124c1565b915061332f826132c8565b604082019050919050565b6000602082019050818103600083015261335381613317565b9050919050565b613363816123b6565b82525050565b600060208201905061337e600083018461335a565b92915050565b600067ffffffffffffffff82111561339f5761339e612632565b5b602082029050602081019050919050565b600080fd5b60006133c86133c384613384565b612692565b905080838252602082019050602084028301858111156133eb576133ea6133b0565b5b835b8181101561341457806134008882613162565b8452602084019350506020810190506133ed565b5050509392505050565b600082601f83011261343357613432612628565b5b81516134438482602086016133b5565b91505092915050565b6000602082840312156134625761346161234e565b5b600082015167ffffffffffffffff8111156134805761347f612353565b5b61348c8482850161341e565b91505092915050565b7f4e487b7100000000000000000000000000000000000000000000000000000000600052603260045260246000fd5b6000815190506134d3816123c0565b92915050565b60006134ec6134e7846126ad565b612692565b9050828152602081018484840111156135085761350761262d565b5b6135138482856124d2565b509392505050565b600082601f8301126135305761352f612628565b5b81516135408482602086016134d9565b91505092915050565b600067ffffffffffffffff82111561356457613563612632565b5b61356d826124fc565b9050602081019050919050565b600061358d61358884613549565b612692565b9050828152602081018484840111156135a9576135a861262d565b5b6135b48482856124d2565b509392505050565b600082601f8301126135d1576135d0612628565b5b81516135e184826020860161357a565b91505092915050565b60008060008060008060c087890312156136075761360661234e565b5b600061361589828a016134c4565b965050602061362689828a016134c4565b955050604061363789828a01612f50565b945050606087015167ffffffffffffffff81111561365857613657612353565b5b61366489828a0161351b565b935050608087015167ffffffffffffffff81111561368557613684612353565b5b61369189828a0161351b565b92505060a087015167ffffffffffffffff8111156136b2576136b1612353565b5b6136be89828a016135bc565b9150509295509295509295565b7f455243313936373a206e657720696d706c656d656e746174696f6e206973206e60008201527f6f74206120636f6e747261637400000000000000000000000000000000000000602082015250565b6000613727602d836124c1565b9150613732826136cb565b604082019050919050565b600060208201905081810360008301526137568161371a565b9050919050565b600081519050919050565b600081905092915050565b600061377e8261375d565b6137888185613768565b93506137988185602086016124d2565b80840191505092915050565b60006137b08284613773565b915081905092915050565b7f416464726573733a2063616c6c20746f206e6f6e2d636f6e7472616374000000600082015250565b60006137f1601d836124c1565b91506137fc826137bb565b602082019050919050565b60006020820190508181036000830152613820816137e4565b905091905056fe416464726573733a206c6f772d6c6576656c2064656c65676174652063616c6c206661696c6564a2646970667358221220b700a1b80317bbd262e72ec13823061ffec222bb2389022cb0c121c1f25b10ae64736f6c63430008110033","linkReferences":{}},"methodIdentifiers":{"addClaimTopic(uint256)":"c7b22551","addTrustedIssuer(address)":"c4566bdd","bindCompliance(address)":"4a932544","canComplianceBind(address)":"bcc21053","initialize()":"8129fc1c","isClaimTopicRequired(uint256)":"be36359f","isComplianceBound(address)":"4cf4d295","isIssuerTrusted(address)":"2eff216f","isPlugAndPlay()":"e6f5e807","moduleBurnAction(address,uint256)":"372491a2","moduleCheck(address,address,uint256,address)":"013b7ce4","moduleMintAction(address,uint256)":"f104a8c9","moduleTransferAction(address,address,uint256)":"2cb7e1ec","name()":"06fdde03","owner()":"8da5cb5b","proxiableUUID()":"52d1902d","removeClaimTopic(uint256)":"08297846","removeTrustedIssuer(address)":"b93d28eb","renounceOwnership()":"715018a6","transferOwnership(address)":"f2fde38b","unbindCompliance(address)":"0694a5fb","upgradeTo(address)":"3659cfe6","upgradeToAndCall(address,bytes)":"4f1ef286"},"id":2}