{"abi":[{"type":"function","name":"addAgent","inputs":[{"name":"_agent","type":"address","internalType":"address"}],"outputs":[],"stateMutability":"nonpayable"},{"type":"function","name":"addTokenAgent","inputs":[{"name":"_agentAddress","type":"address","internalType":"address"}],"outputs":[],"stateMutability":"nonpayable"},{"type":"function","name":"bindToken","inputs":[{"name":"_token","type":"address","internalType":"address"}],"outputs":[],"stateMutability":"nonpayable"},{"type":"function","name":"canTransfer","inputs":[{"name":"_from","type":"address","internalType":"address"},{"name":"_to","type":"address","internalType":"address"},{"name":"_value","type":"uint256","internalType":"uint256"}],"outputs":[{"name":"","type":"bool","internalType":"bool"}],"stateMutability":"view"},{"type":"function","name":"complianceCheckOnSupplyLimit","inputs":[{"name":"","type":"address","internalType":"address"},{"name":"","type":"address","internalType":"address"},{"name":"","type":"uint256","internalType":"uint256"}],"outputs":[{"name":"","type":"bool","internalType":"bool"}],"stateMutability":"view"},{"type":"function","name":"created","inputs":[{"name":"_to","type":"address","internalType":"address"},{"name":"_value","type":"uint256","internalType":"uint256"}],"outputs":[],"stateMutability":"nonpayable"},{"type":"function","name":"destroyed","inputs":[{"name":"_from","type":"address","internalType":"address"},{"name":"_value","type":"uint256","internalType":"uint256"}],"outputs":[],"stateMutability":"nonpayable"},{"type":"function","name":"isAgent","inputs":[{"name":"_agent","type":"address","internalType":"address"}],"outputs":[{"name":"","type":"bool","internalType":"bool"}],"stateMutability":"view"},{"type":"function","name":"isTokenAgent","inputs":[{"name":"_agentAddress","type":"address","internalType":"address"}],"outputs":[{"name":"","type":"bool","internalType":"bool"}],"stateMutability":"view"},{"type":"function","name":"isTokenBound","inputs":[{"name":"_token","type":"address","internalType":"address"}],"outputs":[{"name":"","type":"bool","internalType":"bool"}],"stateMutability":"view"},{"type":"function","name":"owner","inputs":[],"outputs":[{"name":"","type":"address","internalType":"address"}],"stateMutability":"view"},{"type":"function","name":"removeAgent","inputs":[{"name":"_agent","type":"address","internalType":"address"}],"outputs":[],"stateMutability":"nonpayable"},{"type":"function","name":"removeTokenAgent","inputs":[{"name":"_agentAddress","type":"address","internalType":"address"}],"outputs":[],"stateMutability":"nonpayable"},{"type":"function","name":"renounceOwnership","inputs":[],"outputs":[],"stateMutability":"nonpayable"},{"type":"function","name":"setSupplyLimit","inputs":[{"name":"_limit","type":"uint256","internalType":"uint256"}],"outputs":[],"stateMutability":"nonpayable"},{"type":"function","name":"supplyLimit","inputs":[],"outputs":[{"name":"","type":"uint256","internalType":"uint256"}],"stateMutability":"view"},{"type":"function","name":"tokenBound","inputs":[],"outputs":[{"name":"","type":"address","internalType":"contract IToken"}],"stateMutability":"view"},{"type":"function","name":"transferOwnership","inputs":[{"name":"newOwner","type":"address","internalType":"address"}],"outputs":[],"stateMutability":"nonpayable"},{"type":"function","name":"transferred","inputs":[{"name":"_from","type":"address","internalType":"address"},{"name":"_to","type":"address","internalType":"address"},{"name":"_value","type":"uint256","internalType":"uint256"}],"outputs":[],"stateMutability":"nonpayable"},{"type":"function","name":"unbindToken","inputs":[{"name":"_token","type":"address","internalType":"address"}],"outputs":[],"stateMutability":"nonpayable"},{"type":"event","name":"AgentAdded","inputs":[{"name":"_agent","type":"address","indexed":true,"internalType":"address"}],"anonymous":false},{"type":"event","name":"AgentRemoved","inputs":[{"name":"_agent","type":"address","indexed":true,"internalType":"address"}],"anonymous":false},{"type":"event","name":"OwnershipTransferred","inputs":[{"name":"previousOwner","type":"address","indexed":true,"internalType":"address"},{"name":"newOwner","type":"address","indexed":true,"internalType":"address"}],"anonymous":false},{"type":"event","name":"SupplyLimitSet","inputs":[{"name":"_limit","type":"uint256","indexed":false,"internalType":"uint256"}],"anonymous":false},{"type":"event","name":"TokenAgentAdded","inputs":[{"name":"_agentAddress","type":"address","indexed":false,"internalType":"address"}],"anonymous":false},{"type":"event","name":"TokenAgentRemoved","inputs":[{"name":"_agentAddress","type":"address","indexed":false,"internalType":"address"}],"anonymous":false},{"type":"event","name":"TokenBound","inputs":[{"name":"_token","type":"address","indexed":false,"internalType":"address"}],"anonymous":false},{"type":"event","name":"TokenUnbound","inputs":[{"name":"_token","type":"address","indexed":false,"internalType":"address"}],"anonymous":false}],"bytecode":{"object":"0x608060405234801561001057600080fd5b5061002d61002261003260201b60201c565b61003a60201b60201c565b6100fe565b600033905090565b60008060009054906101000a900473ffffffffffffffffffffffffffffffffffffffff169050816000806101000a81548173ffffffffffffffffffffffffffffffffffffffff021916908373ffffffffffffffffffffffffffffffffffffffff1602179055508173ffffffffffffffffffffffffffffffffffffffff168173ffffffffffffffffffffffffffffffffffffffff167f8be0079c531659141344cd1fd0a4f28419497f9722a3daafe3b4186f6b6457e060405160405180910390a35050565b611c4b8061010d6000396000f3fe608060405234801561001057600080fd5b506004361061012c5760003560e01c80638baf29b4116100ad578063993e8b9511610071578063993e8b9514610305578063cdde293214610335578063e46638e614610351578063f2fde38b14610381578063ff3e69541461039d5761012c565b80638baf29b4146102755780638d2ea772146102915780638da5cb5b146102ad57806393e62f07146102cb57806397a6278e146102e95761012c565b806340db3b50116100f457806340db3b50146101e75780635f8dead314610203578063715018a61461021f578063737ce08e1461022957806384e79842146102595761012c565b806319d1997a146101315780631ffbb0641461014f578063346531fa1461017f578063361fab25146101af5780633ff5aa02146101cb575b600080fd5b6101396103b9565b604051610146919061132a565b60405180910390f35b610169600480360381019061016491906113a8565b6103bf565b60405161017691906113f0565b60405180910390f35b610199600480360381019061019491906113a8565b6103dc565b6040516101a691906113f0565b60405180910390f35b6101c960048036038101906101c49190611437565b6104e9565b005b6101e560048036038101906101e091906113a8565b610532565b005b61020160048036038101906101fc91906113a8565b6106b2565b005b61021d60048036038101906102189190611464565b61084c565b005b6102276108a1565b005b610243600480360381019061023e91906114a4565b6108b5565b60405161025091906113f0565b60405180910390f35b610273600480360381019061026e91906113a8565b6108c2565b005b61028f600480360381019061028a91906114a4565b610993565b005b6102ab60048036038101906102a69190611464565b6109ea565b005b6102b5610a3f565b6040516102c29190611506565b60405180910390f35b6102d3610a68565b6040516102e09190611580565b60405180910390f35b61030360048036038101906102fe91906113a8565b610a8e565b005b61031f600480360381019061031a91906113a8565b610b5f565b60405161032c91906113f0565b60405180910390f35b61034f600480360381019061034a91906113a8565b610bc9565b005b61036b600480360381019061036691906114a4565b610cef565b60405161037891906113f0565b60405180910390f35b61039b600480360381019061039691906113a8565b610d15565b005b6103b760048036038101906103b291906113a8565b610d98565b005b60045481565b60006103d5826001610ebf90919063ffffffff16565b9050919050565b6000600260008373ffffffffffffffffffffffffffffffffffffffff1673ffffffffffffffffffffffffffffffffffffffff16815260200190815260200160002060009054906101000a900460ff161580156104d15750600360009054906101000a900473ffffffffffffffffffffffffffffffffffffffff1673ffffffffffffffffffffffffffffffffffffffff16631ffbb064836040518263ffffffff1660e01b815260040161048e9190611506565b602060405180830381865afa1580156104ab573d6000803e3d6000fd5b505050506040513d601f19601f820116820180604052508101906104cf91906115c7565b155b156104df57600090506104e4565b600190505b919050565b6104f1610f86565b806004819055507f2cc259af6838b2a0d4d04c0f2f361079ea338dfc784cf242a87cf7d51013f56881604051610527919061132a565b60405180910390a150565b3373ffffffffffffffffffffffffffffffffffffffff16610551610a3f565b73ffffffffffffffffffffffffffffffffffffffff1614806105f85750600073ffffffffffffffffffffffffffffffffffffffff16600360009054906101000a900473ffffffffffffffffffffffffffffffffffffffff1673ffffffffffffffffffffffffffffffffffffffff161480156105f757508073ffffffffffffffffffffffffffffffffffffffff163373ffffffffffffffffffffffffffffffffffffffff16145b5b610637576040517f08c379a000000000000000000000000000000000000000000000000000000000815260040161062e90611651565b60405180910390fd5b80600360006101000a81548173ffffffffffffffffffffffffffffffffffffffff021916908373ffffffffffffffffffffffffffffffffffffffff1602179055507f2de35142b19ed5a07796cf30791959c592018f70b1d2d7c460eef8ffe713692b816040516106a79190611506565b60405180910390a150565b3373ffffffffffffffffffffffffffffffffffffffff166106d1610a3f565b73ffffffffffffffffffffffffffffffffffffffff16148061071e57508073ffffffffffffffffffffffffffffffffffffffff163373ffffffffffffffffffffffffffffffffffffffff16145b61075d576040517f08c379a000000000000000000000000000000000000000000000000000000000815260040161075490611651565b60405180910390fd5b600360009054906101000a900473ffffffffffffffffffffffffffffffffffffffff1673ffffffffffffffffffffffffffffffffffffffff168173ffffffffffffffffffffffffffffffffffffffff16146107ed576040517f08c379a00000000000000000000000000000000000000000000000000000000081526004016107e4906116bd565b60405180910390fd5b600360006101000a81549073ffffffffffffffffffffffffffffffffffffffff02191690557f28a4ca7134a3b3f9aff286e79ad3daadb4a06d1b43d037a3a98bdc074edd9b7a816040516108419190611506565b60405180910390a150565b610854611004565b610893576040517f08c379a000000000000000000000000000000000000000000000000000000000815260040161088a90611775565b60405180910390fd5b61089d8282611014565b5050565b6108a9610f86565b6108b360006110ed565b565b6000600190509392505050565b6108ca610f86565b600073ffffffffffffffffffffffffffffffffffffffff168173ffffffffffffffffffffffffffffffffffffffff1603610939576040517f08c379a0000000000000000000000000000000000000000000000000000000008152600401610930906117e1565b60405180910390fd5b61094d8160016111b190919063ffffffff16565b8073ffffffffffffffffffffffffffffffffffffffff167ff68e73cec97f2d70aa641fb26e87a4383686e2efacb648f2165aeb02ac562ec560405160405180910390a250565b61099b611004565b6109da576040517f08c379a00000000000000000000000000000000000000000000000000000000081526004016109d190611775565b60405180910390fd5b6109e5838383611259565b505050565b6109f2611004565b610a31576040517f08c379a0000000000000000000000000000000000000000000000000000000008152600401610a2890611775565b60405180910390fd5b610a3b828261125e565b5050565b60008060009054906101000a900473ffffffffffffffffffffffffffffffffffffffff16905090565b600360009054906101000a900473ffffffffffffffffffffffffffffffffffffffff1681565b610a96610f86565b600073ffffffffffffffffffffffffffffffffffffffff168173ffffffffffffffffffffffffffffffffffffffff1603610b05576040517f08c379a0000000000000000000000000000000000000000000000000000000008152600401610afc906117e1565b60405180910390fd5b610b1981600161126290919063ffffffff16565b8073ffffffffffffffffffffffffffffffffffffffff167fed9c8ad8d5a0a66898ea49d2956929c93ae2e8bd50281b2ed897c5d1a6737e0b60405160405180910390a250565b6000600360009054906101000a900473ffffffffffffffffffffffffffffffffffffffff1673ffffffffffffffffffffffffffffffffffffffff168273ffffffffffffffffffffffffffffffffffffffff1614610bbf5760009050610bc4565b600190505b919050565b610bd1610f86565b600260008273ffffffffffffffffffffffffffffffffffffffff1673ffffffffffffffffffffffffffffffffffffffff16815260200190815260200160002060009054906101000a900460ff16610c5d576040517f08c379a0000000000000000000000000000000000000000000000000000000008152600401610c549061184d565b60405180910390fd5b6000600260008373ffffffffffffffffffffffffffffffffffffffff1673ffffffffffffffffffffffffffffffffffffffff16815260200190815260200160002060006101000a81548160ff0219169083151502179055507f6a659bb87bb23efbdc295f8eed8ae8c4379bfb77660ced2ef0f3d7d26b05c6a681604051610ce49190611506565b60405180910390a150565b6000610cfc8484846108b5565b610d095760009050610d0e565b600190505b9392505050565b610d1d610f86565b600073ffffffffffffffffffffffffffffffffffffffff168173ffffffffffffffffffffffffffffffffffffffff1603610d8c576040517f08c379a0000000000000000000000000000000000000000000000000000000008152600401610d83906118df565b60405180910390fd5b610d95816110ed565b50565b610da0610f86565b600260008273ffffffffffffffffffffffffffffffffffffffff1673ffffffffffffffffffffffffffffffffffffffff16815260200190815260200160002060009054906101000a900460ff1615610e2d576040517f08c379a0000000000000000000000000000000000000000000000000000000008152600401610e249061194b565b60405180910390fd5b6001600260008373ffffffffffffffffffffffffffffffffffffffff1673ffffffffffffffffffffffffffffffffffffffff16815260200190815260200160002060006101000a81548160ff0219169083151502179055507fd62c45e13ac30396aceb3ad37c89bd1ba9048032fe61679000e92eb93dbfd67d81604051610eb49190611506565b60405180910390a150565b60008073ffffffffffffffffffffffffffffffffffffffff168273ffffffffffffffffffffffffffffffffffffffff1603610f2f576040517f08c379a0000000000000000000000000000000000000000000000000000000008152600401610f26906119dd565b60405180910390fd5b8260000160008373ffffffffffffffffffffffffffffffffffffffff1673ffffffffffffffffffffffffffffffffffffffff16815260200190815260200160002060009054906101000a900460ff16905092915050565b610f8e611309565b73ffffffffffffffffffffffffffffffffffffffff16610fac610a3f565b73ffffffffffffffffffffffffffffffffffffffff1614611002576040517f08c379a0000000000000000000000000000000000000000000000000000000008152600401610ff990611a49565b60405180910390fd5b565b600061100f33610b5f565b905090565b600454600360009054906101000a900473ffffffffffffffffffffffffffffffffffffffff1673ffffffffffffffffffffffffffffffffffffffff166318160ddd6040518163ffffffff1660e01b8152600401602060405180830381865afa158015611084573d6000803e3d6000fd5b505050506040513d601f19601f820116820180604052508101906110a89190611a7e565b11156110e9576040517f08c379a00000000000000000000000000000000000000000000000000000000081526004016110e090611af7565b60405180910390fd5b5050565b60008060009054906101000a900473ffffffffffffffffffffffffffffffffffffffff169050816000806101000a81548173ffffffffffffffffffffffffffffffffffffffff021916908373ffffffffffffffffffffffffffffffffffffffff1602179055508173ffffffffffffffffffffffffffffffffffffffff168173ffffffffffffffffffffffffffffffffffffffff167f8be0079c531659141344cd1fd0a4f28419497f9722a3daafe3b4186f6b6457e060405160405180910390a35050565b6111bb8282610ebf565b156111fb576040517f08c379a00000000000000000000000000000000000000000000000000000000081526004016111f290611b63565b60405180910390fd5b60018260000160008373ffffffffffffffffffffffffffffffffffffffff1673ffffffffffffffffffffffffffffffffffffffff16815260200190815260200160002060006101000a81548160ff0219169083151502179055505050565b505050565b5050565b61126c8282610ebf565b6112ab576040517f08c379a00000000000000000000000000000000000000000000000000000000081526004016112a290611bf5565b60405180910390fd5b60008260000160008373ffffffffffffffffffffffffffffffffffffffff1673ffffffffffffffffffffffffffffffffffffffff16815260200190815260200160002060006101000a81548160ff0219169083151502179055505050565b600033905090565b6000819050919050565b61132481611311565b82525050565b600060208201905061133f600083018461131b565b92915050565b600080fd5b600073ffffffffffffffffffffffffffffffffffffffff82169050919050565b60006113758261134a565b9050919050565b6113858161136a565b811461139057600080fd5b50565b6000813590506113a28161137c565b92915050565b6000602082840312156113be576113bd611345565b5b60006113cc84828501611393565b91505092915050565b60008115159050919050565b6113ea816113d5565b82525050565b600060208201905061140560008301846113e1565b92915050565b61141481611311565b811461141f57600080fd5b50565b6000813590506114318161140b565b92915050565b60006020828403121561144d5761144c611345565b5b600061145b84828501611422565b91505092915050565b6000806040838503121561147b5761147a611345565b5b600061148985828601611393565b925050602061149a85828601611422565b9150509250929050565b6000806000606084860312156114bd576114bc611345565b5b60006114cb86828701611393565b93505060206114dc86828701611393565b92505060406114ed86828701611422565b9150509250925092565b6115008161136a565b82525050565b600060208201905061151b60008301846114f7565b92915050565b6000819050919050565b600061154661154161153c8461134a565b611521565b61134a565b9050919050565b60006115588261152b565b9050919050565b600061156a8261154d565b9050919050565b61157a8161155f565b82525050565b60006020820190506115956000830184611571565b92915050565b6115a4816113d5565b81146115af57600080fd5b50565b6000815190506115c18161159b565b92915050565b6000602082840312156115dd576115dc611345565b5b60006115eb848285016115b2565b91505092915050565b600082825260208201905092915050565b7f6f6e6c79206f776e6572206f7220746f6b656e2063616e2063616c6c00000000600082015250565b600061163b601c836115f4565b915061164682611605565b602082019050919050565b6000602082019050818103600083015261166a8161162e565b9050919050565b7f5468697320746f6b656e206973206e6f7420626f756e64000000000000000000600082015250565b60006116a76017836115f4565b91506116b282611671565b602082019050919050565b600060208201905081810360008301526116d68161169a565b9050919050565b7f6572726f72203a20746869732061646472657373206973206e6f74206120746f60008201527f6b656e20626f756e6420746f2074686520636f6d706c69616e636520636f6e7460208201527f7261637400000000000000000000000000000000000000000000000000000000604082015250565b600061175f6044836115f4565b915061176a826116dd565b606082019050919050565b6000602082019050818103600083015261178e81611752565b9050919050565b7f696e76616c696420617267756d656e74202d207a65726f206164647265737300600082015250565b60006117cb601f836115f4565b91506117d682611795565b602082019050919050565b600060208201905081810360008301526117fa816117be565b9050919050565b7f54686973204167656e74206973206e6f74207265676973746572656420796574600082015250565b60006118376020836115f4565b915061184282611801565b602082019050919050565b600060208201905081810360008301526118668161182a565b9050919050565b7f4f776e61626c653a206e6577206f776e657220697320746865207a65726f206160008201527f6464726573730000000000000000000000000000000000000000000000000000602082015250565b60006118c96026836115f4565b91506118d48261186d565b604082019050919050565b600060208201905081810360008301526118f8816118bc565b9050919050565b7f54686973204167656e7420697320616c72656164792072656769737465726564600082015250565b60006119356020836115f4565b9150611940826118ff565b602082019050919050565b6000602082019050818103600083015261196481611928565b9050919050565b7f526f6c65733a206163636f756e7420697320746865207a65726f20616464726560008201527f7373000000000000000000000000000000000000000000000000000000000000602082015250565b60006119c76022836115f4565b91506119d28261196b565b604082019050919050565b600060208201905081810360008301526119f6816119ba565b9050919050565b7f4f776e61626c653a2063616c6c6572206973206e6f7420746865206f776e6572600082015250565b6000611a336020836115f4565b9150611a3e826119fd565b602082019050919050565b60006020820190508181036000830152611a6281611a26565b9050919050565b600081519050611a788161140b565b92915050565b600060208284031215611a9457611a93611345565b5b6000611aa284828501611a69565b91505092915050565b7f63616e6e6f74206d696e74206d6f726520746f6b656e73000000000000000000600082015250565b6000611ae16017836115f4565b9150611aec82611aab565b602082019050919050565b60006020820190508181036000830152611b1081611ad4565b9050919050565b7f526f6c65733a206163636f756e7420616c72656164792068617320726f6c6500600082015250565b6000611b4d601f836115f4565b9150611b5882611b17565b602082019050919050565b60006020820190508181036000830152611b7c81611b40565b9050919050565b7f526f6c65733a206163636f756e7420646f6573206e6f74206861766520726f6c60008201527f6500000000000000000000000000000000000000000000000000000000000000602082015250565b6000611bdf6021836115f4565b9150611bea82611b83565b604082019050919050565b60006020820190508181036000830152611c0e81611bd2565b905091905056fea2646970667358221220b1d678648e56ecdbf01c806882491b9760755f1a3da5c85894f1e82b99b8757664736f6c63430008110033","linkReferences":{}},"methodIdentifiers":{"addAgent(address)":"84e79842","addTokenAgent(address)":"ff3e6954","bindToken(address)":"3ff5aa02","canTransfer(address,address,uint256)":"e46638e6","complianceCheckOnSupplyLimit(address,address,uint256)":"737ce08e","created(address,uint256)":"5f8dead3","destroyed(address,uint256)":"8d2ea772","isAgent(address)":"1ffbb064","isTokenAgent(address)":"346531fa","isTokenBound(address)":"993e8b95","owner()":"8da5cb5b","removeAgent(address)":"97a6278e","removeTokenAgent(address)":"cdde2932","renounceOwnership()":"715018a6","setSupplyLimit(uint256)":"361fab25","supplyLimit()":"19d1997a","tokenBound()":"93e62f07","transferOwnership(address)":"f2fde38b","transferred(address,address,uint256)":"8baf29b4","unbindToken(address)":"40db3b50"},"id":23}