{"abi":[{"type":"function","name":"addAgent","inputs":[{"name":"_agent","type":"address","internalType":"address"}],"outputs":[],"stateMutability":"nonpayable"},{"type":"function","name":"batchRegisterIdentity","inputs":[{"name":"_userAddresses","type":"address[]","internalType":"address[]"},{"name":"_identities","type":"address[]","internalType":"contract IIdentity[]"},{"name":"_countries","type":"uint16[]","internalType":"uint16[]"}],"outputs":[],"stateMutability":"nonpayable"},{"type":"function","name":"contains","inputs":[{"name":"_userAddress","type":"address","internalType":"address"}],"outputs":[{"name":"","type":"bool","internalType":"bool"}],"stateMutability":"view"},{"type":"function","name":"deleteIdentity","inputs":[{"name":"_userAddress","type":"address","internalType":"address"}],"outputs":[],"stateMutability":"nonpayable"},{"type":"function","name":"identity","inputs":[{"name":"_userAddress","type":"address","internalType":"address"}],"outputs":[{"name":"","type":"address","internalType":"contract IIdentity"}],"stateMutability":"view"},{"type":"function","name":"identityStorage","inputs":[],"outputs":[{"name":"","type":"address","internalType":"contract IIdentityRegistryStorage"}],"stateMutability":"view"},{"type":"function","name":"init","inputs":[{"name":"_trustedIssuersRegistry","type":"address","internalType":"address"},{"name":"_claimTopicsRegistry","type":"address","internalType":"address"},{"name":"_identityStorage","type":"address","internalType":"address"}],"outputs":[],"stateMutability":"nonpayable"},{"type":"function","name":"investorCountry","inputs":[{"name":"_userAddress","type":"address","internalType":"address"}],"outputs":[{"name":"","type":"uint16","internalType":"uint16"}],"stateMutability":"view"},{"type":"function","name":"isAgent","inputs":[{"name":"_agent","type":"address","internalType":"address"}],"outputs":[{"name":"","type":"bool","internalType":"bool"}],"stateMutability":"view"},{"type":"function","name":"isVerified","inputs":[{"name":"_userAddress","type":"address","internalType":"address"}],"outputs":[{"name":"","type":"bool","internalType":"bool"}],"stateMutability":"view"},{"type":"function","name":"issuersRegistry","inputs":[],"outputs":[{"name":"","type":"address","internalType":"contract ITrustedIssuersRegistry"}],"stateMutability":"view"},{"type":"function","name":"owner","inputs":[],"outputs":[{"name":"","type":"address","internalType":"address"}],"stateMutability":"view"},{"type":"function","name":"registerIdentity","inputs":[{"name":"_userAddress","type":"address","internalType":"address"},{"name":"_identity","type":"address","internalType":"contract IIdentity"},{"name":"_country","type":"uint16","internalType":"uint16"}],"outputs":[],"stateMutability":"nonpayable"},{"type":"function","name":"removeAgent","inputs":[{"name":"_agent","type":"address","internalType":"address"}],"outputs":[],"stateMutability":"nonpayable"},{"type":"function","name":"renounceOwnership","inputs":[],"outputs":[],"stateMutability":"nonpayable"},{"type":"function","name":"setClaimTopicsRegistry","inputs":[{"name":"_claimTopicsRegistry","type":"address","internalType":"address"}],"outputs":[],"stateMutability":"nonpayable"},{"type":"function","name":"setIdentityRegistryStorage","inputs":[{"name":"_identityRegistryStorage","type":"address","internalType":"address"}],"outputs":[],"stateMutability":"nonpayable"},{"type":"function","name":"setTrustedIssuersRegistry","inputs":[{"name":"_trustedIssuersRegistry","type":"address","internalType":"address"}],"outputs":[],"stateMutability":"nonpayable"},{"type":"function","name":"topicsRegistry","inputs":[],"outputs":[{"name":"","type":"address","internalType":"contract IClaimTopicsRegistry"}],"stateMutability":"view"},{"type":"function","name":"transferOwnership","inputs":[{"name":"newOwner","type":"address","internalType":"address"}],"outputs":[],"stateMutability":"nonpayable"},{"type":"function","name":"updateCountry","inputs":[{"name":"_userAddress","type":"address","internalType":"address"},{"name":"_country","type":"uint16","internalType":"uint16"}],"outputs":[],"stateMutability":"nonpayable"},{"type":"function","name":"updateIdentity","inputs":[{"name":"_userAddress","type":"address","internalType":"address"},{"name":"_identity","type":"address","internalType":"contract IIdentity"}],"outputs":[],"stateMutability":"nonpayable"},{"type":"event","name":"AgentAdded","inputs":[{"name":"_agent","type":"address","indexed":true,"internalType":"address"}],"anonymous":false},{"type":"event","name":"AgentRemoved","inputs":[{"name":"_agent","type":"address","indexed":true,"internalType":"address"}],"anonymous":false},{"type":"event","name":"ClaimTopicsRegistrySet","inputs":[{"name":"claimTopicsRegistry","type":"address","indexed":true,"internalType":"address"}],"anonymous":false},{"type":"event","name":"CountryUpdated","inputs":[{"name":"investorAddress","type":"address","indexed":true,"internalType":"address"},{"name":"country","type":"uint16","indexed":true,"internalType":"uint16"}],"anonymous":false},{"type":"event","name":"IdentityRegistered","inputs":[{"name":"investorAddress","type":"address","indexed":true,"internalType":"address"},{"name":"identity","type":"address","indexed":true,"internalType":"contract IIdentity"}],"anonymous":false},{"type":"event","name":"IdentityRemoved","inputs":[{"name":"investorAddress","type":"address","indexed":true,"internalType":"address"},{"name":"identity","type":"address","indexed":true,"internalType":"contract IIdentity"}],"anonymous":false},{"type":"event","name":"IdentityStorageSet","inputs":[{"name":"identityStorage","type":"address","indexed":true,"internalType":"address"}],"anonymous":false},{"type":"event","name":"IdentityUpdated","inputs":[{"name":"oldIdentity","type":"address","indexed":true,"internalType":"contract IIdentity"},{"name":"newIdentity","type":"address","indexed":true,"internalType":"contract IIdentity"}],"anonymous":false},{"type":"event","name":"Initialized","inputs":[{"name":"version","type":"uint8","indexed":false,"internalType":"uint8"}],"anonymous":false},{"type":"event","name":"OwnershipTransferred","inputs":[{"name":"previousOwner","type":"address","indexed":true,"internalType":"address"},{"name":"newOwner","type":"address","indexed":true,"internalType":"address"}],"anonymous":false},{"type":"event","name":"TrustedIssuersRegistrySet","inputs":[{"name":"trustedIssuersRegistry","type":"address","indexed":true,"internalType":"address"}],"anonymous":false}],"bytecode":{"object":"0x608060405234801561001057600080fd5b50613160806100206000396000f3fe608060405234801561001057600080fd5b50600436106101425760003560e01c806384e79842116100b8578063b4f3fcb71161007c578063b4f3fcb714610335578063b9209e3314610353578063e744d78914610383578063f0eb5e541461039f578063f11abfd8146103cf578063f2fde38b146103ed57610142565b806384e79842146102a75780638da5cb5b146102c35780638e098ca1146102e157806397a6278e146102fd578063a8d29d1d1461031957610142565b8063454a03e01161010a578063454a03e0146101e95780635dbe47e814610205578063653dc9f114610235578063670af6a914610251578063715018a61461026d5780637e42683b1461027757610142565b8063184b9559146101475780631ffbb0641461016357806326d941ae146101935780633b239a7f146101af5780633b3e12f4146101cb575b600080fd5b610161600480360381019061015c9190611d55565b610409565b005b61017d60048036038101906101789190611da8565b6107b8565b60405161018a9190611df0565b60405180910390f35b6101ad60048036038101906101a89190611da8565b6107d5565b005b6101c960048036038101906101c49190611e45565b610864565b005b6101d3610987565b6040516101e09190611ee4565b60405180910390f35b61020360048036038101906101fe9190611f3d565b6109b1565b005b61021f600480360381019061021a9190611da8565b610ae9565b60405161022c9190611df0565b60405180910390f35b61024f600480360381019061024a91906120a1565b610b39565b005b61026b60048036038101906102669190611da8565b610be3565b005b610275610c72565b005b610291600480360381019061028c9190611da8565b610c86565b60405161029e9190612164565b60405180910390f35b6102c160048036038101906102bc9190611da8565b610d2b565b005b6102cb610dfc565b6040516102d8919061218e565b60405180910390f35b6102fb60048036038101906102f691906121a9565b610e26565b005b61031760048036038101906103129190611da8565b610f69565b005b610333600480360381019061032e9190611da8565b61103a565b005b61033d61117a565b60405161034a919061220a565b60405180910390f35b61036d60048036038101906103689190611da8565b6111a4565b60405161037a9190611df0565b60405180910390f35b61039d60048036038101906103989190611da8565b6116c3565b005b6103b960048036038101906103b49190611da8565b611752565b6040516103c69190612246565b60405180910390f35b6103d76117f7565b6040516103e49190612282565b60405180910390f35b61040760048036038101906104029190611da8565b611821565b005b60008060019054906101000a900460ff1615905080801561043a5750600160008054906101000a900460ff1660ff16105b806104675750610449306118a4565b1580156104665750600160008054906101000a900460ff1660ff16145b5b6104a6576040517f08c379a000000000000000000000000000000000000000000000000000000000815260040161049d90612320565b60405180910390fd5b60016000806101000a81548160ff021916908360ff16021790555080156104e3576001600060016101000a81548160ff0219169083151502179055505b600073ffffffffffffffffffffffffffffffffffffffff168473ffffffffffffffffffffffffffffffffffffffff161415801561054d5750600073ffffffffffffffffffffffffffffffffffffffff168373ffffffffffffffffffffffffffffffffffffffff1614155b80156105865750600073ffffffffffffffffffffffffffffffffffffffff168273ffffffffffffffffffffffffffffffffffffffff1614155b6105c5576040517f08c379a00000000000000000000000000000000000000000000000000000000081526004016105bc9061238c565b60405180910390fd5b82606660006101000a81548173ffffffffffffffffffffffffffffffffffffffff021916908373ffffffffffffffffffffffffffffffffffffffff16021790555083606760006101000a81548173ffffffffffffffffffffffffffffffffffffffff021916908373ffffffffffffffffffffffffffffffffffffffff16021790555081606860006101000a81548173ffffffffffffffffffffffffffffffffffffffff021916908373ffffffffffffffffffffffffffffffffffffffff1602179055508273ffffffffffffffffffffffffffffffffffffffff167f7170bf15b246e880b2369cd7c67d057760d8a35149e8c64dde91efa22bcc76d060405160405180910390a28373ffffffffffffffffffffffffffffffffffffffff167f1b98cb79e6f73020175fe87333f1b91ad6a881519c0afe30340c2599b2b4bde060405160405180910390a28173ffffffffffffffffffffffffffffffffffffffff167f2fa8b95c1db7afe99e3398f3792f008135cedc1fa26b0bb2ecd2352cd166d53c60405160405180910390a26107596118c7565b80156107b25760008060016101000a81548160ff0219169083151502179055507f7f26b83ff96e1f2b6a682f133852f6798a09c465da95921460cefb384740249860016040516107a991906123f4565b60405180910390a15b50505050565b60006107ce82606561192090919063ffffffff16565b9050919050565b6107dd6119e7565b80606860006101000a81548173ffffffffffffffffffffffffffffffffffffffff021916908373ffffffffffffffffffffffffffffffffffffffff1602179055508073ffffffffffffffffffffffffffffffffffffffff167f2fa8b95c1db7afe99e3398f3792f008135cedc1fa26b0bb2ecd2352cd166d53c60405160405180910390a250565b61086d336107b8565b6108ac576040517f08c379a00000000000000000000000000000000000000000000000000000000081526004016108a390612481565b60405180910390fd5b606860009054906101000a900473ffffffffffffffffffffffffffffffffffffffff1673ffffffffffffffffffffffffffffffffffffffff16639f3418d583836040518363ffffffff1660e01b81526004016109099291906124a1565b600060405180830381600087803b15801561092357600080fd5b505af1158015610937573d6000803e3d6000fd5b505050508061ffff168273ffffffffffffffffffffffffffffffffffffffff167f04ed3b726495c2dca1ff1215d9ca54e1a4030abb5e82b0f6ce55702416cee85360405160405180910390a35050565b6000606660009054906101000a900473ffffffffffffffffffffffffffffffffffffffff16905090565b6109ba336107b8565b6109f9576040517f08c379a00000000000000000000000000000000000000000000000000000000081526004016109f090612481565b60405180910390fd5b606860009054906101000a900473ffffffffffffffffffffffffffffffffffffffff1673ffffffffffffffffffffffffffffffffffffffff1663a53410dd8484846040518463ffffffff1660e01b8152600401610a58939291906124ca565b600060405180830381600087803b158015610a7257600080fd5b505af1158015610a86573d6000803e3d6000fd5b505050508173ffffffffffffffffffffffffffffffffffffffff168373ffffffffffffffffffffffffffffffffffffffff167f6ae73635c50d24a45af6fbd5e016ac4bed179addbc8bf24e04ff0fcc6d33af1960405160405180910390a3505050565b60008073ffffffffffffffffffffffffffffffffffffffff16610b0b83611752565b73ffffffffffffffffffffffffffffffffffffffff1603610b2f5760009050610b34565b600190505b919050565b60005b86869050811015610bda57610bc7878783818110610b5d57610b5c612501565b5b9050602002016020810190610b729190611da8565b868684818110610b8557610b84612501565b5b9050602002016020810190610b9a9190612530565b858585818110610bad57610bac612501565b5b9050602002016020810190610bc2919061255d565b6109b1565b8080610bd2906125c3565b915050610b3c565b50505050505050565b610beb6119e7565b80606660006101000a81548173ffffffffffffffffffffffffffffffffffffffff021916908373ffffffffffffffffffffffffffffffffffffffff1602179055508073ffffffffffffffffffffffffffffffffffffffff167f7170bf15b246e880b2369cd7c67d057760d8a35149e8c64dde91efa22bcc76d060405160405180910390a250565b610c7a6119e7565b610c846000611a65565b565b6000606860009054906101000a900473ffffffffffffffffffffffffffffffffffffffff1673ffffffffffffffffffffffffffffffffffffffff1663727e13bc836040518263ffffffff1660e01b8152600401610ce3919061218e565b602060405180830381865afa158015610d00573d6000803e3d6000fd5b505050506040513d601f19601f82011682018060405250810190610d249190612620565b9050919050565b610d336119e7565b600073ffffffffffffffffffffffffffffffffffffffff168173ffffffffffffffffffffffffffffffffffffffff1603610da2576040517f08c379a0000000000000000000000000000000000000000000000000000000008152600401610d999061238c565b60405180910390fd5b610db6816065611b2b90919063ffffffff16565b8073ffffffffffffffffffffffffffffffffffffffff167ff68e73cec97f2d70aa641fb26e87a4383686e2efacb648f2165aeb02ac562ec560405160405180910390a250565b6000603360009054906101000a900473ffffffffffffffffffffffffffffffffffffffff16905090565b610e2f336107b8565b610e6e576040517f08c379a0000000000000000000000000000000000000000000000000000000008152600401610e6590612481565b60405180910390fd5b6000610e7983611752565b9050606860009054906101000a900473ffffffffffffffffffffffffffffffffffffffff1673ffffffffffffffffffffffffffffffffffffffff1663e805cf8684846040518363ffffffff1660e01b8152600401610ed892919061264d565b600060405180830381600087803b158015610ef257600080fd5b505af1158015610f06573d6000803e3d6000fd5b505050508173ffffffffffffffffffffffffffffffffffffffff168173ffffffffffffffffffffffffffffffffffffffff167fe98082932c8056a0f514da9104e4a66bc2cbaef102ad59d90c4b24220ebf601060405160405180910390a3505050565b610f716119e7565b600073ffffffffffffffffffffffffffffffffffffffff168173ffffffffffffffffffffffffffffffffffffffff1603610fe0576040517f08c379a0000000000000000000000000000000000000000000000000000000008152600401610fd79061238c565b60405180910390fd5b610ff4816065611bd390919063ffffffff16565b8073ffffffffffffffffffffffffffffffffffffffff167fed9c8ad8d5a0a66898ea49d2956929c93ae2e8bd50281b2ed897c5d1a6737e0b60405160405180910390a250565b611043336107b8565b611082576040517f08c379a000000000000000000000000000000000000000000000000000000000815260040161107990612481565b60405180910390fd5b600061108d82611752565b9050606860009054906101000a900473ffffffffffffffffffffffffffffffffffffffff1673ffffffffffffffffffffffffffffffffffffffff1663cf191bcd836040518263ffffffff1660e01b81526004016110ea919061218e565b600060405180830381600087803b15801561110457600080fd5b505af1158015611118573d6000803e3d6000fd5b505050508073ffffffffffffffffffffffffffffffffffffffff168273ffffffffffffffffffffffffffffffffffffffff167f59d6590e225b81befe259af056324092801080acbb7feab310eb34678871f32760405160405180910390a35050565b6000606760009054906101000a900473ffffffffffffffffffffffffffffffffffffffff16905090565b60008073ffffffffffffffffffffffffffffffffffffffff166111c683611752565b73ffffffffffffffffffffffffffffffffffffffff16036111ea57600090506116be565b6000606660009054906101000a900473ffffffffffffffffffffffffffffffffffffffff1673ffffffffffffffffffffffffffffffffffffffff1663df09d6046040518163ffffffff1660e01b8152600401600060405180830381865afa158015611259573d6000803e3d6000fd5b505050506040513d6000823e3d601f19601f8201168201806040525081019061128291906127f1565b905060008151036112975760019150506116be565b600080600060608060005b86518110156116b2576000606760009054906101000a900473ffffffffffffffffffffffffffffffffffffffff1673ffffffffffffffffffffffffffffffffffffffff166352c111d18984815181106112fe576112fd612501565b5b60200260200101516040518263ffffffff1660e01b81526004016113229190612849565b600060405180830381865afa15801561133f573d6000803e3d6000fd5b505050506040513d6000823e3d601f19601f820116820180604052508101906113689190612965565b90506000815103611384576000985050505050505050506116be565b6000815167ffffffffffffffff8111156113a1576113a0612687565b5b6040519080825280602002602001820160405280156113cf5781602001602082028036833780820191505090505b50905060005b825181101561146d578281815181106113f1576113f0612501565b5b60200260200101518a858151811061140c5761140b612501565b5b60200260200101516040516020016114259291906129cf565b6040516020818303038152906040528051906020012082828151811061144e5761144d612501565b5b6020026020010181815250508080611465906125c3565b9150506113d5565b5060005b815181101561169c576114838c611752565b73ffffffffffffffffffffffffffffffffffffffff1663c9100bcb8383815181106114b1576114b0612501565b5b60200260200101516040518263ffffffff1660e01b81526004016114d59190612a11565b600060405180830381865afa1580156114f2573d6000803e3d6000fd5b505050506040513d6000823e3d601f19601f8201168201806040525081019061151b9190612bb2565b50809950819a50829b50839c50849d50505050505089848151811061154357611542612501565b5b60200260200101518903611661578673ffffffffffffffffffffffffffffffffffffffff1663c0969a6e6115768e611752565b8c878151811061158957611588612501565b5b602002602001015189896040518563ffffffff1660e01b81526004016115b29493929190612ce8565b602060405180830381865afa9250505080156115ec57506040513d601f19601f820116820180604052508101906115e99190612d67565b60015b61161c57600182516115fe9190612d94565b81036116175760009a50505050505050505050506116be565b61165c565b801561162757825191505b8015801561164157506001835161163e9190612d94565b82145b1561165a5760009b5050505050505050505050506116be565b505b611689565b6001825161166f9190612d94565b81036116885760009a50505050505050505050506116be565b5b8080611694906125c3565b915050611471565b50505080806116aa906125c3565b9150506112a2565b60019750505050505050505b919050565b6116cb6119e7565b80606760006101000a81548173ffffffffffffffffffffffffffffffffffffffff021916908373ffffffffffffffffffffffffffffffffffffffff1602179055508073ffffffffffffffffffffffffffffffffffffffff167f1b98cb79e6f73020175fe87333f1b91ad6a881519c0afe30340c2599b2b4bde060405160405180910390a250565b6000606860009054906101000a900473ffffffffffffffffffffffffffffffffffffffff1673ffffffffffffffffffffffffffffffffffffffff16637988d3a5836040518263ffffffff1660e01b81526004016117af919061218e565b602060405180830381865afa1580156117cc573d6000803e3d6000fd5b505050506040513d601f19601f820116820180604052508101906117f09190612ddd565b9050919050565b6000606860009054906101000a900473ffffffffffffffffffffffffffffffffffffffff16905090565b6118296119e7565b600073ffffffffffffffffffffffffffffffffffffffff168173ffffffffffffffffffffffffffffffffffffffff1603611898576040517f08c379a000000000000000000000000000000000000000000000000000000000815260040161188f90612e7c565b60405180910390fd5b6118a181611a65565b50565b6000808273ffffffffffffffffffffffffffffffffffffffff163b119050919050565b600060019054906101000a900460ff16611916576040517f08c379a000000000000000000000000000000000000000000000000000000000815260040161190d90612f0e565b60405180910390fd5b61191e611c7a565b565b60008073ffffffffffffffffffffffffffffffffffffffff168273ffffffffffffffffffffffffffffffffffffffff1603611990576040517f08c379a000000000000000000000000000000000000000000000000000000000815260040161198790612fa0565b60405180910390fd5b8260000160008373ffffffffffffffffffffffffffffffffffffffff1673ffffffffffffffffffffffffffffffffffffffff16815260200190815260200160002060009054906101000a900460ff16905092915050565b6119ef611cdb565b73ffffffffffffffffffffffffffffffffffffffff16611a0d610dfc565b73ffffffffffffffffffffffffffffffffffffffff1614611a63576040517f08c379a0000000000000000000000000000000000000000000000000000000008152600401611a5a9061300c565b60405180910390fd5b565b6000603360009054906101000a900473ffffffffffffffffffffffffffffffffffffffff16905081603360006101000a81548173ffffffffffffffffffffffffffffffffffffffff021916908373ffffffffffffffffffffffffffffffffffffffff1602179055508173ffffffffffffffffffffffffffffffffffffffff168173ffffffffffffffffffffffffffffffffffffffff167f8be0079c531659141344cd1fd0a4f28419497f9722a3daafe3b4186f6b6457e060405160405180910390a35050565b611b358282611920565b15611b75576040517f08c379a0000000000000000000000000000000000000000000000000000000008152600401611b6c90613078565b60405180910390fd5b60018260000160008373ffffffffffffffffffffffffffffffffffffffff1673ffffffffffffffffffffffffffffffffffffffff16815260200190815260200160002060006101000a81548160ff0219169083151502179055505050565b611bdd8282611920565b611c1c576040517f08c379a0000000000000000000000000000000000000000000000000000000008152600401611c139061310a565b60405180910390fd5b60008260000160008373ffffffffffffffffffffffffffffffffffffffff1673ffffffffffffffffffffffffffffffffffffffff16815260200190815260200160002060006101000a81548160ff0219169083151502179055505050565b600060019054906101000a900460ff16611cc9576040517f08c379a0000000000000000000000000000000000000000000000000000000008152600401611cc090612f0e565b60405180910390fd5b611cd9611cd4611cdb565b611a65565b565b600033905090565b6000604051905090565b600080fd5b600080fd5b600073ffffffffffffffffffffffffffffffffffffffff82169050919050565b6000611d2282611cf7565b9050919050565b611d3281611d17565b8114611d3d57600080fd5b50565b600081359050611d4f81611d29565b92915050565b600080600060608486031215611d6e57611d6d611ced565b5b6000611d7c86828701611d40565b9350506020611d8d86828701611d40565b9250506040611d9e86828701611d40565b9150509250925092565b600060208284031215611dbe57611dbd611ced565b5b6000611dcc84828501611d40565b91505092915050565b60008115159050919050565b611dea81611dd5565b82525050565b6000602082019050611e056000830184611de1565b92915050565b600061ffff82169050919050565b611e2281611e0b565b8114611e2d57600080fd5b50565b600081359050611e3f81611e19565b92915050565b60008060408385031215611e5c57611e5b611ced565b5b6000611e6a85828601611d40565b9250506020611e7b85828601611e30565b9150509250929050565b6000819050919050565b6000611eaa611ea5611ea084611cf7565b611e85565b611cf7565b9050919050565b6000611ebc82611e8f565b9050919050565b6000611ece82611eb1565b9050919050565b611ede81611ec3565b82525050565b6000602082019050611ef96000830184611ed5565b92915050565b6000611f0a82611d17565b9050919050565b611f1a81611eff565b8114611f2557600080fd5b50565b600081359050611f3781611f11565b92915050565b600080600060608486031215611f5657611f55611ced565b5b6000611f6486828701611d40565b9350506020611f7586828701611f28565b9250506040611f8686828701611e30565b9150509250925092565b600080fd5b600080fd5b600080fd5b60008083601f840112611fb557611fb4611f90565b5b8235905067ffffffffffffffff811115611fd257611fd1611f95565b5b602083019150836020820283011115611fee57611fed611f9a565b5b9250929050565b60008083601f84011261200b5761200a611f90565b5b8235905067ffffffffffffffff81111561202857612027611f95565b5b60208301915083602082028301111561204457612043611f9a565b5b9250929050565b60008083601f84011261206157612060611f90565b5b8235905067ffffffffffffffff81111561207e5761207d611f95565b5b60208301915083602082028301111561209a57612099611f9a565b5b9250929050565b600080600080600080606087890312156120be576120bd611ced565b5b600087013567ffffffffffffffff8111156120dc576120db611cf2565b5b6120e889828a01611f9f565b9650965050602087013567ffffffffffffffff81111561210b5761210a611cf2565b5b61211789828a01611ff5565b9450945050604087013567ffffffffffffffff81111561213a57612139611cf2565b5b61214689828a0161204b565b92509250509295509295509295565b61215e81611e0b565b82525050565b60006020820190506121796000830184612155565b92915050565b61218881611d17565b82525050565b60006020820190506121a3600083018461217f565b92915050565b600080604083850312156121c0576121bf611ced565b5b60006121ce85828601611d40565b92505060206121df85828601611f28565b9150509250929050565b60006121f482611eb1565b9050919050565b612204816121e9565b82525050565b600060208201905061221f60008301846121fb565b92915050565b600061223082611eb1565b9050919050565b61224081612225565b82525050565b600060208201905061225b6000830184612237565b92915050565b600061226c82611eb1565b9050919050565b61227c81612261565b82525050565b60006020820190506122976000830184612273565b92915050565b600082825260208201905092915050565b7f496e697469616c697a61626c653a20636f6e747261637420697320616c72656160008201527f647920696e697469616c697a6564000000000000000000000000000000000000602082015250565b600061230a602e8361229d565b9150612315826122ae565b604082019050919050565b60006020820190508181036000830152612339816122fd565b9050919050565b7f696e76616c696420617267756d656e74202d207a65726f206164647265737300600082015250565b6000612376601f8361229d565b915061238182612340565b602082019050919050565b600060208201905081810360008301526123a581612369565b9050919050565b6000819050919050565b600060ff82169050919050565b60006123de6123d96123d4846123ac565b611e85565b6123b6565b9050919050565b6123ee816123c3565b82525050565b600060208201905061240960008301846123e5565b92915050565b7f4167656e74526f6c653a2063616c6c657220646f6573206e6f7420686176652060008201527f746865204167656e7420726f6c65000000000000000000000000000000000000602082015250565b600061246b602e8361229d565b91506124768261240f565b604082019050919050565b6000602082019050818103600083015261249a8161245e565b9050919050565b60006040820190506124b6600083018561217f565b6124c36020830184612155565b9392505050565b60006060820190506124df600083018661217f565b6124ec6020830185612237565b6124f96040830184612155565b949350505050565b7f4e487b7100000000000000000000000000000000000000000000000000000000600052603260045260246000fd5b60006020828403121561254657612545611ced565b5b600061255484828501611f28565b91505092915050565b60006020828403121561257357612572611ced565b5b600061258184828501611e30565b91505092915050565b7f4e487b7100000000000000000000000000000000000000000000000000000000600052601160045260246000fd5b6000819050919050565b60006125ce826125b9565b91507fffffffffffffffffffffffffffffffffffffffffffffffffffffffffffffffff8203612600576125ff61258a565b5b600182019050919050565b60008151905061261a81611e19565b92915050565b60006020828403121561263657612635611ced565b5b60006126448482850161260b565b91505092915050565b6000604082019050612662600083018561217f565b61266f6020830184612237565b9392505050565b6000601f19601f8301169050919050565b7f4e487b7100000000000000000000000000000000000000000000000000000000600052604160045260246000fd5b6126bf82612676565b810181811067ffffffffffffffff821117156126de576126dd612687565b5b80604052505050565b60006126f1611ce3565b90506126fd82826126b6565b919050565b600067ffffffffffffffff82111561271d5761271c612687565b5b602082029050602081019050919050565b612737816125b9565b811461274257600080fd5b50565b6000815190506127548161272e565b92915050565b600061276d61276884612702565b6126e7565b905080838252602082019050602084028301858111156127905761278f611f9a565b5b835b818110156127b957806127a58882612745565b845260208401935050602081019050612792565b5050509392505050565b600082601f8301126127d8576127d7611f90565b5b81516127e884826020860161275a565b91505092915050565b60006020828403121561280757612806611ced565b5b600082015167ffffffffffffffff81111561282557612824611cf2565b5b612831848285016127c3565b91505092915050565b612843816125b9565b82525050565b600060208201905061285e600083018461283a565b92915050565b600067ffffffffffffffff82111561287f5761287e612687565b5b602082029050602081019050919050565b600061289b82611d17565b9050919050565b6128ab81612890565b81146128b657600080fd5b50565b6000815190506128c8816128a2565b92915050565b60006128e16128dc84612864565b6126e7565b9050808382526020820190506020840283018581111561290457612903611f9a565b5b835b8181101561292d578061291988826128b9565b845260208401935050602081019050612906565b5050509392505050565b600082601f83011261294c5761294b611f90565b5b815161295c8482602086016128ce565b91505092915050565b60006020828403121561297b5761297a611ced565b5b600082015167ffffffffffffffff81111561299957612998611cf2565b5b6129a584828501612937565b91505092915050565b60006129b982611eb1565b9050919050565b6129c9816129ae565b82525050565b60006040820190506129e460008301856129c0565b6129f1602083018461283a565b9392505050565b6000819050919050565b612a0b816129f8565b82525050565b6000602082019050612a266000830184612a02565b92915050565b600081519050612a3b81611d29565b92915050565b600080fd5b600067ffffffffffffffff821115612a6157612a60612687565b5b612a6a82612676565b9050602081019050919050565b60005b83811015612a95578082015181840152602081019050612a7a565b60008484015250505050565b6000612ab4612aaf84612a46565b6126e7565b905082815260208101848484011115612ad057612acf612a41565b5b612adb848285612a77565b509392505050565b600082601f830112612af857612af7611f90565b5b8151612b08848260208601612aa1565b91505092915050565b600067ffffffffffffffff821115612b2c57612b2b612687565b5b612b3582612676565b9050602081019050919050565b6000612b55612b5084612b11565b6126e7565b905082815260208101848484011115612b7157612b70612a41565b5b612b7c848285612a77565b509392505050565b600082601f830112612b9957612b98611f90565b5b8151612ba9848260208601612b42565b91505092915050565b60008060008060008060c08789031215612bcf57612bce611ced565b5b6000612bdd89828a01612745565b9650506020612bee89828a01612745565b9550506040612bff89828a01612a2c565b945050606087015167ffffffffffffffff811115612c2057612c1f611cf2565b5b612c2c89828a01612ae3565b935050608087015167ffffffffffffffff811115612c4d57612c4c611cf2565b5b612c5989828a01612ae3565b92505060a087015167ffffffffffffffff811115612c7a57612c79611cf2565b5b612c8689828a01612b84565b9150509295509295509295565b600081519050919050565b600082825260208201905092915050565b6000612cba82612c93565b612cc48185612c9e565b9350612cd4818560208601612a77565b612cdd81612676565b840191505092915050565b6000608082019050612cfd6000830187612237565b612d0a602083018661283a565b8181036040830152612d1c8185612caf565b90508181036060830152612d308184612caf565b905095945050505050565b612d4481611dd5565b8114612d4f57600080fd5b50565b600081519050612d6181612d3b565b92915050565b600060208284031215612d7d57612d7c611ced565b5b6000612d8b84828501612d52565b91505092915050565b6000612d9f826125b9565b9150612daa836125b9565b9250828203905081811115612dc257612dc161258a565b5b92915050565b600081519050612dd781611f11565b92915050565b600060208284031215612df357612df2611ced565b5b6000612e0184828501612dc8565b91505092915050565b7f4f776e61626c653a206e6577206f776e657220697320746865207a65726f206160008201527f6464726573730000000000000000000000000000000000000000000000000000602082015250565b6000612e6660268361229d565b9150612e7182612e0a565b604082019050919050565b60006020820190508181036000830152612e9581612e59565b9050919050565b7f496e697469616c697a61626c653a20636f6e7472616374206973206e6f74206960008201527f6e697469616c697a696e67000000000000000000000000000000000000000000602082015250565b6000612ef8602b8361229d565b9150612f0382612e9c565b604082019050919050565b60006020820190508181036000830152612f2781612eeb565b9050919050565b7f526f6c65733a206163636f756e7420697320746865207a65726f20616464726560008201527f7373000000000000000000000000000000000000000000000000000000000000602082015250565b6000612f8a60228361229d565b9150612f9582612f2e565b604082019050919050565b60006020820190508181036000830152612fb981612f7d565b9050919050565b7f4f776e61626c653a2063616c6c6572206973206e6f7420746865206f776e6572600082015250565b6000612ff660208361229d565b915061300182612fc0565b602082019050919050565b6000602082019050818103600083015261302581612fe9565b9050919050565b7f526f6c65733a206163636f756e7420616c72656164792068617320726f6c6500600082015250565b6000613062601f8361229d565b915061306d8261302c565b602082019050919050565b6000602082019050818103600083015261309181613055565b9050919050565b7f526f6c65733a206163636f756e7420646f6573206e6f74206861766520726f6c60008201527f6500000000000000000000000000000000000000000000000000000000000000602082015250565b60006130f460218361229d565b91506130ff82613098565b604082019050919050565b60006020820190508181036000830152613123816130e7565b905091905056fea2646970667358221220740e513331ee4637b008f8dfbbd423ffcdd53be7aad907f386bee6bdd6ac4cba64736f6c63430008110033","linkReferences":{}},"methodIdentifiers":{"addAgent(address)":"84e79842","batchRegisterIdentity(address[],address[],uint16[])":"653dc9f1","contains(address)":"5dbe47e8","deleteIdentity(address)":"a8d29d1d","identity(address)":"f0eb5e54","identityStorage()":"f11abfd8","init(address,address,address)":"184b9559","investorCountry(address)":"7e42683b","isAgent(address)":"1ffbb064","isVerified(address)":"b9209e33","issuersRegistry()":"b4f3fcb7","owner()":"8da5cb5b","registerIdentity(address,address,uint16)":"454a03e0","removeAgent(address)":"97a6278e","renounceOwnership()":"715018a6","setClaimTopicsRegistry(address)":"670af6a9","setIdentityRegistryStorage(address)":"26d941ae","setTrustedIssuersRegistry(address)":"e744d789","topicsRegistry()":"3b3e12f4","transferOwnership(address)":"f2fde38b","updateCountry(address,uint16)":"3b239a7f","updateIdentity(address,address)":"8e098ca1"},"id":49}