{"abi":[{"type":"function","name":"addAgent","inputs":[{"name":"_agent","type":"address","internalType":"address"}],"outputs":[],"stateMutability":"nonpayable"},{"type":"function","name":"addAgentOnTokenContract","inputs":[{"name":"_agent","type":"address","internalType":"address"}],"outputs":[],"stateMutability":"nonpayable"},{"type":"function","name":"allowance","inputs":[{"name":"_owner","type":"address","internalType":"address"},{"name":"_spender","type":"address","internalType":"address"}],"outputs":[{"name":"","type":"uint256","internalType":"uint256"}],"stateMutability":"view"},{"type":"function","name":"approve","inputs":[{"name":"_spender","type":"address","internalType":"address"},{"name":"_amount","type":"uint256","internalType":"uint256"}],"outputs":[{"name":"","type":"bool","internalType":"bool"}],"stateMutability":"nonpayable"},{"type":"function","name":"balanceOf","inputs":[{"name":"_userAddress","type":"address","internalType":"address"}],"outputs":[{"name":"","type":"uint256","internalType":"uint256"}],"stateMutability":"view"},{"type":"function","name":"batchBurn","inputs":[{"name":"_userAddresses","type":"address[]","internalType":"address[]"},{"name":"_amounts","type":"uint256[]","internalType":"uint256[]"}],"outputs":[],"stateMutability":"nonpayable"},{"type":"function","name":"batchForcedTransfer","inputs":[{"name":"_fromList","type":"address[]","internalType":"address[]"},{"name":"_toList","type":"address[]","internalType":"address[]"},{"name":"_amounts","type":"uint256[]","internalType":"uint256[]"}],"outputs":[],"stateMutability":"nonpayable"},{"type":"function","name":"batchFreezePartialTokens","inputs":[{"name":"_userAddresses","type":"address[]","internalType":"address[]"},{"name":"_amounts","type":"uint256[]","internalType":"uint256[]"}],"outputs":[],"stateMutability":"nonpayable"},{"type":"function","name":"batchMint","inputs":[{"name":"_toList","type":"address[]","internalType":"address[]"},{"name":"_amounts","type":"uint256[]","internalType":"uint256[]"}],"outputs":[],"stateMutability":"nonpayable"},{"type":"function","name":"batchSetAddressFrozen","inputs":[{"name":"_userAddresses","type":"address[]","internalType":"address[]"},{"name":"_freeze","type":"bool[]","internalType":"bool[]"}],"outputs":[],"stateMutability":"nonpayable"},{"type":"function","name":"batchTransfer","inputs":[{"name":"_toList","type":"address[]","internalType":"address[]"},{"name":"_amounts","type":"uint256[]","internalType":"uint256[]"}],"outputs":[],"stateMutability":"nonpayable"},{"type":"function","name":"batchUnfreezePartialTokens","inputs":[{"name":"_userAddresses","type":"address[]","internalType":"address[]"},{"name":"_amounts","type":"uint256[]","internalType":"uint256[]"}],"outputs":[],"stateMutability":"nonpayable"},{"type":"function","name":"burn","inputs":[{"name":"_userAddress","type":"address","internalType":"address"},{"name":"_amount","type":"uint256","internalType":"uint256"}],"outputs":[],"stateMutability":"nonpayable"},{"type":"function","name":"compliance","inputs":[],"outputs":[{"name":"","type":"address","internalType":"contract IComplianceLegacy"}],"stateMutability":"view"},{"type":"function","name":"decimals","inputs":[],"outputs":[{"name":"","type":"uint8","internalType":"uint8"}],"stateMutability":"view"},{"type":"function","name":"decreaseAllowance","inputs":[{"name":"_spender","type":"address","internalType":"address"},{"name":"_subtractedValue","type":"uint256","internalType":"uint256"}],"outputs":[{"name":"","type":"bool","internalType":"bool"}],"stateMutability":"nonpayable"},{"type":"function","name":"forcedTransfer","inputs":[{"name":"_from","type":"address","internalType":"address"},{"name":"_to","type":"address","internalType":"address"},{"name":"_amount","type":"uint256","internalType":"uint256"}],"outputs":[{"name":"","type":"bool","internalType":"bool"}],"stateMutability":"nonpayable"},{"type":"function","name":"freezePartialTokens","inputs":[{"name":"_userAddress","type":"address","internalType":"address"},{"name":"_amount","type":"uint256","internalType":"uint256"}],"outputs":[],"stateMutability":"nonpayable"},{"type":"function","name":"getFrozenTokens","inputs":[{"name":"_userAddress","type":"address","internalType":"address"}],"outputs":[{"name":"","type":"uint256","internalType":"uint256"}],"stateMutability":"view"},{"type":"function","name":"identityRegistry","inputs":[],"outputs":[{"name":"","type":"address","internalType":"contract IIdentityRegistryLegacy"}],"stateMutability":"view"},{"type":"function","name":"increaseAllowance","inputs":[{"name":"_spender","type":"address","internalType":"address"},{"name":"_addedValue","type":"uint256","internalType":"uint256"}],"outputs":[{"name":"","type":"bool","internalType":"bool"}],"stateMutability":"nonpayable"},{"type":"function","name":"init","inputs":[{"name":"_identityRegistry","type":"address","internalType":"address"},{"name":"_compliance","type":"address","internalType":"address"},{"name":"_name","type":"string","internalType":"string"},{"name":"_symbol","type":"string","internalType":"string"},{"name":"_decimals","type":"uint8","internalType":"uint8"},{"name":"_onchainID","type":"address","internalType":"address"}],"outputs":[],"stateMutability":"nonpayable"},{"type":"function","name":"isAgent","inputs":[{"name":"_agent","type":"address","internalType":"address"}],"outputs":[{"name":"","type":"bool","internalType":"bool"}],"stateMutability":"view"},{"type":"function","name":"isFrozen","inputs":[{"name":"_userAddress","type":"address","internalType":"address"}],"outputs":[{"name":"","type":"bool","internalType":"bool"}],"stateMutability":"view"},{"type":"function","name":"mint","inputs":[{"name":"_to","type":"address","internalType":"address"},{"name":"_amount","type":"uint256","internalType":"uint256"}],"outputs":[],"stateMutability":"nonpayable"},{"type":"function","name":"name","inputs":[],"outputs":[{"name":"","type":"string","internalType":"string"}],"stateMutability":"view"},{"type":"function","name":"onchainID","inputs":[],"outputs":[{"name":"","type":"address","internalType":"address"}],"stateMutability":"view"},{"type":"function","name":"owner","inputs":[],"outputs":[{"name":"","type":"address","internalType":"address"}],"stateMutability":"view"},{"type":"function","name":"pause","inputs":[],"outputs":[],"stateMutability":"nonpayable"},{"type":"function","name":"paused","inputs":[],"outputs":[{"name":"","type":"bool","internalType":"bool"}],"stateMutability":"view"},{"type":"function","name":"recoveryAddress","inputs":[{"name":"_lostWallet","type":"address","internalType":"address"},{"name":"_newWallet","type":"address","internalType":"address"},{"name":"_investorOnchainID","type":"address","internalType":"address"}],"outputs":[{"name":"","type":"bool","internalType":"bool"}],"stateMutability":"nonpayable"},{"type":"function","name":"removeAgent","inputs":[{"name":"_agent","type":"address","internalType":"address"}],"outputs":[],"stateMutability":"nonpayable"},{"type":"function","name":"removeAgentOnTokenContract","inputs":[{"name":"_agent","type":"address","internalType":"address"}],"outputs":[],"stateMutability":"nonpayable"},{"type":"function","name":"renounceOwnership","inputs":[],"outputs":[],"stateMutability":"nonpayable"},{"type":"function","name":"setAddressFrozen","inputs":[{"name":"_userAddress","type":"address","internalType":"address"},{"name":"_freeze","type":"bool","internalType":"bool"}],"outputs":[],"stateMutability":"nonpayable"},{"type":"function","name":"setCompliance","inputs":[{"name":"_compliance","type":"address","internalType":"address"}],"outputs":[],"stateMutability":"nonpayable"},{"type":"function","name":"setIdentityRegistry","inputs":[{"name":"_identityRegistry","type":"address","internalType":"address"}],"outputs":[],"stateMutability":"nonpayable"},{"type":"function","name":"setName","inputs":[{"name":"_name","type":"string","internalType":"string"}],"outputs":[],"stateMutability":"nonpayable"},{"type":"function","name":"setOnchainID","inputs":[{"name":"_onchainID","type":"address","internalType":"address"}],"outputs":[],"stateMutability":"nonpayable"},{"type":"function","name":"setSymbol","inputs":[{"name":"_symbol","type":"string","internalType":"string"}],"outputs":[],"stateMutability":"nonpayable"},{"type":"function","name":"symbol","inputs":[],"outputs":[{"name":"","type":"string","internalType":"string"}],"stateMutability":"view"},{"type":"function","name":"totalSupply","inputs":[],"outputs":[{"name":"","type":"uint256","internalType":"uint256"}],"stateMutability":"view"},{"type":"function","name":"transfer","inputs":[{"name":"_to","type":"address","internalType":"address"},{"name":"_amount","type":"uint256","internalType":"uint256"}],"outputs":[{"name":"","type":"bool","internalType":"bool"}],"stateMutability":"nonpayable"},{"type":"function","name":"transferFrom","inputs":[{"name":"_from","type":"address","internalType":"address"},{"name":"_to","type":"address","internalType":"address"},{"name":"_amount","type":"uint256","internalType":"uint256"}],"outputs":[{"name":"","type":"bool","internalType":"bool"}],"stateMutability":"nonpayable"},{"type":"function","name":"transferOwnership","inputs":[{"name":"newOwner","type":"address","internalType":"address"}],"outputs":[],"stateMutability":"nonpayable"},{"type":"function","name":"transferOwnershipOnTokenContract","inputs":[{"name":"_newOwner","type":"address","internalType":"address"}],"outputs":[],"stateMutability":"nonpayable"},{"type":"function","name":"unfreezePartialTokens","inputs":[{"name":"_userAddress","type":"address","internalType":"address"},{"name":"_amount","type":"uint256","internalType":"uint256"}],"outputs":[],"stateMutability":"nonpayable"},{"type":"function","name":"unpause","inputs":[],"outputs":[],"stateMutability":"nonpayable"},{"type":"function","name":"version","inputs":[],"outputs":[{"name":"","type":"string","internalType":"string"}],"stateMutability":"view"},{"type":"event","name":"AddressFrozen","inputs":[{"name":"_userAddress","type":"address","indexed":true,"internalType":"address"},{"name":"_isFrozen","type":"bool","indexed":true,"internalType":"bool"},{"name":"_owner","type":"address","indexed":true,"internalType":"address"}],"anonymous":false},{"type":"event","name":"AgentAdded","inputs":[{"name":"_agent","type":"address","indexed":true,"internalType":"address"}],"anonymous":false},{"type":"event","name":"AgentRemoved","inputs":[{"name":"_agent","type":"address","indexed":true,"internalType":"address"}],"anonymous":false},{"type":"event","name":"Approval","inputs":[{"name":"owner","type":"address","indexed":true,"internalType":"address"},{"name":"spender","type":"address","indexed":true,"internalType":"address"},{"name":"value","type":"uint256","indexed":false,"internalType":"uint256"}],"anonymous":false},{"type":"event","name":"ComplianceAdded","inputs":[{"name":"_compliance","type":"address","indexed":true,"internalType":"address"}],"anonymous":false},{"type":"event","name":"IdentityRegistryAdded","inputs":[{"name":"_identityRegistry","type":"address","indexed":true,"internalType":"address"}],"anonymous":false},{"type":"event","name":"OwnershipTransferred","inputs":[{"name":"previousOwner","type":"address","indexed":true,"internalType":"address"},{"name":"newOwner","type":"address","indexed":true,"internalType":"address"}],"anonymous":false},{"type":"event","name":"Paused","inputs":[{"name":"_userAddress","type":"address","indexed":false,"internalType":"address"}],"anonymous":false},{"type":"event","name":"RecoverySuccess","inputs":[{"name":"_lostWallet","type":"address","indexed":false,"internalType":"address"},{"name":"_newWallet","type":"address","indexed":false,"internalType":"address"},{"name":"_investorOnchainID","type":"address","indexed":false,"internalType":"address"}],"anonymous":false},{"type":"event","name":"TokensFrozen","inputs":[{"name":"_userAddress","type":"address","indexed":true,"internalType":"address"},{"name":"_amount","type":"uint256","indexed":false,"internalType":"uint256"}],"anonymous":false},{"type":"event","name":"TokensUnfrozen","inputs":[{"name":"_userAddress","type":"address","indexed":true,"internalType":"address"},{"name":"_amount","type":"uint256","indexed":false,"internalType":"uint256"}],"anonymous":false},{"type":"event","name":"Transfer","inputs":[{"name":"from","type":"address","indexed":true,"internalType":"address"},{"name":"to","type":"address","indexed":true,"internalType":"address"},{"name":"value","type":"uint256","indexed":false,"internalType":"uint256"}],"anonymous":false},{"type":"event","name":"Unpaused","inputs":[{"name":"_userAddress","type":"address","indexed":false,"internalType":"address"}],"anonymous":false},{"type":"event","name":"UpdatedTokenInformation","inputs":[{"name":"_newName","type":"string","indexed":false,"internalType":"string"},{"name":"_newSymbol","type":"string","indexed":false,"internalType":"string"},{"name":"_newDecimals","type":"uint8","indexed":false,"internalType":"uint8"},{"name":"_newVersion","type":"string","indexed":false,"internalType":"string"},{"name":"_newOnchainID","type":"address","indexed":false,"internalType":"address"}],"anonymous":false}],"bytecode":{"object":"0x60806040526000606e60006101000a81548160ff02191690831515021790555034801561002b57600080fd5b5061658c806200003c6000396000f3fe608060405234801561001057600080fd5b50600436106102bb5760003560e01c806370a0823111610182578063a9059cbb116100e9578063cbf3f861116100a2578063f2fde38b1161007c578063f2fde38b1461087a578063f898178914610896578063f91b619c146108b2578063fc7e5fa8146108ce576102bb565b8063cbf3f861146107fe578063dd62ed3e1461081a578063e58398361461084a576102bb565b8063a9059cbb14610740578063aba6370514610770578063b422d8301461078e578063b84c8246146107aa578063c47f0027146107c6578063c69c09cf146107e2576102bb565b80639285948a1161013b5780639285948a1461065a57806395d89b411461068a57806397a6278e146106a85780639dc29fac146106c45780639fc1d0e7146106e0578063a457c2d714610710576102bb565b806370a08231146105c0578063715018a6146105f05780638456cb59146105fa57806384e798421461060457806388d695b2146106205780638da5cb5b1461063c576102bb565b80633d1ddc5b1161022657806351411b33116101df57806351411b331461051257806354fd4d501461052e5780635c975abb1461054c5780635dc7a3cb1461056a5780636290865d1461058657806368573107146105a4576102bb565b80633d1ddc5b1461047c5780633f4ba83a1461049857806340c10f19146104a257806342a47abc146104be5780634710362d146104da5780634a6cc677146104f6576102bb565b80631a7af379116102785780631a7af379146103965780631fe56f7d146103b25780631ffbb064146103ce57806323b872dd146103fe578063313ce5671461042e578063395093511461044c576102bb565b806306fdde03146102c0578063095ea7b3146102de578063125c4a331461030e578063134e18f41461032a578063158b1a571461034857806318160ddd14610378575b600080fd5b6102c86108ea565b6040516102d5919061477d565b60405180910390f35b6102f860048036038101906102f39190614847565b61097c565b60405161030591906148a2565b60405180910390f35b61032860048036038101906103239190614847565b610993565b005b610332610b56565b60405161033f919061491c565b60405180910390f35b610362600480360381019061035d9190614937565b610b80565b60405161036f9190614973565b60405180910390f35b610380610bc9565b60405161038d9190614973565b60405180910390f35b6103b060048036038101906103ab9190614a49565b610bd3565b005b6103cc60048036038101906103c79190614847565b610c53565b005b6103e860048036038101906103e39190614937565b610dfd565b6040516103f591906148a2565b60405180910390f35b61041860048036038101906104139190614aca565b610e1a565b60405161042591906148a2565b60405180910390f35b6104366112a6565b6040516104439190614b39565b60405180910390f35b61046660048036038101906104619190614847565b6112bd565b60405161047391906148a2565b60405180910390f35b61049660048036038101906104919190614937565b61135b565b005b6104a06114c2565b005b6104bc60048036038101906104b79190614847565b6115ad565b005b6104d860048036038101906104d39190614baa565b61184c565b005b6104f460048036038101906104ef9190614c5e565b6118e9565b005b610510600480360381019061050b9190614c5e565b61195b565b005b61052c60048036038101906105279190614937565b6119cd565b005b610536611a55565b604051610543919061477d565b60405180910390f35b610554611a92565b60405161056191906148a2565b60405180910390f35b610584600480360381019061057f9190614937565b611aa9565b005b61058e611ab5565b60405161059b9190614d00565b60405180910390f35b6105be60048036038101906105b99190614c5e565b611adf565b005b6105da60048036038101906105d59190614937565b611b51565b6040516105e79190614973565b60405180910390f35b6105f8611b9a565b005b610602611cd7565b005b61061e60048036038101906106199190614937565b611dc3565b005b61063a60048036038101906106359190614c5e565b611e99565b005b610644611f0c565b6040516106519190614d2a565b60405180910390f35b610674600480360381019061066f9190614d45565b611f36565b60405161068191906148a2565b60405180910390f35b610692612395565b60405161069f919061477d565b60405180910390f35b6106c260048036038101906106bd9190614937565b612427565b005b6106de60048036038101906106d99190614847565b6124fd565b005b6106fa60048036038101906106f59190614aca565b612730565b60405161070791906148a2565b60405180910390f35b61072a60048036038101906107259190614847565b612a50565b60405161073791906148a2565b60405180910390f35b61075a60048036038101906107559190614847565b612aee565b60405161076791906148a2565b60405180910390f35b610778612ee7565b6040516107859190614d2a565b60405180910390f35b6107a860048036038101906107a39190614937565b612f11565b005b6107c460048036038101906107bf9190614dee565b612f1d565b005b6107e060048036038101906107db9190614dee565b613056565b005b6107fc60048036038101906107f79190614e67565b61318f565b005b61081860048036038101906108139190614937565b61328f565b005b610834600480360381019061082f9190614ea7565b613392565b6040516108419190614973565b60405180910390f35b610864600480360381019061085f9190614937565b613419565b60405161087191906148a2565b60405180910390f35b610894600480360381019061088f9190614937565b61346f565b005b6108b060048036038101906108ab9190614937565b61361a565b005b6108cc60048036038101906108c79190615043565b61371d565b005b6108e860048036038101906108e39190614c5e565b6139ce565b005b6060606980546108f990615137565b80601f016020809104026020016040519081016040528092919081815260200182805461092590615137565b80156109725780601f1061094757610100808354040283529160200191610972565b820191906000526020600020905b81548152906001019060200180831161095557829003601f168201915b5050505050905090565b6000610989338484613a40565b6001905092915050565b61099c33610dfd565b6109db576040517f08c379a00000000000000000000000000000000000000000000000000000000081526004016109d2906151da565b60405180910390fd5b60006109e683611b51565b905081606d60008573ffffffffffffffffffffffffffffffffffffffff1673ffffffffffffffffffffffffffffffffffffffff16815260200190815260200160002054610a339190615229565b811015610a75576040517f08c379a0000000000000000000000000000000000000000000000000000000008152600401610a6c906152a9565b60405180910390fd5b81606d60008573ffffffffffffffffffffffffffffffffffffffff1673ffffffffffffffffffffffffffffffffffffffff16815260200190815260200160002054610ac09190615229565b606d60008573ffffffffffffffffffffffffffffffffffffffff1673ffffffffffffffffffffffffffffffffffffffff168152602001908152602001600020819055508273ffffffffffffffffffffffffffffffffffffffff167fa065e63c631c86f1b9f66a4a2f63f2093bf1c2168d23290259dbd969e0222a4583604051610b499190614973565b60405180910390a2505050565b6000606e60019054906101000a900473ffffffffffffffffffffffffffffffffffffffff16905090565b6000606d60008373ffffffffffffffffffffffffffffffffffffffff1673ffffffffffffffffffffffffffffffffffffffff168152602001908152602001600020549050919050565b6000606854905090565b60005b84849050811015610c4c57610c39858583818110610bf757610bf66152c9565b5b9050602002016020810190610c0c9190614937565b848484818110610c1f57610c1e6152c9565b5b9050602002016020810190610c3491906152f8565b61318f565b8080610c4490615325565b915050610bd6565b5050505050565b610c5c33610dfd565b610c9b576040517f08c379a0000000000000000000000000000000000000000000000000000000008152600401610c92906151da565b60405180910390fd5b80606d60008473ffffffffffffffffffffffffffffffffffffffff1673ffffffffffffffffffffffffffffffffffffffff168152602001908152602001600020541015610d1d576040517f08c379a0000000000000000000000000000000000000000000000000000000008152600401610d14906153df565b60405180910390fd5b80606d60008473ffffffffffffffffffffffffffffffffffffffff1673ffffffffffffffffffffffffffffffffffffffff16815260200190815260200160002054610d6891906153ff565b606d60008473ffffffffffffffffffffffffffffffffffffffff1673ffffffffffffffffffffffffffffffffffffffff168152602001908152602001600020819055508173ffffffffffffffffffffffffffffffffffffffff167f9bed35cb62ad0dba04f9d5bfee4b5bc91443e77da8a65c4c84834c51bb08b0d682604051610df19190614973565b60405180910390a25050565b6000610e13826065613c0990919063ffffffff16565b9050919050565b6000606e60009054906101000a900460ff1615610e6c576040517f08c379a0000000000000000000000000000000000000000000000000000000008152600401610e639061547f565b60405180910390fd5b606c60008473ffffffffffffffffffffffffffffffffffffffff1673ffffffffffffffffffffffffffffffffffffffff16815260200190815260200160002060009054906101000a900460ff16158015610f105750606c60008573ffffffffffffffffffffffffffffffffffffffff1673ffffffffffffffffffffffffffffffffffffffff16815260200190815260200160002060009054906101000a900460ff16155b610f4f576040517f08c379a0000000000000000000000000000000000000000000000000000000008152600401610f46906154eb565b60405180910390fd5b606d60008573ffffffffffffffffffffffffffffffffffffffff1673ffffffffffffffffffffffffffffffffffffffff16815260200190815260200160002054610f9885611b51565b610fa291906153ff565b821115610fe4576040517f08c379a0000000000000000000000000000000000000000000000000000000008152600401610fdb90615557565b60405180910390fd5b606e60019054906101000a900473ffffffffffffffffffffffffffffffffffffffff1673ffffffffffffffffffffffffffffffffffffffff1663b9209e33846040518263ffffffff1660e01b815260040161103f9190614d2a565b602060405180830381865afa15801561105c573d6000803e3d6000fd5b505050506040513d601f19601f82011682018060405250810190611080919061558c565b80156111285750606f60009054906101000a900473ffffffffffffffffffffffffffffffffffffffff1673ffffffffffffffffffffffffffffffffffffffff1663e46638e68585856040518463ffffffff1660e01b81526004016110e6939291906155b9565b602060405180830381865afa158015611103573d6000803e3d6000fd5b505050506040513d601f19601f82011682018060405250810190611127919061558c565b5b1561126457606f60009054906101000a900473ffffffffffffffffffffffffffffffffffffffff1673ffffffffffffffffffffffffffffffffffffffff16638baf29b48585856040518463ffffffff1660e01b815260040161118c939291906155b9565b600060405180830381600087803b1580156111a657600080fd5b505af11580156111ba573d6000803e3d6000fd5b505050506111c9848484613cd0565b61125b843384606760008973ffffffffffffffffffffffffffffffffffffffff1673ffffffffffffffffffffffffffffffffffffffff16815260200190815260200160002060003373ffffffffffffffffffffffffffffffffffffffff1673ffffffffffffffffffffffffffffffffffffffff1681526020019081526020016000205461125691906153ff565b613a40565b6001905061129f565b6040517f08c379a00000000000000000000000000000000000000000000000000000000081526004016112969061563c565b60405180910390fd5b9392505050565b6000606b60009054906101000a900460ff16905090565b6000611351338484606760003373ffffffffffffffffffffffffffffffffffffffff1673ffffffffffffffffffffffffffffffffffffffff16815260200190815260200160002060008873ffffffffffffffffffffffffffffffffffffffff1673ffffffffffffffffffffffffffffffffffffffff1681526020019081526020016000205461134c9190615229565b613a40565b6001905092915050565b611363613f3f565b73ffffffffffffffffffffffffffffffffffffffff16611381611f0c565b73ffffffffffffffffffffffffffffffffffffffff16146113d7576040517f08c379a00000000000000000000000000000000000000000000000000000000081526004016113ce906156a8565b60405180910390fd5b80606b60016101000a81548173ffffffffffffffffffffffffffffffffffffffff021916908373ffffffffffffffffffffffffffffffffffffffff1602179055507f6a1105ac8148a3c319adbc369f9072573e8a11d3a3d195e067e7c40767ec54d16069606a606b60009054906101000a900460ff166040518060400160405280600581526020017f332e352e31000000000000000000000000000000000000000000000000000000815250606b60019054906101000a900473ffffffffffffffffffffffffffffffffffffffff166040516114b7959493929190615761565b60405180910390a150565b6114cb33610dfd565b61150a576040517f08c379a0000000000000000000000000000000000000000000000000000000008152600401611501906151da565b60405180910390fd5b606e60009054906101000a900460ff16611559576040517f08c379a000000000000000000000000000000000000000000000000000000000815260040161155090615815565b60405180910390fd5b6000606e60006101000a81548160ff0219169083151502179055507f5db9ee0a495bf2e6ff9c91a7834c1ba4fdd244a5e8aa4e537bd38aeae4b073aa336040516115a39190614d2a565b60405180910390a1565b6115b633610dfd565b6115f5576040517f08c379a00000000000000000000000000000000000000000000000000000000081526004016115ec906151da565b60405180910390fd5b606e60019054906101000a900473ffffffffffffffffffffffffffffffffffffffff1673ffffffffffffffffffffffffffffffffffffffff1663b9209e33836040518263ffffffff1660e01b81526004016116509190614d2a565b602060405180830381865afa15801561166d573d6000803e3d6000fd5b505050506040513d601f19601f82011682018060405250810190611691919061558c565b6116d0576040517f08c379a00000000000000000000000000000000000000000000000000000000081526004016116c790615881565b60405180910390fd5b606f60009054906101000a900473ffffffffffffffffffffffffffffffffffffffff1673ffffffffffffffffffffffffffffffffffffffff1663e46638e63384846040518463ffffffff1660e01b815260040161172f939291906155b9565b602060405180830381865afa15801561174c573d6000803e3d6000fd5b505050506040513d601f19601f82011682018060405250810190611770919061558c565b6117af576040517f08c379a00000000000000000000000000000000000000000000000000000000081526004016117a6906158ed565b60405180910390fd5b6117b98282613f47565b606f60009054906101000a900473ffffffffffffffffffffffffffffffffffffffff1673ffffffffffffffffffffffffffffffffffffffff16635f8dead383836040518363ffffffff1660e01b815260040161181692919061590d565b600060405180830381600087803b15801561183057600080fd5b505af1158015611844573d6000803e3d6000fd5b505050505050565b60005b868690508110156118e0576118cc8787838181106118705761186f6152c9565b5b90506020020160208101906118859190614937565b868684818110611898576118976152c9565b5b90506020020160208101906118ad9190614937565b8585858181106118c0576118bf6152c9565b5b90506020020135612730565b5080806118d890615325565b91505061184f565b50505050505050565b60005b848490508110156119545761194185858381811061190d5761190c6152c9565b5b90506020020160208101906119229190614937565b848484818110611935576119346152c9565b5b90506020020135610c53565b808061194c90615325565b9150506118ec565b5050505050565b60005b848490508110156119c6576119b385858381811061197f5761197e6152c9565b5b90506020020160208101906119949190614937565b8484848181106119a7576119a66152c9565b5b905060200201356124fd565b80806119be90615325565b91505061195e565b5050505050565b6119d5613f3f565b73ffffffffffffffffffffffffffffffffffffffff166119f3611f0c565b73ffffffffffffffffffffffffffffffffffffffff1614611a49576040517f08c379a0000000000000000000000000000000000000000000000000000000008152600401611a40906156a8565b60405180910390fd5b611a528161346f565b50565b60606040518060400160405280600581526020017f332e352e31000000000000000000000000000000000000000000000000000000815250905090565b6000606e60009054906101000a900460ff16905090565b611ab281612427565b50565b6000606f60009054906101000a900473ffffffffffffffffffffffffffffffffffffffff16905090565b60005b84849050811015611b4a57611b37858583818110611b0357611b026152c9565b5b9050602002016020810190611b189190614937565b848484818110611b2b57611b2a6152c9565b5b905060200201356115ad565b8080611b4290615325565b915050611ae2565b5050505050565b6000606660008373ffffffffffffffffffffffffffffffffffffffff1673ffffffffffffffffffffffffffffffffffffffff168152602001908152602001600020549050919050565b611ba2613f3f565b73ffffffffffffffffffffffffffffffffffffffff16611bc0611f0c565b73ffffffffffffffffffffffffffffffffffffffff1614611c16576040517f08c379a0000000000000000000000000000000000000000000000000000000008152600401611c0d906156a8565b60405180910390fd5b600073ffffffffffffffffffffffffffffffffffffffff16603360009054906101000a900473ffffffffffffffffffffffffffffffffffffffff1673ffffffffffffffffffffffffffffffffffffffff167f8be0079c531659141344cd1fd0a4f28419497f9722a3daafe3b4186f6b6457e060405160405180910390a36000603360006101000a81548173ffffffffffffffffffffffffffffffffffffffff021916908373ffffffffffffffffffffffffffffffffffffffff160217905550565b611ce033610dfd565b611d1f576040517f08c379a0000000000000000000000000000000000000000000000000000000008152600401611d16906151da565b60405180910390fd5b606e60009054906101000a900460ff1615611d6f576040517f08c379a0000000000000000000000000000000000000000000000000000000008152600401611d669061547f565b60405180910390fd5b6001606e60006101000a81548160ff0219169083151502179055507f62e78cea01bee320cd4e420270b5ea74000d11b0c9f74754ebdbfc544b05a25833604051611db99190614d2a565b60405180910390a1565b611dcb613f3f565b73ffffffffffffffffffffffffffffffffffffffff16611de9611f0c565b73ffffffffffffffffffffffffffffffffffffffff1614611e3f576040517f08c379a0000000000000000000000000000000000000000000000000000000008152600401611e36906156a8565b60405180910390fd5b611e538160656140ce90919063ffffffff16565b8073ffffffffffffffffffffffffffffffffffffffff167ff68e73cec97f2d70aa641fb26e87a4383686e2efacb648f2165aeb02ac562ec560405160405180910390a250565b60005b84849050811015611f0557611ef1858583818110611ebd57611ebc6152c9565b5b9050602002016020810190611ed29190614937565b848484818110611ee557611ee46152c9565b5b90506020020135612aee565b508080611efd90615325565b915050611e9c565b5050505050565b6000603360009054906101000a900473ffffffffffffffffffffffffffffffffffffffff16905090565b6000611f4133610dfd565b611f80576040517f08c379a0000000000000000000000000000000000000000000000000000000008152600401611f77906151da565b60405180910390fd5b6000611f8b85611b51565b03611fcb576040517f08c379a0000000000000000000000000000000000000000000000000000000008152600401611fc290615982565b60405180910390fd5b6000829050600084604051602001611fe39190614d2a565b6040516020818303038152906040528051906020012090508173ffffffffffffffffffffffffffffffffffffffff1663d202158d8260016040518363ffffffff1660e01b81526004016120379291906159f6565b602060405180830381865afa158015612054573d6000803e3d6000fd5b505050506040513d601f19601f82011682018060405250810190612078919061558c565b1561235357600061208887611b51565b90506000606d60008973ffffffffffffffffffffffffffffffffffffffff1673ffffffffffffffffffffffffffffffffffffffff168152602001908152602001600020549050606e60019054906101000a900473ffffffffffffffffffffffffffffffffffffffff1673ffffffffffffffffffffffffffffffffffffffff1663454a03e08886606e60019054906101000a900473ffffffffffffffffffffffffffffffffffffffff1673ffffffffffffffffffffffffffffffffffffffff16637e42683b8d6040518263ffffffff1660e01b81526004016121699190614d2a565b602060405180830381865afa158015612186573d6000803e3d6000fd5b505050506040513d601f19601f820116820180604052508101906121aa9190615a59565b6040518463ffffffff1660e01b81526004016121c893929190615ab6565b600060405180830381600087803b1580156121e257600080fd5b505af11580156121f6573d6000803e3d6000fd5b50505050606e60019054906101000a900473ffffffffffffffffffffffffffffffffffffffff1673ffffffffffffffffffffffffffffffffffffffff1663a8d29d1d896040518263ffffffff1660e01b81526004016122559190614d2a565b600060405180830381600087803b15801561226f57600080fd5b505af1158015612283573d6000803e3d6000fd5b50505050612292888884612730565b5060008111156122a7576122a68782610993565b5b60011515606c60008a73ffffffffffffffffffffffffffffffffffffffff1673ffffffffffffffffffffffffffffffffffffffff16815260200190815260200160002060009054906101000a900460ff1615150361230b5761230a87600161318f565b5b7ff0c9129a94f30f1caaceb63e44b9811d0a3edf1d6c23757f346093af5553fed088888860405161233e93929190615aed565b60405180910390a1600194505050505061238e565b6040517f08c379a000000000000000000000000000000000000000000000000000000000815260040161238590615b70565b60405180910390fd5b9392505050565b6060606a80546123a490615137565b80601f01602080910402602001604051908101604052809291908181526020018280546123d090615137565b801561241d5780601f106123f25761010080835404028352916020019161241d565b820191906000526020600020905b81548152906001019060200180831161240057829003601f168201915b5050505050905090565b61242f613f3f565b73ffffffffffffffffffffffffffffffffffffffff1661244d611f0c565b73ffffffffffffffffffffffffffffffffffffffff16146124a3576040517f08c379a000000000000000000000000000000000000000000000000000000000815260040161249a906156a8565b60405180910390fd5b6124b781606561417690919063ffffffff16565b8073ffffffffffffffffffffffffffffffffffffffff167fed9c8ad8d5a0a66898ea49d2956929c93ae2e8bd50281b2ed897c5d1a6737e0b60405160405180910390a250565b61250633610dfd565b612545576040517f08c379a000000000000000000000000000000000000000000000000000000000815260040161253c906151da565b60405180910390fd5b6000606d60008473ffffffffffffffffffffffffffffffffffffffff1673ffffffffffffffffffffffffffffffffffffffff1681526020019081526020016000205461259084611b51565b61259a91906153ff565b90508082111561269257600081836125b291906153ff565b905080606d60008673ffffffffffffffffffffffffffffffffffffffff1673ffffffffffffffffffffffffffffffffffffffff168152602001908152602001600020546125ff91906153ff565b606d60008673ffffffffffffffffffffffffffffffffffffffff1673ffffffffffffffffffffffffffffffffffffffff168152602001908152602001600020819055508373ffffffffffffffffffffffffffffffffffffffff167f9bed35cb62ad0dba04f9d5bfee4b5bc91443e77da8a65c4c84834c51bb08b0d6826040516126889190614973565b60405180910390a2505b61269c838361421d565b606f60009054906101000a900473ffffffffffffffffffffffffffffffffffffffff1673ffffffffffffffffffffffffffffffffffffffff16638d2ea77284846040518363ffffffff1660e01b81526004016126f992919061590d565b600060405180830381600087803b15801561271357600080fd5b505af1158015612727573d6000803e3d6000fd5b50505050505050565b600061273b33610dfd565b61277a576040517f08c379a0000000000000000000000000000000000000000000000000000000008152600401612771906151da565b60405180910390fd5b6000606d60008673ffffffffffffffffffffffffffffffffffffffff1673ffffffffffffffffffffffffffffffffffffffff168152602001908152602001600020546127c586611b51565b6127cf91906153ff565b9050808311156128c757600081846127e791906153ff565b905080606d60008873ffffffffffffffffffffffffffffffffffffffff1673ffffffffffffffffffffffffffffffffffffffff1681526020019081526020016000205461283491906153ff565b606d60008873ffffffffffffffffffffffffffffffffffffffff1673ffffffffffffffffffffffffffffffffffffffff168152602001908152602001600020819055508573ffffffffffffffffffffffffffffffffffffffff167f9bed35cb62ad0dba04f9d5bfee4b5bc91443e77da8a65c4c84834c51bb08b0d6826040516128bd9190614973565b60405180910390a2505b606e60019054906101000a900473ffffffffffffffffffffffffffffffffffffffff1673ffffffffffffffffffffffffffffffffffffffff1663b9209e33856040518263ffffffff1660e01b81526004016129229190614d2a565b602060405180830381865afa15801561293f573d6000803e3d6000fd5b505050506040513d601f19601f82011682018060405250810190612963919061558c565b15612a0e57606f60009054906101000a900473ffffffffffffffffffffffffffffffffffffffff1673ffffffffffffffffffffffffffffffffffffffff16638baf29b48686866040518463ffffffff1660e01b81526004016129c7939291906155b9565b600060405180830381600087803b1580156129e157600080fd5b505af11580156129f5573d6000803e3d6000fd5b50505050612a04858585613cd0565b6001915050612a49565b6040517f08c379a0000000000000000000000000000000000000000000000000000000008152600401612a409061563c565b60405180910390fd5b9392505050565b6000612ae4338484606760003373ffffffffffffffffffffffffffffffffffffffff1673ffffffffffffffffffffffffffffffffffffffff16815260200190815260200160002060008873ffffffffffffffffffffffffffffffffffffffff1673ffffffffffffffffffffffffffffffffffffffff16815260200190815260200160002054612adf91906153ff565b613a40565b6001905092915050565b6000606e60009054906101000a900460ff1615612b40576040517f08c379a0000000000000000000000000000000000000000000000000000000008152600401612b379061547f565b60405180910390fd5b606c60008473ffffffffffffffffffffffffffffffffffffffff1673ffffffffffffffffffffffffffffffffffffffff16815260200190815260200160002060009054906101000a900460ff16158015612be45750606c60003373ffffffffffffffffffffffffffffffffffffffff1673ffffffffffffffffffffffffffffffffffffffff16815260200190815260200160002060009054906101000a900460ff16155b612c23576040517f08c379a0000000000000000000000000000000000000000000000000000000008152600401612c1a906154eb565b60405180910390fd5b606d60003373ffffffffffffffffffffffffffffffffffffffff1673ffffffffffffffffffffffffffffffffffffffff16815260200190815260200160002054612c6c33611b51565b612c7691906153ff565b821115612cb8576040517f08c379a0000000000000000000000000000000000000000000000000000000008152600401612caf90615557565b60405180910390fd5b606e60019054906101000a900473ffffffffffffffffffffffffffffffffffffffff1673ffffffffffffffffffffffffffffffffffffffff1663b9209e33846040518263ffffffff1660e01b8152600401612d139190614d2a565b602060405180830381865afa158015612d30573d6000803e3d6000fd5b505050506040513d601f19601f82011682018060405250810190612d54919061558c565b8015612dfc5750606f60009054906101000a900473ffffffffffffffffffffffffffffffffffffffff1673ffffffffffffffffffffffffffffffffffffffff1663e46638e63385856040518463ffffffff1660e01b8152600401612dba939291906155b9565b602060405180830381865afa158015612dd7573d6000803e3d6000fd5b505050506040513d601f19601f82011682018060405250810190612dfb919061558c565b5b15612ea657606f60009054906101000a900473ffffffffffffffffffffffffffffffffffffffff1673ffffffffffffffffffffffffffffffffffffffff16638baf29b43385856040518463ffffffff1660e01b8152600401612e60939291906155b9565b600060405180830381600087803b158015612e7a57600080fd5b505af1158015612e8e573d6000803e3d6000fd5b50505050612e9d338484613cd0565b60019050612ee1565b6040517f08c379a0000000000000000000000000000000000000000000000000000000008152600401612ed89061563c565b60405180910390fd5b92915050565b6000606b60019054906101000a900473ffffffffffffffffffffffffffffffffffffffff16905090565b612f1a81611dc3565b50565b612f25613f3f565b73ffffffffffffffffffffffffffffffffffffffff16612f43611f0c565b73ffffffffffffffffffffffffffffffffffffffff1614612f99576040517f08c379a0000000000000000000000000000000000000000000000000000000008152600401612f90906156a8565b60405180910390fd5b8181606a9182612faa929190615d28565b507f6a1105ac8148a3c319adbc369f9072573e8a11d3a3d195e067e7c40767ec54d16069606a606b60009054906101000a900460ff166040518060400160405280600581526020017f332e352e31000000000000000000000000000000000000000000000000000000815250606b60019054906101000a900473ffffffffffffffffffffffffffffffffffffffff1660405161304a959493929190615761565b60405180910390a15050565b61305e613f3f565b73ffffffffffffffffffffffffffffffffffffffff1661307c611f0c565b73ffffffffffffffffffffffffffffffffffffffff16146130d2576040517f08c379a00000000000000000000000000000000000000000000000000000000081526004016130c9906156a8565b60405180910390fd5b8181606991826130e3929190615d28565b507f6a1105ac8148a3c319adbc369f9072573e8a11d3a3d195e067e7c40767ec54d16069606a606b60009054906101000a900460ff166040518060400160405280600581526020017f332e352e31000000000000000000000000000000000000000000000000000000815250606b60019054906101000a900473ffffffffffffffffffffffffffffffffffffffff16604051613183959493929190615761565b60405180910390a15050565b61319833610dfd565b6131d7576040517f08c379a00000000000000000000000000000000000000000000000000000000081526004016131ce906151da565b60405180910390fd5b80606c60008473ffffffffffffffffffffffffffffffffffffffff1673ffffffffffffffffffffffffffffffffffffffff16815260200190815260200160002060006101000a81548160ff0219169083151502179055503373ffffffffffffffffffffffffffffffffffffffff168115158373ffffffffffffffffffffffffffffffffffffffff167f7fa523c84ab8d7fc5b72f08b9e46dbbf10c39e119a075b3e317002d14bc9f43660405160405180910390a45050565b613297613f3f565b73ffffffffffffffffffffffffffffffffffffffff166132b5611f0c565b73ffffffffffffffffffffffffffffffffffffffff161461330b576040517f08c379a0000000000000000000000000000000000000000000000000000000008152600401613302906156a8565b60405180910390fd5b80606e60016101000a81548173ffffffffffffffffffffffffffffffffffffffff021916908373ffffffffffffffffffffffffffffffffffffffff1602179055508073ffffffffffffffffffffffffffffffffffffffff167fd2be862d755bca7e0d39772b2cab3a5578da9c285f69199f4c063c2294a7f36c60405160405180910390a250565b6000606760008473ffffffffffffffffffffffffffffffffffffffff1673ffffffffffffffffffffffffffffffffffffffff16815260200190815260200160002060008373ffffffffffffffffffffffffffffffffffffffff1673ffffffffffffffffffffffffffffffffffffffff16815260200190815260200160002054905092915050565b6000606c60008373ffffffffffffffffffffffffffffffffffffffff1673ffffffffffffffffffffffffffffffffffffffff16815260200190815260200160002060009054906101000a900460ff169050919050565b613477613f3f565b73ffffffffffffffffffffffffffffffffffffffff16613495611f0c565b73ffffffffffffffffffffffffffffffffffffffff16146134eb576040517f08c379a00000000000000000000000000000000000000000000000000000000081526004016134e2906156a8565b60405180910390fd5b600073ffffffffffffffffffffffffffffffffffffffff168173ffffffffffffffffffffffffffffffffffffffff160361355a576040517f08c379a000000000000000000000000000000000000000000000000000000000815260040161355190615e6a565b60405180910390fd5b8073ffffffffffffffffffffffffffffffffffffffff16603360009054906101000a900473ffffffffffffffffffffffffffffffffffffffff1673ffffffffffffffffffffffffffffffffffffffff167f8be0079c531659141344cd1fd0a4f28419497f9722a3daafe3b4186f6b6457e060405160405180910390a380603360006101000a81548173ffffffffffffffffffffffffffffffffffffffff021916908373ffffffffffffffffffffffffffffffffffffffff16021790555050565b613622613f3f565b73ffffffffffffffffffffffffffffffffffffffff16613640611f0c565b73ffffffffffffffffffffffffffffffffffffffff1614613696576040517f08c379a000000000000000000000000000000000000000000000000000000000815260040161368d906156a8565b60405180910390fd5b80606f60006101000a81548173ffffffffffffffffffffffffffffffffffffffff021916908373ffffffffffffffffffffffffffffffffffffffff1602179055508073ffffffffffffffffffffffffffffffffffffffff167f7f3a888862559648ec01d97deb7b5012bff86dc91e654a1de397170db40e35b660405160405180910390a250565b600073ffffffffffffffffffffffffffffffffffffffff1661373d611f0c565b73ffffffffffffffffffffffffffffffffffffffff1614613793576040517f08c379a000000000000000000000000000000000000000000000000000000000815260040161378a90615ed6565b60405180910390fd5b83606990816137a29190615ef6565b5082606a90816137b29190615ef6565b5081606b60006101000a81548160ff021916908360ff16021790555080606b60016101000a81548173ffffffffffffffffffffffffffffffffffffffff021916908373ffffffffffffffffffffffffffffffffffffffff16021790555085606e60016101000a81548173ffffffffffffffffffffffffffffffffffffffff021916908373ffffffffffffffffffffffffffffffffffffffff1602179055508573ffffffffffffffffffffffffffffffffffffffff167fd2be862d755bca7e0d39772b2cab3a5578da9c285f69199f4c063c2294a7f36c60405160405180910390a284606f60006101000a81548173ffffffffffffffffffffffffffffffffffffffff021916908373ffffffffffffffffffffffffffffffffffffffff1602179055508473ffffffffffffffffffffffffffffffffffffffff167f7f3a888862559648ec01d97deb7b5012bff86dc91e654a1de397170db40e35b660405160405180910390a27f6a1105ac8148a3c319adbc369f9072573e8a11d3a3d195e067e7c40767ec54d16069606a606b60009054906101000a900460ff166040518060400160405280600581526020017f332e352e31000000000000000000000000000000000000000000000000000000815250606b60019054906101000a900473ffffffffffffffffffffffffffffffffffffffff166040516139b6959493929190615761565b60405180910390a16139c66143a4565b505050505050565b60005b84849050811015613a3957613a268585838181106139f2576139f16152c9565b5b9050602002016020810190613a079190614937565b848484818110613a1a57613a196152c9565b5b90506020020135610993565b8080613a3190615325565b9150506139d1565b5050505050565b600073ffffffffffffffffffffffffffffffffffffffff168373ffffffffffffffffffffffffffffffffffffffff1603613aaf576040517f08c379a0000000000000000000000000000000000000000000000000000000008152600401613aa69061603a565b60405180910390fd5b600073ffffffffffffffffffffffffffffffffffffffff168273ffffffffffffffffffffffffffffffffffffffff1603613b1e576040517f08c379a0000000000000000000000000000000000000000000000000000000008152600401613b15906160cc565b60405180910390fd5b80606760008573ffffffffffffffffffffffffffffffffffffffff1673ffffffffffffffffffffffffffffffffffffffff16815260200190815260200160002060008473ffffffffffffffffffffffffffffffffffffffff1673ffffffffffffffffffffffffffffffffffffffff168152602001908152602001600020819055508173ffffffffffffffffffffffffffffffffffffffff168373ffffffffffffffffffffffffffffffffffffffff167f8c5be1e5ebec7d5bd14f71427d1e84f3dd0314c0f7b2291e5b200ac8c7c3b92583604051613bfc9190614973565b60405180910390a3505050565b60008073ffffffffffffffffffffffffffffffffffffffff168273ffffffffffffffffffffffffffffffffffffffff1603613c79576040517f08c379a0000000000000000000000000000000000000000000000000000000008152600401613c709061615e565b60405180910390fd5b8260000160008373ffffffffffffffffffffffffffffffffffffffff1673ffffffffffffffffffffffffffffffffffffffff16815260200190815260200160002060009054906101000a900460ff16905092915050565b600073ffffffffffffffffffffffffffffffffffffffff168373ffffffffffffffffffffffffffffffffffffffff1603613d3f576040517f08c379a0000000000000000000000000000000000000000000000000000000008152600401613d36906161f0565b60405180910390fd5b600073ffffffffffffffffffffffffffffffffffffffff168273ffffffffffffffffffffffffffffffffffffffff1603613dae576040517f08c379a0000000000000000000000000000000000000000000000000000000008152600401613da590616282565b60405180910390fd5b613db983838361448d565b80606660008573ffffffffffffffffffffffffffffffffffffffff1673ffffffffffffffffffffffffffffffffffffffff16815260200190815260200160002054613e0491906153ff565b606660008573ffffffffffffffffffffffffffffffffffffffff1673ffffffffffffffffffffffffffffffffffffffff1681526020019081526020016000208190555080606660008473ffffffffffffffffffffffffffffffffffffffff1673ffffffffffffffffffffffffffffffffffffffff16815260200190815260200160002054613e929190615229565b606660008473ffffffffffffffffffffffffffffffffffffffff1673ffffffffffffffffffffffffffffffffffffffff168152602001908152602001600020819055508173ffffffffffffffffffffffffffffffffffffffff168373ffffffffffffffffffffffffffffffffffffffff167fddf252ad1be2c89b69c2b068fc378daa952ba7f163c4a11628f55a4df523b3ef83604051613f329190614973565b60405180910390a3505050565b600033905090565b600073ffffffffffffffffffffffffffffffffffffffff168273ffffffffffffffffffffffffffffffffffffffff1603613fb6576040517f08c379a0000000000000000000000000000000000000000000000000000000008152600401613fad906162ee565b60405180910390fd5b613fc26000838361448d565b80606854613fd09190615229565b60688190555080606660008473ffffffffffffffffffffffffffffffffffffffff1673ffffffffffffffffffffffffffffffffffffffff168152602001908152602001600020546140219190615229565b606660008473ffffffffffffffffffffffffffffffffffffffff1673ffffffffffffffffffffffffffffffffffffffff168152602001908152602001600020819055508173ffffffffffffffffffffffffffffffffffffffff16600073ffffffffffffffffffffffffffffffffffffffff167fddf252ad1be2c89b69c2b068fc378daa952ba7f163c4a11628f55a4df523b3ef836040516140c29190614973565b60405180910390a35050565b6140d88282613c09565b15614118576040517f08c379a000000000000000000000000000000000000000000000000000000000815260040161410f90616380565b60405180910390fd5b60018260000160008373ffffffffffffffffffffffffffffffffffffffff1673ffffffffffffffffffffffffffffffffffffffff16815260200190815260200160002060006101000a81548160ff0219169083151502179055505050565b6141808282613c09565b6141bf576040517f08c379a00000000000000000000000000000000000000000000000000000000081526004016141b690616412565b60405180910390fd5b60008260000160008373ffffffffffffffffffffffffffffffffffffffff1673ffffffffffffffffffffffffffffffffffffffff16815260200190815260200160002060006101000a81548160ff0219169083151502179055505050565b600073ffffffffffffffffffffffffffffffffffffffff168273ffffffffffffffffffffffffffffffffffffffff160361428c576040517f08c379a0000000000000000000000000000000000000000000000000000000008152600401614283906164a4565b60405180910390fd5b6142988260008361448d565b80606660008473ffffffffffffffffffffffffffffffffffffffff1673ffffffffffffffffffffffffffffffffffffffff168152602001908152602001600020546142e391906153ff565b606660008473ffffffffffffffffffffffffffffffffffffffff1673ffffffffffffffffffffffffffffffffffffffff168152602001908152602001600020819055508060685461433491906153ff565b606881905550600073ffffffffffffffffffffffffffffffffffffffff168273ffffffffffffffffffffffffffffffffffffffff167fddf252ad1be2c89b69c2b068fc378daa952ba7f163c4a11628f55a4df523b3ef836040516143989190614973565b60405180910390a35050565b600060019054906101000a900460ff16806143ca575060008054906101000a900460ff16155b614409576040517f08c379a000000000000000000000000000000000000000000000000000000000815260040161440090616536565b60405180910390fd5b60008060019054906101000a900460ff161590508015614459576001600060016101000a81548160ff02191690831515021790555060016000806101000a81548160ff0219169083151502179055505b614461614492565b61446961456b565b801561448a5760008060016101000a81548160ff0219169083151502179055505b50565b505050565b600060019054906101000a900460ff16806144b8575060008054906101000a900460ff16155b6144f7576040517f08c379a00000000000000000000000000000000000000000000000000000000081526004016144ee90616536565b60405180910390fd5b60008060019054906101000a900460ff161590508015614547576001600060016101000a81548160ff02191690831515021790555060016000806101000a81548160ff0219169083151502179055505b80156145685760008060016101000a81548160ff0219169083151502179055505b50565b600060019054906101000a900460ff1680614591575060008054906101000a900460ff16155b6145d0576040517f08c379a00000000000000000000000000000000000000000000000000000000081526004016145c790616536565b60405180910390fd5b60008060019054906101000a900460ff161590508015614620576001600060016101000a81548160ff02191690831515021790555060016000806101000a81548160ff0219169083151502179055505b600061462a613f3f565b905080603360006101000a81548173ffffffffffffffffffffffffffffffffffffffff021916908373ffffffffffffffffffffffffffffffffffffffff1602179055508073ffffffffffffffffffffffffffffffffffffffff16600073ffffffffffffffffffffffffffffffffffffffff167f8be0079c531659141344cd1fd0a4f28419497f9722a3daafe3b4186f6b6457e060405160405180910390a35080156146ea5760008060016101000a81548160ff0219169083151502179055505b50565b600081519050919050565b600082825260208201905092915050565b60005b8381101561472757808201518184015260208101905061470c565b60008484015250505050565b6000601f19601f8301169050919050565b600061474f826146ed565b61475981856146f8565b9350614769818560208601614709565b61477281614733565b840191505092915050565b600060208201905081810360008301526147978184614744565b905092915050565b6000604051905090565b600080fd5b600080fd5b600073ffffffffffffffffffffffffffffffffffffffff82169050919050565b60006147de826147b3565b9050919050565b6147ee816147d3565b81146147f957600080fd5b50565b60008135905061480b816147e5565b92915050565b6000819050919050565b61482481614811565b811461482f57600080fd5b50565b6000813590506148418161481b565b92915050565b6000806040838503121561485e5761485d6147a9565b5b600061486c858286016147fc565b925050602061487d85828601614832565b9150509250929050565b60008115159050919050565b61489c81614887565b82525050565b60006020820190506148b76000830184614893565b92915050565b6000819050919050565b60006148e26148dd6148d8846147b3565b6148bd565b6147b3565b9050919050565b60006148f4826148c7565b9050919050565b6000614906826148e9565b9050919050565b614916816148fb565b82525050565b6000602082019050614931600083018461490d565b92915050565b60006020828403121561494d5761494c6147a9565b5b600061495b848285016147fc565b91505092915050565b61496d81614811565b82525050565b60006020820190506149886000830184614964565b92915050565b600080fd5b600080fd5b600080fd5b60008083601f8401126149b3576149b261498e565b5b8235905067ffffffffffffffff8111156149d0576149cf614993565b5b6020830191508360208202830111156149ec576149eb614998565b5b9250929050565b60008083601f840112614a0957614a0861498e565b5b8235905067ffffffffffffffff811115614a2657614a25614993565b5b602083019150836020820283011115614a4257614a41614998565b5b9250929050565b60008060008060408587031215614a6357614a626147a9565b5b600085013567ffffffffffffffff811115614a8157614a806147ae565b5b614a8d8782880161499d565b9450945050602085013567ffffffffffffffff811115614ab057614aaf6147ae565b5b614abc878288016149f3565b925092505092959194509250565b600080600060608486031215614ae357614ae26147a9565b5b6000614af1868287016147fc565b9350506020614b02868287016147fc565b9250506040614b1386828701614832565b9150509250925092565b600060ff82169050919050565b614b3381614b1d565b82525050565b6000602082019050614b4e6000830184614b2a565b92915050565b60008083601f840112614b6a57614b6961498e565b5b8235905067ffffffffffffffff811115614b8757614b86614993565b5b602083019150836020820283011115614ba357614ba2614998565b5b9250929050565b60008060008060008060608789031215614bc757614bc66147a9565b5b600087013567ffffffffffffffff811115614be557614be46147ae565b5b614bf189828a0161499d565b9650965050602087013567ffffffffffffffff811115614c1457614c136147ae565b5b614c2089828a0161499d565b9450945050604087013567ffffffffffffffff811115614c4357614c426147ae565b5b614c4f89828a01614b54565b92509250509295509295509295565b60008060008060408587031215614c7857614c776147a9565b5b600085013567ffffffffffffffff811115614c9657614c956147ae565b5b614ca28782880161499d565b9450945050602085013567ffffffffffffffff811115614cc557614cc46147ae565b5b614cd187828801614b54565b925092505092959194509250565b6000614cea826148e9565b9050919050565b614cfa81614cdf565b82525050565b6000602082019050614d156000830184614cf1565b92915050565b614d24816147d3565b82525050565b6000602082019050614d3f6000830184614d1b565b92915050565b600080600060608486031215614d5e57614d5d6147a9565b5b6000614d6c868287016147fc565b9350506020614d7d868287016147fc565b9250506040614d8e868287016147fc565b9150509250925092565b60008083601f840112614dae57614dad61498e565b5b8235905067ffffffffffffffff811115614dcb57614dca614993565b5b602083019150836001820283011115614de757614de6614998565b5b9250929050565b60008060208385031215614e0557614e046147a9565b5b600083013567ffffffffffffffff811115614e2357614e226147ae565b5b614e2f85828601614d98565b92509250509250929050565b614e4481614887565b8114614e4f57600080fd5b50565b600081359050614e6181614e3b565b92915050565b60008060408385031215614e7e57614e7d6147a9565b5b6000614e8c858286016147fc565b9250506020614e9d85828601614e52565b9150509250929050565b60008060408385031215614ebe57614ebd6147a9565b5b6000614ecc858286016147fc565b9250506020614edd858286016147fc565b9150509250929050565b600080fd5b7f4e487b7100000000000000000000000000000000000000000000000000000000600052604160045260246000fd5b614f2482614733565b810181811067ffffffffffffffff82111715614f4357614f42614eec565b5b80604052505050565b6000614f5661479f565b9050614f628282614f1b565b919050565b600067ffffffffffffffff821115614f8257614f81614eec565b5b614f8b82614733565b9050602081019050919050565b82818337600083830152505050565b6000614fba614fb584614f67565b614f4c565b905082815260208101848484011115614fd657614fd5614ee7565b5b614fe1848285614f98565b509392505050565b600082601f830112614ffe57614ffd61498e565b5b813561500e848260208601614fa7565b91505092915050565b61502081614b1d565b811461502b57600080fd5b50565b60008135905061503d81615017565b92915050565b60008060008060008060c087890312156150605761505f6147a9565b5b600061506e89828a016147fc565b965050602061507f89828a016147fc565b955050604087013567ffffffffffffffff8111156150a05761509f6147ae565b5b6150ac89828a01614fe9565b945050606087013567ffffffffffffffff8111156150cd576150cc6147ae565b5b6150d989828a01614fe9565b93505060806150ea89828a0161502e565b92505060a06150fb89828a016147fc565b9150509295509295509295565b7f4e487b7100000000000000000000000000000000000000000000000000000000600052602260045260246000fd5b6000600282049050600182168061514f57607f821691505b60208210810361516257615161615108565b5b50919050565b7f4167656e74526f6c653a2063616c6c657220646f6573206e6f7420686176652060008201527f746865204167656e7420726f6c65000000000000000000000000000000000000602082015250565b60006151c4602e836146f8565b91506151cf82615168565b604082019050919050565b600060208201905081810360008301526151f3816151b7565b9050919050565b7f4e487b7100000000000000000000000000000000000000000000000000000000600052601160045260246000fd5b600061523482614811565b915061523f83614811565b9250828201905080821115615257576152566151fa565b5b92915050565b7f416d6f756e74206578636565647320617661696c61626c652062616c616e6365600082015250565b60006152936020836146f8565b915061529e8261525d565b602082019050919050565b600060208201905081810360008301526152c281615286565b9050919050565b7f4e487b7100000000000000000000000000000000000000000000000000000000600052603260045260246000fd5b60006020828403121561530e5761530d6147a9565b5b600061531c84828501614e52565b91505092915050565b600061533082614811565b91507fffffffffffffffffffffffffffffffffffffffffffffffffffffffffffffffff8203615362576153616151fa565b5b600182019050919050565b7f416d6f756e742073686f756c64206265206c657373207468616e206f7220657160008201527f75616c20746f2066726f7a656e20746f6b656e73000000000000000000000000602082015250565b60006153c96034836146f8565b91506153d48261536d565b604082019050919050565b600060208201905081810360008301526153f8816153bc565b9050919050565b600061540a82614811565b915061541583614811565b925082820390508181111561542d5761542c6151fa565b5b92915050565b7f5061757361626c653a2070617573656400000000000000000000000000000000600082015250565b60006154696010836146f8565b915061547482615433565b602082019050919050565b600060208201905081810360008301526154988161545c565b9050919050565b7f77616c6c65742069732066726f7a656e00000000000000000000000000000000600082015250565b60006154d56010836146f8565b91506154e08261549f565b602082019050919050565b60006020820190508181036000830152615504816154c8565b9050919050565b7f496e73756666696369656e742042616c616e6365000000000000000000000000600082015250565b60006155416014836146f8565b915061554c8261550b565b602082019050919050565b6000602082019050818103600083015261557081615534565b9050919050565b60008151905061558681614e3b565b92915050565b6000602082840312156155a2576155a16147a9565b5b60006155b084828501615577565b91505092915050565b60006060820190506155ce6000830186614d1b565b6155db6020830185614d1b565b6155e86040830184614964565b949350505050565b7f5472616e73666572206e6f7420706f737369626c650000000000000000000000600082015250565b60006156266015836146f8565b9150615631826155f0565b602082019050919050565b6000602082019050818103600083015261565581615619565b9050919050565b7f4f776e61626c653a2063616c6c6572206973206e6f7420746865206f776e6572600082015250565b60006156926020836146f8565b915061569d8261565c565b602082019050919050565b600060208201905081810360008301526156c181615685565b9050919050565b60008190508160005260206000209050919050565b600081546156ea81615137565b6156f481866146f8565b9450600182166000811461570f576001811461572557615758565b60ff198316865281151560200286019350615758565b61572e856156c8565b60005b8381101561575057815481890152600182019150602081019050615731565b808801955050505b50505092915050565b600060a082019050818103600083015261577b81886156dd565b9050818103602083015261578f81876156dd565b905061579e6040830186614b2a565b81810360608301526157b08185614744565b90506157bf6080830184614d1b565b9695505050505050565b7f5061757361626c653a206e6f7420706175736564000000000000000000000000600082015250565b60006157ff6014836146f8565b915061580a826157c9565b602082019050919050565b6000602082019050818103600083015261582e816157f2565b9050919050565b7f4964656e74697479206973206e6f742076657269666965642e00000000000000600082015250565b600061586b6019836146f8565b915061587682615835565b602082019050919050565b6000602082019050818103600083015261589a8161585e565b9050919050565b7f436f6d706c69616e6365206e6f7420666f6c6c6f776564000000000000000000600082015250565b60006158d76017836146f8565b91506158e2826158a1565b602082019050919050565b60006020820190508181036000830152615906816158ca565b9050919050565b60006040820190506159226000830185614d1b565b61592f6020830184614964565b9392505050565b7f6e6f20746f6b656e7320746f207265636f766572000000000000000000000000600082015250565b600061596c6014836146f8565b915061597782615936565b602082019050919050565b6000602082019050818103600083015261599b8161595f565b9050919050565b6000819050919050565b6159b5816159a2565b82525050565b6000819050919050565b60006159e06159db6159d6846159bb565b6148bd565b614811565b9050919050565b6159f0816159c5565b82525050565b6000604082019050615a0b60008301856159ac565b615a1860208301846159e7565b9392505050565b600061ffff82169050919050565b615a3681615a1f565b8114615a4157600080fd5b50565b600081519050615a5381615a2d565b92915050565b600060208284031215615a6f57615a6e6147a9565b5b6000615a7d84828501615a44565b91505092915050565b6000615a91826148e9565b9050919050565b615aa181615a86565b82525050565b615ab081615a1f565b82525050565b6000606082019050615acb6000830186614d1b565b615ad86020830185615a98565b615ae56040830184615aa7565b949350505050565b6000606082019050615b026000830186614d1b565b615b0f6020830185614d1b565b615b1c6040830184614d1b565b949350505050565b7f5265636f76657279206e6f7420706f737369626c650000000000000000000000600082015250565b6000615b5a6015836146f8565b9150615b6582615b24565b602082019050919050565b60006020820190508181036000830152615b8981615b4d565b9050919050565b600082905092915050565b60006020601f8301049050919050565b600082821b905092915050565b600060088302615be87fffffffffffffffffffffffffffffffffffffffffffffffffffffffffffffffff82615bab565b615bf28683615bab565b95508019841693508086168417925050509392505050565b6000615c25615c20615c1b84614811565b6148bd565b614811565b9050919050565b6000819050919050565b615c3f83615c0a565b615c53615c4b82615c2c565b848454615bb8565b825550505050565b600090565b615c68615c5b565b615c73818484615c36565b505050565b5b81811015615c9757615c8c600082615c60565b600181019050615c79565b5050565b601f821115615cdc57615cad816156c8565b615cb684615b9b565b81016020851015615cc5578190505b615cd9615cd185615b9b565b830182615c78565b50505b505050565b600082821c905092915050565b6000615cff60001984600802615ce1565b1980831691505092915050565b6000615d188383615cee565b9150826002028217905092915050565b615d328383615b90565b67ffffffffffffffff811115615d4b57615d4a614eec565b5b615d558254615137565b615d60828285615c9b565b6000601f831160018114615d8f5760008415615d7d578287013590505b615d878582615d0c565b865550615def565b601f198416615d9d866156c8565b60005b82811015615dc557848901358255600182019150602085019450602081019050615da0565b86831015615de25784890135615dde601f891682615cee565b8355505b6001600288020188555050505b50505050505050565b7f4f776e61626c653a206e6577206f776e657220697320746865207a65726f206160008201527f6464726573730000000000000000000000000000000000000000000000000000602082015250565b6000615e546026836146f8565b9150615e5f82615df8565b604082019050919050565b60006020820190508181036000830152615e8381615e47565b9050919050565b7f616c726561647920696e697469616c697a656400000000000000000000000000600082015250565b6000615ec06013836146f8565b9150615ecb82615e8a565b602082019050919050565b60006020820190508181036000830152615eef81615eb3565b9050919050565b615eff826146ed565b67ffffffffffffffff811115615f1857615f17614eec565b5b615f228254615137565b615f2d828285615c9b565b600060209050601f831160018114615f605760008415615f4e578287015190505b615f588582615d0c565b865550615fc0565b601f198416615f6e866156c8565b60005b82811015615f9657848901518255600182019150602085019450602081019050615f71565b86831015615fb35784890151615faf601f891682615cee565b8355505b6001600288020188555050505b505050505050565b7f45524332303a20617070726f76652066726f6d20746865207a65726f2061646460008201527f7265737300000000000000000000000000000000000000000000000000000000602082015250565b60006160246024836146f8565b915061602f82615fc8565b604082019050919050565b6000602082019050818103600083015261605381616017565b9050919050565b7f45524332303a20617070726f766520746f20746865207a65726f20616464726560008201527f7373000000000000000000000000000000000000000000000000000000000000602082015250565b60006160b66022836146f8565b91506160c18261605a565b604082019050919050565b600060208201905081810360008301526160e5816160a9565b9050919050565b7f526f6c65734c65676163793a206163636f756e7420697320746865207a65726f60008201527f2061646472657373000000000000000000000000000000000000000000000000602082015250565b60006161486028836146f8565b9150616153826160ec565b604082019050919050565b600060208201905081810360008301526161778161613b565b9050919050565b7f45524332303a207472616e736665722066726f6d20746865207a65726f20616460008201527f6472657373000000000000000000000000000000000000000000000000000000602082015250565b60006161da6025836146f8565b91506161e58261617e565b604082019050919050565b60006020820190508181036000830152616209816161cd565b9050919050565b7f45524332303a207472616e7366657220746f20746865207a65726f206164647260008201527f6573730000000000000000000000000000000000000000000000000000000000602082015250565b600061626c6023836146f8565b915061627782616210565b604082019050919050565b6000602082019050818103600083015261629b8161625f565b9050919050565b7f45524332303a206d696e7420746f20746865207a65726f206164647265737300600082015250565b60006162d8601f836146f8565b91506162e3826162a2565b602082019050919050565b60006020820190508181036000830152616307816162cb565b9050919050565b7f526f6c65734c65676163793a206163636f756e7420616c72656164792068617360008201527f20726f6c65000000000000000000000000000000000000000000000000000000602082015250565b600061636a6025836146f8565b91506163758261630e565b604082019050919050565b600060208201905081810360008301526163998161635d565b9050919050565b7f526f6c65734c65676163793a206163636f756e7420646f6573206e6f7420686160008201527f766520726f6c6500000000000000000000000000000000000000000000000000602082015250565b60006163fc6027836146f8565b9150616407826163a0565b604082019050919050565b6000602082019050818103600083015261642b816163ef565b9050919050565b7f45524332303a206275726e2066726f6d20746865207a65726f2061646472657360008201527f7300000000000000000000000000000000000000000000000000000000000000602082015250565b600061648e6021836146f8565b915061649982616432565b604082019050919050565b600060208201905081810360008301526164bd81616481565b9050919050565b7f496e697469616c697a61626c654c65676163793a20636f6e747261637420697360008201527f20616c726561647920696e697469616c697a6564000000000000000000000000602082015250565b60006165206034836146f8565b915061652b826164c4565b604082019050919050565b6000602082019050818103600083015261654f81616513565b905091905056fea2646970667358221220b21778d176a208602fb74cc35ba054fae8dc757fd9cd1ec5e5ebf90c2d3130a964736f6c63430008110033","linkReferences":{}},"methodIdentifiers":{"addAgent(address)":"84e79842","addAgentOnTokenContract(address)":"b422d830","allowance(address,address)":"dd62ed3e","approve(address,uint256)":"095ea7b3","balanceOf(address)":"70a08231","batchBurn(address[],uint256[])":"4a6cc677","batchForcedTransfer(address[],address[],uint256[])":"42a47abc","batchFreezePartialTokens(address[],uint256[])":"fc7e5fa8","batchMint(address[],uint256[])":"68573107","batchSetAddressFrozen(address[],bool[])":"1a7af379","batchTransfer(address[],uint256[])":"88d695b2","batchUnfreezePartialTokens(address[],uint256[])":"4710362d","burn(address,uint256)":"9dc29fac","compliance()":"6290865d","decimals()":"313ce567","decreaseAllowance(address,uint256)":"a457c2d7","forcedTransfer(address,address,uint256)":"9fc1d0e7","freezePartialTokens(address,uint256)":"125c4a33","getFrozenTokens(address)":"158b1a57","identityRegistry()":"134e18f4","increaseAllowance(address,uint256)":"39509351","init(address,address,string,string,uint8,address)":"f91b619c","isAgent(address)":"1ffbb064","isFrozen(address)":"e5839836","mint(address,uint256)":"40c10f19","name()":"06fdde03","onchainID()":"aba63705","owner()":"8da5cb5b","pause()":"8456cb59","paused()":"5c975abb","recoveryAddress(address,address,address)":"9285948a","removeAgent(address)":"97a6278e","removeAgentOnTokenContract(address)":"5dc7a3cb","renounceOwnership()":"715018a6","setAddressFrozen(address,bool)":"c69c09cf","setCompliance(address)":"f8981789","setIdentityRegistry(address)":"cbf3f861","setName(string)":"c47f0027","setOnchainID(address)":"3d1ddc5b","setSymbol(string)":"b84c8246","symbol()":"95d89b41","totalSupply()":"18160ddd","transfer(address,uint256)":"a9059cbb","transferFrom(address,address,uint256)":"23b872dd","transferOwnership(address)":"f2fde38b","transferOwnershipOnTokenContract(address)":"51411b33","unfreezePartialTokens(address,uint256)":"1fe56f7d","unpause()":"3f4ba83a","version()":"54fd4d50"},"id":6}