{"abi":[{"type":"constructor","inputs":[{"name":"_implementation","type":"address","internalType":"address"}],"stateMutability":"nonpayable"},{"type":"function","name":"getImplementation","inputs":[],"outputs":[{"name":"","type":"address","internalType":"address"}],"stateMutability":"view"},{"type":"function","name":"implementation","inputs":[],"outputs":[{"name":"","type":"address","internalType":"address"}],"stateMutability":"view"},{"type":"function","name":"owner","inputs":[],"outputs":[{"name":"","type":"address","internalType":"address"}],"stateMutability":"view"},{"type":"function","name":"renounceOwnership","inputs":[],"outputs":[],"stateMutability":"nonpayable"},{"type":"function","name":"transferOwnership","inputs":[{"name":"newOwner","type":"address","internalType":"address"}],"outputs":[],"stateMutability":"nonpayable"},{"type":"function","name":"updateImplementation","inputs":[{"name":"_newImplementation","type":"address","internalType":"address"}],"outputs":[],"stateMutability":"nonpayable"},{"type":"event","name":"OwnershipTransferred","inputs":[{"name":"previousOwner","type":"address","indexed":true,"internalType":"address"},{"name":"newOwner","type":"address","indexed":true,"internalType":"address"}],"anonymous":false},{"type":"event","name":"UpdatedImplementation","inputs":[{"name":"newAddress","type":"address","indexed":false,"internalType":"address"}],"anonymous":false}],"bytecode":{"object":"0x608060405234801561001057600080fd5b506040516109b13803806109b1833981810160405281019061003291906101c9565b600061004261015e60201b60201c565b9050806000806101000a81548173ffffffffffffffffffffffffffffffffffffffff021916908373ffffffffffffffffffffffffffffffffffffffff1602179055508073ffffffffffffffffffffffffffffffffffffffff16600073ffffffffffffffffffffffffffffffffffffffff167f8be0079c531659141344cd1fd0a4f28419497f9722a3daafe3b4186f6b6457e060405160405180910390a35080600160006101000a81548173ffffffffffffffffffffffffffffffffffffffff021916908373ffffffffffffffffffffffffffffffffffffffff1602179055507f87c4e67a766ffddda27f441d63853a36ae64fbb07775a7c59d395e064b204eeb816040516101509190610205565b60405180910390a150610220565b600033905090565b600080fd5b600073ffffffffffffffffffffffffffffffffffffffff82169050919050565b60006101968261016b565b9050919050565b6101a68161018b565b81146101b157600080fd5b50565b6000815190506101c38161019d565b92915050565b6000602082840312156101df576101de610166565b5b60006101ed848285016101b4565b91505092915050565b6101ff8161018b565b82525050565b600060208201905061021a60008301846101f6565b92915050565b6107828061022f6000396000f3fe608060405234801561001057600080fd5b50600436106100625760003560e01c8063025b22bc146100675780635c60da1b14610083578063715018a6146100a15780638da5cb5b146100ab578063aaf10f42146100c9578063f2fde38b146100e7575b600080fd5b610081600480360381019061007c91906105c0565b610103565b005b61008b6101fa565b60405161009891906105fc565b60405180910390f35b6100a9610220565b005b6100b361035a565b6040516100c091906105fc565b60405180910390f35b6100d1610383565b6040516100de91906105fc565b60405180910390f35b61010160048036038101906100fc91906105c0565b6103ad565b005b61010b610555565b73ffffffffffffffffffffffffffffffffffffffff1661012961035a565b73ffffffffffffffffffffffffffffffffffffffff161461017f576040517f08c379a00000000000000000000000000000000000000000000000000000000081526004016101769061069a565b60405180910390fd5b80600160006101000a81548173ffffffffffffffffffffffffffffffffffffffff021916908373ffffffffffffffffffffffffffffffffffffffff1602179055507f87c4e67a766ffddda27f441d63853a36ae64fbb07775a7c59d395e064b204eeb816040516101ef91906105fc565b60405180910390a150565b600160009054906101000a900473ffffffffffffffffffffffffffffffffffffffff1681565b610228610555565b73ffffffffffffffffffffffffffffffffffffffff1661024661035a565b73ffffffffffffffffffffffffffffffffffffffff161461029c576040517f08c379a00000000000000000000000000000000000000000000000000000000081526004016102939061069a565b60405180910390fd5b600073ffffffffffffffffffffffffffffffffffffffff1660008054906101000a900473ffffffffffffffffffffffffffffffffffffffff1673ffffffffffffffffffffffffffffffffffffffff167f8be0079c531659141344cd1fd0a4f28419497f9722a3daafe3b4186f6b6457e060405160405180910390a360008060006101000a81548173ffffffffffffffffffffffffffffffffffffffff021916908373ffffffffffffffffffffffffffffffffffffffff160217905550565b60008060009054906101000a900473ffffffffffffffffffffffffffffffffffffffff16905090565b6000600160009054906101000a900473ffffffffffffffffffffffffffffffffffffffff16905090565b6103b5610555565b73ffffffffffffffffffffffffffffffffffffffff166103d361035a565b73ffffffffffffffffffffffffffffffffffffffff1614610429576040517f08c379a00000000000000000000000000000000000000000000000000000000081526004016104209061069a565b60405180910390fd5b600073ffffffffffffffffffffffffffffffffffffffff168173ffffffffffffffffffffffffffffffffffffffff1603610498576040517f08c379a000000000000000000000000000000000000000000000000000000000815260040161048f9061072c565b60405180910390fd5b8073ffffffffffffffffffffffffffffffffffffffff1660008054906101000a900473ffffffffffffffffffffffffffffffffffffffff1673ffffffffffffffffffffffffffffffffffffffff167f8be0079c531659141344cd1fd0a4f28419497f9722a3daafe3b4186f6b6457e060405160405180910390a3806000806101000a81548173ffffffffffffffffffffffffffffffffffffffff021916908373ffffffffffffffffffffffffffffffffffffffff16021790555050565b600033905090565b600080fd5b600073ffffffffffffffffffffffffffffffffffffffff82169050919050565b600061058d82610562565b9050919050565b61059d81610582565b81146105a857600080fd5b50565b6000813590506105ba81610594565b92915050565b6000602082840312156105d6576105d561055d565b5b60006105e4848285016105ab565b91505092915050565b6105f681610582565b82525050565b600060208201905061061160008301846105ed565b92915050565b600082825260208201905092915050565b7f4f776e61626c654c65676163793a2063616c6c6572206973206e6f742074686560008201527f206f776e65720000000000000000000000000000000000000000000000000000602082015250565b6000610684602683610617565b915061068f82610628565b604082019050919050565b600060208201905081810360008301526106b381610677565b9050919050565b7f4f776e61626c654c65676163793a206e6577206f776e6572206973207468652060008201527f7a65726f20616464726573730000000000000000000000000000000000000000602082015250565b6000610716602c83610617565b9150610721826106ba565b604082019050919050565b6000602082019050818103600083015261074581610709565b905091905056fea2646970667358221220292e4a4bde5952c92a622997b3a8ae6187e3ca14f64efed011e89b9e03e5e43964736f6c63430008110033","linkReferences":{}},"methodIdentifiers":{"getImplementation()":"aaf10f42","implementation()":"5c60da1b","owner()":"8da5cb5b","renounceOwnership()":"715018a6","transferOwnership(address)":"f2fde38b","updateImplementation(address)":"025b22bc"},"id":4}