{"abi":[{"type":"function","name":"IDBalance","inputs":[{"name":"","type":"address","internalType":"address"}],"outputs":[{"name":"","type":"uint256","internalType":"uint256"}],"stateMutability":"view"},{"type":"function","name":"addAgent","inputs":[{"name":"_agent","type":"address","internalType":"address"}],"outputs":[],"stateMutability":"nonpayable"},{"type":"function","name":"addTokenAgent","inputs":[{"name":"_agentAddress","type":"address","internalType":"address"}],"outputs":[],"stateMutability":"nonpayable"},{"type":"function","name":"bindToken","inputs":[{"name":"_token","type":"address","internalType":"address"}],"outputs":[],"stateMutability":"nonpayable"},{"type":"function","name":"canTransfer","inputs":[{"name":"_from","type":"address","internalType":"address"},{"name":"_to","type":"address","internalType":"address"},{"name":"_value","type":"uint256","internalType":"uint256"}],"outputs":[{"name":"","type":"bool","internalType":"bool"}],"stateMutability":"view"},{"type":"function","name":"complianceCheckOnMaxBalance","inputs":[{"name":"","type":"address","internalType":"address"},{"name":"_to","type":"address","internalType":"address"},{"name":"_value","type":"uint256","internalType":"uint256"}],"outputs":[{"name":"","type":"bool","internalType":"bool"}],"stateMutability":"view"},{"type":"function","name":"created","inputs":[{"name":"_to","type":"address","internalType":"address"},{"name":"_value","type":"uint256","internalType":"uint256"}],"outputs":[],"stateMutability":"nonpayable"},{"type":"function","name":"destroyed","inputs":[{"name":"_from","type":"address","internalType":"address"},{"name":"_value","type":"uint256","internalType":"uint256"}],"outputs":[],"stateMutability":"nonpayable"},{"type":"function","name":"isAgent","inputs":[{"name":"_agent","type":"address","internalType":"address"}],"outputs":[{"name":"","type":"bool","internalType":"bool"}],"stateMutability":"view"},{"type":"function","name":"isTokenAgent","inputs":[{"name":"_agentAddress","type":"address","internalType":"address"}],"outputs":[{"name":"","type":"bool","internalType":"bool"}],"stateMutability":"view"},{"type":"function","name":"isTokenBound","inputs":[{"name":"_token","type":"address","internalType":"address"}],"outputs":[{"name":"","type":"bool","internalType":"bool"}],"stateMutability":"view"},{"type":"function","name":"maxBalance","inputs":[],"outputs":[{"name":"","type":"uint256","internalType":"uint256"}],"stateMutability":"view"},{"type":"function","name":"owner","inputs":[],"outputs":[{"name":"","type":"address","internalType":"address"}],"stateMutability":"view"},{"type":"function","name":"removeAgent","inputs":[{"name":"_agent","type":"address","internalType":"address"}],"outputs":[],"stateMutability":"nonpayable"},{"type":"function","name":"removeTokenAgent","inputs":[{"name":"_agentAddress","type":"address","internalType":"address"}],"outputs":[],"stateMutability":"nonpayable"},{"type":"function","name":"renounceOwnership","inputs":[],"outputs":[],"stateMutability":"nonpayable"},{"type":"function","name":"setMaxBalance","inputs":[{"name":"_max","type":"uint256","internalType":"uint256"}],"outputs":[],"stateMutability":"nonpayable"},{"type":"function","name":"tokenBound","inputs":[],"outputs":[{"name":"","type":"address","internalType":"contract IToken"}],"stateMutability":"view"},{"type":"function","name":"transferOwnership","inputs":[{"name":"newOwner","type":"address","internalType":"address"}],"outputs":[],"stateMutability":"nonpayable"},{"type":"function","name":"transferred","inputs":[{"name":"_from","type":"address","internalType":"address"},{"name":"_to","type":"address","internalType":"address"},{"name":"_value","type":"uint256","internalType":"uint256"}],"outputs":[],"stateMutability":"nonpayable"},{"type":"function","name":"unbindToken","inputs":[{"name":"_token","type":"address","internalType":"address"}],"outputs":[],"stateMutability":"nonpayable"},{"type":"event","name":"AgentAdded","inputs":[{"name":"_agent","type":"address","indexed":true,"internalType":"address"}],"anonymous":false},{"type":"event","name":"AgentRemoved","inputs":[{"name":"_agent","type":"address","indexed":true,"internalType":"address"}],"anonymous":false},{"type":"event","name":"MaxBalanceSet","inputs":[{"name":"_maxBalance","type":"uint256","indexed":false,"internalType":"uint256"}],"anonymous":false},{"type":"event","name":"OwnershipTransferred","inputs":[{"name":"previousOwner","type":"address","indexed":true,"internalType":"address"},{"name":"newOwner","type":"address","indexed":true,"internalType":"address"}],"anonymous":false},{"type":"event","name":"TokenAgentAdded","inputs":[{"name":"_agentAddress","type":"address","indexed":false,"internalType":"address"}],"anonymous":false},{"type":"event","name":"TokenAgentRemoved","inputs":[{"name":"_agentAddress","type":"address","indexed":false,"internalType":"address"}],"anonymous":false},{"type":"event","name":"TokenBound","inputs":[{"name":"_token","type":"address","indexed":false,"internalType":"address"}],"anonymous":false},{"type":"event","name":"TokenUnbound","inputs":[{"name":"_token","type":"address","indexed":false,"internalType":"address"}],"anonymous":false}],"bytecode":{"object":"0x608060405234801561001057600080fd5b5061002d61002261003260201b60201c565b61003a60201b60201c565b6100fe565b600033905090565b60008060009054906101000a900473ffffffffffffffffffffffffffffffffffffffff169050816000806101000a81548173ffffffffffffffffffffffffffffffffffffffff021916908373ffffffffffffffffffffffffffffffffffffffff1602179055508173ffffffffffffffffffffffffffffffffffffffff168173ffffffffffffffffffffffffffffffffffffffff167f8be0079c531659141344cd1fd0a4f28419497f9722a3daafe3b4186f6b6457e060405160405180910390a35050565b61218b806200010e6000396000f3fe608060405234801561001057600080fd5b50600436106101375760003560e01c80638d2ea772116100b85780639d51d9b71161007c5780639d51d9b714610324578063cdde293214610340578063e46638e61461035c578063f2fde38b1461038c578063ff3e6954146103a8578063ff548267146103c457610137565b80638d2ea772146102805780638da5cb5b1461029c57806393e62f07146102ba57806397a6278e146102d8578063993e8b95146102f457610137565b8063715018a6116100ff578063715018a6146101f057806373ad468a146101fa57806384d1fc401461021857806384e79842146102485780638baf29b41461026457610137565b80631ffbb0641461013c578063346531fa1461016c5780633ff5aa021461019c57806340db3b50146101b85780635f8dead3146101d4575b600080fd5b6101566004803603810190610151919061171d565b6103f4565b6040516101639190611765565b60405180910390f35b6101866004803603810190610181919061171d565b610411565b6040516101939190611765565b60405180910390f35b6101b660048036038101906101b1919061171d565b61051e565b005b6101d260048036038101906101cd919061171d565b61069e565b005b6101ee60048036038101906101e991906117b6565b610838565b005b6101f861088d565b005b6102026108a1565b60405161020f9190611805565b60405180910390f35b610232600480360381019061022d9190611820565b6108a7565b60405161023f9190611765565b60405180910390f35b610262600480360381019061025d919061171d565b610934565b005b61027e60048036038101906102799190611820565b610a05565b005b61029a600480360381019061029591906117b6565b610a5c565b005b6102a4610ab1565b6040516102b19190611882565b60405180910390f35b6102c2610ada565b6040516102cf91906118fc565b60405180910390f35b6102f260048036038101906102ed919061171d565b610b00565b005b61030e6004803603810190610309919061171d565b610bd1565b60405161031b9190611765565b60405180910390f35b61033e60048036038101906103399190611917565b610c3b565b005b61035a6004803603810190610355919061171d565b610c84565b005b61037660048036038101906103719190611820565b610daa565b6040516103839190611765565b60405180910390f35b6103a660048036038101906103a1919061171d565b610dd0565b005b6103c260048036038101906103bd919061171d565b610e53565b005b6103de60048036038101906103d9919061171d565b610f7a565b6040516103eb9190611805565b60405180910390f35b600061040a826001610f9290919063ffffffff16565b9050919050565b6000600260008373ffffffffffffffffffffffffffffffffffffffff1673ffffffffffffffffffffffffffffffffffffffff16815260200190815260200160002060009054906101000a900460ff161580156105065750600360009054906101000a900473ffffffffffffffffffffffffffffffffffffffff1673ffffffffffffffffffffffffffffffffffffffff16631ffbb064836040518263ffffffff1660e01b81526004016104c39190611882565b602060405180830381865afa1580156104e0573d6000803e3d6000fd5b505050506040513d601f19601f820116820180604052508101906105049190611970565b155b156105145760009050610519565b600190505b919050565b3373ffffffffffffffffffffffffffffffffffffffff1661053d610ab1565b73ffffffffffffffffffffffffffffffffffffffff1614806105e45750600073ffffffffffffffffffffffffffffffffffffffff16600360009054906101000a900473ffffffffffffffffffffffffffffffffffffffff1673ffffffffffffffffffffffffffffffffffffffff161480156105e357508073ffffffffffffffffffffffffffffffffffffffff163373ffffffffffffffffffffffffffffffffffffffff16145b5b610623576040517f08c379a000000000000000000000000000000000000000000000000000000000815260040161061a906119fa565b60405180910390fd5b80600360006101000a81548173ffffffffffffffffffffffffffffffffffffffff021916908373ffffffffffffffffffffffffffffffffffffffff1602179055507f2de35142b19ed5a07796cf30791959c592018f70b1d2d7c460eef8ffe713692b816040516106939190611882565b60405180910390a150565b3373ffffffffffffffffffffffffffffffffffffffff166106bd610ab1565b73ffffffffffffffffffffffffffffffffffffffff16148061070a57508073ffffffffffffffffffffffffffffffffffffffff163373ffffffffffffffffffffffffffffffffffffffff16145b610749576040517f08c379a0000000000000000000000000000000000000000000000000000000008152600401610740906119fa565b60405180910390fd5b600360009054906101000a900473ffffffffffffffffffffffffffffffffffffffff1673ffffffffffffffffffffffffffffffffffffffff168173ffffffffffffffffffffffffffffffffffffffff16146107d9576040517f08c379a00000000000000000000000000000000000000000000000000000000081526004016107d090611a66565b60405180910390fd5b600360006101000a81549073ffffffffffffffffffffffffffffffffffffffff02191690557f28a4ca7134a3b3f9aff286e79ad3daadb4a06d1b43d037a3a98bdc074edd9b7a8160405161082d9190611882565b60405180910390a150565b610840611059565b61087f576040517f08c379a000000000000000000000000000000000000000000000000000000000815260040161087690611b1e565b60405180910390fd5b6108898282611069565b5050565b610895611155565b61089f60006111d3565b565b60045481565b60006004548211156108bc576000905061092d565b60006108c784611297565b905060045483600560008473ffffffffffffffffffffffffffffffffffffffff1673ffffffffffffffffffffffffffffffffffffffff168152602001908152602001600020546109179190611b6d565b111561092757600091505061092d565b60019150505b9392505050565b61093c611155565b600073ffffffffffffffffffffffffffffffffffffffff168173ffffffffffffffffffffffffffffffffffffffff16036109ab576040517f08c379a00000000000000000000000000000000000000000000000000000000081526004016109a290611bed565b60405180910390fd5b6109bf8160016113aa90919063ffffffff16565b8073ffffffffffffffffffffffffffffffffffffffff167ff68e73cec97f2d70aa641fb26e87a4383686e2efacb648f2165aeb02ac562ec560405160405180910390a250565b610a0d611059565b610a4c576040517f08c379a0000000000000000000000000000000000000000000000000000000008152600401610a4390611b1e565b60405180910390fd5b610a57838383611452565b505050565b610a64611059565b610aa3576040517f08c379a0000000000000000000000000000000000000000000000000000000008152600401610a9a90611b1e565b60405180910390fd5b610aad82826115a3565b5050565b60008060009054906101000a900473ffffffffffffffffffffffffffffffffffffffff16905090565b600360009054906101000a900473ffffffffffffffffffffffffffffffffffffffff1681565b610b08611155565b600073ffffffffffffffffffffffffffffffffffffffff168173ffffffffffffffffffffffffffffffffffffffff1603610b77576040517f08c379a0000000000000000000000000000000000000000000000000000000008152600401610b6e90611bed565b60405180910390fd5b610b8b81600161160b90919063ffffffff16565b8073ffffffffffffffffffffffffffffffffffffffff167fed9c8ad8d5a0a66898ea49d2956929c93ae2e8bd50281b2ed897c5d1a6737e0b60405160405180910390a250565b6000600360009054906101000a900473ffffffffffffffffffffffffffffffffffffffff1673ffffffffffffffffffffffffffffffffffffffff168273ffffffffffffffffffffffffffffffffffffffff1614610c315760009050610c36565b600190505b919050565b610c43611155565b806004819055507f82f9980487703d8db41f1ba63b2665566f7fb449fbc840a9e0c6ca932bed582c81604051610c799190611805565b60405180910390a150565b610c8c611155565b600260008273ffffffffffffffffffffffffffffffffffffffff1673ffffffffffffffffffffffffffffffffffffffff16815260200190815260200160002060009054906101000a900460ff16610d18576040517f08c379a0000000000000000000000000000000000000000000000000000000008152600401610d0f90611c59565b60405180910390fd5b6000600260008373ffffffffffffffffffffffffffffffffffffffff1673ffffffffffffffffffffffffffffffffffffffff16815260200190815260200160002060006101000a81548160ff0219169083151502179055507f6a659bb87bb23efbdc295f8eed8ae8c4379bfb77660ced2ef0f3d7d26b05c6a681604051610d9f9190611882565b60405180910390a150565b6000610db78484846108a7565b610dc45760009050610dc9565b600190505b9392505050565b610dd8611155565b600073ffffffffffffffffffffffffffffffffffffffff168173ffffffffffffffffffffffffffffffffffffffff1603610e47576040517f08c379a0000000000000000000000000000000000000000000000000000000008152600401610e3e90611ceb565b60405180910390fd5b610e50816111d3565b50565b610e5b611155565b600260008273ffffffffffffffffffffffffffffffffffffffff1673ffffffffffffffffffffffffffffffffffffffff16815260200190815260200160002060009054906101000a900460ff1615610ee8576040517f08c379a0000000000000000000000000000000000000000000000000000000008152600401610edf90611d57565b60405180910390fd5b6001600260008373ffffffffffffffffffffffffffffffffffffffff1673ffffffffffffffffffffffffffffffffffffffff16815260200190815260200160002060006101000a81548160ff0219169083151502179055507fd62c45e13ac30396aceb3ad37c89bd1ba9048032fe61679000e92eb93dbfd67d81604051610f6f9190611882565b60405180910390a150565b60056020528060005260406000206000915090505481565b60008073ffffffffffffffffffffffffffffffffffffffff168273ffffffffffffffffffffffffffffffffffffffff1603611002576040517f08c379a0000000000000000000000000000000000000000000000000000000008152600401610ff990611de9565b60405180910390fd5b8260000160008373ffffffffffffffffffffffffffffffffffffffff1673ffffffffffffffffffffffffffffffffffffffff16815260200190815260200160002060009054906101000a900460ff16905092915050565b600061106433610bd1565b905090565b600061107483611297565b905081600560008373ffffffffffffffffffffffffffffffffffffffff1673ffffffffffffffffffffffffffffffffffffffff16815260200190815260200160002060008282546110c59190611b6d565b92505081905550600454600560008373ffffffffffffffffffffffffffffffffffffffff1673ffffffffffffffffffffffffffffffffffffffff168152602001908152602001600020541115611150576040517f08c379a000000000000000000000000000000000000000000000000000000000815260040161114790611e55565b60405180910390fd5b505050565b61115d6116b2565b73ffffffffffffffffffffffffffffffffffffffff1661117b610ab1565b73ffffffffffffffffffffffffffffffffffffffff16146111d1576040517f08c379a00000000000000000000000000000000000000000000000000000000081526004016111c890611ec1565b60405180910390fd5b565b60008060009054906101000a900473ffffffffffffffffffffffffffffffffffffffff169050816000806101000a81548173ffffffffffffffffffffffffffffffffffffffff021916908373ffffffffffffffffffffffffffffffffffffffff1602179055508173ffffffffffffffffffffffffffffffffffffffff168173ffffffffffffffffffffffffffffffffffffffff167f8be0079c531659141344cd1fd0a4f28419497f9722a3daafe3b4186f6b6457e060405160405180910390a35050565b6000600360009054906101000a900473ffffffffffffffffffffffffffffffffffffffff1673ffffffffffffffffffffffffffffffffffffffff1663134e18f46040518163ffffffff1660e01b8152600401602060405180830381865afa158015611306573d6000803e3d6000fd5b505050506040513d601f19601f8201168201806040525081019061132a9190611f1f565b73ffffffffffffffffffffffffffffffffffffffff1663f0eb5e54836040518263ffffffff1660e01b81526004016113629190611882565b602060405180830381865afa15801561137f573d6000803e3d6000fd5b505050506040513d601f19601f820116820180604052508101906113a39190611f8a565b9050919050565b6113b48282610f92565b156113f4576040517f08c379a00000000000000000000000000000000000000000000000000000000081526004016113eb90612003565b60405180910390fd5b60018260000160008373ffffffffffffffffffffffffffffffffffffffff1673ffffffffffffffffffffffffffffffffffffffff16815260200190815260200160002060006101000a81548160ff0219169083151502179055505050565b600061145d84611297565b9050600061146a84611297565b905082600560008373ffffffffffffffffffffffffffffffffffffffff1673ffffffffffffffffffffffffffffffffffffffff16815260200190815260200160002060008282546114bb9190611b6d565b9250508190555082600560008473ffffffffffffffffffffffffffffffffffffffff1673ffffffffffffffffffffffffffffffffffffffff16815260200190815260200160002060008282546115119190612023565b92505081905550600454600560008373ffffffffffffffffffffffffffffffffffffffff1673ffffffffffffffffffffffffffffffffffffffff16815260200190815260200160002054111561159c576040517f08c379a0000000000000000000000000000000000000000000000000000000008152600401611593906120a3565b60405180910390fd5b5050505050565b60006115ae83611297565b905081600560008373ffffffffffffffffffffffffffffffffffffffff1673ffffffffffffffffffffffffffffffffffffffff16815260200190815260200160002060008282546115ff9190612023565b92505081905550505050565b6116158282610f92565b611654576040517f08c379a000000000000000000000000000000000000000000000000000000000815260040161164b90612135565b60405180910390fd5b60008260000160008373ffffffffffffffffffffffffffffffffffffffff1673ffffffffffffffffffffffffffffffffffffffff16815260200190815260200160002060006101000a81548160ff0219169083151502179055505050565b600033905090565b600080fd5b600073ffffffffffffffffffffffffffffffffffffffff82169050919050565b60006116ea826116bf565b9050919050565b6116fa816116df565b811461170557600080fd5b50565b600081359050611717816116f1565b92915050565b600060208284031215611733576117326116ba565b5b600061174184828501611708565b91505092915050565b60008115159050919050565b61175f8161174a565b82525050565b600060208201905061177a6000830184611756565b92915050565b6000819050919050565b61179381611780565b811461179e57600080fd5b50565b6000813590506117b08161178a565b92915050565b600080604083850312156117cd576117cc6116ba565b5b60006117db85828601611708565b92505060206117ec858286016117a1565b9150509250929050565b6117ff81611780565b82525050565b600060208201905061181a60008301846117f6565b92915050565b600080600060608486031215611839576118386116ba565b5b600061184786828701611708565b935050602061185886828701611708565b9250506040611869868287016117a1565b9150509250925092565b61187c816116df565b82525050565b60006020820190506118976000830184611873565b92915050565b6000819050919050565b60006118c26118bd6118b8846116bf565b61189d565b6116bf565b9050919050565b60006118d4826118a7565b9050919050565b60006118e6826118c9565b9050919050565b6118f6816118db565b82525050565b600060208201905061191160008301846118ed565b92915050565b60006020828403121561192d5761192c6116ba565b5b600061193b848285016117a1565b91505092915050565b61194d8161174a565b811461195857600080fd5b50565b60008151905061196a81611944565b92915050565b600060208284031215611986576119856116ba565b5b60006119948482850161195b565b91505092915050565b600082825260208201905092915050565b7f6f6e6c79206f776e6572206f7220746f6b656e2063616e2063616c6c00000000600082015250565b60006119e4601c8361199d565b91506119ef826119ae565b602082019050919050565b60006020820190508181036000830152611a13816119d7565b9050919050565b7f5468697320746f6b656e206973206e6f7420626f756e64000000000000000000600082015250565b6000611a5060178361199d565b9150611a5b82611a1a565b602082019050919050565b60006020820190508181036000830152611a7f81611a43565b9050919050565b7f6572726f72203a20746869732061646472657373206973206e6f74206120746f60008201527f6b656e20626f756e6420746f2074686520636f6d706c69616e636520636f6e7460208201527f7261637400000000000000000000000000000000000000000000000000000000604082015250565b6000611b0860448361199d565b9150611b1382611a86565b606082019050919050565b60006020820190508181036000830152611b3781611afb565b9050919050565b7f4e487b7100000000000000000000000000000000000000000000000000000000600052601160045260246000fd5b6000611b7882611780565b9150611b8383611780565b9250828201905080821115611b9b57611b9a611b3e565b5b92915050565b7f696e76616c696420617267756d656e74202d207a65726f206164647265737300600082015250565b6000611bd7601f8361199d565b9150611be282611ba1565b602082019050919050565b60006020820190508181036000830152611c0681611bca565b9050919050565b7f54686973204167656e74206973206e6f74207265676973746572656420796574600082015250565b6000611c4360208361199d565b9150611c4e82611c0d565b602082019050919050565b60006020820190508181036000830152611c7281611c36565b9050919050565b7f4f776e61626c653a206e6577206f776e657220697320746865207a65726f206160008201527f6464726573730000000000000000000000000000000000000000000000000000602082015250565b6000611cd560268361199d565b9150611ce082611c79565b604082019050919050565b60006020820190508181036000830152611d0481611cc8565b9050919050565b7f54686973204167656e7420697320616c72656164792072656769737465726564600082015250565b6000611d4160208361199d565b9150611d4c82611d0b565b602082019050919050565b60006020820190508181036000830152611d7081611d34565b9050919050565b7f526f6c65733a206163636f756e7420697320746865207a65726f20616464726560008201527f7373000000000000000000000000000000000000000000000000000000000000602082015250565b6000611dd360228361199d565b9150611dde82611d77565b604082019050919050565b60006020820190508181036000830152611e0281611dc6565b9050919050565b7f706f73742d6d696e74696e672062616c616e636520746f6f2068696768000000600082015250565b6000611e3f601d8361199d565b9150611e4a82611e09565b602082019050919050565b60006020820190508181036000830152611e6e81611e32565b9050919050565b7f4f776e61626c653a2063616c6c6572206973206e6f7420746865206f776e6572600082015250565b6000611eab60208361199d565b9150611eb682611e75565b602082019050919050565b60006020820190508181036000830152611eda81611e9e565b9050919050565b6000611eec826116df565b9050919050565b611efc81611ee1565b8114611f0757600080fd5b50565b600081519050611f1981611ef3565b92915050565b600060208284031215611f3557611f346116ba565b5b6000611f4384828501611f0a565b91505092915050565b6000611f57826116df565b9050919050565b611f6781611f4c565b8114611f7257600080fd5b50565b600081519050611f8481611f5e565b92915050565b600060208284031215611fa057611f9f6116ba565b5b6000611fae84828501611f75565b91505092915050565b7f526f6c65733a206163636f756e7420616c72656164792068617320726f6c6500600082015250565b6000611fed601f8361199d565b9150611ff882611fb7565b602082019050919050565b6000602082019050818103600083015261201c81611fe0565b9050919050565b600061202e82611780565b915061203983611780565b925082820390508181111561205157612050611b3e565b5b92915050565b7f706f73742d7472616e736665722062616c616e636520746f6f20686967680000600082015250565b600061208d601e8361199d565b915061209882612057565b602082019050919050565b600060208201905081810360008301526120bc81612080565b9050919050565b7f526f6c65733a206163636f756e7420646f6573206e6f74206861766520726f6c60008201527f6500000000000000000000000000000000000000000000000000000000000000602082015250565b600061211f60218361199d565b915061212a826120c3565b604082019050919050565b6000602082019050818103600083015261214e81612112565b905091905056fea2646970667358221220c557d57bec091cf1dbe5def507f3863d45fd7c4a9c343727d5183c6b0de71b7f64736f6c63430008110033","linkReferences":{}},"methodIdentifiers":{"IDBalance(address)":"ff548267","addAgent(address)":"84e79842","addTokenAgent(address)":"ff3e6954","bindToken(address)":"3ff5aa02","canTransfer(address,address,uint256)":"e46638e6","complianceCheckOnMaxBalance(address,address,uint256)":"84d1fc40","created(address,uint256)":"5f8dead3","destroyed(address,uint256)":"8d2ea772","isAgent(address)":"1ffbb064","isTokenAgent(address)":"346531fa","isTokenBound(address)":"993e8b95","maxBalance()":"73ad468a","owner()":"8da5cb5b","removeAgent(address)":"97a6278e","removeTokenAgent(address)":"cdde2932","renounceOwnership()":"715018a6","setMaxBalance(uint256)":"9d51d9b7","tokenBound()":"93e62f07","transferOwnership(address)":"f2fde38b","transferred(address,address,uint256)":"8baf29b4","unbindToken(address)":"40db3b50"},"id":22}