{"abi":[{"type":"function","name":"LOCKUP_PERIOD","inputs":[],"outputs":[{"name":"","type":"uint256","internalType":"uint256"}],"stateMutability":"view"},{"type":"function","name":"bindCompliance","inputs":[{"name":"_compliance","type":"address","internalType":"address"}],"outputs":[],"stateMutability":"nonpayable"},{"type":"function","name":"canComplianceBind","inputs":[{"name":"","type":"address","internalType":"address"}],"outputs":[{"name":"","type":"bool","internalType":"bool"}],"stateMutability":"view"},{"type":"function","name":"deploymentTimestamps","inputs":[{"name":"","type":"address","internalType":"address"}],"outputs":[{"name":"","type":"uint256","internalType":"uint256"}],"stateMutability":"view"},{"type":"function","name":"initialize","inputs":[],"outputs":[],"stateMutability":"nonpayable"},{"type":"function","name":"isComplianceBound","inputs":[{"name":"_compliance","type":"address","internalType":"address"}],"outputs":[{"name":"","type":"bool","internalType":"bool"}],"stateMutability":"view"},{"type":"function","name":"isPlugAndPlay","inputs":[],"outputs":[{"name":"","type":"bool","internalType":"bool"}],"stateMutability":"pure"},{"type":"function","name":"moduleBurnAction","inputs":[{"name":"","type":"address","internalType":"address"},{"name":"","type":"uint256","internalType":"uint256"}],"outputs":[],"stateMutability":"nonpayable"},{"type":"function","name":"moduleCheck","inputs":[{"name":"_from","type":"address","internalType":"address"},{"name":"","type":"address","internalType":"address"},{"name":"","type":"uint256","internalType":"uint256"},{"name":"_compliance","type":"address","internalType":"address"}],"outputs":[{"name":"","type":"bool","internalType":"bool"}],"stateMutability":"view"},{"type":"function","name":"moduleMintAction","inputs":[{"name":"","type":"address","internalType":"address"},{"name":"","type":"uint256","internalType":"uint256"}],"outputs":[],"stateMutability":"nonpayable"},{"type":"function","name":"moduleTransferAction","inputs":[{"name":"","type":"address","internalType":"address"},{"name":"","type":"address","internalType":"address"},{"name":"","type":"uint256","internalType":"uint256"}],"outputs":[],"stateMutability":"nonpayable"},{"type":"function","name":"name","inputs":[],"outputs":[{"name":"_name","type":"string","internalType":"string"}],"stateMutability":"pure"},{"type":"function","name":"owner","inputs":[],"outputs":[{"name":"","type":"address","internalType":"address"}],"stateMutability":"view"},{"type":"function","name":"proxiableUUID","inputs":[],"outputs":[{"name":"","type":"bytes32","internalType":"bytes32"}],"stateMutability":"view"},{"type":"function","name":"renounceOwnership","inputs":[],"outputs":[],"stateMutability":"nonpayable"},{"type":"function","name":"setDeploymentTimestamp","inputs":[{"name":"_timestamp","type":"uint256","internalType":"uint256"}],"outputs":[],"stateMutability":"nonpayable"},{"type":"function","name":"transferOwnership","inputs":[{"name":"newOwner","type":"address","internalType":"address"}],"outputs":[],"stateMutability":"nonpayable"},{"type":"function","name":"unbindCompliance","inputs":[{"name":"_compliance","type":"address","internalType":"address"}],"outputs":[],"stateMutability":"nonpayable"},{"type":"function","name":"upgradeTo","inputs":[{"name":"newImplementation","type":"address","internalType":"address"}],"outputs":[],"stateMutability":"nonpayable"},{"type":"function","name":"upgradeToAndCall","inputs":[{"name":"newImplementation","type":"address","internalType":"address"},{"name":"data","type":"bytes","internalType":"bytes"}],"outputs":[],"stateMutability":"payable"},{"type":"event","name":"AdminChanged","inputs":[{"name":"previousAdmin","type":"address","indexed":false,"internalType":"address"},{"name":"newAdmin","type":"address","indexed":false,"internalType":"address"}],"anonymous":false},{"type":"event","name":"BeaconUpgraded","inputs":[{"name":"beacon","type":"address","indexed":true,"internalType":"address"}],"anonymous":false},{"type":"event","name":"ComplianceBound","inputs":[{"name":"_compliance","type":"address","indexed":true,"internalType":"address"}],"anonymous":false},{"type":"event","name":"ComplianceUnbound","inputs":[{"name":"_compliance","type":"address","indexed":true,"internalType":"address"}],"anonymous":false},{"type":"event","name":"Initialized","inputs":[{"name":"version","type":"uint8","indexed":false,"internalType":"uint8"}],"anonymous":false},{"type":"event","name":"LockupPeriodSet","inputs":[{"name":"compliance","type":"address","indexed":true,"internalType":"address"},{"name":"_timestamp","type":"uint256","indexed":false,"internalType":"uint256"}],"anonymous":false},{"type":"event","name":"OwnershipTransferred","inputs":[{"name":"previousOwner","type":"address","indexed":true,"internalType":"address"},{"name":"newOwner","type":"address","indexed":true,"internalType":"address"}],"anonymous":false},{"type":"event","name":"Upgraded","inputs":[{"name":"implementation","type":"address","indexed":true,"internalType":"address"}],"anonymous":false}],"bytecode":{"object":"0x60a06040523073ffffffffffffffffffffffffffffffffffffffff1660809073ffffffffffffffffffffffffffffffffffffffff1681525034801561004357600080fd5b50608051612d8661007b60003960008181610922015281816109b001528181610eb801528181610f460152610ff60152612d866000f3fe60806040526004361061011f5760003560e01c806352d1902d116100a0578063ccb6eb0f11610064578063ccb6eb0f146103b0578063e6f5e807146103d9578063ec16d07614610404578063f104a8c91461042f578063f2fde38b146104585761011f565b806352d1902d146102ef578063715018a61461031a5780638129fc1c146103315780638da5cb5b14610348578063bcc21053146103735761011f565b8063372491a2116100e7578063372491a2146102075780633a388464146102305780634a9325441461026d5780634cf4d295146102965780634f1ef286146102d35761011f565b8063013b7ce4146101245780630694a5fb1461016157806306fdde031461018a5780632cb7e1ec146101b55780633659cfe6146101de575b600080fd5b34801561013057600080fd5b5061014b60048036038101906101469190611ee2565b610481565b6040516101589190611f64565b60405180910390f35b34801561016d57600080fd5b5061018860048036038101906101839190611f7f565b610544565b005b34801561019657600080fd5b5061019f610769565b6040516101ac919061203c565b60405180910390f35b3480156101c157600080fd5b506101dc60048036038101906101d7919061205e565b6107a6565b005b3480156101ea57600080fd5b5061020560048036038101906102009190611f7f565b610920565b005b34801561021357600080fd5b5061022e600480360381019061022991906120b1565b610aa8565b005b34801561023c57600080fd5b5061025760048036038101906102529190611f7f565b610c21565b6040516102649190612100565b60405180910390f35b34801561027957600080fd5b50610294600480360381019061028f9190611f7f565b610c39565b005b3480156102a257600080fd5b506102bd60048036038101906102b89190611f7f565b610e52565b6040516102ca9190611f64565b60405180910390f35b6102ed60048036038101906102e89190612250565b610eb6565b005b3480156102fb57600080fd5b50610304610ff2565b60405161031191906122c5565b60405180910390f35b34801561032657600080fd5b5061032f6110ab565b005b34801561033d57600080fd5b506103466110bf565b005b34801561035457600080fd5b5061035d6111fd565b60405161036a91906122ef565b60405180910390f35b34801561037f57600080fd5b5061039a60048036038101906103959190611f7f565b611227565b6040516103a79190611f64565b60405180910390f35b3480156103bc57600080fd5b506103d760048036038101906103d2919061230a565b611232565b005b3480156103e557600080fd5b506103ee6113aa565b6040516103fb9190611f64565b60405180910390f35b34801561041057600080fd5b506104196113b3565b6040516104269190612100565b60405180910390f35b34801561043b57600080fd5b50610456600480360381019061045191906120b1565b6113b9565b005b34801561046457600080fd5b5061047f600480360381019061047a9190611f7f565b611532565b005b60008073ffffffffffffffffffffffffffffffffffffffff168573ffffffffffffffffffffffffffffffffffffffff1614806104c357506104c282866115b5565b5b156104d1576001905061053c565b600060c960008473ffffffffffffffffffffffffffffffffffffffff1673ffffffffffffffffffffffffffffffffffffffff1681526020019081526020016000205490506000810361052757600091505061053c565b610168816105359190612366565b4210159150505b949350505050565b600061054e6116a7565b90508060000160003373ffffffffffffffffffffffffffffffffffffffff1673ffffffffffffffffffffffffffffffffffffffff16815260200190815260200160002060009054906101000a900460ff166105de576040517f08c379a00000000000000000000000000000000000000000000000000000000081526004016105d5906123e6565b60405180910390fd5b60006105e86116a7565b9050600073ffffffffffffffffffffffffffffffffffffffff168373ffffffffffffffffffffffffffffffffffffffff1603610659576040517f08c379a000000000000000000000000000000000000000000000000000000000815260040161065090612452565b60405180910390fd5b8273ffffffffffffffffffffffffffffffffffffffff163373ffffffffffffffffffffffffffffffffffffffff16146106c7576040517f08c379a00000000000000000000000000000000000000000000000000000000081526004016106be906124e4565b60405180910390fd5b60008160000160008573ffffffffffffffffffffffffffffffffffffffff1673ffffffffffffffffffffffffffffffffffffffff16815260200190815260200160002060006101000a81548160ff0219169083151502179055508273ffffffffffffffffffffffffffffffffffffffff167f408b49d9be1c914c52a0227e18a077e5a892dddf32a26cfa94a5d9708fad771860405160405180910390a2505050565b60606040518060400160405280601281526020017f4c6f636b7570506572696f644d6f64756c650000000000000000000000000000815250905090565b60006107b06116a7565b90508060000160003373ffffffffffffffffffffffffffffffffffffffff1673ffffffffffffffffffffffffffffffffffffffff16815260200190815260200160002060009054906101000a900460ff16610840576040517f08c379a0000000000000000000000000000000000000000000000000000000008152600401610837906123e6565b60405180910390fd5b600060c960003373ffffffffffffffffffffffffffffffffffffffff1673ffffffffffffffffffffffffffffffffffffffff168152602001908152602001600020540361091a574260c960003373ffffffffffffffffffffffffffffffffffffffff1673ffffffffffffffffffffffffffffffffffffffff168152602001908152602001600020819055503373ffffffffffffffffffffffffffffffffffffffff167fbdd26894b0ab728faca1803d98624acc5bef85bbf8aa1e18215a34fb79d2f466426040516109119190612100565b60405180910390a25b50505050565b7f000000000000000000000000000000000000000000000000000000000000000073ffffffffffffffffffffffffffffffffffffffff163073ffffffffffffffffffffffffffffffffffffffff16036109ae576040517f08c379a00000000000000000000000000000000000000000000000000000000081526004016109a590612576565b60405180910390fd5b7f000000000000000000000000000000000000000000000000000000000000000073ffffffffffffffffffffffffffffffffffffffff166109ed6116cf565b73ffffffffffffffffffffffffffffffffffffffff1614610a43576040517f08c379a0000000000000000000000000000000000000000000000000000000008152600401610a3a90612608565b60405180910390fd5b610a4c81611726565b610aa581600067ffffffffffffffff811115610a6b57610a6a612125565b5b6040519080825280601f01601f191660200182016040528015610a9d5781602001600182028036833780820191505090505b506000611731565b50565b6000610ab26116a7565b90508060000160003373ffffffffffffffffffffffffffffffffffffffff1673ffffffffffffffffffffffffffffffffffffffff16815260200190815260200160002060009054906101000a900460ff16610b42576040517f08c379a0000000000000000000000000000000000000000000000000000000008152600401610b39906123e6565b60405180910390fd5b600060c960003373ffffffffffffffffffffffffffffffffffffffff1673ffffffffffffffffffffffffffffffffffffffff1681526020019081526020016000205403610c1c574260c960003373ffffffffffffffffffffffffffffffffffffffff1673ffffffffffffffffffffffffffffffffffffffff168152602001908152602001600020819055503373ffffffffffffffffffffffffffffffffffffffff167fbdd26894b0ab728faca1803d98624acc5bef85bbf8aa1e18215a34fb79d2f46642604051610c139190612100565b60405180910390a25b505050565b60c96020528060005260406000206000915090505481565b6000610c436116a7565b9050600073ffffffffffffffffffffffffffffffffffffffff168273ffffffffffffffffffffffffffffffffffffffff1603610cb4576040517f08c379a0000000000000000000000000000000000000000000000000000000008152600401610cab90612452565b60405180910390fd5b8060000160008373ffffffffffffffffffffffffffffffffffffffff1673ffffffffffffffffffffffffffffffffffffffff16815260200190815260200160002060009054906101000a900460ff1615610d43576040517f08c379a0000000000000000000000000000000000000000000000000000000008152600401610d3a90612674565b60405180910390fd5b8173ffffffffffffffffffffffffffffffffffffffff163373ffffffffffffffffffffffffffffffffffffffff1614610db1576040517f08c379a0000000000000000000000000000000000000000000000000000000008152600401610da8906124e4565b60405180910390fd5b60018160000160008473ffffffffffffffffffffffffffffffffffffffff1673ffffffffffffffffffffffffffffffffffffffff16815260200190815260200160002060006101000a81548160ff0219169083151502179055508173ffffffffffffffffffffffffffffffffffffffff167f1f7b76c58fb697eb53c6c7c1becb96911516a136e24d7ced386b2355358b75a360405160405180910390a25050565b600080610e5d6116a7565b90508060000160008473ffffffffffffffffffffffffffffffffffffffff1673ffffffffffffffffffffffffffffffffffffffff16815260200190815260200160002060009054906101000a900460ff16915050919050565b7f000000000000000000000000000000000000000000000000000000000000000073ffffffffffffffffffffffffffffffffffffffff163073ffffffffffffffffffffffffffffffffffffffff1603610f44576040517f08c379a0000000000000000000000000000000000000000000000000000000008152600401610f3b90612576565b60405180910390fd5b7f000000000000000000000000000000000000000000000000000000000000000073ffffffffffffffffffffffffffffffffffffffff16610f836116cf565b73ffffffffffffffffffffffffffffffffffffffff1614610fd9576040517f08c379a0000000000000000000000000000000000000000000000000000000008152600401610fd090612608565b60405180910390fd5b610fe282611726565b610fee82826001611731565b5050565b60007f000000000000000000000000000000000000000000000000000000000000000073ffffffffffffffffffffffffffffffffffffffff163073ffffffffffffffffffffffffffffffffffffffff1614611082576040517f08c379a000000000000000000000000000000000000000000000000000000000815260040161107990612706565b60405180910390fd5b7f360894a13ba1a3210667c828492db98dca3e2076cc3735a920a3ca505d382bbc60001b905090565b6110b361189f565b6110bd600061191d565b565b60008060019054906101000a900460ff161590508080156110f05750600160008054906101000a900460ff1660ff16105b8061111d57506110ff306119e3565b15801561111c5750600160008054906101000a900460ff1660ff16145b5b61115c576040517f08c379a000000000000000000000000000000000000000000000000000000000815260040161115390612798565b60405180910390fd5b60016000806101000a81548160ff021916908360ff1602179055508015611199576001600060016101000a81548160ff0219169083151502179055505b6111a1611a06565b80156111fa5760008060016101000a81548160ff0219169083151502179055507f7f26b83ff96e1f2b6a682f133852f6798a09c465da95921460cefb384740249860016040516111f1919061280a565b60405180910390a15b50565b6000603360009054906101000a900473ffffffffffffffffffffffffffffffffffffffff16905090565b600060019050919050565b600061123c6116a7565b90508060000160003373ffffffffffffffffffffffffffffffffffffffff1673ffffffffffffffffffffffffffffffffffffffff16815260200190815260200160002060009054906101000a900460ff166112cc576040517f08c379a00000000000000000000000000000000000000000000000000000000081526004016112c3906123e6565b60405180910390fd5b600060c960003373ffffffffffffffffffffffffffffffffffffffff1673ffffffffffffffffffffffffffffffffffffffff16815260200190815260200160002054036113a6578160c960003373ffffffffffffffffffffffffffffffffffffffff1673ffffffffffffffffffffffffffffffffffffffff168152602001908152602001600020819055503373ffffffffffffffffffffffffffffffffffffffff167fbdd26894b0ab728faca1803d98624acc5bef85bbf8aa1e18215a34fb79d2f4668360405161139d9190612100565b60405180910390a25b5050565b60006001905090565b61016881565b60006113c36116a7565b90508060000160003373ffffffffffffffffffffffffffffffffffffffff1673ffffffffffffffffffffffffffffffffffffffff16815260200190815260200160002060009054906101000a900460ff16611453576040517f08c379a000000000000000000000000000000000000000000000000000000000815260040161144a906123e6565b60405180910390fd5b600060c960003373ffffffffffffffffffffffffffffffffffffffff1673ffffffffffffffffffffffffffffffffffffffff168152602001908152602001600020540361152d574260c960003373ffffffffffffffffffffffffffffffffffffffff1673ffffffffffffffffffffffffffffffffffffffff168152602001908152602001600020819055503373ffffffffffffffffffffffffffffffffffffffff167fbdd26894b0ab728faca1803d98624acc5bef85bbf8aa1e18215a34fb79d2f466426040516115249190612100565b60405180910390a25b505050565b61153a61189f565b600073ffffffffffffffffffffffffffffffffffffffff168173ffffffffffffffffffffffffffffffffffffffff16036115a9576040517f08c379a00000000000000000000000000000000000000000000000000000000081526004016115a090612897565b60405180910390fd5b6115b28161191d565b50565b60008273ffffffffffffffffffffffffffffffffffffffff16636a3edf286040518163ffffffff1660e01b8152600401602060405180830381865afa158015611602573d6000803e3d6000fd5b505050506040513d601f19601f8201168201806040525081019061162691906128cc565b73ffffffffffffffffffffffffffffffffffffffff16631ffbb064836040518263ffffffff1660e01b815260040161165e91906122ef565b602060405180830381865afa15801561167b573d6000803e3d6000fd5b505050506040513d601f19601f8201168201806040525081019061169f9190612925565b905092915050565b60007ff6cc97de1266c180cd39f3b311632644143ce7873d2927755382ad4b39e8ae00905090565b60006116fd7f360894a13ba1a3210667c828492db98dca3e2076cc3735a920a3ca505d382bbc60001b611a67565b60000160009054906101000a900473ffffffffffffffffffffffffffffffffffffffff16905090565b61172e61189f565b50565b61175d7f4910fdfa16fed3260ed0e7147f7cc6da11a60208b5b9406d12a635614ffd914360001b611a71565b60000160009054906101000a900460ff16156117815761177c83611a7b565b61189a565b8273ffffffffffffffffffffffffffffffffffffffff166352d1902d6040518163ffffffff1660e01b8152600401602060405180830381865afa9250505080156117e957506040513d601f19601f820116820180604052508101906117e6919061297e565b60015b611828576040517f08c379a000000000000000000000000000000000000000000000000000000000815260040161181f90612a1d565b60405180910390fd5b7f360894a13ba1a3210667c828492db98dca3e2076cc3735a920a3ca505d382bbc60001b811461188d576040517f08c379a000000000000000000000000000000000000000000000000000000000815260040161188490612aaf565b60405180910390fd5b50611899838383611b34565b5b505050565b6118a7611b60565b73ffffffffffffffffffffffffffffffffffffffff166118c56111fd565b73ffffffffffffffffffffffffffffffffffffffff161461191b576040517f08c379a000000000000000000000000000000000000000000000000000000000815260040161191290612b1b565b60405180910390fd5b565b6000603360009054906101000a900473ffffffffffffffffffffffffffffffffffffffff16905081603360006101000a81548173ffffffffffffffffffffffffffffffffffffffff021916908373ffffffffffffffffffffffffffffffffffffffff1602179055508173ffffffffffffffffffffffffffffffffffffffff168173ffffffffffffffffffffffffffffffffffffffff167f8be0079c531659141344cd1fd0a4f28419497f9722a3daafe3b4186f6b6457e060405160405180910390a35050565b6000808273ffffffffffffffffffffffffffffffffffffffff163b119050919050565b600060019054906101000a900460ff16611a55576040517f08c379a0000000000000000000000000000000000000000000000000000000008152600401611a4c90612bad565b60405180910390fd5b611a5d611b68565b611a65611bc1565b565b6000819050919050565b6000819050919050565b611a84816119e3565b611ac3576040517f08c379a0000000000000000000000000000000000000000000000000000000008152600401611aba90612c3f565b60405180910390fd5b80611af07f360894a13ba1a3210667c828492db98dca3e2076cc3735a920a3ca505d382bbc60001b611a67565b60000160006101000a81548173ffffffffffffffffffffffffffffffffffffffff021916908373ffffffffffffffffffffffffffffffffffffffff16021790555050565b611b3d83611c12565b600082511180611b4a5750805b15611b5b57611b598383611c61565b505b505050565b600033905090565b600060019054906101000a900460ff16611bb7576040517f08c379a0000000000000000000000000000000000000000000000000000000008152600401611bae90612bad565b60405180910390fd5b611bbf611c8e565b565b600060019054906101000a900460ff16611c10576040517f08c379a0000000000000000000000000000000000000000000000000000000008152600401611c0790612bad565b60405180910390fd5b565b611c1b81611a7b565b8073ffffffffffffffffffffffffffffffffffffffff167fbc7cd75a20ee27fd9adebab32041f755214dbc6bffa90cc0225b39da2e5c2d3b60405160405180910390a250565b6060611c868383604051806060016040528060278152602001612d2a60279139611cef565b905092915050565b600060019054906101000a900460ff16611cdd576040517f08c379a0000000000000000000000000000000000000000000000000000000008152600401611cd490612bad565b60405180910390fd5b611ced611ce8611b60565b61191d565b565b60606000808573ffffffffffffffffffffffffffffffffffffffff1685604051611d199190612ca6565b600060405180830381855af49150503d8060008114611d54576040519150601f19603f3d011682016040523d82523d6000602084013e611d59565b606091505b5091509150611d6a86838387611d75565b925050509392505050565b60608315611dd7576000835103611dcf57611d8f856119e3565b611dce576040517f08c379a0000000000000000000000000000000000000000000000000000000008152600401611dc590612d09565b60405180910390fd5b5b829050611de2565b611de18383611dea565b5b949350505050565b600082511115611dfd5781518083602001fd5b806040517f08c379a0000000000000000000000000000000000000000000000000000000008152600401611e31919061203c565b60405180910390fd5b6000604051905090565b600080fd5b600080fd5b600073ffffffffffffffffffffffffffffffffffffffff82169050919050565b6000611e7982611e4e565b9050919050565b611e8981611e6e565b8114611e9457600080fd5b50565b600081359050611ea681611e80565b92915050565b6000819050919050565b611ebf81611eac565b8114611eca57600080fd5b50565b600081359050611edc81611eb6565b92915050565b60008060008060808587031215611efc57611efb611e44565b5b6000611f0a87828801611e97565b9450506020611f1b87828801611e97565b9350506040611f2c87828801611ecd565b9250506060611f3d87828801611e97565b91505092959194509250565b60008115159050919050565b611f5e81611f49565b82525050565b6000602082019050611f796000830184611f55565b92915050565b600060208284031215611f9557611f94611e44565b5b6000611fa384828501611e97565b91505092915050565b600081519050919050565b600082825260208201905092915050565b60005b83811015611fe6578082015181840152602081019050611fcb565b60008484015250505050565b6000601f19601f8301169050919050565b600061200e82611fac565b6120188185611fb7565b9350612028818560208601611fc8565b61203181611ff2565b840191505092915050565b600060208201905081810360008301526120568184612003565b905092915050565b60008060006060848603121561207757612076611e44565b5b600061208586828701611e97565b935050602061209686828701611e97565b92505060406120a786828701611ecd565b9150509250925092565b600080604083850312156120c8576120c7611e44565b5b60006120d685828601611e97565b92505060206120e785828601611ecd565b9150509250929050565b6120fa81611eac565b82525050565b600060208201905061211560008301846120f1565b92915050565b600080fd5b600080fd5b7f4e487b7100000000000000000000000000000000000000000000000000000000600052604160045260246000fd5b61215d82611ff2565b810181811067ffffffffffffffff8211171561217c5761217b612125565b5b80604052505050565b600061218f611e3a565b905061219b8282612154565b919050565b600067ffffffffffffffff8211156121bb576121ba612125565b5b6121c482611ff2565b9050602081019050919050565b82818337600083830152505050565b60006121f36121ee846121a0565b612185565b90508281526020810184848401111561220f5761220e612120565b5b61221a8482856121d1565b509392505050565b600082601f8301126122375761223661211b565b5b81356122478482602086016121e0565b91505092915050565b6000806040838503121561226757612266611e44565b5b600061227585828601611e97565b925050602083013567ffffffffffffffff81111561229657612295611e49565b5b6122a285828601612222565b9150509250929050565b6000819050919050565b6122bf816122ac565b82525050565b60006020820190506122da60008301846122b6565b92915050565b6122e981611e6e565b82525050565b600060208201905061230460008301846122e0565b92915050565b6000602082840312156123205761231f611e44565b5b600061232e84828501611ecd565b91505092915050565b7f4e487b7100000000000000000000000000000000000000000000000000000000600052601160045260246000fd5b600061237182611eac565b915061237c83611eac565b925082820190508082111561239457612393612337565b5b92915050565b7f6f6e6c7920626f756e6420636f6d706c69616e63652063616e2063616c6c0000600082015250565b60006123d0601e83611fb7565b91506123db8261239a565b602082019050919050565b600060208201905081810360008301526123ff816123c3565b9050919050565b7f696e76616c696420617267756d656e74202d207a65726f206164647265737300600082015250565b600061243c601f83611fb7565b915061244782612406565b602082019050919050565b6000602082019050818103600083015261246b8161242f565b9050919050565b7f6f6e6c7920636f6d706c69616e636520636f6e74726163742063616e2063616c60008201527f6c00000000000000000000000000000000000000000000000000000000000000602082015250565b60006124ce602183611fb7565b91506124d982612472565b604082019050919050565b600060208201905081810360008301526124fd816124c1565b9050919050565b7f46756e6374696f6e206d7573742062652063616c6c6564207468726f7567682060008201527f64656c656761746563616c6c0000000000000000000000000000000000000000602082015250565b6000612560602c83611fb7565b915061256b82612504565b604082019050919050565b6000602082019050818103600083015261258f81612553565b9050919050565b7f46756e6374696f6e206d7573742062652063616c6c6564207468726f7567682060008201527f6163746976652070726f78790000000000000000000000000000000000000000602082015250565b60006125f2602c83611fb7565b91506125fd82612596565b604082019050919050565b60006020820190508181036000830152612621816125e5565b9050919050565b7f636f6d706c69616e636520616c726561647920626f756e640000000000000000600082015250565b600061265e601883611fb7565b915061266982612628565b602082019050919050565b6000602082019050818103600083015261268d81612651565b9050919050565b7f555550535570677261646561626c653a206d757374206e6f742062652063616c60008201527f6c6564207468726f7567682064656c656761746563616c6c0000000000000000602082015250565b60006126f0603883611fb7565b91506126fb82612694565b604082019050919050565b6000602082019050818103600083015261271f816126e3565b9050919050565b7f496e697469616c697a61626c653a20636f6e747261637420697320616c72656160008201527f647920696e697469616c697a6564000000000000000000000000000000000000602082015250565b6000612782602e83611fb7565b915061278d82612726565b604082019050919050565b600060208201905081810360008301526127b181612775565b9050919050565b6000819050919050565b600060ff82169050919050565b6000819050919050565b60006127f46127ef6127ea846127b8565b6127cf565b6127c2565b9050919050565b612804816127d9565b82525050565b600060208201905061281f60008301846127fb565b92915050565b7f4f776e61626c653a206e6577206f776e657220697320746865207a65726f206160008201527f6464726573730000000000000000000000000000000000000000000000000000602082015250565b6000612881602683611fb7565b915061288c82612825565b604082019050919050565b600060208201905081810360008301526128b081612874565b9050919050565b6000815190506128c681611e80565b92915050565b6000602082840312156128e2576128e1611e44565b5b60006128f0848285016128b7565b91505092915050565b61290281611f49565b811461290d57600080fd5b50565b60008151905061291f816128f9565b92915050565b60006020828403121561293b5761293a611e44565b5b600061294984828501612910565b91505092915050565b61295b816122ac565b811461296657600080fd5b50565b60008151905061297881612952565b92915050565b60006020828403121561299457612993611e44565b5b60006129a284828501612969565b91505092915050565b7f45524331393637557067726164653a206e657720696d706c656d656e7461746960008201527f6f6e206973206e6f742055555053000000000000000000000000000000000000602082015250565b6000612a07602e83611fb7565b9150612a12826129ab565b604082019050919050565b60006020820190508181036000830152612a36816129fa565b9050919050565b7f45524331393637557067726164653a20756e737570706f727465642070726f7860008201527f6961626c65555549440000000000000000000000000000000000000000000000602082015250565b6000612a99602983611fb7565b9150612aa482612a3d565b604082019050919050565b60006020820190508181036000830152612ac881612a8c565b9050919050565b7f4f776e61626c653a2063616c6c6572206973206e6f7420746865206f776e6572600082015250565b6000612b05602083611fb7565b9150612b1082612acf565b602082019050919050565b60006020820190508181036000830152612b3481612af8565b9050919050565b7f496e697469616c697a61626c653a20636f6e7472616374206973206e6f74206960008201527f6e697469616c697a696e67000000000000000000000000000000000000000000602082015250565b6000612b97602b83611fb7565b9150612ba282612b3b565b604082019050919050565b60006020820190508181036000830152612bc681612b8a565b9050919050565b7f455243313936373a206e657720696d706c656d656e746174696f6e206973206e60008201527f6f74206120636f6e747261637400000000000000000000000000000000000000602082015250565b6000612c29602d83611fb7565b9150612c3482612bcd565b604082019050919050565b60006020820190508181036000830152612c5881612c1c565b9050919050565b600081519050919050565b600081905092915050565b6000612c8082612c5f565b612c8a8185612c6a565b9350612c9a818560208601611fc8565b80840191505092915050565b6000612cb28284612c75565b915081905092915050565b7f416464726573733a2063616c6c20746f206e6f6e2d636f6e7472616374000000600082015250565b6000612cf3601d83611fb7565b9150612cfe82612cbd565b602082019050919050565b60006020820190508181036000830152612d2281612ce6565b905091905056fe416464726573733a206c6f772d6c6576656c2064656c65676174652063616c6c206661696c6564a26469706673582212208b6f853d620c6263299c87c0f61dd6ca9cd6d30b43e45bee453de0ab3dac29c164736f6c63430008110033","linkReferences":{}},"methodIdentifiers":{"LOCKUP_PERIOD()":"ec16d076","bindCompliance(address)":"4a932544","canComplianceBind(address)":"bcc21053","deploymentTimestamps(address)":"3a388464","initialize()":"8129fc1c","isComplianceBound(address)":"4cf4d295","isPlugAndPlay()":"e6f5e807","moduleBurnAction(address,uint256)":"372491a2","moduleCheck(address,address,uint256,address)":"013b7ce4","moduleMintAction(address,uint256)":"f104a8c9","moduleTransferAction(address,address,uint256)":"2cb7e1ec","name()":"06fdde03","owner()":"8da5cb5b","proxiableUUID()":"52d1902d","renounceOwnership()":"715018a6","setDeploymentTimestamp(uint256)":"ccb6eb0f","transferOwnership(address)":"f2fde38b","unbindCompliance(address)":"0694a5fb","upgradeTo(address)":"3659cfe6","upgradeToAndCall(address,bytes)":"4f1ef286"},"id":4}