{"abi":[{"type":"function","name":"addAgent","inputs":[{"name":"_agent","type":"address","internalType":"address"}],"outputs":[],"stateMutability":"nonpayable"},{"type":"function","name":"addTokenAgent","inputs":[{"name":"_agentAddress","type":"address","internalType":"address"}],"outputs":[],"stateMutability":"nonpayable"},{"type":"function","name":"approveAndTransfer","inputs":[{"name":"_from","type":"address","internalType":"address"},{"name":"_to","type":"address","internalType":"address"},{"name":"_amount","type":"uint256","internalType":"uint256"}],"outputs":[],"stateMutability":"nonpayable"},{"type":"function","name":"approveTransfer","inputs":[{"name":"_from","type":"address","internalType":"address"},{"name":"_to","type":"address","internalType":"address"},{"name":"_amount","type":"uint256","internalType":"uint256"}],"outputs":[],"stateMutability":"nonpayable"},{"type":"function","name":"bindToken","inputs":[{"name":"_token","type":"address","internalType":"address"}],"outputs":[],"stateMutability":"nonpayable"},{"type":"function","name":"canTransfer","inputs":[{"name":"_from","type":"address","internalType":"address"},{"name":"_to","type":"address","internalType":"address"},{"name":"_value","type":"uint256","internalType":"uint256"}],"outputs":[{"name":"","type":"bool","internalType":"bool"}],"stateMutability":"view"},{"type":"function","name":"complianceCheckOnApproveTransfer","inputs":[{"name":"_from","type":"address","internalType":"address"},{"name":"_to","type":"address","internalType":"address"},{"name":"_value","type":"uint256","internalType":"uint256"}],"outputs":[{"name":"","type":"bool","internalType":"bool"}],"stateMutability":"view"},{"type":"function","name":"created","inputs":[{"name":"_to","type":"address","internalType":"address"},{"name":"_value","type":"uint256","internalType":"uint256"}],"outputs":[],"stateMutability":"nonpayable"},{"type":"function","name":"destroyed","inputs":[{"name":"_from","type":"address","internalType":"address"},{"name":"_value","type":"uint256","internalType":"uint256"}],"outputs":[],"stateMutability":"nonpayable"},{"type":"function","name":"isAgent","inputs":[{"name":"_agent","type":"address","internalType":"address"}],"outputs":[{"name":"","type":"bool","internalType":"bool"}],"stateMutability":"view"},{"type":"function","name":"isTokenAgent","inputs":[{"name":"_agentAddress","type":"address","internalType":"address"}],"outputs":[{"name":"","type":"bool","internalType":"bool"}],"stateMutability":"view"},{"type":"function","name":"isTokenBound","inputs":[{"name":"_token","type":"address","internalType":"address"}],"outputs":[{"name":"","type":"bool","internalType":"bool"}],"stateMutability":"view"},{"type":"function","name":"owner","inputs":[],"outputs":[{"name":"","type":"address","internalType":"address"}],"stateMutability":"view"},{"type":"function","name":"removeAgent","inputs":[{"name":"_agent","type":"address","internalType":"address"}],"outputs":[],"stateMutability":"nonpayable"},{"type":"function","name":"removeApproval","inputs":[{"name":"_from","type":"address","internalType":"address"},{"name":"_to","type":"address","internalType":"address"},{"name":"_amount","type":"uint256","internalType":"uint256"}],"outputs":[],"stateMutability":"nonpayable"},{"type":"function","name":"removeTokenAgent","inputs":[{"name":"_agentAddress","type":"address","internalType":"address"}],"outputs":[],"stateMutability":"nonpayable"},{"type":"function","name":"renounceOwnership","inputs":[],"outputs":[],"stateMutability":"nonpayable"},{"type":"function","name":"tokenBound","inputs":[],"outputs":[{"name":"","type":"address","internalType":"contract IToken"}],"stateMutability":"view"},{"type":"function","name":"transferOwnership","inputs":[{"name":"newOwner","type":"address","internalType":"address"}],"outputs":[],"stateMutability":"nonpayable"},{"type":"function","name":"transferred","inputs":[{"name":"_from","type":"address","internalType":"address"},{"name":"_to","type":"address","internalType":"address"},{"name":"_value","type":"uint256","internalType":"uint256"}],"outputs":[],"stateMutability":"nonpayable"},{"type":"function","name":"unbindToken","inputs":[{"name":"_token","type":"address","internalType":"address"}],"outputs":[],"stateMutability":"nonpayable"},{"type":"event","name":"AgentAdded","inputs":[{"name":"_agent","type":"address","indexed":true,"internalType":"address"}],"anonymous":false},{"type":"event","name":"AgentRemoved","inputs":[{"name":"_agent","type":"address","indexed":true,"internalType":"address"}],"anonymous":false},{"type":"event","name":"ApprovalRemoved","inputs":[{"name":"_from","type":"address","indexed":false,"internalType":"address"},{"name":"_to","type":"address","indexed":false,"internalType":"address"},{"name":"_amount","type":"uint256","indexed":false,"internalType":"uint256"},{"name":"_token","type":"address","indexed":false,"internalType":"address"}],"anonymous":false},{"type":"event","name":"OwnershipTransferred","inputs":[{"name":"previousOwner","type":"address","indexed":true,"internalType":"address"},{"name":"newOwner","type":"address","indexed":true,"internalType":"address"}],"anonymous":false},{"type":"event","name":"TokenAgentAdded","inputs":[{"name":"_agentAddress","type":"address","indexed":false,"internalType":"address"}],"anonymous":false},{"type":"event","name":"TokenAgentRemoved","inputs":[{"name":"_agentAddress","type":"address","indexed":false,"internalType":"address"}],"anonymous":false},{"type":"event","name":"TokenBound","inputs":[{"name":"_token","type":"address","indexed":false,"internalType":"address"}],"anonymous":false},{"type":"event","name":"TokenUnbound","inputs":[{"name":"_token","type":"address","indexed":false,"internalType":"address"}],"anonymous":false},{"type":"event","name":"TransferApproved","inputs":[{"name":"_from","type":"address","indexed":false,"internalType":"address"},{"name":"_to","type":"address","indexed":false,"internalType":"address"},{"name":"_amount","type":"uint256","indexed":false,"internalType":"uint256"},{"name":"_token","type":"address","indexed":false,"internalType":"address"}],"anonymous":false}],"bytecode":{"object":"0x608060405234801561001057600080fd5b5061002d61002261003260201b60201c565b61003a60201b60201c565b6100fe565b600033905090565b60008060009054906101000a900473ffffffffffffffffffffffffffffffffffffffff169050816000806101000a81548173ffffffffffffffffffffffffffffffffffffffff021916908373ffffffffffffffffffffffffffffffffffffffff1602179055508173ffffffffffffffffffffffffffffffffffffffff168173ffffffffffffffffffffffffffffffffffffffff167f8be0079c531659141344cd1fd0a4f28419497f9722a3daafe3b4186f6b6457e060405160405180910390a35050565b61230a806200010e6000396000f3fe608060405234801561001057600080fd5b50600436106101375760003560e01c806384e79842116100b857806397a6278e1161007c57806397a6278e1461030e578063993e8b951461032a578063cdde29321461035a578063e46638e614610376578063f2fde38b146103a6578063ff3e6954146103c257610137565b806384e798421461027e5780638baf29b41461029a5780638d2ea772146102b65780638da5cb5b146102d257806393e62f07146102f057610137565b806340db3b50116100ff57806340db3b50146101f057806356db90961461020c5780635f8dead31461023c578063715018a614610258578063825808051461026257610137565b80630e20cc851461013c5780631ffbb064146101585780632ca9ea4314610188578063346531fa146101a45780633ff5aa02146101d4575b600080fd5b61015660048036038101906101519190611979565b6103de565b005b610172600480360381019061016d91906119cc565b610491565b60405161017f9190611a14565b60405180910390f35b6101a2600480360381019061019d9190611979565b6104ae565b005b6101be60048036038101906101b991906119cc565b6106e9565b6040516101cb9190611a14565b60405180910390f35b6101ee60048036038101906101e991906119cc565b6107f6565b005b61020a600480360381019061020591906119cc565b610976565b005b61022660048036038101906102219190611979565b610b10565b6040516102339190611a14565b60405180910390f35b61025660048036038101906102519190611a2f565b610b8e565b005b610260610be3565b005b61027c60048036038101906102779190611979565b610bf7565b005b610298600480360381019061029391906119cc565b610e33565b005b6102b460048036038101906102af9190611979565b610f04565b005b6102d060048036038101906102cb9190611a2f565b610f5b565b005b6102da610fb0565b6040516102e79190611a7e565b60405180910390f35b6102f8610fd9565b6040516103059190611af8565b60405180910390f35b610328600480360381019061032391906119cc565b610fff565b005b610344600480360381019061033f91906119cc565b6110d0565b6040516103519190611a14565b60405180910390f35b610374600480360381019061036f91906119cc565b61113a565b005b610390600480360381019061038b9190611979565b611260565b60405161039d9190611a14565b60405180910390f35b6103c060048036038101906103bb91906119cc565b611286565b005b6103dc60048036038101906103d791906119cc565b611309565b005b6103e9838383610bf7565b600360009054906101000a900473ffffffffffffffffffffffffffffffffffffffff1673ffffffffffffffffffffffffffffffffffffffff166323b872dd8484846040518463ffffffff1660e01b815260040161044893929190611b22565b6020604051808303816000875af1158015610467573d6000803e3d6000fd5b505050506040513d601f19601f8201168201806040525081019061048b9190611b85565b50505050565b60006104a782600161143090919063ffffffff16565b9050919050565b3373ffffffffffffffffffffffffffffffffffffffff166104cd610fb0565b73ffffffffffffffffffffffffffffffffffffffff1614806105875750600360009054906101000a900473ffffffffffffffffffffffffffffffffffffffff1673ffffffffffffffffffffffffffffffffffffffff16631ffbb064336040518263ffffffff1660e01b81526004016105459190611a7e565b602060405180830381865afa158015610562573d6000803e3d6000fd5b505050506040513d601f19601f820116820180604052508101906105869190611b85565b5b6105c6576040517f08c379a00000000000000000000000000000000000000000000000000000000081526004016105bd90611c35565b60405180910390fd5b60006105f6848484600360009054906101000a900473ffffffffffffffffffffffffffffffffffffffff166114f7565b90506004600082815260200190815260200160002060009054906101000a900460ff16610658576040517f08c379a000000000000000000000000000000000000000000000000000000000815260040161064f90611ca1565b60405180910390fd5b60006004600083815260200190815260200160002060006101000a81548160ff0219169083151502179055507f611476e33c1d844d9fa71ba7de6e7130e18b22971d28580fd76321e4af696356848484600360009054906101000a900473ffffffffffffffffffffffffffffffffffffffff166040516106db9493929190611cc1565b60405180910390a150505050565b6000600260008373ffffffffffffffffffffffffffffffffffffffff1673ffffffffffffffffffffffffffffffffffffffff16815260200190815260200160002060009054906101000a900460ff161580156107de5750600360009054906101000a900473ffffffffffffffffffffffffffffffffffffffff1673ffffffffffffffffffffffffffffffffffffffff16631ffbb064836040518263ffffffff1660e01b815260040161079b9190611a7e565b602060405180830381865afa1580156107b8573d6000803e3d6000fd5b505050506040513d601f19601f820116820180604052508101906107dc9190611b85565b155b156107ec57600090506107f1565b600190505b919050565b3373ffffffffffffffffffffffffffffffffffffffff16610815610fb0565b73ffffffffffffffffffffffffffffffffffffffff1614806108bc5750600073ffffffffffffffffffffffffffffffffffffffff16600360009054906101000a900473ffffffffffffffffffffffffffffffffffffffff1673ffffffffffffffffffffffffffffffffffffffff161480156108bb57508073ffffffffffffffffffffffffffffffffffffffff163373ffffffffffffffffffffffffffffffffffffffff16145b5b6108fb576040517f08c379a00000000000000000000000000000000000000000000000000000000081526004016108f290611d52565b60405180910390fd5b80600360006101000a81548173ffffffffffffffffffffffffffffffffffffffff021916908373ffffffffffffffffffffffffffffffffffffffff1602179055507f2de35142b19ed5a07796cf30791959c592018f70b1d2d7c460eef8ffe713692b8160405161096b9190611a7e565b60405180910390a150565b3373ffffffffffffffffffffffffffffffffffffffff16610995610fb0565b73ffffffffffffffffffffffffffffffffffffffff1614806109e257508073ffffffffffffffffffffffffffffffffffffffff163373ffffffffffffffffffffffffffffffffffffffff16145b610a21576040517f08c379a0000000000000000000000000000000000000000000000000000000008152600401610a1890611d52565b60405180910390fd5b600360009054906101000a900473ffffffffffffffffffffffffffffffffffffffff1673ffffffffffffffffffffffffffffffffffffffff168173ffffffffffffffffffffffffffffffffffffffff1614610ab1576040517f08c379a0000000000000000000000000000000000000000000000000000000008152600401610aa890611dbe565b60405180910390fd5b600360006101000a81549073ffffffffffffffffffffffffffffffffffffffff02191690557f28a4ca7134a3b3f9aff286e79ad3daadb4a06d1b43d037a3a98bdc074edd9b7a81604051610b059190611a7e565b60405180910390a150565b6000610b1b846106e9565b610b82576000610b4f858585600360009054906101000a900473ffffffffffffffffffffffffffffffffffffffff166114f7565b90506004600082815260200190815260200160002060009054906101000a900460ff16610b80576000915050610b87565b505b600190505b9392505050565b610b96611535565b610bd5576040517f08c379a0000000000000000000000000000000000000000000000000000000008152600401610bcc90611e76565b60405180910390fd5b610bdf8282611545565b5050565b610beb611549565b610bf560006115c7565b565b3373ffffffffffffffffffffffffffffffffffffffff16610c16610fb0565b73ffffffffffffffffffffffffffffffffffffffff161480610cd05750600360009054906101000a900473ffffffffffffffffffffffffffffffffffffffff1673ffffffffffffffffffffffffffffffffffffffff16631ffbb064336040518263ffffffff1660e01b8152600401610c8e9190611a7e565b602060405180830381865afa158015610cab573d6000803e3d6000fd5b505050506040513d601f19601f82011682018060405250810190610ccf9190611b85565b5b610d0f576040517f08c379a0000000000000000000000000000000000000000000000000000000008152600401610d0690611c35565b60405180910390fd5b6000610d3f848484600360009054906101000a900473ffffffffffffffffffffffffffffffffffffffff166114f7565b90506004600082815260200190815260200160002060009054906101000a900460ff1615610da2576040517f08c379a0000000000000000000000000000000000000000000000000000000008152600401610d9990611ee2565b60405180910390fd5b60016004600083815260200190815260200160002060006101000a81548160ff0219169083151502179055507f776c895685d60b5ac3aa2c3381ed2b021825c000fbb0d8ff1359636700aa1651848484600360009054906101000a900473ffffffffffffffffffffffffffffffffffffffff16604051610e259493929190611cc1565b60405180910390a150505050565b610e3b611549565b600073ffffffffffffffffffffffffffffffffffffffff168173ffffffffffffffffffffffffffffffffffffffff1603610eaa576040517f08c379a0000000000000000000000000000000000000000000000000000000008152600401610ea190611f4e565b60405180910390fd5b610ebe81600161168b90919063ffffffff16565b8073ffffffffffffffffffffffffffffffffffffffff167ff68e73cec97f2d70aa641fb26e87a4383686e2efacb648f2165aeb02ac562ec560405160405180910390a250565b610f0c611535565b610f4b576040517f08c379a0000000000000000000000000000000000000000000000000000000008152600401610f4290611e76565b60405180910390fd5b610f56838383611733565b505050565b610f63611535565b610fa2576040517f08c379a0000000000000000000000000000000000000000000000000000000008152600401610f9990611e76565b60405180910390fd5b610fac8282611743565b5050565b60008060009054906101000a900473ffffffffffffffffffffffffffffffffffffffff16905090565b600360009054906101000a900473ffffffffffffffffffffffffffffffffffffffff1681565b611007611549565b600073ffffffffffffffffffffffffffffffffffffffff168173ffffffffffffffffffffffffffffffffffffffff1603611076576040517f08c379a000000000000000000000000000000000000000000000000000000000815260040161106d90611f4e565b60405180910390fd5b61108a81600161174790919063ffffffff16565b8073ffffffffffffffffffffffffffffffffffffffff167fed9c8ad8d5a0a66898ea49d2956929c93ae2e8bd50281b2ed897c5d1a6737e0b60405160405180910390a250565b6000600360009054906101000a900473ffffffffffffffffffffffffffffffffffffffff1673ffffffffffffffffffffffffffffffffffffffff168273ffffffffffffffffffffffffffffffffffffffff16146111305760009050611135565b600190505b919050565b611142611549565b600260008273ffffffffffffffffffffffffffffffffffffffff1673ffffffffffffffffffffffffffffffffffffffff16815260200190815260200160002060009054906101000a900460ff166111ce576040517f08c379a00000000000000000000000000000000000000000000000000000000081526004016111c590611fba565b60405180910390fd5b6000600260008373ffffffffffffffffffffffffffffffffffffffff1673ffffffffffffffffffffffffffffffffffffffff16815260200190815260200160002060006101000a81548160ff0219169083151502179055507f6a659bb87bb23efbdc295f8eed8ae8c4379bfb77660ced2ef0f3d7d26b05c6a6816040516112559190611a7e565b60405180910390a150565b600061126d848484610b10565b61127a576000905061127f565b600190505b9392505050565b61128e611549565b600073ffffffffffffffffffffffffffffffffffffffff168173ffffffffffffffffffffffffffffffffffffffff16036112fd576040517f08c379a00000000000000000000000000000000000000000000000000000000081526004016112f49061204c565b60405180910390fd5b611306816115c7565b50565b611311611549565b600260008273ffffffffffffffffffffffffffffffffffffffff1673ffffffffffffffffffffffffffffffffffffffff16815260200190815260200160002060009054906101000a900460ff161561139e576040517f08c379a0000000000000000000000000000000000000000000000000000000008152600401611395906120b8565b60405180910390fd5b6001600260008373ffffffffffffffffffffffffffffffffffffffff1673ffffffffffffffffffffffffffffffffffffffff16815260200190815260200160002060006101000a81548160ff0219169083151502179055507fd62c45e13ac30396aceb3ad37c89bd1ba9048032fe61679000e92eb93dbfd67d816040516114259190611a7e565b60405180910390a150565b60008073ffffffffffffffffffffffffffffffffffffffff168273ffffffffffffffffffffffffffffffffffffffff16036114a0576040517f08c379a00000000000000000000000000000000000000000000000000000000081526004016114979061214a565b60405180910390fd5b8260000160008373ffffffffffffffffffffffffffffffffffffffff1673ffffffffffffffffffffffffffffffffffffffff16815260200190815260200160002060009054906101000a900460ff16905092915050565b600080858585856040516020016115119493929190611cc1565b60405160208183030381529060405280519060200120905080915050949350505050565b6000611540336110d0565b905090565b5050565b6115516117ee565b73ffffffffffffffffffffffffffffffffffffffff1661156f610fb0565b73ffffffffffffffffffffffffffffffffffffffff16146115c5576040517f08c379a00000000000000000000000000000000000000000000000000000000081526004016115bc906121b6565b60405180910390fd5b565b60008060009054906101000a900473ffffffffffffffffffffffffffffffffffffffff169050816000806101000a81548173ffffffffffffffffffffffffffffffffffffffff021916908373ffffffffffffffffffffffffffffffffffffffff1602179055508173ffffffffffffffffffffffffffffffffffffffff168173ffffffffffffffffffffffffffffffffffffffff167f8be0079c531659141344cd1fd0a4f28419497f9722a3daafe3b4186f6b6457e060405160405180910390a35050565b6116958282611430565b156116d5576040517f08c379a00000000000000000000000000000000000000000000000000000000081526004016116cc90612222565b60405180910390fd5b60018260000160008373ffffffffffffffffffffffffffffffffffffffff1673ffffffffffffffffffffffffffffffffffffffff16815260200190815260200160002060006101000a81548160ff0219169083151502179055505050565b61173e8383836117f6565b505050565b5050565b6117518282611430565b611790576040517f08c379a0000000000000000000000000000000000000000000000000000000008152600401611787906122b4565b60405180910390fd5b60008260000160008373ffffffffffffffffffffffffffffffffffffffff1673ffffffffffffffffffffffffffffffffffffffff16815260200190815260200160002060006101000a81548160ff0219169083151502179055505050565b600033905090565b6000611826848484600360009054906101000a900473ffffffffffffffffffffffffffffffffffffffff166114f7565b90506004600082815260200190815260200160002060009054906101000a900460ff16156118da5760006004600083815260200190815260200160002060006101000a81548160ff0219169083151502179055507f611476e33c1d844d9fa71ba7de6e7130e18b22971d28580fd76321e4af696356848484600360009054906101000a900473ffffffffffffffffffffffffffffffffffffffff166040516118d19493929190611cc1565b60405180910390a15b50505050565b600080fd5b600073ffffffffffffffffffffffffffffffffffffffff82169050919050565b6000611910826118e5565b9050919050565b61192081611905565b811461192b57600080fd5b50565b60008135905061193d81611917565b92915050565b6000819050919050565b61195681611943565b811461196157600080fd5b50565b6000813590506119738161194d565b92915050565b600080600060608486031215611992576119916118e0565b5b60006119a08682870161192e565b93505060206119b18682870161192e565b92505060406119c286828701611964565b9150509250925092565b6000602082840312156119e2576119e16118e0565b5b60006119f08482850161192e565b91505092915050565b60008115159050919050565b611a0e816119f9565b82525050565b6000602082019050611a296000830184611a05565b92915050565b60008060408385031215611a4657611a456118e0565b5b6000611a548582860161192e565b9250506020611a6585828601611964565b9150509250929050565b611a7881611905565b82525050565b6000602082019050611a936000830184611a6f565b92915050565b6000819050919050565b6000611abe611ab9611ab4846118e5565b611a99565b6118e5565b9050919050565b6000611ad082611aa3565b9050919050565b6000611ae282611ac5565b9050919050565b611af281611ad7565b82525050565b6000602082019050611b0d6000830184611ae9565b92915050565b611b1c81611943565b82525050565b6000606082019050611b376000830186611a6f565b611b446020830185611a6f565b611b516040830184611b13565b949350505050565b611b62816119f9565b8114611b6d57600080fd5b50565b600081519050611b7f81611b59565b92915050565b600060208284031215611b9b57611b9a6118e0565b5b6000611ba984828501611b70565b91505092915050565b600082825260208201905092915050565b7f63616e2062652063616c6c6564206f6e6c792062792041646d696e206164647260008201527f6573730000000000000000000000000000000000000000000000000000000000602082015250565b6000611c1f602383611bb2565b9150611c2a82611bc3565b604082019050919050565b60006020820190508181036000830152611c4e81611c12565b9050919050565b7f7472616e73666572206e6f7420617070726f7665642079657400000000000000600082015250565b6000611c8b601983611bb2565b9150611c9682611c55565b602082019050919050565b60006020820190508181036000830152611cba81611c7e565b9050919050565b6000608082019050611cd66000830187611a6f565b611ce36020830186611a6f565b611cf06040830185611b13565b611cfd6060830184611a6f565b95945050505050565b7f6f6e6c79206f776e6572206f7220746f6b656e2063616e2063616c6c00000000600082015250565b6000611d3c601c83611bb2565b9150611d4782611d06565b602082019050919050565b60006020820190508181036000830152611d6b81611d2f565b9050919050565b7f5468697320746f6b656e206973206e6f7420626f756e64000000000000000000600082015250565b6000611da8601783611bb2565b9150611db382611d72565b602082019050919050565b60006020820190508181036000830152611dd781611d9b565b9050919050565b7f6572726f72203a20746869732061646472657373206973206e6f74206120746f60008201527f6b656e20626f756e6420746f2074686520636f6d706c69616e636520636f6e7460208201527f7261637400000000000000000000000000000000000000000000000000000000604082015250565b6000611e60604483611bb2565b9150611e6b82611dde565b606082019050919050565b60006020820190508181036000830152611e8f81611e53565b9050919050565b7f7472616e7366657220616c726561647920617070726f76656400000000000000600082015250565b6000611ecc601983611bb2565b9150611ed782611e96565b602082019050919050565b60006020820190508181036000830152611efb81611ebf565b9050919050565b7f696e76616c696420617267756d656e74202d207a65726f206164647265737300600082015250565b6000611f38601f83611bb2565b9150611f4382611f02565b602082019050919050565b60006020820190508181036000830152611f6781611f2b565b9050919050565b7f54686973204167656e74206973206e6f74207265676973746572656420796574600082015250565b6000611fa4602083611bb2565b9150611faf82611f6e565b602082019050919050565b60006020820190508181036000830152611fd381611f97565b9050919050565b7f4f776e61626c653a206e6577206f776e657220697320746865207a65726f206160008201527f6464726573730000000000000000000000000000000000000000000000000000602082015250565b6000612036602683611bb2565b915061204182611fda565b604082019050919050565b6000602082019050818103600083015261206581612029565b9050919050565b7f54686973204167656e7420697320616c72656164792072656769737465726564600082015250565b60006120a2602083611bb2565b91506120ad8261206c565b602082019050919050565b600060208201905081810360008301526120d181612095565b9050919050565b7f526f6c65733a206163636f756e7420697320746865207a65726f20616464726560008201527f7373000000000000000000000000000000000000000000000000000000000000602082015250565b6000612134602283611bb2565b915061213f826120d8565b604082019050919050565b6000602082019050818103600083015261216381612127565b9050919050565b7f4f776e61626c653a2063616c6c6572206973206e6f7420746865206f776e6572600082015250565b60006121a0602083611bb2565b91506121ab8261216a565b602082019050919050565b600060208201905081810360008301526121cf81612193565b9050919050565b7f526f6c65733a206163636f756e7420616c72656164792068617320726f6c6500600082015250565b600061220c601f83611bb2565b9150612217826121d6565b602082019050919050565b6000602082019050818103600083015261223b816121ff565b9050919050565b7f526f6c65733a206163636f756e7420646f6573206e6f74206861766520726f6c60008201527f6500000000000000000000000000000000000000000000000000000000000000602082015250565b600061229e602183611bb2565b91506122a982612242565b604082019050919050565b600060208201905081810360008301526122cd81612291565b905091905056fea2646970667358221220fa042bf4d4a753a44781839d97f870c181b86f1de2a522bb624bfdccfa16d0a264736f6c63430008110033","linkReferences":{}},"methodIdentifiers":{"addAgent(address)":"84e79842","addTokenAgent(address)":"ff3e6954","approveAndTransfer(address,address,uint256)":"0e20cc85","approveTransfer(address,address,uint256)":"82580805","bindToken(address)":"3ff5aa02","canTransfer(address,address,uint256)":"e46638e6","complianceCheckOnApproveTransfer(address,address,uint256)":"56db9096","created(address,uint256)":"5f8dead3","destroyed(address,uint256)":"8d2ea772","isAgent(address)":"1ffbb064","isTokenAgent(address)":"346531fa","isTokenBound(address)":"993e8b95","owner()":"8da5cb5b","removeAgent(address)":"97a6278e","removeApproval(address,address,uint256)":"2ca9ea43","removeTokenAgent(address)":"cdde2932","renounceOwnership()":"715018a6","tokenBound()":"93e62f07","transferOwnership(address)":"f2fde38b","transferred(address,address,uint256)":"8baf29b4","unbindToken(address)":"40db3b50"},"id":17}