{"abi":[{"type":"constructor","inputs":[{"name":"_implementationAuthority","type":"address","internalType":"address"},{"name":"_identityRegistry","type":"address","internalType":"address"},{"name":"_compliance","type":"address","internalType":"address"},{"name":"_name","type":"string","internalType":"string"},{"name":"_symbol","type":"string","internalType":"string"},{"name":"_decimals","type":"uint8","internalType":"uint8"},{"name":"_onchainID","type":"address","internalType":"address"}],"stateMutability":"nonpayable"},{"type":"fallback","stateMutability":"payable"},{"type":"function","name":"implementationAuthority","inputs":[],"outputs":[{"name":"","type":"address","internalType":"address"}],"stateMutability":"view"}],"bytecode":{"object":"0x608060405234801561001057600080fd5b5060405161094538038061094583398181016040528101906100329190610462565b866000806101000a81548173ffffffffffffffffffffffffffffffffffffffff021916908373ffffffffffffffffffffffffffffffffffffffff16021790555060008060009054906101000a900473ffffffffffffffffffffffffffffffffffffffff1673ffffffffffffffffffffffffffffffffffffffff1663aaf10f426040518163ffffffff1660e01b8152600401602060405180830381865afa1580156100e0573d6000803e3d6000fd5b505050506040513d601f19601f82011682018060405250810190610104919061053c565b905060008173ffffffffffffffffffffffffffffffffffffffff1688888888888860405160240161013a969594939291906105dc565b6040516020818303038152906040527ff91b619c000000000000000000000000000000000000000000000000000000007bffffffffffffffffffffffffffffffffffffffffffffffffffffffff19166020820180517bffffffffffffffffffffffffffffffffffffffffffffffffffffffff83818316178352505050506040516101c49190610692565b600060405180830381855af49150503d80600081146101ff576040519150601f19603f3d011682016040523d82523d6000602084013e610204565b606091505b5050905080610248576040517f08c379a000000000000000000000000000000000000000000000000000000000815260040161023f906106f5565b60405180910390fd5b505050505050505050610715565b6000604051905090565b600080fd5b600080fd5b600073ffffffffffffffffffffffffffffffffffffffff82169050919050565b60006102958261026a565b9050919050565b6102a58161028a565b81146102b057600080fd5b50565b6000815190506102c28161029c565b92915050565b600080fd5b600080fd5b6000601f19601f8301169050919050565b7f4e487b7100000000000000000000000000000000000000000000000000000000600052604160045260246000fd5b61031b826102d2565b810181811067ffffffffffffffff8211171561033a576103396102e3565b5b80604052505050565b600061034d610256565b90506103598282610312565b919050565b600067ffffffffffffffff821115610379576103786102e3565b5b610382826102d2565b9050602081019050919050565b60005b838110156103ad578082015181840152602081019050610392565b60008484015250505050565b60006103cc6103c78461035e565b610343565b9050828152602081018484840111156103e8576103e76102cd565b5b6103f384828561038f565b509392505050565b600082601f8301126104105761040f6102c8565b5b81516104208482602086016103b9565b91505092915050565b600060ff82169050919050565b61043f81610429565b811461044a57600080fd5b50565b60008151905061045c81610436565b92915050565b600080600080600080600060e0888a03121561048157610480610260565b5b600061048f8a828b016102b3565b97505060206104a08a828b016102b3565b96505060406104b18a828b016102b3565b955050606088015167ffffffffffffffff8111156104d2576104d1610265565b5b6104de8a828b016103fb565b945050608088015167ffffffffffffffff8111156104ff576104fe610265565b5b61050b8a828b016103fb565b93505060a061051c8a828b0161044d565b92505060c061052d8a828b016102b3565b91505092959891949750929550565b60006020828403121561055257610551610260565b5b6000610560848285016102b3565b91505092915050565b6105728161028a565b82525050565b600081519050919050565b600082825260208201905092915050565b600061059f82610578565b6105a98185610583565b93506105b981856020860161038f565b6105c2816102d2565b840191505092915050565b6105d681610429565b82525050565b600060c0820190506105f16000830189610569565b6105fe6020830188610569565b81810360408301526106108187610594565b905081810360608301526106248186610594565b905061063360808301856105cd565b61064060a0830184610569565b979650505050505050565b600081519050919050565b600081905092915050565b600061066c8261064b565b6106768185610656565b935061068681856020860161038f565b80840191505092915050565b600061069e8284610661565b915081905092915050565b7f496e697469616c697a6174696f6e206661696c65642e00000000000000000000600082015250565b60006106df601683610583565b91506106ea826106a9565b602082019050919050565b6000602082019050818103600083015261070e816106d2565b9050919050565b610221806107246000396000f3fe6080604052600436106100225760003560e01c80632307f882146100e257610023565b5b60008060009054906101000a900473ffffffffffffffffffffffffffffffffffffffff1673ffffffffffffffffffffffffffffffffffffffff1663aaf10f426040518163ffffffff1660e01b8152600401602060405180830381865afa158015610091573d6000803e3d6000fd5b505050506040513d601f19601f820116820180604052508101906100b59190610194565b90503660008037600080366000846127105a03f43d806000803e81600081146100dd57816000f35b816000fd5b3480156100ee57600080fd5b506100f761010d565b60405161010491906101d0565b60405180910390f35b60008054906101000a900473ffffffffffffffffffffffffffffffffffffffff1681565b600080fd5b600073ffffffffffffffffffffffffffffffffffffffff82169050919050565b600061016182610136565b9050919050565b61017181610156565b811461017c57600080fd5b50565b60008151905061018e81610168565b92915050565b6000602082840312156101aa576101a9610131565b5b60006101b88482850161017f565b91505092915050565b6101ca81610156565b82525050565b60006020820190506101e560008301846101c1565b9291505056fea26469706673582212207ef276b6989273cfb2292d8582d2657d29d162afed0eea946885c1012f8b606564736f6c63430008110033","linkReferences":{}},"methodIdentifiers":{"implementationAuthority()":"2307f882"},"id":5}